{
	"FINAL_YEAR_PROJECT_WORK/TopicSubscriptionManager.sol": {
		"TopicSubscriptionManager": {
			"abi": [
				{
					"inputs": [],
					"stateMutability": "nonpayable",
					"type": "constructor"
				},
				{
					"inputs": [
						{
							"internalType": "address",
							"name": "owner",
							"type": "address"
						}
					],
					"name": "OwnableInvalidOwner",
					"type": "error"
				},
				{
					"inputs": [
						{
							"internalType": "address",
							"name": "account",
							"type": "address"
						}
					],
					"name": "OwnableUnauthorizedAccount",
					"type": "error"
				},
				{
					"anonymous": false,
					"inputs": [
						{
							"indexed": true,
							"internalType": "address",
							"name": "previousOwner",
							"type": "address"
						},
						{
							"indexed": true,
							"internalType": "address",
							"name": "newOwner",
							"type": "address"
						}
					],
					"name": "OwnershipTransferred",
					"type": "event"
				},
				{
					"anonymous": false,
					"inputs": [
						{
							"indexed": true,
							"internalType": "address",
							"name": "user",
							"type": "address"
						},
						{
							"indexed": false,
							"internalType": "string",
							"name": "topic",
							"type": "string"
						}
					],
					"name": "Subscribed",
					"type": "event"
				},
				{
					"anonymous": false,
					"inputs": [
						{
							"indexed": true,
							"internalType": "address",
							"name": "user",
							"type": "address"
						},
						{
							"indexed": false,
							"internalType": "string",
							"name": "topic",
							"type": "string"
						}
					],
					"name": "Unsubscribed",
					"type": "event"
				},
				{
					"inputs": [],
					"name": "MAX_TOPIC_LENGTH",
					"outputs": [
						{
							"internalType": "uint256",
							"name": "",
							"type": "uint256"
						}
					],
					"stateMutability": "view",
					"type": "function"
				},
				{
					"inputs": [],
					"name": "MIN_TOPIC_LENGTH",
					"outputs": [
						{
							"internalType": "uint256",
							"name": "",
							"type": "uint256"
						}
					],
					"stateMutability": "view",
					"type": "function"
				},
				{
					"inputs": [
						{
							"internalType": "address",
							"name": "_user",
							"type": "address"
						},
						{
							"internalType": "string",
							"name": "_topic",
							"type": "string"
						}
					],
					"name": "getSubscriptionStatus",
					"outputs": [
						{
							"internalType": "bool",
							"name": "",
							"type": "bool"
						}
					],
					"stateMutability": "view",
					"type": "function"
				},
				{
					"inputs": [
						{
							"internalType": "address",
							"name": "_user",
							"type": "address"
						},
						{
							"internalType": "string",
							"name": "_topic",
							"type": "string"
						}
					],
					"name": "isSubscribed",
					"outputs": [
						{
							"internalType": "bool",
							"name": "",
							"type": "bool"
						}
					],
					"stateMutability": "view",
					"type": "function"
				},
				{
					"inputs": [],
					"name": "owner",
					"outputs": [
						{
							"internalType": "address",
							"name": "",
							"type": "address"
						}
					],
					"stateMutability": "view",
					"type": "function"
				},
				{
					"inputs": [],
					"name": "renounceOwnership",
					"outputs": [],
					"stateMutability": "nonpayable",
					"type": "function"
				},
				{
					"inputs": [
						{
							"internalType": "string",
							"name": "_topic",
							"type": "string"
						}
					],
					"name": "subscribe",
					"outputs": [],
					"stateMutability": "nonpayable",
					"type": "function"
				},
				{
					"inputs": [
						{
							"internalType": "address",
							"name": "newOwner",
							"type": "address"
						}
					],
					"name": "transferOwnership",
					"outputs": [],
					"stateMutability": "nonpayable",
					"type": "function"
				},
				{
					"inputs": [
						{
							"internalType": "string",
							"name": "_topic",
							"type": "string"
						}
					],
					"name": "unsubscribe",
					"outputs": [],
					"stateMutability": "nonpayable",
					"type": "function"
				}
			],
			"devdoc": {
				"errors": {
					"OwnableInvalidOwner(address)": [
						{
							"details": "The owner is not a valid owner account. (eg. `address(0)`)"
						}
					],
					"OwnableUnauthorizedAccount(address)": [
						{
							"details": "The caller account is not authorized to perform an operation."
						}
					]
				},
				"kind": "dev",
				"methods": {
					"owner()": {
						"details": "Returns the address of the current owner."
					},
					"renounceOwnership()": {
						"details": "Leaves the contract without owner. It will not be possible to call `onlyOwner` functions. Can only be called by the current owner. NOTE: Renouncing ownership will leave the contract without an owner, thereby disabling any functionality that is only available to the owner."
					},
					"transferOwnership(address)": {
						"details": "Transfers ownership of the contract to a new account (`newOwner`). Can only be called by the current owner."
					}
				},
				"version": 1
			},
			"evm": {
				"assembly": "    /* \"FINAL_YEAR_PROJECT_WORK/TopicSubscriptionManager.sol\":112:2037  contract TopicSubscriptionManager is Ownable {... */\n  mstore(0x40, 0x80)\n    /* \"FINAL_YEAR_PROJECT_WORK/TopicSubscriptionManager.sol\":627:663  constructor() Ownable(msg.sender) {} */\n  callvalue\n  dup1\n  iszero\n  tag_1\n  jumpi\n  0x00\n  dup1\n  revert\ntag_1:\n  pop\n    /* \"FINAL_YEAR_PROJECT_WORK/TopicSubscriptionManager.sol\":649:659  msg.sender */\n  caller\n    /* \"@openzeppelin/contracts/access/Ownable.sol\":1297:1298  0 */\n  0x00\n    /* \"@openzeppelin/contracts/access/Ownable.sol\":1273:1299  initialOwner == address(0) */\n  0xffffffffffffffffffffffffffffffffffffffff\n  and\n    /* \"@openzeppelin/contracts/access/Ownable.sol\":1273:1285  initialOwner */\n  dup2\n    /* \"@openzeppelin/contracts/access/Ownable.sol\":1273:1299  initialOwner == address(0) */\n  0xffffffffffffffffffffffffffffffffffffffff\n  and\n  sub\n    /* \"@openzeppelin/contracts/access/Ownable.sol\":1269:1364  if (initialOwner == address(0)) {... */\n  tag_5\n  jumpi\n    /* \"@openzeppelin/contracts/access/Ownable.sol\":1350:1351  0 */\n  0x00\n    /* \"@openzeppelin/contracts/access/Ownable.sol\":1322:1353  OwnableInvalidOwner(address(0)) */\n  mload(0x40)\n  0x1e4fbdf700000000000000000000000000000000000000000000000000000000\n  dup2\n  mstore\n  0x04\n  add\n  tag_6\n  swap2\n  swap1\n  tag_7\n  jump\t// in\ntag_6:\n  mload(0x40)\n  dup1\n  swap2\n  sub\n  swap1\n  revert\n    /* \"@openzeppelin/contracts/access/Ownable.sol\":1269:1364  if (initialOwner == address(0)) {... */\ntag_5:\n    /* \"@openzeppelin/contracts/access/Ownable.sol\":1373:1405  _transferOwnership(initialOwner) */\n  tag_8\n    /* \"@openzeppelin/contracts/access/Ownable.sol\":1392:1404  initialOwner */\n  dup2\n    /* \"@openzeppelin/contracts/access/Ownable.sol\":1373:1391  _transferOwnership */\n  shl(0x20, tag_9)\n    /* \"@openzeppelin/contracts/access/Ownable.sol\":1373:1405  _transferOwnership(initialOwner) */\n  0x20\n  shr\n  jump\t// in\ntag_8:\n    /* \"@openzeppelin/contracts/access/Ownable.sol\":1225:1412  constructor(address initialOwner) {... */\n  pop\n    /* \"FINAL_YEAR_PROJECT_WORK/TopicSubscriptionManager.sol\":112:2037  contract TopicSubscriptionManager is Ownable {... */\n  jump(tag_11)\n    /* \"@openzeppelin/contracts/access/Ownable.sol\":2912:3099  function _transferOwnership(address newOwner) internal virtual {... */\ntag_9:\n    /* \"@openzeppelin/contracts/access/Ownable.sol\":2985:3001  address oldOwner */\n  0x00\n    /* \"@openzeppelin/contracts/access/Ownable.sol\":3004:3010  _owner */\n  dup1\n  0x00\n  swap1\n  sload\n  swap1\n  0x0100\n  exp\n  swap1\n  div\n  0xffffffffffffffffffffffffffffffffffffffff\n  and\n    /* \"@openzeppelin/contracts/access/Ownable.sol\":2985:3010  address oldOwner = _owner */\n  swap1\n  pop\n    /* \"@openzeppelin/contracts/access/Ownable.sol\":3029:3037  newOwner */\n  dup2\n    /* \"@openzeppelin/contracts/access/Ownable.sol\":3020:3026  _owner */\n  0x00\n  dup1\n    /* \"@openzeppelin/contracts/access/Ownable.sol\":3020:3037  _owner = newOwner */\n  0x0100\n  exp\n  dup2\n  sload\n  dup2\n  0xffffffffffffffffffffffffffffffffffffffff\n  mul\n  not\n  and\n  swap1\n  dup4\n  0xffffffffffffffffffffffffffffffffffffffff\n  and\n  mul\n  or\n  swap1\n  sstore\n  pop\n    /* \"@openzeppelin/contracts/access/Ownable.sol\":3083:3091  newOwner */\n  dup2\n    /* \"@openzeppelin/contracts/access/Ownable.sol\":3052:3092  OwnershipTransferred(oldOwner, newOwner) */\n  0xffffffffffffffffffffffffffffffffffffffff\n  and\n    /* \"@openzeppelin/contracts/access/Ownable.sol\":3073:3081  oldOwner */\n  dup2\n    /* \"@openzeppelin/contracts/access/Ownable.sol\":3052:3092  OwnershipTransferred(oldOwner, newOwner) */\n  0xffffffffffffffffffffffffffffffffffffffff\n  and\n  0x8be0079c531659141344cd1fd0a4f28419497f9722a3daafe3b4186f6b6457e0\n  mload(0x40)\n  mload(0x40)\n  dup1\n  swap2\n  sub\n  swap1\n  log3\n    /* \"@openzeppelin/contracts/access/Ownable.sol\":2975:3099  {... */\n  pop\n    /* \"@openzeppelin/contracts/access/Ownable.sol\":2912:3099  function _transferOwnership(address newOwner) internal virtual {... */\n  pop\n  jump\t// out\n    /* \"#utility.yul\":7:133   */\ntag_13:\n    /* \"#utility.yul\":44:51   */\n  0x00\n    /* \"#utility.yul\":84:126   */\n  0xffffffffffffffffffffffffffffffffffffffff\n    /* \"#utility.yul\":77:82   */\n  dup3\n    /* \"#utility.yul\":73:127   */\n  and\n    /* \"#utility.yul\":62:127   */\n  swap1\n  pop\n    /* \"#utility.yul\":7:133   */\n  swap2\n  swap1\n  pop\n  jump\t// out\n    /* \"#utility.yul\":139:235   */\ntag_14:\n    /* \"#utility.yul\":176:183   */\n  0x00\n    /* \"#utility.yul\":205:229   */\n  tag_19\n    /* \"#utility.yul\":223:228   */\n  dup3\n    /* \"#utility.yul\":205:229   */\n  tag_13\n  jump\t// in\ntag_19:\n    /* \"#utility.yul\":194:229   */\n  swap1\n  pop\n    /* \"#utility.yul\":139:235   */\n  swap2\n  swap1\n  pop\n  jump\t// out\n    /* \"#utility.yul\":241:359   */\ntag_15:\n    /* \"#utility.yul\":328:352   */\n  tag_21\n    /* \"#utility.yul\":346:351   */\n  dup2\n    /* \"#utility.yul\":328:352   */\n  tag_14\n  jump\t// in\ntag_21:\n    /* \"#utility.yul\":323:326   */\n  dup3\n    /* \"#utility.yul\":316:353   */\n  mstore\n    /* \"#utility.yul\":241:359   */\n  pop\n  pop\n  jump\t// out\n    /* \"#utility.yul\":365:587   */\ntag_7:\n    /* \"#utility.yul\":458:462   */\n  0x00\n    /* \"#utility.yul\":496:498   */\n  0x20\n    /* \"#utility.yul\":485:494   */\n  dup3\n    /* \"#utility.yul\":481:499   */\n  add\n    /* \"#utility.yul\":473:499   */\n  swap1\n  pop\n    /* \"#utility.yul\":509:580   */\n  tag_23\n    /* \"#utility.yul\":577:578   */\n  0x00\n    /* \"#utility.yul\":566:575   */\n  dup4\n    /* \"#utility.yul\":562:579   */\n  add\n    /* \"#utility.yul\":553:559   */\n  dup5\n    /* \"#utility.yul\":509:580   */\n  tag_15\n  jump\t// in\ntag_23:\n    /* \"#utility.yul\":365:587   */\n  swap3\n  swap2\n  pop\n  pop\n  jump\t// out\n    /* \"FINAL_YEAR_PROJECT_WORK/TopicSubscriptionManager.sol\":112:2037  contract TopicSubscriptionManager is Ownable {... */\ntag_11:\n  dataSize(sub_0)\n  dup1\n  dataOffset(sub_0)\n  0x00\n  codecopy\n  0x00\n  return\nstop\n\nsub_0: assembly {\n        /* \"FINAL_YEAR_PROJECT_WORK/TopicSubscriptionManager.sol\":112:2037  contract TopicSubscriptionManager is Ownable {... */\n      mstore(0x40, 0x80)\n      callvalue\n      dup1\n      iszero\n      tag_1\n      jumpi\n      0x00\n      dup1\n      revert\n    tag_1:\n      pop\n      jumpi(tag_2, lt(calldatasize, 0x04))\n      shr(0xe0, calldataload(0x00))\n      dup1\n      0x7a1a14f5\n      gt\n      tag_12\n      jumpi\n      dup1\n      0x7a1a14f5\n      eq\n      tag_7\n      jumpi\n      dup1\n      0x7db34df2\n      eq\n      tag_8\n      jumpi\n      dup1\n      0x8da5cb5b\n      eq\n      tag_9\n      jumpi\n      dup1\n      0xe97a3f43\n      eq\n      tag_10\n      jumpi\n      dup1\n      0xf2fde38b\n      eq\n      tag_11\n      jumpi\n      jump(tag_2)\n    tag_12:\n      dup1\n      0x13d1ab7e\n      eq\n      tag_3\n      jumpi\n      dup1\n      0x47cc5f9a\n      eq\n      tag_4\n      jumpi\n      dup1\n      0x507e7888\n      eq\n      tag_5\n      jumpi\n      dup1\n      0x715018a6\n      eq\n      tag_6\n      jumpi\n    tag_2:\n      0x00\n      dup1\n      revert\n        /* \"FINAL_YEAR_PROJECT_WORK/TopicSubscriptionManager.sol\":335:379  uint256 public constant MIN_TOPIC_LENGTH = 1 */\n    tag_3:\n      tag_13\n      tag_14\n      jump\t// in\n    tag_13:\n      mload(0x40)\n      tag_15\n      swap2\n      swap1\n      tag_16\n      jump\t// in\n    tag_15:\n      mload(0x40)\n      dup1\n      swap2\n      sub\n      swap1\n      return\n        /* \"FINAL_YEAR_PROJECT_WORK/TopicSubscriptionManager.sol\":1310:1578  function unsubscribe(string memory _topic) external validTopic(_topic) {... */\n    tag_4:\n      tag_17\n      0x04\n      dup1\n      calldatasize\n      sub\n      dup2\n      add\n      swap1\n      tag_18\n      swap2\n      swap1\n      tag_19\n      jump\t// in\n    tag_18:\n      tag_20\n      jump\t// in\n    tag_17:\n      stop\n        /* \"FINAL_YEAR_PROJECT_WORK/TopicSubscriptionManager.sol\":1012:1272  function subscribe(string memory _topic) external validTopic(_topic) {... */\n    tag_5:\n      tag_21\n      0x04\n      dup1\n      calldatasize\n      sub\n      dup2\n      add\n      swap1\n      tag_22\n      swap2\n      swap1\n      tag_19\n      jump\t// in\n    tag_22:\n      tag_23\n      jump\t// in\n    tag_21:\n      stop\n        /* \"@openzeppelin/contracts/access/Ownable.sol\":2293:2394  function renounceOwnership() public virtual onlyOwner {... */\n    tag_6:\n      tag_24\n      tag_25\n      jump\t// in\n    tag_24:\n      stop\n        /* \"FINAL_YEAR_PROJECT_WORK/TopicSubscriptionManager.sol\":1641:1800  function isSubscribed(address _user, string memory _topic) external view validTopic(_topic) returns (bool) {... */\n    tag_7:\n      tag_26\n      0x04\n      dup1\n      calldatasize\n      sub\n      dup2\n      add\n      swap1\n      tag_27\n      swap2\n      swap1\n      tag_28\n      jump\t// in\n    tag_27:\n      tag_29\n      jump\t// in\n    tag_26:\n      mload(0x40)\n      tag_30\n      swap2\n      swap1\n      tag_31\n      jump\t// in\n    tag_30:\n      mload(0x40)\n      dup1\n      swap2\n      sub\n      swap1\n      return\n        /* \"FINAL_YEAR_PROJECT_WORK/TopicSubscriptionManager.sol\":385:431  uint256 public constant MAX_TOPIC_LENGTH = 100 */\n    tag_8:\n      tag_32\n      tag_33\n      jump\t// in\n    tag_32:\n      mload(0x40)\n      tag_34\n      swap2\n      swap1\n      tag_16\n      jump\t// in\n    tag_34:\n      mload(0x40)\n      dup1\n      swap2\n      sub\n      swap1\n      return\n        /* \"@openzeppelin/contracts/access/Ownable.sol\":1638:1723  function owner() public view virtual returns (address) {... */\n    tag_9:\n      tag_35\n      tag_36\n      jump\t// in\n    tag_35:\n      mload(0x40)\n      tag_37\n      swap2\n      swap1\n      tag_38\n      jump\t// in\n    tag_37:\n      mload(0x40)\n      dup1\n      swap2\n      sub\n      swap1\n      return\n        /* \"FINAL_YEAR_PROJECT_WORK/TopicSubscriptionManager.sol\":1876:2035  function getSubscriptionStatus(address _user, string memory _topic) external view onlyOwner returns (bool) {... */\n    tag_10:\n      tag_39\n      0x04\n      dup1\n      calldatasize\n      sub\n      dup2\n      add\n      swap1\n      tag_40\n      swap2\n      swap1\n      tag_28\n      jump\t// in\n    tag_40:\n      tag_41\n      jump\t// in\n    tag_39:\n      mload(0x40)\n      tag_42\n      swap2\n      swap1\n      tag_31\n      jump\t// in\n    tag_42:\n      mload(0x40)\n      dup1\n      swap2\n      sub\n      swap1\n      return\n        /* \"@openzeppelin/contracts/access/Ownable.sol\":2543:2758  function transferOwnership(address newOwner) public virtual onlyOwner {... */\n    tag_11:\n      tag_43\n      0x04\n      dup1\n      calldatasize\n      sub\n      dup2\n      add\n      swap1\n      tag_44\n      swap2\n      swap1\n      tag_45\n      jump\t// in\n    tag_44:\n      tag_46\n      jump\t// in\n    tag_43:\n      stop\n        /* \"FINAL_YEAR_PROJECT_WORK/TopicSubscriptionManager.sol\":335:379  uint256 public constant MIN_TOPIC_LENGTH = 1 */\n    tag_14:\n        /* \"FINAL_YEAR_PROJECT_WORK/TopicSubscriptionManager.sol\":378:379  1 */\n      0x01\n        /* \"FINAL_YEAR_PROJECT_WORK/TopicSubscriptionManager.sol\":335:379  uint256 public constant MIN_TOPIC_LENGTH = 1 */\n      dup2\n      jump\t// out\n        /* \"FINAL_YEAR_PROJECT_WORK/TopicSubscriptionManager.sol\":1310:1578  function unsubscribe(string memory _topic) external validTopic(_topic) {... */\n    tag_20:\n        /* \"FINAL_YEAR_PROJECT_WORK/TopicSubscriptionManager.sol\":1373:1379  _topic */\n      dup1\n        /* \"FINAL_YEAR_PROJECT_WORK/TopicSubscriptionManager.sol\":761:784  bytes memory topicBytes */\n      0x00\n        /* \"FINAL_YEAR_PROJECT_WORK/TopicSubscriptionManager.sol\":793:799  _topic */\n      dup2\n        /* \"FINAL_YEAR_PROJECT_WORK/TopicSubscriptionManager.sol\":761:800  bytes memory topicBytes = bytes(_topic) */\n      swap1\n      pop\n        /* \"FINAL_YEAR_PROJECT_WORK/TopicSubscriptionManager.sol\":378:379  1 */\n      0x01\n        /* \"FINAL_YEAR_PROJECT_WORK/TopicSubscriptionManager.sol\":818:828  topicBytes */\n      dup2\n        /* \"FINAL_YEAR_PROJECT_WORK/TopicSubscriptionManager.sol\":818:835  topicBytes.length */\n      mload\n        /* \"FINAL_YEAR_PROJECT_WORK/TopicSubscriptionManager.sol\":818:855  topicBytes.length >= MIN_TOPIC_LENGTH */\n      lt\n      iszero\n        /* \"FINAL_YEAR_PROJECT_WORK/TopicSubscriptionManager.sol\":810:881  require(topicBytes.length >= MIN_TOPIC_LENGTH, \"Topic cannot be empty\") */\n      tag_48\n      jumpi\n      mload(0x40)\n      0x08c379a000000000000000000000000000000000000000000000000000000000\n      dup2\n      mstore\n      0x04\n      add\n      tag_49\n      swap1\n      tag_50\n      jump\t// in\n    tag_49:\n      mload(0x40)\n      dup1\n      swap2\n      sub\n      swap1\n      revert\n    tag_48:\n        /* \"FINAL_YEAR_PROJECT_WORK/TopicSubscriptionManager.sol\":428:431  100 */\n      0x64\n        /* \"FINAL_YEAR_PROJECT_WORK/TopicSubscriptionManager.sol\":899:909  topicBytes */\n      dup2\n        /* \"FINAL_YEAR_PROJECT_WORK/TopicSubscriptionManager.sol\":899:916  topicBytes.length */\n      mload\n        /* \"FINAL_YEAR_PROJECT_WORK/TopicSubscriptionManager.sol\":899:936  topicBytes.length <= MAX_TOPIC_LENGTH */\n      gt\n      iszero\n        /* \"FINAL_YEAR_PROJECT_WORK/TopicSubscriptionManager.sol\":891:960  require(topicBytes.length <= MAX_TOPIC_LENGTH, \"Topic name too long\") */\n      tag_51\n      jumpi\n      mload(0x40)\n      0x08c379a000000000000000000000000000000000000000000000000000000000\n      dup2\n      mstore\n      0x04\n      add\n      tag_52\n      swap1\n      tag_53\n      jump\t// in\n    tag_52:\n      mload(0x40)\n      dup1\n      swap2\n      sub\n      swap1\n      revert\n    tag_51:\n        /* \"FINAL_YEAR_PROJECT_WORK/TopicSubscriptionManager.sol\":1399:1412  subscriptions */\n      0x01\n        /* \"FINAL_YEAR_PROJECT_WORK/TopicSubscriptionManager.sol\":1399:1424  subscriptions[msg.sender] */\n      0x00\n        /* \"FINAL_YEAR_PROJECT_WORK/TopicSubscriptionManager.sol\":1413:1423  msg.sender */\n      caller\n        /* \"FINAL_YEAR_PROJECT_WORK/TopicSubscriptionManager.sol\":1399:1424  subscriptions[msg.sender] */\n      0xffffffffffffffffffffffffffffffffffffffff\n      and\n      0xffffffffffffffffffffffffffffffffffffffff\n      and\n      dup2\n      mstore\n      0x20\n      add\n      swap1\n      dup2\n      mstore\n      0x20\n      add\n      0x00\n      keccak256\n        /* \"FINAL_YEAR_PROJECT_WORK/TopicSubscriptionManager.sol\":1425:1431  _topic */\n      dup4\n        /* \"FINAL_YEAR_PROJECT_WORK/TopicSubscriptionManager.sol\":1399:1432  subscriptions[msg.sender][_topic] */\n      mload(0x40)\n      tag_55\n      swap2\n      swap1\n      tag_56\n      jump\t// in\n    tag_55:\n      swap1\n      dup2\n      mstore\n      0x20\n      add\n      mload(0x40)\n      dup1\n      swap2\n      sub\n      swap1\n      keccak256\n      0x00\n      swap1\n      sload\n      swap1\n      0x0100\n      exp\n      swap1\n      div\n      0xff\n      and\n        /* \"FINAL_YEAR_PROJECT_WORK/TopicSubscriptionManager.sol\":1391:1473  require(subscriptions[msg.sender][_topic], \"You are not subscribed to this topic\") */\n      tag_57\n      jumpi\n      mload(0x40)\n      0x08c379a000000000000000000000000000000000000000000000000000000000\n      dup2\n      mstore\n      0x04\n      add\n      tag_58\n      swap1\n      tag_59\n      jump\t// in\n    tag_58:\n      mload(0x40)\n      dup1\n      swap2\n      sub\n      swap1\n      revert\n    tag_57:\n        /* \"FINAL_YEAR_PROJECT_WORK/TopicSubscriptionManager.sol\":1519:1524  false */\n      0x00\n        /* \"FINAL_YEAR_PROJECT_WORK/TopicSubscriptionManager.sol\":1483:1496  subscriptions */\n      0x01\n        /* \"FINAL_YEAR_PROJECT_WORK/TopicSubscriptionManager.sol\":1483:1508  subscriptions[msg.sender] */\n      0x00\n        /* \"FINAL_YEAR_PROJECT_WORK/TopicSubscriptionManager.sol\":1497:1507  msg.sender */\n      caller\n        /* \"FINAL_YEAR_PROJECT_WORK/TopicSubscriptionManager.sol\":1483:1508  subscriptions[msg.sender] */\n      0xffffffffffffffffffffffffffffffffffffffff\n      and\n      0xffffffffffffffffffffffffffffffffffffffff\n      and\n      dup2\n      mstore\n      0x20\n      add\n      swap1\n      dup2\n      mstore\n      0x20\n      add\n      0x00\n      keccak256\n        /* \"FINAL_YEAR_PROJECT_WORK/TopicSubscriptionManager.sol\":1509:1515  _topic */\n      dup5\n        /* \"FINAL_YEAR_PROJECT_WORK/TopicSubscriptionManager.sol\":1483:1516  subscriptions[msg.sender][_topic] */\n      mload(0x40)\n      tag_60\n      swap2\n      swap1\n      tag_56\n      jump\t// in\n    tag_60:\n      swap1\n      dup2\n      mstore\n      0x20\n      add\n      mload(0x40)\n      dup1\n      swap2\n      sub\n      swap1\n      keccak256\n      0x00\n        /* \"FINAL_YEAR_PROJECT_WORK/TopicSubscriptionManager.sol\":1483:1524  subscriptions[msg.sender][_topic] = false */\n      0x0100\n      exp\n      dup2\n      sload\n      dup2\n      0xff\n      mul\n      not\n      and\n      swap1\n      dup4\n      iszero\n      iszero\n      mul\n      or\n      swap1\n      sstore\n      pop\n        /* \"FINAL_YEAR_PROJECT_WORK/TopicSubscriptionManager.sol\":1552:1562  msg.sender */\n      caller\n        /* \"FINAL_YEAR_PROJECT_WORK/TopicSubscriptionManager.sol\":1539:1571  Unsubscribed(msg.sender, _topic) */\n      0xffffffffffffffffffffffffffffffffffffffff\n      and\n      0xb808084c2f3fe56de9cba89da339ed7c671da54a42c645035e217cd4835e672f\n        /* \"FINAL_YEAR_PROJECT_WORK/TopicSubscriptionManager.sol\":1564:1570  _topic */\n      dup5\n        /* \"FINAL_YEAR_PROJECT_WORK/TopicSubscriptionManager.sol\":1539:1571  Unsubscribed(msg.sender, _topic) */\n      mload(0x40)\n      tag_61\n      swap2\n      swap1\n      tag_62\n      jump\t// in\n    tag_61:\n      mload(0x40)\n      dup1\n      swap2\n      sub\n      swap1\n      log2\n        /* \"FINAL_YEAR_PROJECT_WORK/TopicSubscriptionManager.sol\":751:978  {... */\n      pop\n        /* \"FINAL_YEAR_PROJECT_WORK/TopicSubscriptionManager.sol\":1310:1578  function unsubscribe(string memory _topic) external validTopic(_topic) {... */\n      pop\n      pop\n      jump\t// out\n        /* \"FINAL_YEAR_PROJECT_WORK/TopicSubscriptionManager.sol\":1012:1272  function subscribe(string memory _topic) external validTopic(_topic) {... */\n    tag_23:\n        /* \"FINAL_YEAR_PROJECT_WORK/TopicSubscriptionManager.sol\":1073:1079  _topic */\n      dup1\n        /* \"FINAL_YEAR_PROJECT_WORK/TopicSubscriptionManager.sol\":761:784  bytes memory topicBytes */\n      0x00\n        /* \"FINAL_YEAR_PROJECT_WORK/TopicSubscriptionManager.sol\":793:799  _topic */\n      dup2\n        /* \"FINAL_YEAR_PROJECT_WORK/TopicSubscriptionManager.sol\":761:800  bytes memory topicBytes = bytes(_topic) */\n      swap1\n      pop\n        /* \"FINAL_YEAR_PROJECT_WORK/TopicSubscriptionManager.sol\":378:379  1 */\n      0x01\n        /* \"FINAL_YEAR_PROJECT_WORK/TopicSubscriptionManager.sol\":818:828  topicBytes */\n      dup2\n        /* \"FINAL_YEAR_PROJECT_WORK/TopicSubscriptionManager.sol\":818:835  topicBytes.length */\n      mload\n        /* \"FINAL_YEAR_PROJECT_WORK/TopicSubscriptionManager.sol\":818:855  topicBytes.length >= MIN_TOPIC_LENGTH */\n      lt\n      iszero\n        /* \"FINAL_YEAR_PROJECT_WORK/TopicSubscriptionManager.sol\":810:881  require(topicBytes.length >= MIN_TOPIC_LENGTH, \"Topic cannot be empty\") */\n      tag_64\n      jumpi\n      mload(0x40)\n      0x08c379a000000000000000000000000000000000000000000000000000000000\n      dup2\n      mstore\n      0x04\n      add\n      tag_65\n      swap1\n      tag_50\n      jump\t// in\n    tag_65:\n      mload(0x40)\n      dup1\n      swap2\n      sub\n      swap1\n      revert\n    tag_64:\n        /* \"FINAL_YEAR_PROJECT_WORK/TopicSubscriptionManager.sol\":428:431  100 */\n      0x64\n        /* \"FINAL_YEAR_PROJECT_WORK/TopicSubscriptionManager.sol\":899:909  topicBytes */\n      dup2\n        /* \"FINAL_YEAR_PROJECT_WORK/TopicSubscriptionManager.sol\":899:916  topicBytes.length */\n      mload\n        /* \"FINAL_YEAR_PROJECT_WORK/TopicSubscriptionManager.sol\":899:936  topicBytes.length <= MAX_TOPIC_LENGTH */\n      gt\n      iszero\n        /* \"FINAL_YEAR_PROJECT_WORK/TopicSubscriptionManager.sol\":891:960  require(topicBytes.length <= MAX_TOPIC_LENGTH, \"Topic name too long\") */\n      tag_66\n      jumpi\n      mload(0x40)\n      0x08c379a000000000000000000000000000000000000000000000000000000000\n      dup2\n      mstore\n      0x04\n      add\n      tag_67\n      swap1\n      tag_53\n      jump\t// in\n    tag_67:\n      mload(0x40)\n      dup1\n      swap2\n      sub\n      swap1\n      revert\n    tag_66:\n        /* \"FINAL_YEAR_PROJECT_WORK/TopicSubscriptionManager.sol\":1100:1113  subscriptions */\n      0x01\n        /* \"FINAL_YEAR_PROJECT_WORK/TopicSubscriptionManager.sol\":1100:1125  subscriptions[msg.sender] */\n      0x00\n        /* \"FINAL_YEAR_PROJECT_WORK/TopicSubscriptionManager.sol\":1114:1124  msg.sender */\n      caller\n        /* \"FINAL_YEAR_PROJECT_WORK/TopicSubscriptionManager.sol\":1100:1125  subscriptions[msg.sender] */\n      0xffffffffffffffffffffffffffffffffffffffff\n      and\n      0xffffffffffffffffffffffffffffffffffffffff\n      and\n      dup2\n      mstore\n      0x20\n      add\n      swap1\n      dup2\n      mstore\n      0x20\n      add\n      0x00\n      keccak256\n        /* \"FINAL_YEAR_PROJECT_WORK/TopicSubscriptionManager.sol\":1126:1132  _topic */\n      dup4\n        /* \"FINAL_YEAR_PROJECT_WORK/TopicSubscriptionManager.sol\":1100:1133  subscriptions[msg.sender][_topic] */\n      mload(0x40)\n      tag_69\n      swap2\n      swap1\n      tag_56\n      jump\t// in\n    tag_69:\n      swap1\n      dup2\n      mstore\n      0x20\n      add\n      mload(0x40)\n      dup1\n      swap2\n      sub\n      swap1\n      keccak256\n      0x00\n      swap1\n      sload\n      swap1\n      0x0100\n      exp\n      swap1\n      div\n      0xff\n      and\n        /* \"FINAL_YEAR_PROJECT_WORK/TopicSubscriptionManager.sol\":1099:1133  !subscriptions[msg.sender][_topic] */\n      iszero\n        /* \"FINAL_YEAR_PROJECT_WORK/TopicSubscriptionManager.sol\":1091:1170  require(!subscriptions[msg.sender][_topic], \"Already subscribed to this topic\") */\n      tag_70\n      jumpi\n      mload(0x40)\n      0x08c379a000000000000000000000000000000000000000000000000000000000\n      dup2\n      mstore\n      0x04\n      add\n      tag_71\n      swap1\n      tag_72\n      jump\t// in\n    tag_71:\n      mload(0x40)\n      dup1\n      swap2\n      sub\n      swap1\n      revert\n    tag_70:\n        /* \"FINAL_YEAR_PROJECT_WORK/TopicSubscriptionManager.sol\":1216:1220  true */\n      0x01\n        /* \"FINAL_YEAR_PROJECT_WORK/TopicSubscriptionManager.sol\":1180:1193  subscriptions */\n      dup1\n        /* \"FINAL_YEAR_PROJECT_WORK/TopicSubscriptionManager.sol\":1180:1205  subscriptions[msg.sender] */\n      0x00\n        /* \"FINAL_YEAR_PROJECT_WORK/TopicSubscriptionManager.sol\":1194:1204  msg.sender */\n      caller\n        /* \"FINAL_YEAR_PROJECT_WORK/TopicSubscriptionManager.sol\":1180:1205  subscriptions[msg.sender] */\n      0xffffffffffffffffffffffffffffffffffffffff\n      and\n      0xffffffffffffffffffffffffffffffffffffffff\n      and\n      dup2\n      mstore\n      0x20\n      add\n      swap1\n      dup2\n      mstore\n      0x20\n      add\n      0x00\n      keccak256\n        /* \"FINAL_YEAR_PROJECT_WORK/TopicSubscriptionManager.sol\":1206:1212  _topic */\n      dup5\n        /* \"FINAL_YEAR_PROJECT_WORK/TopicSubscriptionManager.sol\":1180:1213  subscriptions[msg.sender][_topic] */\n      mload(0x40)\n      tag_73\n      swap2\n      swap1\n      tag_56\n      jump\t// in\n    tag_73:\n      swap1\n      dup2\n      mstore\n      0x20\n      add\n      mload(0x40)\n      dup1\n      swap2\n      sub\n      swap1\n      keccak256\n      0x00\n        /* \"FINAL_YEAR_PROJECT_WORK/TopicSubscriptionManager.sol\":1180:1220  subscriptions[msg.sender][_topic] = true */\n      0x0100\n      exp\n      dup2\n      sload\n      dup2\n      0xff\n      mul\n      not\n      and\n      swap1\n      dup4\n      iszero\n      iszero\n      mul\n      or\n      swap1\n      sstore\n      pop\n        /* \"FINAL_YEAR_PROJECT_WORK/TopicSubscriptionManager.sol\":1246:1256  msg.sender */\n      caller\n        /* \"FINAL_YEAR_PROJECT_WORK/TopicSubscriptionManager.sol\":1235:1265  Subscribed(msg.sender, _topic) */\n      0xffffffffffffffffffffffffffffffffffffffff\n      and\n      0x60a7fc7646aa81434ccc2528453f07ecb50a4db71ffad73c1f496302c0d6a6e1\n        /* \"FINAL_YEAR_PROJECT_WORK/TopicSubscriptionManager.sol\":1258:1264  _topic */\n      dup5\n        /* \"FINAL_YEAR_PROJECT_WORK/TopicSubscriptionManager.sol\":1235:1265  Subscribed(msg.sender, _topic) */\n      mload(0x40)\n      tag_74\n      swap2\n      swap1\n      tag_62\n      jump\t// in\n    tag_74:\n      mload(0x40)\n      dup1\n      swap2\n      sub\n      swap1\n      log2\n        /* \"FINAL_YEAR_PROJECT_WORK/TopicSubscriptionManager.sol\":751:978  {... */\n      pop\n        /* \"FINAL_YEAR_PROJECT_WORK/TopicSubscriptionManager.sol\":1012:1272  function subscribe(string memory _topic) external validTopic(_topic) {... */\n      pop\n      pop\n      jump\t// out\n        /* \"@openzeppelin/contracts/access/Ownable.sol\":2293:2394  function renounceOwnership() public virtual onlyOwner {... */\n    tag_25:\n        /* \"@openzeppelin/contracts/access/Ownable.sol\":1531:1544  _checkOwner() */\n      tag_76\n        /* \"@openzeppelin/contracts/access/Ownable.sol\":1531:1542  _checkOwner */\n      tag_77\n        /* \"@openzeppelin/contracts/access/Ownable.sol\":1531:1544  _checkOwner() */\n      jump\t// in\n    tag_76:\n        /* \"@openzeppelin/contracts/access/Ownable.sol\":2357:2387  _transferOwnership(address(0)) */\n      tag_79\n        /* \"@openzeppelin/contracts/access/Ownable.sol\":2384:2385  0 */\n      0x00\n        /* \"@openzeppelin/contracts/access/Ownable.sol\":2357:2375  _transferOwnership */\n      tag_80\n        /* \"@openzeppelin/contracts/access/Ownable.sol\":2357:2387  _transferOwnership(address(0)) */\n      jump\t// in\n    tag_79:\n        /* \"@openzeppelin/contracts/access/Ownable.sol\":2293:2394  function renounceOwnership() public virtual onlyOwner {... */\n      jump\t// out\n        /* \"FINAL_YEAR_PROJECT_WORK/TopicSubscriptionManager.sol\":1641:1800  function isSubscribed(address _user, string memory _topic) external view validTopic(_topic) returns (bool) {... */\n    tag_29:\n        /* \"FINAL_YEAR_PROJECT_WORK/TopicSubscriptionManager.sol\":1742:1746  bool */\n      0x00\n        /* \"FINAL_YEAR_PROJECT_WORK/TopicSubscriptionManager.sol\":1725:1731  _topic */\n      dup2\n        /* \"FINAL_YEAR_PROJECT_WORK/TopicSubscriptionManager.sol\":761:784  bytes memory topicBytes */\n      0x00\n        /* \"FINAL_YEAR_PROJECT_WORK/TopicSubscriptionManager.sol\":793:799  _topic */\n      dup2\n        /* \"FINAL_YEAR_PROJECT_WORK/TopicSubscriptionManager.sol\":761:800  bytes memory topicBytes = bytes(_topic) */\n      swap1\n      pop\n        /* \"FINAL_YEAR_PROJECT_WORK/TopicSubscriptionManager.sol\":378:379  1 */\n      0x01\n        /* \"FINAL_YEAR_PROJECT_WORK/TopicSubscriptionManager.sol\":818:828  topicBytes */\n      dup2\n        /* \"FINAL_YEAR_PROJECT_WORK/TopicSubscriptionManager.sol\":818:835  topicBytes.length */\n      mload\n        /* \"FINAL_YEAR_PROJECT_WORK/TopicSubscriptionManager.sol\":818:855  topicBytes.length >= MIN_TOPIC_LENGTH */\n      lt\n      iszero\n        /* \"FINAL_YEAR_PROJECT_WORK/TopicSubscriptionManager.sol\":810:881  require(topicBytes.length >= MIN_TOPIC_LENGTH, \"Topic cannot be empty\") */\n      tag_82\n      jumpi\n      mload(0x40)\n      0x08c379a000000000000000000000000000000000000000000000000000000000\n      dup2\n      mstore\n      0x04\n      add\n      tag_83\n      swap1\n      tag_50\n      jump\t// in\n    tag_83:\n      mload(0x40)\n      dup1\n      swap2\n      sub\n      swap1\n      revert\n    tag_82:\n        /* \"FINAL_YEAR_PROJECT_WORK/TopicSubscriptionManager.sol\":428:431  100 */\n      0x64\n        /* \"FINAL_YEAR_PROJECT_WORK/TopicSubscriptionManager.sol\":899:909  topicBytes */\n      dup2\n        /* \"FINAL_YEAR_PROJECT_WORK/TopicSubscriptionManager.sol\":899:916  topicBytes.length */\n      mload\n        /* \"FINAL_YEAR_PROJECT_WORK/TopicSubscriptionManager.sol\":899:936  topicBytes.length <= MAX_TOPIC_LENGTH */\n      gt\n      iszero\n        /* \"FINAL_YEAR_PROJECT_WORK/TopicSubscriptionManager.sol\":891:960  require(topicBytes.length <= MAX_TOPIC_LENGTH, \"Topic name too long\") */\n      tag_84\n      jumpi\n      mload(0x40)\n      0x08c379a000000000000000000000000000000000000000000000000000000000\n      dup2\n      mstore\n      0x04\n      add\n      tag_85\n      swap1\n      tag_53\n      jump\t// in\n    tag_85:\n      mload(0x40)\n      dup1\n      swap2\n      sub\n      swap1\n      revert\n    tag_84:\n        /* \"FINAL_YEAR_PROJECT_WORK/TopicSubscriptionManager.sol\":1765:1778  subscriptions */\n      0x01\n        /* \"FINAL_YEAR_PROJECT_WORK/TopicSubscriptionManager.sol\":1765:1785  subscriptions[_user] */\n      0x00\n        /* \"FINAL_YEAR_PROJECT_WORK/TopicSubscriptionManager.sol\":1779:1784  _user */\n      dup7\n        /* \"FINAL_YEAR_PROJECT_WORK/TopicSubscriptionManager.sol\":1765:1785  subscriptions[_user] */\n      0xffffffffffffffffffffffffffffffffffffffff\n      and\n      0xffffffffffffffffffffffffffffffffffffffff\n      and\n      dup2\n      mstore\n      0x20\n      add\n      swap1\n      dup2\n      mstore\n      0x20\n      add\n      0x00\n      keccak256\n        /* \"FINAL_YEAR_PROJECT_WORK/TopicSubscriptionManager.sol\":1786:1792  _topic */\n      dup5\n        /* \"FINAL_YEAR_PROJECT_WORK/TopicSubscriptionManager.sol\":1765:1793  subscriptions[_user][_topic] */\n      mload(0x40)\n      tag_87\n      swap2\n      swap1\n      tag_56\n      jump\t// in\n    tag_87:\n      swap1\n      dup2\n      mstore\n      0x20\n      add\n      mload(0x40)\n      dup1\n      swap2\n      sub\n      swap1\n      keccak256\n      0x00\n      swap1\n      sload\n      swap1\n      0x0100\n      exp\n      swap1\n      div\n      0xff\n      and\n        /* \"FINAL_YEAR_PROJECT_WORK/TopicSubscriptionManager.sol\":1758:1793  return subscriptions[_user][_topic] */\n      swap3\n      pop\n        /* \"FINAL_YEAR_PROJECT_WORK/TopicSubscriptionManager.sol\":751:978  {... */\n      pop\n        /* \"FINAL_YEAR_PROJECT_WORK/TopicSubscriptionManager.sol\":1641:1800  function isSubscribed(address _user, string memory _topic) external view validTopic(_topic) returns (bool) {... */\n      pop\n      swap3\n      swap2\n      pop\n      pop\n      jump\t// out\n        /* \"FINAL_YEAR_PROJECT_WORK/TopicSubscriptionManager.sol\":385:431  uint256 public constant MAX_TOPIC_LENGTH = 100 */\n    tag_33:\n        /* \"FINAL_YEAR_PROJECT_WORK/TopicSubscriptionManager.sol\":428:431  100 */\n      0x64\n        /* \"FINAL_YEAR_PROJECT_WORK/TopicSubscriptionManager.sol\":385:431  uint256 public constant MAX_TOPIC_LENGTH = 100 */\n      dup2\n      jump\t// out\n        /* \"@openzeppelin/contracts/access/Ownable.sol\":1638:1723  function owner() public view virtual returns (address) {... */\n    tag_36:\n        /* \"@openzeppelin/contracts/access/Ownable.sol\":1684:1691  address */\n      0x00\n        /* \"@openzeppelin/contracts/access/Ownable.sol\":1710:1716  _owner */\n      dup1\n      0x00\n      swap1\n      sload\n      swap1\n      0x0100\n      exp\n      swap1\n      div\n      0xffffffffffffffffffffffffffffffffffffffff\n      and\n        /* \"@openzeppelin/contracts/access/Ownable.sol\":1703:1716  return _owner */\n      swap1\n      pop\n        /* \"@openzeppelin/contracts/access/Ownable.sol\":1638:1723  function owner() public view virtual returns (address) {... */\n      swap1\n      jump\t// out\n        /* \"FINAL_YEAR_PROJECT_WORK/TopicSubscriptionManager.sol\":1876:2035  function getSubscriptionStatus(address _user, string memory _topic) external view onlyOwner returns (bool) {... */\n    tag_41:\n        /* \"FINAL_YEAR_PROJECT_WORK/TopicSubscriptionManager.sol\":1977:1981  bool */\n      0x00\n        /* \"@openzeppelin/contracts/access/Ownable.sol\":1531:1544  _checkOwner() */\n      tag_90\n        /* \"@openzeppelin/contracts/access/Ownable.sol\":1531:1542  _checkOwner */\n      tag_77\n        /* \"@openzeppelin/contracts/access/Ownable.sol\":1531:1544  _checkOwner() */\n      jump\t// in\n    tag_90:\n        /* \"FINAL_YEAR_PROJECT_WORK/TopicSubscriptionManager.sol\":2000:2013  subscriptions */\n      0x01\n        /* \"FINAL_YEAR_PROJECT_WORK/TopicSubscriptionManager.sol\":2000:2020  subscriptions[_user] */\n      0x00\n        /* \"FINAL_YEAR_PROJECT_WORK/TopicSubscriptionManager.sol\":2014:2019  _user */\n      dup5\n        /* \"FINAL_YEAR_PROJECT_WORK/TopicSubscriptionManager.sol\":2000:2020  subscriptions[_user] */\n      0xffffffffffffffffffffffffffffffffffffffff\n      and\n      0xffffffffffffffffffffffffffffffffffffffff\n      and\n      dup2\n      mstore\n      0x20\n      add\n      swap1\n      dup2\n      mstore\n      0x20\n      add\n      0x00\n      keccak256\n        /* \"FINAL_YEAR_PROJECT_WORK/TopicSubscriptionManager.sol\":2021:2027  _topic */\n      dup3\n        /* \"FINAL_YEAR_PROJECT_WORK/TopicSubscriptionManager.sol\":2000:2028  subscriptions[_user][_topic] */\n      mload(0x40)\n      tag_92\n      swap2\n      swap1\n      tag_56\n      jump\t// in\n    tag_92:\n      swap1\n      dup2\n      mstore\n      0x20\n      add\n      mload(0x40)\n      dup1\n      swap2\n      sub\n      swap1\n      keccak256\n      0x00\n      swap1\n      sload\n      swap1\n      0x0100\n      exp\n      swap1\n      div\n      0xff\n      and\n        /* \"FINAL_YEAR_PROJECT_WORK/TopicSubscriptionManager.sol\":1993:2028  return subscriptions[_user][_topic] */\n      swap1\n      pop\n        /* \"FINAL_YEAR_PROJECT_WORK/TopicSubscriptionManager.sol\":1876:2035  function getSubscriptionStatus(address _user, string memory _topic) external view onlyOwner returns (bool) {... */\n      swap3\n      swap2\n      pop\n      pop\n      jump\t// out\n        /* \"@openzeppelin/contracts/access/Ownable.sol\":2543:2758  function transferOwnership(address newOwner) public virtual onlyOwner {... */\n    tag_46:\n        /* \"@openzeppelin/contracts/access/Ownable.sol\":1531:1544  _checkOwner() */\n      tag_94\n        /* \"@openzeppelin/contracts/access/Ownable.sol\":1531:1542  _checkOwner */\n      tag_77\n        /* \"@openzeppelin/contracts/access/Ownable.sol\":1531:1544  _checkOwner() */\n      jump\t// in\n    tag_94:\n        /* \"@openzeppelin/contracts/access/Ownable.sol\":2647:2648  0 */\n      0x00\n        /* \"@openzeppelin/contracts/access/Ownable.sol\":2627:2649  newOwner == address(0) */\n      0xffffffffffffffffffffffffffffffffffffffff\n      and\n        /* \"@openzeppelin/contracts/access/Ownable.sol\":2627:2635  newOwner */\n      dup2\n        /* \"@openzeppelin/contracts/access/Ownable.sol\":2627:2649  newOwner == address(0) */\n      0xffffffffffffffffffffffffffffffffffffffff\n      and\n      sub\n        /* \"@openzeppelin/contracts/access/Ownable.sol\":2623:2714  if (newOwner == address(0)) {... */\n      tag_96\n      jumpi\n        /* \"@openzeppelin/contracts/access/Ownable.sol\":2700:2701  0 */\n      0x00\n        /* \"@openzeppelin/contracts/access/Ownable.sol\":2672:2703  OwnableInvalidOwner(address(0)) */\n      mload(0x40)\n      0x1e4fbdf700000000000000000000000000000000000000000000000000000000\n      dup2\n      mstore\n      0x04\n      add\n      tag_97\n      swap2\n      swap1\n      tag_38\n      jump\t// in\n    tag_97:\n      mload(0x40)\n      dup1\n      swap2\n      sub\n      swap1\n      revert\n        /* \"@openzeppelin/contracts/access/Ownable.sol\":2623:2714  if (newOwner == address(0)) {... */\n    tag_96:\n        /* \"@openzeppelin/contracts/access/Ownable.sol\":2723:2751  _transferOwnership(newOwner) */\n      tag_98\n        /* \"@openzeppelin/contracts/access/Ownable.sol\":2742:2750  newOwner */\n      dup2\n        /* \"@openzeppelin/contracts/access/Ownable.sol\":2723:2741  _transferOwnership */\n      tag_80\n        /* \"@openzeppelin/contracts/access/Ownable.sol\":2723:2751  _transferOwnership(newOwner) */\n      jump\t// in\n    tag_98:\n        /* \"@openzeppelin/contracts/access/Ownable.sol\":2543:2758  function transferOwnership(address newOwner) public virtual onlyOwner {... */\n      pop\n      jump\t// out\n        /* \"@openzeppelin/contracts/access/Ownable.sol\":1796:1958  function _checkOwner() internal view virtual {... */\n    tag_77:\n        /* \"@openzeppelin/contracts/access/Ownable.sol\":1866:1878  _msgSender() */\n      tag_100\n        /* \"@openzeppelin/contracts/access/Ownable.sol\":1866:1876  _msgSender */\n      tag_101\n        /* \"@openzeppelin/contracts/access/Ownable.sol\":1866:1878  _msgSender() */\n      jump\t// in\n    tag_100:\n        /* \"@openzeppelin/contracts/access/Ownable.sol\":1855:1878  owner() != _msgSender() */\n      0xffffffffffffffffffffffffffffffffffffffff\n      and\n        /* \"@openzeppelin/contracts/access/Ownable.sol\":1855:1862  owner() */\n      tag_102\n        /* \"@openzeppelin/contracts/access/Ownable.sol\":1855:1860  owner */\n      tag_36\n        /* \"@openzeppelin/contracts/access/Ownable.sol\":1855:1862  owner() */\n      jump\t// in\n    tag_102:\n        /* \"@openzeppelin/contracts/access/Ownable.sol\":1855:1878  owner() != _msgSender() */\n      0xffffffffffffffffffffffffffffffffffffffff\n      and\n      eq\n        /* \"@openzeppelin/contracts/access/Ownable.sol\":1851:1952  if (owner() != _msgSender()) {... */\n      tag_103\n      jumpi\n        /* \"@openzeppelin/contracts/access/Ownable.sol\":1928:1940  _msgSender() */\n      tag_104\n        /* \"@openzeppelin/contracts/access/Ownable.sol\":1928:1938  _msgSender */\n      tag_101\n        /* \"@openzeppelin/contracts/access/Ownable.sol\":1928:1940  _msgSender() */\n      jump\t// in\n    tag_104:\n        /* \"@openzeppelin/contracts/access/Ownable.sol\":1901:1941  OwnableUnauthorizedAccount(_msgSender()) */\n      mload(0x40)\n      0x118cdaa700000000000000000000000000000000000000000000000000000000\n      dup2\n      mstore\n      0x04\n      add\n      tag_105\n      swap2\n      swap1\n      tag_38\n      jump\t// in\n    tag_105:\n      mload(0x40)\n      dup1\n      swap2\n      sub\n      swap1\n      revert\n        /* \"@openzeppelin/contracts/access/Ownable.sol\":1851:1952  if (owner() != _msgSender()) {... */\n    tag_103:\n        /* \"@openzeppelin/contracts/access/Ownable.sol\":1796:1958  function _checkOwner() internal view virtual {... */\n      jump\t// out\n        /* \"@openzeppelin/contracts/access/Ownable.sol\":2912:3099  function _transferOwnership(address newOwner) internal virtual {... */\n    tag_80:\n        /* \"@openzeppelin/contracts/access/Ownable.sol\":2985:3001  address oldOwner */\n      0x00\n        /* \"@openzeppelin/contracts/access/Ownable.sol\":3004:3010  _owner */\n      dup1\n      0x00\n      swap1\n      sload\n      swap1\n      0x0100\n      exp\n      swap1\n      div\n      0xffffffffffffffffffffffffffffffffffffffff\n      and\n        /* \"@openzeppelin/contracts/access/Ownable.sol\":2985:3010  address oldOwner = _owner */\n      swap1\n      pop\n        /* \"@openzeppelin/contracts/access/Ownable.sol\":3029:3037  newOwner */\n      dup2\n        /* \"@openzeppelin/contracts/access/Ownable.sol\":3020:3026  _owner */\n      0x00\n      dup1\n        /* \"@openzeppelin/contracts/access/Ownable.sol\":3020:3037  _owner = newOwner */\n      0x0100\n      exp\n      dup2\n      sload\n      dup2\n      0xffffffffffffffffffffffffffffffffffffffff\n      mul\n      not\n      and\n      swap1\n      dup4\n      0xffffffffffffffffffffffffffffffffffffffff\n      and\n      mul\n      or\n      swap1\n      sstore\n      pop\n        /* \"@openzeppelin/contracts/access/Ownable.sol\":3083:3091  newOwner */\n      dup2\n        /* \"@openzeppelin/contracts/access/Ownable.sol\":3052:3092  OwnershipTransferred(oldOwner, newOwner) */\n      0xffffffffffffffffffffffffffffffffffffffff\n      and\n        /* \"@openzeppelin/contracts/access/Ownable.sol\":3073:3081  oldOwner */\n      dup2\n        /* \"@openzeppelin/contracts/access/Ownable.sol\":3052:3092  OwnershipTransferred(oldOwner, newOwner) */\n      0xffffffffffffffffffffffffffffffffffffffff\n      and\n      0x8be0079c531659141344cd1fd0a4f28419497f9722a3daafe3b4186f6b6457e0\n      mload(0x40)\n      mload(0x40)\n      dup1\n      swap2\n      sub\n      swap1\n      log3\n        /* \"@openzeppelin/contracts/access/Ownable.sol\":2975:3099  {... */\n      pop\n        /* \"@openzeppelin/contracts/access/Ownable.sol\":2912:3099  function _transferOwnership(address newOwner) internal virtual {... */\n      pop\n      jump\t// out\n        /* \"@openzeppelin/contracts/utils/Context.sol\":656:752  function _msgSender() internal view virtual returns (address) {... */\n    tag_101:\n        /* \"@openzeppelin/contracts/utils/Context.sol\":709:716  address */\n      0x00\n        /* \"@openzeppelin/contracts/utils/Context.sol\":735:745  msg.sender */\n      caller\n        /* \"@openzeppelin/contracts/utils/Context.sol\":728:745  return msg.sender */\n      swap1\n      pop\n        /* \"@openzeppelin/contracts/utils/Context.sol\":656:752  function _msgSender() internal view virtual returns (address) {... */\n      swap1\n      jump\t// out\n        /* \"#utility.yul\":7:84   */\n    tag_108:\n        /* \"#utility.yul\":44:51   */\n      0x00\n        /* \"#utility.yul\":73:78   */\n      dup2\n        /* \"#utility.yul\":62:78   */\n      swap1\n      pop\n        /* \"#utility.yul\":7:84   */\n      swap2\n      swap1\n      pop\n      jump\t// out\n        /* \"#utility.yul\":90:208   */\n    tag_109:\n        /* \"#utility.yul\":177:201   */\n      tag_147\n        /* \"#utility.yul\":195:200   */\n      dup2\n        /* \"#utility.yul\":177:201   */\n      tag_108\n      jump\t// in\n    tag_147:\n        /* \"#utility.yul\":172:175   */\n      dup3\n        /* \"#utility.yul\":165:202   */\n      mstore\n        /* \"#utility.yul\":90:208   */\n      pop\n      pop\n      jump\t// out\n        /* \"#utility.yul\":214:436   */\n    tag_16:\n        /* \"#utility.yul\":307:311   */\n      0x00\n        /* \"#utility.yul\":345:347   */\n      0x20\n        /* \"#utility.yul\":334:343   */\n      dup3\n        /* \"#utility.yul\":330:348   */\n      add\n        /* \"#utility.yul\":322:348   */\n      swap1\n      pop\n        /* \"#utility.yul\":358:429   */\n      tag_149\n        /* \"#utility.yul\":426:427   */\n      0x00\n        /* \"#utility.yul\":415:424   */\n      dup4\n        /* \"#utility.yul\":411:428   */\n      add\n        /* \"#utility.yul\":402:408   */\n      dup5\n        /* \"#utility.yul\":358:429   */\n      tag_109\n      jump\t// in\n    tag_149:\n        /* \"#utility.yul\":214:436   */\n      swap3\n      swap2\n      pop\n      pop\n      jump\t// out\n        /* \"#utility.yul\":442:517   */\n    tag_110:\n        /* \"#utility.yul\":475:481   */\n      0x00\n        /* \"#utility.yul\":508:510   */\n      0x40\n        /* \"#utility.yul\":502:511   */\n      mload\n        /* \"#utility.yul\":492:511   */\n      swap1\n      pop\n        /* \"#utility.yul\":442:517   */\n      swap1\n      jump\t// out\n        /* \"#utility.yul\":523:640   */\n    tag_111:\n        /* \"#utility.yul\":632:633   */\n      0x00\n        /* \"#utility.yul\":629:630   */\n      dup1\n        /* \"#utility.yul\":622:634   */\n      revert\n        /* \"#utility.yul\":646:763   */\n    tag_112:\n        /* \"#utility.yul\":755:756   */\n      0x00\n        /* \"#utility.yul\":752:753   */\n      dup1\n        /* \"#utility.yul\":745:757   */\n      revert\n        /* \"#utility.yul\":769:886   */\n    tag_113:\n        /* \"#utility.yul\":878:879   */\n      0x00\n        /* \"#utility.yul\":875:876   */\n      dup1\n        /* \"#utility.yul\":868:880   */\n      revert\n        /* \"#utility.yul\":892:1009   */\n    tag_114:\n        /* \"#utility.yul\":1001:1002   */\n      0x00\n        /* \"#utility.yul\":998:999   */\n      dup1\n        /* \"#utility.yul\":991:1003   */\n      revert\n        /* \"#utility.yul\":1015:1117   */\n    tag_115:\n        /* \"#utility.yul\":1056:1062   */\n      0x00\n        /* \"#utility.yul\":1107:1109   */\n      0x1f\n        /* \"#utility.yul\":1103:1110   */\n      not\n        /* \"#utility.yul\":1098:1100   */\n      0x1f\n        /* \"#utility.yul\":1091:1096   */\n      dup4\n        /* \"#utility.yul\":1087:1101   */\n      add\n        /* \"#utility.yul\":1083:1111   */\n      and\n        /* \"#utility.yul\":1073:1111   */\n      swap1\n      pop\n        /* \"#utility.yul\":1015:1117   */\n      swap2\n      swap1\n      pop\n      jump\t// out\n        /* \"#utility.yul\":1123:1303   */\n    tag_116:\n        /* \"#utility.yul\":1171:1248   */\n      0x4e487b7100000000000000000000000000000000000000000000000000000000\n        /* \"#utility.yul\":1168:1169   */\n      0x00\n        /* \"#utility.yul\":1161:1249   */\n      mstore\n        /* \"#utility.yul\":1268:1272   */\n      0x41\n        /* \"#utility.yul\":1265:1266   */\n      0x04\n        /* \"#utility.yul\":1258:1273   */\n      mstore\n        /* \"#utility.yul\":1292:1296   */\n      0x24\n        /* \"#utility.yul\":1289:1290   */\n      0x00\n        /* \"#utility.yul\":1282:1297   */\n      revert\n        /* \"#utility.yul\":1309:1590   */\n    tag_117:\n        /* \"#utility.yul\":1392:1419   */\n      tag_158\n        /* \"#utility.yul\":1414:1418   */\n      dup3\n        /* \"#utility.yul\":1392:1419   */\n      tag_115\n      jump\t// in\n    tag_158:\n        /* \"#utility.yul\":1384:1390   */\n      dup2\n        /* \"#utility.yul\":1380:1420   */\n      add\n        /* \"#utility.yul\":1522:1528   */\n      dup2\n        /* \"#utility.yul\":1510:1520   */\n      dup2\n        /* \"#utility.yul\":1507:1529   */\n      lt\n        /* \"#utility.yul\":1486:1504   */\n      0xffffffffffffffff\n        /* \"#utility.yul\":1474:1484   */\n      dup3\n        /* \"#utility.yul\":1471:1505   */\n      gt\n        /* \"#utility.yul\":1468:1530   */\n      or\n        /* \"#utility.yul\":1465:1553   */\n      iszero\n      tag_159\n      jumpi\n        /* \"#utility.yul\":1533:1551   */\n      tag_160\n      tag_116\n      jump\t// in\n    tag_160:\n        /* \"#utility.yul\":1465:1553   */\n    tag_159:\n        /* \"#utility.yul\":1573:1583   */\n      dup1\n        /* \"#utility.yul\":1569:1571   */\n      0x40\n        /* \"#utility.yul\":1562:1584   */\n      mstore\n        /* \"#utility.yul\":1352:1590   */\n      pop\n        /* \"#utility.yul\":1309:1590   */\n      pop\n      pop\n      jump\t// out\n        /* \"#utility.yul\":1596:1725   */\n    tag_118:\n        /* \"#utility.yul\":1630:1636   */\n      0x00\n        /* \"#utility.yul\":1657:1677   */\n      tag_162\n      tag_110\n      jump\t// in\n    tag_162:\n        /* \"#utility.yul\":1647:1677   */\n      swap1\n      pop\n        /* \"#utility.yul\":1686:1719   */\n      tag_163\n        /* \"#utility.yul\":1714:1718   */\n      dup3\n        /* \"#utility.yul\":1706:1712   */\n      dup3\n        /* \"#utility.yul\":1686:1719   */\n      tag_117\n      jump\t// in\n    tag_163:\n        /* \"#utility.yul\":1596:1725   */\n      swap2\n      swap1\n      pop\n      jump\t// out\n        /* \"#utility.yul\":1731:2039   */\n    tag_119:\n        /* \"#utility.yul\":1793:1797   */\n      0x00\n        /* \"#utility.yul\":1883:1901   */\n      0xffffffffffffffff\n        /* \"#utility.yul\":1875:1881   */\n      dup3\n        /* \"#utility.yul\":1872:1902   */\n      gt\n        /* \"#utility.yul\":1869:1925   */\n      iszero\n      tag_165\n      jumpi\n        /* \"#utility.yul\":1905:1923   */\n      tag_166\n      tag_116\n      jump\t// in\n    tag_166:\n        /* \"#utility.yul\":1869:1925   */\n    tag_165:\n        /* \"#utility.yul\":1943:1972   */\n      tag_167\n        /* \"#utility.yul\":1965:1971   */\n      dup3\n        /* \"#utility.yul\":1943:1972   */\n      tag_115\n      jump\t// in\n    tag_167:\n        /* \"#utility.yul\":1935:1972   */\n      swap1\n      pop\n        /* \"#utility.yul\":2027:2031   */\n      0x20\n        /* \"#utility.yul\":2021:2025   */\n      dup2\n        /* \"#utility.yul\":2017:2032   */\n      add\n        /* \"#utility.yul\":2009:2032   */\n      swap1\n      pop\n        /* \"#utility.yul\":1731:2039   */\n      swap2\n      swap1\n      pop\n      jump\t// out\n        /* \"#utility.yul\":2045:2193   */\n    tag_120:\n        /* \"#utility.yul\":2143:2149   */\n      dup3\n        /* \"#utility.yul\":2138:2141   */\n      dup2\n        /* \"#utility.yul\":2133:2136   */\n      dup4\n        /* \"#utility.yul\":2120:2150   */\n      calldatacopy\n        /* \"#utility.yul\":2184:2185   */\n      0x00\n        /* \"#utility.yul\":2175:2181   */\n      dup4\n        /* \"#utility.yul\":2170:2173   */\n      dup4\n        /* \"#utility.yul\":2166:2182   */\n      add\n        /* \"#utility.yul\":2159:2186   */\n      mstore\n        /* \"#utility.yul\":2045:2193   */\n      pop\n      pop\n      pop\n      jump\t// out\n        /* \"#utility.yul\":2199:2624   */\n    tag_121:\n        /* \"#utility.yul\":2277:2282   */\n      0x00\n        /* \"#utility.yul\":2302:2368   */\n      tag_170\n        /* \"#utility.yul\":2318:2367   */\n      tag_171\n        /* \"#utility.yul\":2360:2366   */\n      dup5\n        /* \"#utility.yul\":2318:2367   */\n      tag_119\n      jump\t// in\n    tag_171:\n        /* \"#utility.yul\":2302:2368   */\n      tag_118\n      jump\t// in\n    tag_170:\n        /* \"#utility.yul\":2293:2368   */\n      swap1\n      pop\n        /* \"#utility.yul\":2391:2397   */\n      dup3\n        /* \"#utility.yul\":2384:2389   */\n      dup2\n        /* \"#utility.yul\":2377:2398   */\n      mstore\n        /* \"#utility.yul\":2429:2433   */\n      0x20\n        /* \"#utility.yul\":2422:2427   */\n      dup2\n        /* \"#utility.yul\":2418:2434   */\n      add\n        /* \"#utility.yul\":2467:2470   */\n      dup5\n        /* \"#utility.yul\":2458:2464   */\n      dup5\n        /* \"#utility.yul\":2453:2456   */\n      dup5\n        /* \"#utility.yul\":2449:2465   */\n      add\n        /* \"#utility.yul\":2446:2471   */\n      gt\n        /* \"#utility.yul\":2443:2555   */\n      iszero\n      tag_172\n      jumpi\n        /* \"#utility.yul\":2474:2553   */\n      tag_173\n      tag_114\n      jump\t// in\n    tag_173:\n        /* \"#utility.yul\":2443:2555   */\n    tag_172:\n        /* \"#utility.yul\":2564:2618   */\n      tag_174\n        /* \"#utility.yul\":2611:2617   */\n      dup5\n        /* \"#utility.yul\":2606:2609   */\n      dup3\n        /* \"#utility.yul\":2601:2604   */\n      dup6\n        /* \"#utility.yul\":2564:2618   */\n      tag_120\n      jump\t// in\n    tag_174:\n        /* \"#utility.yul\":2283:2624   */\n      pop\n        /* \"#utility.yul\":2199:2624   */\n      swap4\n      swap3\n      pop\n      pop\n      pop\n      jump\t// out\n        /* \"#utility.yul\":2644:2984   */\n    tag_122:\n        /* \"#utility.yul\":2700:2705   */\n      0x00\n        /* \"#utility.yul\":2749:2752   */\n      dup3\n        /* \"#utility.yul\":2742:2746   */\n      0x1f\n        /* \"#utility.yul\":2734:2740   */\n      dup4\n        /* \"#utility.yul\":2730:2747   */\n      add\n        /* \"#utility.yul\":2726:2753   */\n      slt\n        /* \"#utility.yul\":2716:2838   */\n      tag_176\n      jumpi\n        /* \"#utility.yul\":2757:2836   */\n      tag_177\n      tag_113\n      jump\t// in\n    tag_177:\n        /* \"#utility.yul\":2716:2838   */\n    tag_176:\n        /* \"#utility.yul\":2874:2880   */\n      dup2\n        /* \"#utility.yul\":2861:2881   */\n      calldataload\n        /* \"#utility.yul\":2899:2978   */\n      tag_178\n        /* \"#utility.yul\":2974:2977   */\n      dup5\n        /* \"#utility.yul\":2966:2972   */\n      dup3\n        /* \"#utility.yul\":2959:2963   */\n      0x20\n        /* \"#utility.yul\":2951:2957   */\n      dup7\n        /* \"#utility.yul\":2947:2964   */\n      add\n        /* \"#utility.yul\":2899:2978   */\n      tag_121\n      jump\t// in\n    tag_178:\n        /* \"#utility.yul\":2890:2978   */\n      swap2\n      pop\n        /* \"#utility.yul\":2706:2984   */\n      pop\n        /* \"#utility.yul\":2644:2984   */\n      swap3\n      swap2\n      pop\n      pop\n      jump\t// out\n        /* \"#utility.yul\":2990:3499   */\n    tag_19:\n        /* \"#utility.yul\":3059:3065   */\n      0x00\n        /* \"#utility.yul\":3108:3110   */\n      0x20\n        /* \"#utility.yul\":3096:3105   */\n      dup3\n        /* \"#utility.yul\":3087:3094   */\n      dup5\n        /* \"#utility.yul\":3083:3106   */\n      sub\n        /* \"#utility.yul\":3079:3111   */\n      slt\n        /* \"#utility.yul\":3076:3195   */\n      iszero\n      tag_180\n      jumpi\n        /* \"#utility.yul\":3114:3193   */\n      tag_181\n      tag_111\n      jump\t// in\n    tag_181:\n        /* \"#utility.yul\":3076:3195   */\n    tag_180:\n        /* \"#utility.yul\":3262:3263   */\n      0x00\n        /* \"#utility.yul\":3251:3260   */\n      dup3\n        /* \"#utility.yul\":3247:3264   */\n      add\n        /* \"#utility.yul\":3234:3265   */\n      calldataload\n        /* \"#utility.yul\":3292:3310   */\n      0xffffffffffffffff\n        /* \"#utility.yul\":3284:3290   */\n      dup2\n        /* \"#utility.yul\":3281:3311   */\n      gt\n        /* \"#utility.yul\":3278:3395   */\n      iszero\n      tag_182\n      jumpi\n        /* \"#utility.yul\":3314:3393   */\n      tag_183\n      tag_112\n      jump\t// in\n    tag_183:\n        /* \"#utility.yul\":3278:3395   */\n    tag_182:\n        /* \"#utility.yul\":3419:3482   */\n      tag_184\n        /* \"#utility.yul\":3474:3481   */\n      dup5\n        /* \"#utility.yul\":3465:3471   */\n      dup3\n        /* \"#utility.yul\":3454:3463   */\n      dup6\n        /* \"#utility.yul\":3450:3472   */\n      add\n        /* \"#utility.yul\":3419:3482   */\n      tag_122\n      jump\t// in\n    tag_184:\n        /* \"#utility.yul\":3409:3482   */\n      swap2\n      pop\n        /* \"#utility.yul\":3205:3492   */\n      pop\n        /* \"#utility.yul\":2990:3499   */\n      swap3\n      swap2\n      pop\n      pop\n      jump\t// out\n        /* \"#utility.yul\":3505:3631   */\n    tag_123:\n        /* \"#utility.yul\":3542:3549   */\n      0x00\n        /* \"#utility.yul\":3582:3624   */\n      0xffffffffffffffffffffffffffffffffffffffff\n        /* \"#utility.yul\":3575:3580   */\n      dup3\n        /* \"#utility.yul\":3571:3625   */\n      and\n        /* \"#utility.yul\":3560:3625   */\n      swap1\n      pop\n        /* \"#utility.yul\":3505:3631   */\n      swap2\n      swap1\n      pop\n      jump\t// out\n        /* \"#utility.yul\":3637:3733   */\n    tag_124:\n        /* \"#utility.yul\":3674:3681   */\n      0x00\n        /* \"#utility.yul\":3703:3727   */\n      tag_187\n        /* \"#utility.yul\":3721:3726   */\n      dup3\n        /* \"#utility.yul\":3703:3727   */\n      tag_123\n      jump\t// in\n    tag_187:\n        /* \"#utility.yul\":3692:3727   */\n      swap1\n      pop\n        /* \"#utility.yul\":3637:3733   */\n      swap2\n      swap1\n      pop\n      jump\t// out\n        /* \"#utility.yul\":3739:3861   */\n    tag_125:\n        /* \"#utility.yul\":3812:3836   */\n      tag_189\n        /* \"#utility.yul\":3830:3835   */\n      dup2\n        /* \"#utility.yul\":3812:3836   */\n      tag_124\n      jump\t// in\n    tag_189:\n        /* \"#utility.yul\":3805:3810   */\n      dup2\n        /* \"#utility.yul\":3802:3837   */\n      eq\n        /* \"#utility.yul\":3792:3855   */\n      tag_190\n      jumpi\n        /* \"#utility.yul\":3851:3852   */\n      0x00\n        /* \"#utility.yul\":3848:3849   */\n      dup1\n        /* \"#utility.yul\":3841:3853   */\n      revert\n        /* \"#utility.yul\":3792:3855   */\n    tag_190:\n        /* \"#utility.yul\":3739:3861   */\n      pop\n      jump\t// out\n        /* \"#utility.yul\":3867:4006   */\n    tag_126:\n        /* \"#utility.yul\":3913:3918   */\n      0x00\n        /* \"#utility.yul\":3951:3957   */\n      dup2\n        /* \"#utility.yul\":3938:3958   */\n      calldataload\n        /* \"#utility.yul\":3929:3958   */\n      swap1\n      pop\n        /* \"#utility.yul\":3967:4000   */\n      tag_192\n        /* \"#utility.yul\":3994:3999   */\n      dup2\n        /* \"#utility.yul\":3967:4000   */\n      tag_125\n      jump\t// in\n    tag_192:\n        /* \"#utility.yul\":3867:4006   */\n      swap3\n      swap2\n      pop\n      pop\n      jump\t// out\n        /* \"#utility.yul\":4012:4666   */\n    tag_28:\n        /* \"#utility.yul\":4090:4096   */\n      0x00\n        /* \"#utility.yul\":4098:4104   */\n      dup1\n        /* \"#utility.yul\":4147:4149   */\n      0x40\n        /* \"#utility.yul\":4135:4144   */\n      dup4\n        /* \"#utility.yul\":4126:4133   */\n      dup6\n        /* \"#utility.yul\":4122:4145   */\n      sub\n        /* \"#utility.yul\":4118:4150   */\n      slt\n        /* \"#utility.yul\":4115:4234   */\n      iszero\n      tag_194\n      jumpi\n        /* \"#utility.yul\":4153:4232   */\n      tag_195\n      tag_111\n      jump\t// in\n    tag_195:\n        /* \"#utility.yul\":4115:4234   */\n    tag_194:\n        /* \"#utility.yul\":4273:4274   */\n      0x00\n        /* \"#utility.yul\":4298:4351   */\n      tag_196\n        /* \"#utility.yul\":4343:4350   */\n      dup6\n        /* \"#utility.yul\":4334:4340   */\n      dup3\n        /* \"#utility.yul\":4323:4332   */\n      dup7\n        /* \"#utility.yul\":4319:4341   */\n      add\n        /* \"#utility.yul\":4298:4351   */\n      tag_126\n      jump\t// in\n    tag_196:\n        /* \"#utility.yul\":4288:4351   */\n      swap3\n      pop\n        /* \"#utility.yul\":4244:4361   */\n      pop\n        /* \"#utility.yul\":4428:4430   */\n      0x20\n        /* \"#utility.yul\":4417:4426   */\n      dup4\n        /* \"#utility.yul\":4413:4431   */\n      add\n        /* \"#utility.yul\":4400:4432   */\n      calldataload\n        /* \"#utility.yul\":4459:4477   */\n      0xffffffffffffffff\n        /* \"#utility.yul\":4451:4457   */\n      dup2\n        /* \"#utility.yul\":4448:4478   */\n      gt\n        /* \"#utility.yul\":4445:4562   */\n      iszero\n      tag_197\n      jumpi\n        /* \"#utility.yul\":4481:4560   */\n      tag_198\n      tag_112\n      jump\t// in\n    tag_198:\n        /* \"#utility.yul\":4445:4562   */\n    tag_197:\n        /* \"#utility.yul\":4586:4649   */\n      tag_199\n        /* \"#utility.yul\":4641:4648   */\n      dup6\n        /* \"#utility.yul\":4632:4638   */\n      dup3\n        /* \"#utility.yul\":4621:4630   */\n      dup7\n        /* \"#utility.yul\":4617:4639   */\n      add\n        /* \"#utility.yul\":4586:4649   */\n      tag_122\n      jump\t// in\n    tag_199:\n        /* \"#utility.yul\":4576:4649   */\n      swap2\n      pop\n        /* \"#utility.yul\":4371:4659   */\n      pop\n        /* \"#utility.yul\":4012:4666   */\n      swap3\n      pop\n      swap3\n      swap1\n      pop\n      jump\t// out\n        /* \"#utility.yul\":4672:4762   */\n    tag_127:\n        /* \"#utility.yul\":4706:4713   */\n      0x00\n        /* \"#utility.yul\":4749:4754   */\n      dup2\n        /* \"#utility.yul\":4742:4755   */\n      iszero\n        /* \"#utility.yul\":4735:4756   */\n      iszero\n        /* \"#utility.yul\":4724:4756   */\n      swap1\n      pop\n        /* \"#utility.yul\":4672:4762   */\n      swap2\n      swap1\n      pop\n      jump\t// out\n        /* \"#utility.yul\":4768:4877   */\n    tag_128:\n        /* \"#utility.yul\":4849:4870   */\n      tag_202\n        /* \"#utility.yul\":4864:4869   */\n      dup2\n        /* \"#utility.yul\":4849:4870   */\n      tag_127\n      jump\t// in\n    tag_202:\n        /* \"#utility.yul\":4844:4847   */\n      dup3\n        /* \"#utility.yul\":4837:4871   */\n      mstore\n        /* \"#utility.yul\":4768:4877   */\n      pop\n      pop\n      jump\t// out\n        /* \"#utility.yul\":4883:5093   */\n    tag_31:\n        /* \"#utility.yul\":4970:4974   */\n      0x00\n        /* \"#utility.yul\":5008:5010   */\n      0x20\n        /* \"#utility.yul\":4997:5006   */\n      dup3\n        /* \"#utility.yul\":4993:5011   */\n      add\n        /* \"#utility.yul\":4985:5011   */\n      swap1\n      pop\n        /* \"#utility.yul\":5021:5086   */\n      tag_204\n        /* \"#utility.yul\":5083:5084   */\n      0x00\n        /* \"#utility.yul\":5072:5081   */\n      dup4\n        /* \"#utility.yul\":5068:5085   */\n      add\n        /* \"#utility.yul\":5059:5065   */\n      dup5\n        /* \"#utility.yul\":5021:5086   */\n      tag_128\n      jump\t// in\n    tag_204:\n        /* \"#utility.yul\":4883:5093   */\n      swap3\n      swap2\n      pop\n      pop\n      jump\t// out\n        /* \"#utility.yul\":5099:5217   */\n    tag_129:\n        /* \"#utility.yul\":5186:5210   */\n      tag_206\n        /* \"#utility.yul\":5204:5209   */\n      dup2\n        /* \"#utility.yul\":5186:5210   */\n      tag_124\n      jump\t// in\n    tag_206:\n        /* \"#utility.yul\":5181:5184   */\n      dup3\n        /* \"#utility.yul\":5174:5211   */\n      mstore\n        /* \"#utility.yul\":5099:5217   */\n      pop\n      pop\n      jump\t// out\n        /* \"#utility.yul\":5223:5445   */\n    tag_38:\n        /* \"#utility.yul\":5316:5320   */\n      0x00\n        /* \"#utility.yul\":5354:5356   */\n      0x20\n        /* \"#utility.yul\":5343:5352   */\n      dup3\n        /* \"#utility.yul\":5339:5357   */\n      add\n        /* \"#utility.yul\":5331:5357   */\n      swap1\n      pop\n        /* \"#utility.yul\":5367:5438   */\n      tag_208\n        /* \"#utility.yul\":5435:5436   */\n      0x00\n        /* \"#utility.yul\":5424:5433   */\n      dup4\n        /* \"#utility.yul\":5420:5437   */\n      add\n        /* \"#utility.yul\":5411:5417   */\n      dup5\n        /* \"#utility.yul\":5367:5438   */\n      tag_129\n      jump\t// in\n    tag_208:\n        /* \"#utility.yul\":5223:5445   */\n      swap3\n      swap2\n      pop\n      pop\n      jump\t// out\n        /* \"#utility.yul\":5451:5780   */\n    tag_45:\n        /* \"#utility.yul\":5510:5516   */\n      0x00\n        /* \"#utility.yul\":5559:5561   */\n      0x20\n        /* \"#utility.yul\":5547:5556   */\n      dup3\n        /* \"#utility.yul\":5538:5545   */\n      dup5\n        /* \"#utility.yul\":5534:5557   */\n      sub\n        /* \"#utility.yul\":5530:5562   */\n      slt\n        /* \"#utility.yul\":5527:5646   */\n      iszero\n      tag_210\n      jumpi\n        /* \"#utility.yul\":5565:5644   */\n      tag_211\n      tag_111\n      jump\t// in\n    tag_211:\n        /* \"#utility.yul\":5527:5646   */\n    tag_210:\n        /* \"#utility.yul\":5685:5686   */\n      0x00\n        /* \"#utility.yul\":5710:5763   */\n      tag_212\n        /* \"#utility.yul\":5755:5762   */\n      dup5\n        /* \"#utility.yul\":5746:5752   */\n      dup3\n        /* \"#utility.yul\":5735:5744   */\n      dup6\n        /* \"#utility.yul\":5731:5753   */\n      add\n        /* \"#utility.yul\":5710:5763   */\n      tag_126\n      jump\t// in\n    tag_212:\n        /* \"#utility.yul\":5700:5763   */\n      swap2\n      pop\n        /* \"#utility.yul\":5656:5773   */\n      pop\n        /* \"#utility.yul\":5451:5780   */\n      swap3\n      swap2\n      pop\n      pop\n      jump\t// out\n        /* \"#utility.yul\":5786:5955   */\n    tag_130:\n        /* \"#utility.yul\":5870:5881   */\n      0x00\n        /* \"#utility.yul\":5904:5910   */\n      dup3\n        /* \"#utility.yul\":5899:5902   */\n      dup3\n        /* \"#utility.yul\":5892:5911   */\n      mstore\n        /* \"#utility.yul\":5944:5948   */\n      0x20\n        /* \"#utility.yul\":5939:5942   */\n      dup3\n        /* \"#utility.yul\":5935:5949   */\n      add\n        /* \"#utility.yul\":5920:5949   */\n      swap1\n      pop\n        /* \"#utility.yul\":5786:5955   */\n      swap3\n      swap2\n      pop\n      pop\n      jump\t// out\n        /* \"#utility.yul\":5961:6132   */\n    tag_131:\n        /* \"#utility.yul\":6101:6124   */\n      0x546f7069632063616e6e6f7420626520656d7074790000000000000000000000\n        /* \"#utility.yul\":6097:6098   */\n      0x00\n        /* \"#utility.yul\":6089:6095   */\n      dup3\n        /* \"#utility.yul\":6085:6099   */\n      add\n        /* \"#utility.yul\":6078:6125   */\n      mstore\n        /* \"#utility.yul\":5961:6132   */\n      pop\n      jump\t// out\n        /* \"#utility.yul\":6138:6504   */\n    tag_132:\n        /* \"#utility.yul\":6280:6283   */\n      0x00\n        /* \"#utility.yul\":6301:6368   */\n      tag_216\n        /* \"#utility.yul\":6365:6367   */\n      0x15\n        /* \"#utility.yul\":6360:6363   */\n      dup4\n        /* \"#utility.yul\":6301:6368   */\n      tag_130\n      jump\t// in\n    tag_216:\n        /* \"#utility.yul\":6294:6368   */\n      swap2\n      pop\n        /* \"#utility.yul\":6377:6470   */\n      tag_217\n        /* \"#utility.yul\":6466:6469   */\n      dup3\n        /* \"#utility.yul\":6377:6470   */\n      tag_131\n      jump\t// in\n    tag_217:\n        /* \"#utility.yul\":6495:6497   */\n      0x20\n        /* \"#utility.yul\":6490:6493   */\n      dup3\n        /* \"#utility.yul\":6486:6498   */\n      add\n        /* \"#utility.yul\":6479:6498   */\n      swap1\n      pop\n        /* \"#utility.yul\":6138:6504   */\n      swap2\n      swap1\n      pop\n      jump\t// out\n        /* \"#utility.yul\":6510:6929   */\n    tag_50:\n        /* \"#utility.yul\":6676:6680   */\n      0x00\n        /* \"#utility.yul\":6714:6716   */\n      0x20\n        /* \"#utility.yul\":6703:6712   */\n      dup3\n        /* \"#utility.yul\":6699:6717   */\n      add\n        /* \"#utility.yul\":6691:6717   */\n      swap1\n      pop\n        /* \"#utility.yul\":6763:6772   */\n      dup2\n        /* \"#utility.yul\":6757:6761   */\n      dup2\n        /* \"#utility.yul\":6753:6773   */\n      sub\n        /* \"#utility.yul\":6749:6750   */\n      0x00\n        /* \"#utility.yul\":6738:6747   */\n      dup4\n        /* \"#utility.yul\":6734:6751   */\n      add\n        /* \"#utility.yul\":6727:6774   */\n      mstore\n        /* \"#utility.yul\":6791:6922   */\n      tag_219\n        /* \"#utility.yul\":6917:6921   */\n      dup2\n        /* \"#utility.yul\":6791:6922   */\n      tag_132\n      jump\t// in\n    tag_219:\n        /* \"#utility.yul\":6783:6922   */\n      swap1\n      pop\n        /* \"#utility.yul\":6510:6929   */\n      swap2\n      swap1\n      pop\n      jump\t// out\n        /* \"#utility.yul\":6935:7104   */\n    tag_133:\n        /* \"#utility.yul\":7075:7096   */\n      0x546f706963206e616d6520746f6f206c6f6e6700000000000000000000000000\n        /* \"#utility.yul\":7071:7072   */\n      0x00\n        /* \"#utility.yul\":7063:7069   */\n      dup3\n        /* \"#utility.yul\":7059:7073   */\n      add\n        /* \"#utility.yul\":7052:7097   */\n      mstore\n        /* \"#utility.yul\":6935:7104   */\n      pop\n      jump\t// out\n        /* \"#utility.yul\":7110:7476   */\n    tag_134:\n        /* \"#utility.yul\":7252:7255   */\n      0x00\n        /* \"#utility.yul\":7273:7340   */\n      tag_222\n        /* \"#utility.yul\":7337:7339   */\n      0x13\n        /* \"#utility.yul\":7332:7335   */\n      dup4\n        /* \"#utility.yul\":7273:7340   */\n      tag_130\n      jump\t// in\n    tag_222:\n        /* \"#utility.yul\":7266:7340   */\n      swap2\n      pop\n        /* \"#utility.yul\":7349:7442   */\n      tag_223\n        /* \"#utility.yul\":7438:7441   */\n      dup3\n        /* \"#utility.yul\":7349:7442   */\n      tag_133\n      jump\t// in\n    tag_223:\n        /* \"#utility.yul\":7467:7469   */\n      0x20\n        /* \"#utility.yul\":7462:7465   */\n      dup3\n        /* \"#utility.yul\":7458:7470   */\n      add\n        /* \"#utility.yul\":7451:7470   */\n      swap1\n      pop\n        /* \"#utility.yul\":7110:7476   */\n      swap2\n      swap1\n      pop\n      jump\t// out\n        /* \"#utility.yul\":7482:7901   */\n    tag_53:\n        /* \"#utility.yul\":7648:7652   */\n      0x00\n        /* \"#utility.yul\":7686:7688   */\n      0x20\n        /* \"#utility.yul\":7675:7684   */\n      dup3\n        /* \"#utility.yul\":7671:7689   */\n      add\n        /* \"#utility.yul\":7663:7689   */\n      swap1\n      pop\n        /* \"#utility.yul\":7735:7744   */\n      dup2\n        /* \"#utility.yul\":7729:7733   */\n      dup2\n        /* \"#utility.yul\":7725:7745   */\n      sub\n        /* \"#utility.yul\":7721:7722   */\n      0x00\n        /* \"#utility.yul\":7710:7719   */\n      dup4\n        /* \"#utility.yul\":7706:7723   */\n      add\n        /* \"#utility.yul\":7699:7746   */\n      mstore\n        /* \"#utility.yul\":7763:7894   */\n      tag_225\n        /* \"#utility.yul\":7889:7893   */\n      dup2\n        /* \"#utility.yul\":7763:7894   */\n      tag_134\n      jump\t// in\n    tag_225:\n        /* \"#utility.yul\":7755:7894   */\n      swap1\n      pop\n        /* \"#utility.yul\":7482:7901   */\n      swap2\n      swap1\n      pop\n      jump\t// out\n        /* \"#utility.yul\":7907:8006   */\n    tag_135:\n        /* \"#utility.yul\":7959:7965   */\n      0x00\n        /* \"#utility.yul\":7993:7998   */\n      dup2\n        /* \"#utility.yul\":7987:7999   */\n      mload\n        /* \"#utility.yul\":7977:7999   */\n      swap1\n      pop\n        /* \"#utility.yul\":7907:8006   */\n      swap2\n      swap1\n      pop\n      jump\t// out\n        /* \"#utility.yul\":8012:8160   */\n    tag_136:\n        /* \"#utility.yul\":8114:8125   */\n      0x00\n        /* \"#utility.yul\":8151:8154   */\n      dup2\n        /* \"#utility.yul\":8136:8154   */\n      swap1\n      pop\n        /* \"#utility.yul\":8012:8160   */\n      swap3\n      swap2\n      pop\n      pop\n      jump\t// out\n        /* \"#utility.yul\":8166:8305   */\n    tag_137:\n        /* \"#utility.yul\":8255:8261   */\n      dup3\n        /* \"#utility.yul\":8250:8253   */\n      dup2\n        /* \"#utility.yul\":8245:8248   */\n      dup4\n        /* \"#utility.yul\":8239:8262   */\n      mcopy\n        /* \"#utility.yul\":8296:8297   */\n      0x00\n        /* \"#utility.yul\":8287:8293   */\n      dup4\n        /* \"#utility.yul\":8282:8285   */\n      dup4\n        /* \"#utility.yul\":8278:8294   */\n      add\n        /* \"#utility.yul\":8271:8298   */\n      mstore\n        /* \"#utility.yul\":8166:8305   */\n      pop\n      pop\n      pop\n      jump\t// out\n        /* \"#utility.yul\":8311:8701   */\n    tag_138:\n        /* \"#utility.yul\":8417:8420   */\n      0x00\n        /* \"#utility.yul\":8445:8484   */\n      tag_230\n        /* \"#utility.yul\":8478:8483   */\n      dup3\n        /* \"#utility.yul\":8445:8484   */\n      tag_135\n      jump\t// in\n    tag_230:\n        /* \"#utility.yul\":8500:8589   */\n      tag_231\n        /* \"#utility.yul\":8582:8588   */\n      dup2\n        /* \"#utility.yul\":8577:8580   */\n      dup6\n        /* \"#utility.yul\":8500:8589   */\n      tag_136\n      jump\t// in\n    tag_231:\n        /* \"#utility.yul\":8493:8589   */\n      swap4\n      pop\n        /* \"#utility.yul\":8598:8663   */\n      tag_232\n        /* \"#utility.yul\":8656:8662   */\n      dup2\n        /* \"#utility.yul\":8651:8654   */\n      dup6\n        /* \"#utility.yul\":8644:8648   */\n      0x20\n        /* \"#utility.yul\":8637:8642   */\n      dup7\n        /* \"#utility.yul\":8633:8649   */\n      add\n        /* \"#utility.yul\":8598:8663   */\n      tag_137\n      jump\t// in\n    tag_232:\n        /* \"#utility.yul\":8688:8694   */\n      dup1\n        /* \"#utility.yul\":8683:8686   */\n      dup5\n        /* \"#utility.yul\":8679:8695   */\n      add\n        /* \"#utility.yul\":8672:8695   */\n      swap2\n      pop\n        /* \"#utility.yul\":8421:8701   */\n      pop\n        /* \"#utility.yul\":8311:8701   */\n      swap3\n      swap2\n      pop\n      pop\n      jump\t// out\n        /* \"#utility.yul\":8707:8982   */\n    tag_56:\n        /* \"#utility.yul\":8839:8842   */\n      0x00\n        /* \"#utility.yul\":8861:8956   */\n      tag_234\n        /* \"#utility.yul\":8952:8955   */\n      dup3\n        /* \"#utility.yul\":8943:8949   */\n      dup5\n        /* \"#utility.yul\":8861:8956   */\n      tag_138\n      jump\t// in\n    tag_234:\n        /* \"#utility.yul\":8854:8956   */\n      swap2\n      pop\n        /* \"#utility.yul\":8973:8976   */\n      dup2\n        /* \"#utility.yul\":8966:8976   */\n      swap1\n      pop\n        /* \"#utility.yul\":8707:8982   */\n      swap3\n      swap2\n      pop\n      pop\n      jump\t// out\n        /* \"#utility.yul\":8988:9211   */\n    tag_139:\n        /* \"#utility.yul\":9128:9162   */\n      0x596f7520617265206e6f74207375627363726962656420746f20746869732074\n        /* \"#utility.yul\":9124:9125   */\n      0x00\n        /* \"#utility.yul\":9116:9122   */\n      dup3\n        /* \"#utility.yul\":9112:9126   */\n      add\n        /* \"#utility.yul\":9105:9163   */\n      mstore\n        /* \"#utility.yul\":9197:9203   */\n      0x6f70696300000000000000000000000000000000000000000000000000000000\n        /* \"#utility.yul\":9192:9194   */\n      0x20\n        /* \"#utility.yul\":9184:9190   */\n      dup3\n        /* \"#utility.yul\":9180:9195   */\n      add\n        /* \"#utility.yul\":9173:9204   */\n      mstore\n        /* \"#utility.yul\":8988:9211   */\n      pop\n      jump\t// out\n        /* \"#utility.yul\":9217:9583   */\n    tag_140:\n        /* \"#utility.yul\":9359:9362   */\n      0x00\n        /* \"#utility.yul\":9380:9447   */\n      tag_237\n        /* \"#utility.yul\":9444:9446   */\n      0x24\n        /* \"#utility.yul\":9439:9442   */\n      dup4\n        /* \"#utility.yul\":9380:9447   */\n      tag_130\n      jump\t// in\n    tag_237:\n        /* \"#utility.yul\":9373:9447   */\n      swap2\n      pop\n        /* \"#utility.yul\":9456:9549   */\n      tag_238\n        /* \"#utility.yul\":9545:9548   */\n      dup3\n        /* \"#utility.yul\":9456:9549   */\n      tag_139\n      jump\t// in\n    tag_238:\n        /* \"#utility.yul\":9574:9576   */\n      0x40\n        /* \"#utility.yul\":9569:9572   */\n      dup3\n        /* \"#utility.yul\":9565:9577   */\n      add\n        /* \"#utility.yul\":9558:9577   */\n      swap1\n      pop\n        /* \"#utility.yul\":9217:9583   */\n      swap2\n      swap1\n      pop\n      jump\t// out\n        /* \"#utility.yul\":9589:10008   */\n    tag_59:\n        /* \"#utility.yul\":9755:9759   */\n      0x00\n        /* \"#utility.yul\":9793:9795   */\n      0x20\n        /* \"#utility.yul\":9782:9791   */\n      dup3\n        /* \"#utility.yul\":9778:9796   */\n      add\n        /* \"#utility.yul\":9770:9796   */\n      swap1\n      pop\n        /* \"#utility.yul\":9842:9851   */\n      dup2\n        /* \"#utility.yul\":9836:9840   */\n      dup2\n        /* \"#utility.yul\":9832:9852   */\n      sub\n        /* \"#utility.yul\":9828:9829   */\n      0x00\n        /* \"#utility.yul\":9817:9826   */\n      dup4\n        /* \"#utility.yul\":9813:9830   */\n      add\n        /* \"#utility.yul\":9806:9853   */\n      mstore\n        /* \"#utility.yul\":9870:10001   */\n      tag_240\n        /* \"#utility.yul\":9996:10000   */\n      dup2\n        /* \"#utility.yul\":9870:10001   */\n      tag_140\n      jump\t// in\n    tag_240:\n        /* \"#utility.yul\":9862:10001   */\n      swap1\n      pop\n        /* \"#utility.yul\":9589:10008   */\n      swap2\n      swap1\n      pop\n      jump\t// out\n        /* \"#utility.yul\":10014:10391   */\n    tag_141:\n        /* \"#utility.yul\":10102:10105   */\n      0x00\n        /* \"#utility.yul\":10130:10169   */\n      tag_242\n        /* \"#utility.yul\":10163:10168   */\n      dup3\n        /* \"#utility.yul\":10130:10169   */\n      tag_135\n      jump\t// in\n    tag_242:\n        /* \"#utility.yul\":10185:10256   */\n      tag_243\n        /* \"#utility.yul\":10249:10255   */\n      dup2\n        /* \"#utility.yul\":10244:10247   */\n      dup6\n        /* \"#utility.yul\":10185:10256   */\n      tag_130\n      jump\t// in\n    tag_243:\n        /* \"#utility.yul\":10178:10256   */\n      swap4\n      pop\n        /* \"#utility.yul\":10265:10330   */\n      tag_244\n        /* \"#utility.yul\":10323:10329   */\n      dup2\n        /* \"#utility.yul\":10318:10321   */\n      dup6\n        /* \"#utility.yul\":10311:10315   */\n      0x20\n        /* \"#utility.yul\":10304:10309   */\n      dup7\n        /* \"#utility.yul\":10300:10316   */\n      add\n        /* \"#utility.yul\":10265:10330   */\n      tag_137\n      jump\t// in\n    tag_244:\n        /* \"#utility.yul\":10355:10384   */\n      tag_245\n        /* \"#utility.yul\":10377:10383   */\n      dup2\n        /* \"#utility.yul\":10355:10384   */\n      tag_115\n      jump\t// in\n    tag_245:\n        /* \"#utility.yul\":10350:10353   */\n      dup5\n        /* \"#utility.yul\":10346:10385   */\n      add\n        /* \"#utility.yul\":10339:10385   */\n      swap2\n      pop\n        /* \"#utility.yul\":10106:10391   */\n      pop\n        /* \"#utility.yul\":10014:10391   */\n      swap3\n      swap2\n      pop\n      pop\n      jump\t// out\n        /* \"#utility.yul\":10397:10710   */\n    tag_62:\n        /* \"#utility.yul\":10510:10514   */\n      0x00\n        /* \"#utility.yul\":10548:10550   */\n      0x20\n        /* \"#utility.yul\":10537:10546   */\n      dup3\n        /* \"#utility.yul\":10533:10551   */\n      add\n        /* \"#utility.yul\":10525:10551   */\n      swap1\n      pop\n        /* \"#utility.yul\":10597:10606   */\n      dup2\n        /* \"#utility.yul\":10591:10595   */\n      dup2\n        /* \"#utility.yul\":10587:10607   */\n      sub\n        /* \"#utility.yul\":10583:10584   */\n      0x00\n        /* \"#utility.yul\":10572:10581   */\n      dup4\n        /* \"#utility.yul\":10568:10585   */\n      add\n        /* \"#utility.yul\":10561:10608   */\n      mstore\n        /* \"#utility.yul\":10625:10703   */\n      tag_247\n        /* \"#utility.yul\":10698:10702   */\n      dup2\n        /* \"#utility.yul\":10689:10695   */\n      dup5\n        /* \"#utility.yul\":10625:10703   */\n      tag_141\n      jump\t// in\n    tag_247:\n        /* \"#utility.yul\":10617:10703   */\n      swap1\n      pop\n        /* \"#utility.yul\":10397:10710   */\n      swap3\n      swap2\n      pop\n      pop\n      jump\t// out\n        /* \"#utility.yul\":10716:10898   */\n    tag_142:\n        /* \"#utility.yul\":10856:10890   */\n      0x416c7265616479207375627363726962656420746f207468697320746f706963\n        /* \"#utility.yul\":10852:10853   */\n      0x00\n        /* \"#utility.yul\":10844:10850   */\n      dup3\n        /* \"#utility.yul\":10840:10854   */\n      add\n        /* \"#utility.yul\":10833:10891   */\n      mstore\n        /* \"#utility.yul\":10716:10898   */\n      pop\n      jump\t// out\n        /* \"#utility.yul\":10904:11270   */\n    tag_143:\n        /* \"#utility.yul\":11046:11049   */\n      0x00\n        /* \"#utility.yul\":11067:11134   */\n      tag_250\n        /* \"#utility.yul\":11131:11133   */\n      0x20\n        /* \"#utility.yul\":11126:11129   */\n      dup4\n        /* \"#utility.yul\":11067:11134   */\n      tag_130\n      jump\t// in\n    tag_250:\n        /* \"#utility.yul\":11060:11134   */\n      swap2\n      pop\n        /* \"#utility.yul\":11143:11236   */\n      tag_251\n        /* \"#utility.yul\":11232:11235   */\n      dup3\n        /* \"#utility.yul\":11143:11236   */\n      tag_142\n      jump\t// in\n    tag_251:\n        /* \"#utility.yul\":11261:11263   */\n      0x20\n        /* \"#utility.yul\":11256:11259   */\n      dup3\n        /* \"#utility.yul\":11252:11264   */\n      add\n        /* \"#utility.yul\":11245:11264   */\n      swap1\n      pop\n        /* \"#utility.yul\":10904:11270   */\n      swap2\n      swap1\n      pop\n      jump\t// out\n        /* \"#utility.yul\":11276:11695   */\n    tag_72:\n        /* \"#utility.yul\":11442:11446   */\n      0x00\n        /* \"#utility.yul\":11480:11482   */\n      0x20\n        /* \"#utility.yul\":11469:11478   */\n      dup3\n        /* \"#utility.yul\":11465:11483   */\n      add\n        /* \"#utility.yul\":11457:11483   */\n      swap1\n      pop\n        /* \"#utility.yul\":11529:11538   */\n      dup2\n        /* \"#utility.yul\":11523:11527   */\n      dup2\n        /* \"#utility.yul\":11519:11539   */\n      sub\n        /* \"#utility.yul\":11515:11516   */\n      0x00\n        /* \"#utility.yul\":11504:11513   */\n      dup4\n        /* \"#utility.yul\":11500:11517   */\n      add\n        /* \"#utility.yul\":11493:11540   */\n      mstore\n        /* \"#utility.yul\":11557:11688   */\n      tag_253\n        /* \"#utility.yul\":11683:11687   */\n      dup2\n        /* \"#utility.yul\":11557:11688   */\n      tag_143\n      jump\t// in\n    tag_253:\n        /* \"#utility.yul\":11549:11688   */\n      swap1\n      pop\n        /* \"#utility.yul\":11276:11695   */\n      swap2\n      swap1\n      pop\n      jump\t// out\n\n    auxdata: 0xa26469706673582212209a67b70d5ca8f2622d4ca764a9d8f393def84f08c515801c1d642f7392593b5164736f6c634300081a0033\n}\n",
				"bytecode": {
					"linkReferences": {},
					"object": "608060405234801561000f575f80fd5b50335f73ffffffffffffffffffffffffffffffffffffffff168173ffffffffffffffffffffffffffffffffffffffff1603610081575f6040517f1e4fbdf70000000000000000000000000000000000000000000000000000000081526004016100789190610196565b60405180910390fd5b6100908161009660201b60201c565b506101af565b5f805f9054906101000a900473ffffffffffffffffffffffffffffffffffffffff169050815f806101000a81548173ffffffffffffffffffffffffffffffffffffffff021916908373ffffffffffffffffffffffffffffffffffffffff1602179055508173ffffffffffffffffffffffffffffffffffffffff168173ffffffffffffffffffffffffffffffffffffffff167f8be0079c531659141344cd1fd0a4f28419497f9722a3daafe3b4186f6b6457e060405160405180910390a35050565b5f73ffffffffffffffffffffffffffffffffffffffff82169050919050565b5f61018082610157565b9050919050565b61019081610176565b82525050565b5f6020820190506101a95f830184610187565b92915050565b610ef5806101bc5f395ff3fe608060405234801561000f575f80fd5b5060043610610091575f3560e01c80637a1a14f5116100645780637a1a14f5146100f55780637db34df2146101255780638da5cb5b14610143578063e97a3f4314610161578063f2fde38b1461019157610091565b806313d1ab7e1461009557806347cc5f9a146100b3578063507e7888146100cf578063715018a6146100eb575b5f80fd5b61009d6101ad565b6040516100aa9190610942565b60405180910390f35b6100cd60048036038101906100c89190610aa8565b6101b2565b005b6100e960048036038101906100e49190610aa8565b6103a9565b005b6100f36105a1565b005b61010f600480360381019061010a9190610b49565b6105b4565b60405161011c9190610bbd565b60405180910390f35b61012d6106b4565b60405161013a9190610942565b60405180910390f35b61014b6106b9565b6040516101589190610be5565b60405180910390f35b61017b60048036038101906101769190610b49565b6106e0565b6040516101889190610bbd565b60405180910390f35b6101ab60048036038101906101a69190610bfe565b610757565b005b600181565b805f8190506001815110156101fc576040517f08c379a00000000000000000000000000000000000000000000000000000000081526004016101f390610c83565b60405180910390fd5b606481511115610241576040517f08c379a000000000000000000000000000000000000000000000000000000000815260040161023890610ceb565b60405180910390fd5b60015f3373ffffffffffffffffffffffffffffffffffffffff1673ffffffffffffffffffffffffffffffffffffffff1681526020019081526020015f208360405161028c9190610d5b565b90815260200160405180910390205f9054906101000a900460ff166102e6576040517f08c379a00000000000000000000000000000000000000000000000000000000081526004016102dd90610de1565b60405180910390fd5b5f60015f3373ffffffffffffffffffffffffffffffffffffffff1673ffffffffffffffffffffffffffffffffffffffff1681526020019081526020015f20846040516103329190610d5b565b90815260200160405180910390205f6101000a81548160ff0219169083151502179055503373ffffffffffffffffffffffffffffffffffffffff167fb808084c2f3fe56de9cba89da339ed7c671da54a42c645035e217cd4835e672f8460405161039c9190610e37565b60405180910390a2505050565b805f8190506001815110156103f3576040517f08c379a00000000000000000000000000000000000000000000000000000000081526004016103ea90610c83565b60405180910390fd5b606481511115610438576040517f08c379a000000000000000000000000000000000000000000000000000000000815260040161042f90610ceb565b60405180910390fd5b60015f3373ffffffffffffffffffffffffffffffffffffffff1673ffffffffffffffffffffffffffffffffffffffff1681526020019081526020015f20836040516104839190610d5b565b90815260200160405180910390205f9054906101000a900460ff16156104de576040517f08c379a00000000000000000000000000000000000000000000000000000000081526004016104d590610ea1565b60405180910390fd5b6001805f3373ffffffffffffffffffffffffffffffffffffffff1673ffffffffffffffffffffffffffffffffffffffff1681526020019081526020015f208460405161052a9190610d5b565b90815260200160405180910390205f6101000a81548160ff0219169083151502179055503373ffffffffffffffffffffffffffffffffffffffff167f60a7fc7646aa81434ccc2528453f07ecb50a4db71ffad73c1f496302c0d6a6e1846040516105949190610e37565b60405180910390a2505050565b6105a96107db565b6105b25f610862565b565b5f815f8190506001815110156105ff576040517f08c379a00000000000000000000000000000000000000000000000000000000081526004016105f690610c83565b60405180910390fd5b606481511115610644576040517f08c379a000000000000000000000000000000000000000000000000000000000815260040161063b90610ceb565b60405180910390fd5b60015f8673ffffffffffffffffffffffffffffffffffffffff1673ffffffffffffffffffffffffffffffffffffffff1681526020019081526020015f208460405161068f9190610d5b565b90815260200160405180910390205f9054906101000a900460ff169250505092915050565b606481565b5f805f9054906101000a900473ffffffffffffffffffffffffffffffffffffffff16905090565b5f6106e96107db565b60015f8473ffffffffffffffffffffffffffffffffffffffff1673ffffffffffffffffffffffffffffffffffffffff1681526020019081526020015f20826040516107349190610d5b565b90815260200160405180910390205f9054906101000a900460ff16905092915050565b61075f6107db565b5f73ffffffffffffffffffffffffffffffffffffffff168173ffffffffffffffffffffffffffffffffffffffff16036107cf575f6040517f1e4fbdf70000000000000000000000000000000000000000000000000000000081526004016107c69190610be5565b60405180910390fd5b6107d881610862565b50565b6107e3610923565b73ffffffffffffffffffffffffffffffffffffffff166108016106b9565b73ffffffffffffffffffffffffffffffffffffffff161461086057610824610923565b6040517f118cdaa70000000000000000000000000000000000000000000000000000000081526004016108579190610be5565b60405180910390fd5b565b5f805f9054906101000a900473ffffffffffffffffffffffffffffffffffffffff169050815f806101000a81548173ffffffffffffffffffffffffffffffffffffffff021916908373ffffffffffffffffffffffffffffffffffffffff1602179055508173ffffffffffffffffffffffffffffffffffffffff168173ffffffffffffffffffffffffffffffffffffffff167f8be0079c531659141344cd1fd0a4f28419497f9722a3daafe3b4186f6b6457e060405160405180910390a35050565b5f33905090565b5f819050919050565b61093c8161092a565b82525050565b5f6020820190506109555f830184610933565b92915050565b5f604051905090565b5f80fd5b5f80fd5b5f80fd5b5f80fd5b5f601f19601f8301169050919050565b7f4e487b71000000000000000000000000000000000000000000000000000000005f52604160045260245ffd5b6109ba82610974565b810181811067ffffffffffffffff821117156109d9576109d8610984565b5b80604052505050565b5f6109eb61095b565b90506109f782826109b1565b919050565b5f67ffffffffffffffff821115610a1657610a15610984565b5b610a1f82610974565b9050602081019050919050565b828183375f83830152505050565b5f610a4c610a47846109fc565b6109e2565b905082815260208101848484011115610a6857610a67610970565b5b610a73848285610a2c565b509392505050565b5f82601f830112610a8f57610a8e61096c565b5b8135610a9f848260208601610a3a565b91505092915050565b5f60208284031215610abd57610abc610964565b5b5f82013567ffffffffffffffff811115610ada57610ad9610968565b5b610ae684828501610a7b565b91505092915050565b5f73ffffffffffffffffffffffffffffffffffffffff82169050919050565b5f610b1882610aef565b9050919050565b610b2881610b0e565b8114610b32575f80fd5b50565b5f81359050610b4381610b1f565b92915050565b5f8060408385031215610b5f57610b5e610964565b5b5f610b6c85828601610b35565b925050602083013567ffffffffffffffff811115610b8d57610b8c610968565b5b610b9985828601610a7b565b9150509250929050565b5f8115159050919050565b610bb781610ba3565b82525050565b5f602082019050610bd05f830184610bae565b92915050565b610bdf81610b0e565b82525050565b5f602082019050610bf85f830184610bd6565b92915050565b5f60208284031215610c1357610c12610964565b5b5f610c2084828501610b35565b91505092915050565b5f82825260208201905092915050565b7f546f7069632063616e6e6f7420626520656d70747900000000000000000000005f82015250565b5f610c6d601583610c29565b9150610c7882610c39565b602082019050919050565b5f6020820190508181035f830152610c9a81610c61565b9050919050565b7f546f706963206e616d6520746f6f206c6f6e67000000000000000000000000005f82015250565b5f610cd5601383610c29565b9150610ce082610ca1565b602082019050919050565b5f6020820190508181035f830152610d0281610cc9565b9050919050565b5f81519050919050565b5f81905092915050565b8281835e5f83830152505050565b5f610d3582610d09565b610d3f8185610d13565b9350610d4f818560208601610d1d565b80840191505092915050565b5f610d668284610d2b565b915081905092915050565b7f596f7520617265206e6f74207375627363726962656420746f207468697320745f8201527f6f70696300000000000000000000000000000000000000000000000000000000602082015250565b5f610dcb602483610c29565b9150610dd682610d71565b604082019050919050565b5f6020820190508181035f830152610df881610dbf565b9050919050565b5f610e0982610d09565b610e138185610c29565b9350610e23818560208601610d1d565b610e2c81610974565b840191505092915050565b5f6020820190508181035f830152610e4f8184610dff565b905092915050565b7f416c7265616479207375627363726962656420746f207468697320746f7069635f82015250565b5f610e8b602083610c29565b9150610e9682610e57565b602082019050919050565b5f6020820190508181035f830152610eb881610e7f565b905091905056fea26469706673582212209a67b70d5ca8f2622d4ca764a9d8f393def84f08c515801c1d642f7392593b5164736f6c634300081a0033",
					"opcodes": "PUSH1 0x80 PUSH1 0x40 MSTORE CALLVALUE DUP1 ISZERO PUSH2 0xF JUMPI PUSH0 DUP1 REVERT JUMPDEST POP CALLER PUSH0 PUSH20 0xFFFFFFFFFFFFFFFFFFFFFFFFFFFFFFFFFFFFFFFF AND DUP2 PUSH20 0xFFFFFFFFFFFFFFFFFFFFFFFFFFFFFFFFFFFFFFFF AND SUB PUSH2 0x81 JUMPI PUSH0 PUSH1 0x40 MLOAD PUSH32 0x1E4FBDF700000000000000000000000000000000000000000000000000000000 DUP2 MSTORE PUSH1 0x4 ADD PUSH2 0x78 SWAP2 SWAP1 PUSH2 0x196 JUMP JUMPDEST PUSH1 0x40 MLOAD DUP1 SWAP2 SUB SWAP1 REVERT JUMPDEST PUSH2 0x90 DUP2 PUSH2 0x96 PUSH1 0x20 SHL PUSH1 0x20 SHR JUMP JUMPDEST POP PUSH2 0x1AF JUMP JUMPDEST PUSH0 DUP1 PUSH0 SWAP1 SLOAD SWAP1 PUSH2 0x100 EXP SWAP1 DIV PUSH20 0xFFFFFFFFFFFFFFFFFFFFFFFFFFFFFFFFFFFFFFFF AND SWAP1 POP DUP2 PUSH0 DUP1 PUSH2 0x100 EXP DUP2 SLOAD DUP2 PUSH20 0xFFFFFFFFFFFFFFFFFFFFFFFFFFFFFFFFFFFFFFFF MUL NOT AND SWAP1 DUP4 PUSH20 0xFFFFFFFFFFFFFFFFFFFFFFFFFFFFFFFFFFFFFFFF AND MUL OR SWAP1 SSTORE POP DUP2 PUSH20 0xFFFFFFFFFFFFFFFFFFFFFFFFFFFFFFFFFFFFFFFF AND DUP2 PUSH20 0xFFFFFFFFFFFFFFFFFFFFFFFFFFFFFFFFFFFFFFFF AND PUSH32 0x8BE0079C531659141344CD1FD0A4F28419497F9722A3DAAFE3B4186F6B6457E0 PUSH1 0x40 MLOAD PUSH1 0x40 MLOAD DUP1 SWAP2 SUB SWAP1 LOG3 POP POP JUMP JUMPDEST PUSH0 PUSH20 0xFFFFFFFFFFFFFFFFFFFFFFFFFFFFFFFFFFFFFFFF DUP3 AND SWAP1 POP SWAP2 SWAP1 POP JUMP JUMPDEST PUSH0 PUSH2 0x180 DUP3 PUSH2 0x157 JUMP JUMPDEST SWAP1 POP SWAP2 SWAP1 POP JUMP JUMPDEST PUSH2 0x190 DUP2 PUSH2 0x176 JUMP JUMPDEST DUP3 MSTORE POP POP JUMP JUMPDEST PUSH0 PUSH1 0x20 DUP3 ADD SWAP1 POP PUSH2 0x1A9 PUSH0 DUP4 ADD DUP5 PUSH2 0x187 JUMP JUMPDEST SWAP3 SWAP2 POP POP JUMP JUMPDEST PUSH2 0xEF5 DUP1 PUSH2 0x1BC PUSH0 CODECOPY PUSH0 RETURN INVALID PUSH1 0x80 PUSH1 0x40 MSTORE CALLVALUE DUP1 ISZERO PUSH2 0xF JUMPI PUSH0 DUP1 REVERT JUMPDEST POP PUSH1 0x4 CALLDATASIZE LT PUSH2 0x91 JUMPI PUSH0 CALLDATALOAD PUSH1 0xE0 SHR DUP1 PUSH4 0x7A1A14F5 GT PUSH2 0x64 JUMPI DUP1 PUSH4 0x7A1A14F5 EQ PUSH2 0xF5 JUMPI DUP1 PUSH4 0x7DB34DF2 EQ PUSH2 0x125 JUMPI DUP1 PUSH4 0x8DA5CB5B EQ PUSH2 0x143 JUMPI DUP1 PUSH4 0xE97A3F43 EQ PUSH2 0x161 JUMPI DUP1 PUSH4 0xF2FDE38B EQ PUSH2 0x191 JUMPI PUSH2 0x91 JUMP JUMPDEST DUP1 PUSH4 0x13D1AB7E EQ PUSH2 0x95 JUMPI DUP1 PUSH4 0x47CC5F9A EQ PUSH2 0xB3 JUMPI DUP1 PUSH4 0x507E7888 EQ PUSH2 0xCF JUMPI DUP1 PUSH4 0x715018A6 EQ PUSH2 0xEB JUMPI JUMPDEST PUSH0 DUP1 REVERT JUMPDEST PUSH2 0x9D PUSH2 0x1AD JUMP JUMPDEST PUSH1 0x40 MLOAD PUSH2 0xAA SWAP2 SWAP1 PUSH2 0x942 JUMP JUMPDEST PUSH1 0x40 MLOAD DUP1 SWAP2 SUB SWAP1 RETURN JUMPDEST PUSH2 0xCD PUSH1 0x4 DUP1 CALLDATASIZE SUB DUP2 ADD SWAP1 PUSH2 0xC8 SWAP2 SWAP1 PUSH2 0xAA8 JUMP JUMPDEST PUSH2 0x1B2 JUMP JUMPDEST STOP JUMPDEST PUSH2 0xE9 PUSH1 0x4 DUP1 CALLDATASIZE SUB DUP2 ADD SWAP1 PUSH2 0xE4 SWAP2 SWAP1 PUSH2 0xAA8 JUMP JUMPDEST PUSH2 0x3A9 JUMP JUMPDEST STOP JUMPDEST PUSH2 0xF3 PUSH2 0x5A1 JUMP JUMPDEST STOP JUMPDEST PUSH2 0x10F PUSH1 0x4 DUP1 CALLDATASIZE SUB DUP2 ADD SWAP1 PUSH2 0x10A SWAP2 SWAP1 PUSH2 0xB49 JUMP JUMPDEST PUSH2 0x5B4 JUMP JUMPDEST PUSH1 0x40 MLOAD PUSH2 0x11C SWAP2 SWAP1 PUSH2 0xBBD JUMP JUMPDEST PUSH1 0x40 MLOAD DUP1 SWAP2 SUB SWAP1 RETURN JUMPDEST PUSH2 0x12D PUSH2 0x6B4 JUMP JUMPDEST PUSH1 0x40 MLOAD PUSH2 0x13A SWAP2 SWAP1 PUSH2 0x942 JUMP JUMPDEST PUSH1 0x40 MLOAD DUP1 SWAP2 SUB SWAP1 RETURN JUMPDEST PUSH2 0x14B PUSH2 0x6B9 JUMP JUMPDEST PUSH1 0x40 MLOAD PUSH2 0x158 SWAP2 SWAP1 PUSH2 0xBE5 JUMP JUMPDEST PUSH1 0x40 MLOAD DUP1 SWAP2 SUB SWAP1 RETURN JUMPDEST PUSH2 0x17B PUSH1 0x4 DUP1 CALLDATASIZE SUB DUP2 ADD SWAP1 PUSH2 0x176 SWAP2 SWAP1 PUSH2 0xB49 JUMP JUMPDEST PUSH2 0x6E0 JUMP JUMPDEST PUSH1 0x40 MLOAD PUSH2 0x188 SWAP2 SWAP1 PUSH2 0xBBD JUMP JUMPDEST PUSH1 0x40 MLOAD DUP1 SWAP2 SUB SWAP1 RETURN JUMPDEST PUSH2 0x1AB PUSH1 0x4 DUP1 CALLDATASIZE SUB DUP2 ADD SWAP1 PUSH2 0x1A6 SWAP2 SWAP1 PUSH2 0xBFE JUMP JUMPDEST PUSH2 0x757 JUMP JUMPDEST STOP JUMPDEST PUSH1 0x1 DUP2 JUMP JUMPDEST DUP1 PUSH0 DUP2 SWAP1 POP PUSH1 0x1 DUP2 MLOAD LT ISZERO PUSH2 0x1FC JUMPI PUSH1 0x40 MLOAD PUSH32 0x8C379A000000000000000000000000000000000000000000000000000000000 DUP2 MSTORE PUSH1 0x4 ADD PUSH2 0x1F3 SWAP1 PUSH2 0xC83 JUMP JUMPDEST PUSH1 0x40 MLOAD DUP1 SWAP2 SUB SWAP1 REVERT JUMPDEST PUSH1 0x64 DUP2 MLOAD GT ISZERO PUSH2 0x241 JUMPI PUSH1 0x40 MLOAD PUSH32 0x8C379A000000000000000000000000000000000000000000000000000000000 DUP2 MSTORE PUSH1 0x4 ADD PUSH2 0x238 SWAP1 PUSH2 0xCEB JUMP JUMPDEST PUSH1 0x40 MLOAD DUP1 SWAP2 SUB SWAP1 REVERT JUMPDEST PUSH1 0x1 PUSH0 CALLER PUSH20 0xFFFFFFFFFFFFFFFFFFFFFFFFFFFFFFFFFFFFFFFF AND PUSH20 0xFFFFFFFFFFFFFFFFFFFFFFFFFFFFFFFFFFFFFFFF AND DUP2 MSTORE PUSH1 0x20 ADD SWAP1 DUP2 MSTORE PUSH1 0x20 ADD PUSH0 KECCAK256 DUP4 PUSH1 0x40 MLOAD PUSH2 0x28C SWAP2 SWAP1 PUSH2 0xD5B JUMP JUMPDEST SWAP1 DUP2 MSTORE PUSH1 0x20 ADD PUSH1 0x40 MLOAD DUP1 SWAP2 SUB SWAP1 KECCAK256 PUSH0 SWAP1 SLOAD SWAP1 PUSH2 0x100 EXP SWAP1 DIV PUSH1 0xFF AND PUSH2 0x2E6 JUMPI PUSH1 0x40 MLOAD PUSH32 0x8C379A000000000000000000000000000000000000000000000000000000000 DUP2 MSTORE PUSH1 0x4 ADD PUSH2 0x2DD SWAP1 PUSH2 0xDE1 JUMP JUMPDEST PUSH1 0x40 MLOAD DUP1 SWAP2 SUB SWAP1 REVERT JUMPDEST PUSH0 PUSH1 0x1 PUSH0 CALLER PUSH20 0xFFFFFFFFFFFFFFFFFFFFFFFFFFFFFFFFFFFFFFFF AND PUSH20 0xFFFFFFFFFFFFFFFFFFFFFFFFFFFFFFFFFFFFFFFF AND DUP2 MSTORE PUSH1 0x20 ADD SWAP1 DUP2 MSTORE PUSH1 0x20 ADD PUSH0 KECCAK256 DUP5 PUSH1 0x40 MLOAD PUSH2 0x332 SWAP2 SWAP1 PUSH2 0xD5B JUMP JUMPDEST SWAP1 DUP2 MSTORE PUSH1 0x20 ADD PUSH1 0x40 MLOAD DUP1 SWAP2 SUB SWAP1 KECCAK256 PUSH0 PUSH2 0x100 EXP DUP2 SLOAD DUP2 PUSH1 0xFF MUL NOT AND SWAP1 DUP4 ISZERO ISZERO MUL OR SWAP1 SSTORE POP CALLER PUSH20 0xFFFFFFFFFFFFFFFFFFFFFFFFFFFFFFFFFFFFFFFF AND PUSH32 0xB808084C2F3FE56DE9CBA89DA339ED7C671DA54A42C645035E217CD4835E672F DUP5 PUSH1 0x40 MLOAD PUSH2 0x39C SWAP2 SWAP1 PUSH2 0xE37 JUMP JUMPDEST PUSH1 0x40 MLOAD DUP1 SWAP2 SUB SWAP1 LOG2 POP POP POP JUMP JUMPDEST DUP1 PUSH0 DUP2 SWAP1 POP PUSH1 0x1 DUP2 MLOAD LT ISZERO PUSH2 0x3F3 JUMPI PUSH1 0x40 MLOAD PUSH32 0x8C379A000000000000000000000000000000000000000000000000000000000 DUP2 MSTORE PUSH1 0x4 ADD PUSH2 0x3EA SWAP1 PUSH2 0xC83 JUMP JUMPDEST PUSH1 0x40 MLOAD DUP1 SWAP2 SUB SWAP1 REVERT JUMPDEST PUSH1 0x64 DUP2 MLOAD GT ISZERO PUSH2 0x438 JUMPI PUSH1 0x40 MLOAD PUSH32 0x8C379A000000000000000000000000000000000000000000000000000000000 DUP2 MSTORE PUSH1 0x4 ADD PUSH2 0x42F SWAP1 PUSH2 0xCEB JUMP JUMPDEST PUSH1 0x40 MLOAD DUP1 SWAP2 SUB SWAP1 REVERT JUMPDEST PUSH1 0x1 PUSH0 CALLER PUSH20 0xFFFFFFFFFFFFFFFFFFFFFFFFFFFFFFFFFFFFFFFF AND PUSH20 0xFFFFFFFFFFFFFFFFFFFFFFFFFFFFFFFFFFFFFFFF AND DUP2 MSTORE PUSH1 0x20 ADD SWAP1 DUP2 MSTORE PUSH1 0x20 ADD PUSH0 KECCAK256 DUP4 PUSH1 0x40 MLOAD PUSH2 0x483 SWAP2 SWAP1 PUSH2 0xD5B JUMP JUMPDEST SWAP1 DUP2 MSTORE PUSH1 0x20 ADD PUSH1 0x40 MLOAD DUP1 SWAP2 SUB SWAP1 KECCAK256 PUSH0 SWAP1 SLOAD SWAP1 PUSH2 0x100 EXP SWAP1 DIV PUSH1 0xFF AND ISZERO PUSH2 0x4DE JUMPI PUSH1 0x40 MLOAD PUSH32 0x8C379A000000000000000000000000000000000000000000000000000000000 DUP2 MSTORE PUSH1 0x4 ADD PUSH2 0x4D5 SWAP1 PUSH2 0xEA1 JUMP JUMPDEST PUSH1 0x40 MLOAD DUP1 SWAP2 SUB SWAP1 REVERT JUMPDEST PUSH1 0x1 DUP1 PUSH0 CALLER PUSH20 0xFFFFFFFFFFFFFFFFFFFFFFFFFFFFFFFFFFFFFFFF AND PUSH20 0xFFFFFFFFFFFFFFFFFFFFFFFFFFFFFFFFFFFFFFFF AND DUP2 MSTORE PUSH1 0x20 ADD SWAP1 DUP2 MSTORE PUSH1 0x20 ADD PUSH0 KECCAK256 DUP5 PUSH1 0x40 MLOAD PUSH2 0x52A SWAP2 SWAP1 PUSH2 0xD5B JUMP JUMPDEST SWAP1 DUP2 MSTORE PUSH1 0x20 ADD PUSH1 0x40 MLOAD DUP1 SWAP2 SUB SWAP1 KECCAK256 PUSH0 PUSH2 0x100 EXP DUP2 SLOAD DUP2 PUSH1 0xFF MUL NOT AND SWAP1 DUP4 ISZERO ISZERO MUL OR SWAP1 SSTORE POP CALLER PUSH20 0xFFFFFFFFFFFFFFFFFFFFFFFFFFFFFFFFFFFFFFFF AND PUSH32 0x60A7FC7646AA81434CCC2528453F07ECB50A4DB71FFAD73C1F496302C0D6A6E1 DUP5 PUSH1 0x40 MLOAD PUSH2 0x594 SWAP2 SWAP1 PUSH2 0xE37 JUMP JUMPDEST PUSH1 0x40 MLOAD DUP1 SWAP2 SUB SWAP1 LOG2 POP POP POP JUMP JUMPDEST PUSH2 0x5A9 PUSH2 0x7DB JUMP JUMPDEST PUSH2 0x5B2 PUSH0 PUSH2 0x862 JUMP JUMPDEST JUMP JUMPDEST PUSH0 DUP2 PUSH0 DUP2 SWAP1 POP PUSH1 0x1 DUP2 MLOAD LT ISZERO PUSH2 0x5FF JUMPI PUSH1 0x40 MLOAD PUSH32 0x8C379A000000000000000000000000000000000000000000000000000000000 DUP2 MSTORE PUSH1 0x4 ADD PUSH2 0x5F6 SWAP1 PUSH2 0xC83 JUMP JUMPDEST PUSH1 0x40 MLOAD DUP1 SWAP2 SUB SWAP1 REVERT JUMPDEST PUSH1 0x64 DUP2 MLOAD GT ISZERO PUSH2 0x644 JUMPI PUSH1 0x40 MLOAD PUSH32 0x8C379A000000000000000000000000000000000000000000000000000000000 DUP2 MSTORE PUSH1 0x4 ADD PUSH2 0x63B SWAP1 PUSH2 0xCEB JUMP JUMPDEST PUSH1 0x40 MLOAD DUP1 SWAP2 SUB SWAP1 REVERT JUMPDEST PUSH1 0x1 PUSH0 DUP7 PUSH20 0xFFFFFFFFFFFFFFFFFFFFFFFFFFFFFFFFFFFFFFFF AND PUSH20 0xFFFFFFFFFFFFFFFFFFFFFFFFFFFFFFFFFFFFFFFF AND DUP2 MSTORE PUSH1 0x20 ADD SWAP1 DUP2 MSTORE PUSH1 0x20 ADD PUSH0 KECCAK256 DUP5 PUSH1 0x40 MLOAD PUSH2 0x68F SWAP2 SWAP1 PUSH2 0xD5B JUMP JUMPDEST SWAP1 DUP2 MSTORE PUSH1 0x20 ADD PUSH1 0x40 MLOAD DUP1 SWAP2 SUB SWAP1 KECCAK256 PUSH0 SWAP1 SLOAD SWAP1 PUSH2 0x100 EXP SWAP1 DIV PUSH1 0xFF AND SWAP3 POP POP POP SWAP3 SWAP2 POP POP JUMP JUMPDEST PUSH1 0x64 DUP2 JUMP JUMPDEST PUSH0 DUP1 PUSH0 SWAP1 SLOAD SWAP1 PUSH2 0x100 EXP SWAP1 DIV PUSH20 0xFFFFFFFFFFFFFFFFFFFFFFFFFFFFFFFFFFFFFFFF AND SWAP1 POP SWAP1 JUMP JUMPDEST PUSH0 PUSH2 0x6E9 PUSH2 0x7DB JUMP JUMPDEST PUSH1 0x1 PUSH0 DUP5 PUSH20 0xFFFFFFFFFFFFFFFFFFFFFFFFFFFFFFFFFFFFFFFF AND PUSH20 0xFFFFFFFFFFFFFFFFFFFFFFFFFFFFFFFFFFFFFFFF AND DUP2 MSTORE PUSH1 0x20 ADD SWAP1 DUP2 MSTORE PUSH1 0x20 ADD PUSH0 KECCAK256 DUP3 PUSH1 0x40 MLOAD PUSH2 0x734 SWAP2 SWAP1 PUSH2 0xD5B JUMP JUMPDEST SWAP1 DUP2 MSTORE PUSH1 0x20 ADD PUSH1 0x40 MLOAD DUP1 SWAP2 SUB SWAP1 KECCAK256 PUSH0 SWAP1 SLOAD SWAP1 PUSH2 0x100 EXP SWAP1 DIV PUSH1 0xFF AND SWAP1 POP SWAP3 SWAP2 POP POP JUMP JUMPDEST PUSH2 0x75F PUSH2 0x7DB JUMP JUMPDEST PUSH0 PUSH20 0xFFFFFFFFFFFFFFFFFFFFFFFFFFFFFFFFFFFFFFFF AND DUP2 PUSH20 0xFFFFFFFFFFFFFFFFFFFFFFFFFFFFFFFFFFFFFFFF AND SUB PUSH2 0x7CF JUMPI PUSH0 PUSH1 0x40 MLOAD PUSH32 0x1E4FBDF700000000000000000000000000000000000000000000000000000000 DUP2 MSTORE PUSH1 0x4 ADD PUSH2 0x7C6 SWAP2 SWAP1 PUSH2 0xBE5 JUMP JUMPDEST PUSH1 0x40 MLOAD DUP1 SWAP2 SUB SWAP1 REVERT JUMPDEST PUSH2 0x7D8 DUP2 PUSH2 0x862 JUMP JUMPDEST POP JUMP JUMPDEST PUSH2 0x7E3 PUSH2 0x923 JUMP JUMPDEST PUSH20 0xFFFFFFFFFFFFFFFFFFFFFFFFFFFFFFFFFFFFFFFF AND PUSH2 0x801 PUSH2 0x6B9 JUMP JUMPDEST PUSH20 0xFFFFFFFFFFFFFFFFFFFFFFFFFFFFFFFFFFFFFFFF AND EQ PUSH2 0x860 JUMPI PUSH2 0x824 PUSH2 0x923 JUMP JUMPDEST PUSH1 0x40 MLOAD PUSH32 0x118CDAA700000000000000000000000000000000000000000000000000000000 DUP2 MSTORE PUSH1 0x4 ADD PUSH2 0x857 SWAP2 SWAP1 PUSH2 0xBE5 JUMP JUMPDEST PUSH1 0x40 MLOAD DUP1 SWAP2 SUB SWAP1 REVERT JUMPDEST JUMP JUMPDEST PUSH0 DUP1 PUSH0 SWAP1 SLOAD SWAP1 PUSH2 0x100 EXP SWAP1 DIV PUSH20 0xFFFFFFFFFFFFFFFFFFFFFFFFFFFFFFFFFFFFFFFF AND SWAP1 POP DUP2 PUSH0 DUP1 PUSH2 0x100 EXP DUP2 SLOAD DUP2 PUSH20 0xFFFFFFFFFFFFFFFFFFFFFFFFFFFFFFFFFFFFFFFF MUL NOT AND SWAP1 DUP4 PUSH20 0xFFFFFFFFFFFFFFFFFFFFFFFFFFFFFFFFFFFFFFFF AND MUL OR SWAP1 SSTORE POP DUP2 PUSH20 0xFFFFFFFFFFFFFFFFFFFFFFFFFFFFFFFFFFFFFFFF AND DUP2 PUSH20 0xFFFFFFFFFFFFFFFFFFFFFFFFFFFFFFFFFFFFFFFF AND PUSH32 0x8BE0079C531659141344CD1FD0A4F28419497F9722A3DAAFE3B4186F6B6457E0 PUSH1 0x40 MLOAD PUSH1 0x40 MLOAD DUP1 SWAP2 SUB SWAP1 LOG3 POP POP JUMP JUMPDEST PUSH0 CALLER SWAP1 POP SWAP1 JUMP JUMPDEST PUSH0 DUP2 SWAP1 POP SWAP2 SWAP1 POP JUMP JUMPDEST PUSH2 0x93C DUP2 PUSH2 0x92A JUMP JUMPDEST DUP3 MSTORE POP POP JUMP JUMPDEST PUSH0 PUSH1 0x20 DUP3 ADD SWAP1 POP PUSH2 0x955 PUSH0 DUP4 ADD DUP5 PUSH2 0x933 JUMP JUMPDEST SWAP3 SWAP2 POP POP JUMP JUMPDEST PUSH0 PUSH1 0x40 MLOAD SWAP1 POP SWAP1 JUMP JUMPDEST PUSH0 DUP1 REVERT JUMPDEST PUSH0 DUP1 REVERT JUMPDEST PUSH0 DUP1 REVERT JUMPDEST PUSH0 DUP1 REVERT JUMPDEST PUSH0 PUSH1 0x1F NOT PUSH1 0x1F DUP4 ADD AND SWAP1 POP SWAP2 SWAP1 POP JUMP JUMPDEST PUSH32 0x4E487B7100000000000000000000000000000000000000000000000000000000 PUSH0 MSTORE PUSH1 0x41 PUSH1 0x4 MSTORE PUSH1 0x24 PUSH0 REVERT JUMPDEST PUSH2 0x9BA DUP3 PUSH2 0x974 JUMP JUMPDEST DUP2 ADD DUP2 DUP2 LT PUSH8 0xFFFFFFFFFFFFFFFF DUP3 GT OR ISZERO PUSH2 0x9D9 JUMPI PUSH2 0x9D8 PUSH2 0x984 JUMP JUMPDEST JUMPDEST DUP1 PUSH1 0x40 MSTORE POP POP POP JUMP JUMPDEST PUSH0 PUSH2 0x9EB PUSH2 0x95B JUMP JUMPDEST SWAP1 POP PUSH2 0x9F7 DUP3 DUP3 PUSH2 0x9B1 JUMP JUMPDEST SWAP2 SWAP1 POP JUMP JUMPDEST PUSH0 PUSH8 0xFFFFFFFFFFFFFFFF DUP3 GT ISZERO PUSH2 0xA16 JUMPI PUSH2 0xA15 PUSH2 0x984 JUMP JUMPDEST JUMPDEST PUSH2 0xA1F DUP3 PUSH2 0x974 JUMP JUMPDEST SWAP1 POP PUSH1 0x20 DUP2 ADD SWAP1 POP SWAP2 SWAP1 POP JUMP JUMPDEST DUP3 DUP2 DUP4 CALLDATACOPY PUSH0 DUP4 DUP4 ADD MSTORE POP POP POP JUMP JUMPDEST PUSH0 PUSH2 0xA4C PUSH2 0xA47 DUP5 PUSH2 0x9FC JUMP JUMPDEST PUSH2 0x9E2 JUMP JUMPDEST SWAP1 POP DUP3 DUP2 MSTORE PUSH1 0x20 DUP2 ADD DUP5 DUP5 DUP5 ADD GT ISZERO PUSH2 0xA68 JUMPI PUSH2 0xA67 PUSH2 0x970 JUMP JUMPDEST JUMPDEST PUSH2 0xA73 DUP5 DUP3 DUP6 PUSH2 0xA2C JUMP JUMPDEST POP SWAP4 SWAP3 POP POP POP JUMP JUMPDEST PUSH0 DUP3 PUSH1 0x1F DUP4 ADD SLT PUSH2 0xA8F JUMPI PUSH2 0xA8E PUSH2 0x96C JUMP JUMPDEST JUMPDEST DUP2 CALLDATALOAD PUSH2 0xA9F DUP5 DUP3 PUSH1 0x20 DUP7 ADD PUSH2 0xA3A JUMP JUMPDEST SWAP2 POP POP SWAP3 SWAP2 POP POP JUMP JUMPDEST PUSH0 PUSH1 0x20 DUP3 DUP5 SUB SLT ISZERO PUSH2 0xABD JUMPI PUSH2 0xABC PUSH2 0x964 JUMP JUMPDEST JUMPDEST PUSH0 DUP3 ADD CALLDATALOAD PUSH8 0xFFFFFFFFFFFFFFFF DUP2 GT ISZERO PUSH2 0xADA JUMPI PUSH2 0xAD9 PUSH2 0x968 JUMP JUMPDEST JUMPDEST PUSH2 0xAE6 DUP5 DUP3 DUP6 ADD PUSH2 0xA7B JUMP JUMPDEST SWAP2 POP POP SWAP3 SWAP2 POP POP JUMP JUMPDEST PUSH0 PUSH20 0xFFFFFFFFFFFFFFFFFFFFFFFFFFFFFFFFFFFFFFFF DUP3 AND SWAP1 POP SWAP2 SWAP1 POP JUMP JUMPDEST PUSH0 PUSH2 0xB18 DUP3 PUSH2 0xAEF JUMP JUMPDEST SWAP1 POP SWAP2 SWAP1 POP JUMP JUMPDEST PUSH2 0xB28 DUP2 PUSH2 0xB0E JUMP JUMPDEST DUP2 EQ PUSH2 0xB32 JUMPI PUSH0 DUP1 REVERT JUMPDEST POP JUMP JUMPDEST PUSH0 DUP2 CALLDATALOAD SWAP1 POP PUSH2 0xB43 DUP2 PUSH2 0xB1F JUMP JUMPDEST SWAP3 SWAP2 POP POP JUMP JUMPDEST PUSH0 DUP1 PUSH1 0x40 DUP4 DUP6 SUB SLT ISZERO PUSH2 0xB5F JUMPI PUSH2 0xB5E PUSH2 0x964 JUMP JUMPDEST JUMPDEST PUSH0 PUSH2 0xB6C DUP6 DUP3 DUP7 ADD PUSH2 0xB35 JUMP JUMPDEST SWAP3 POP POP PUSH1 0x20 DUP4 ADD CALLDATALOAD PUSH8 0xFFFFFFFFFFFFFFFF DUP2 GT ISZERO PUSH2 0xB8D JUMPI PUSH2 0xB8C PUSH2 0x968 JUMP JUMPDEST JUMPDEST PUSH2 0xB99 DUP6 DUP3 DUP7 ADD PUSH2 0xA7B JUMP JUMPDEST SWAP2 POP POP SWAP3 POP SWAP3 SWAP1 POP JUMP JUMPDEST PUSH0 DUP2 ISZERO ISZERO SWAP1 POP SWAP2 SWAP1 POP JUMP JUMPDEST PUSH2 0xBB7 DUP2 PUSH2 0xBA3 JUMP JUMPDEST DUP3 MSTORE POP POP JUMP JUMPDEST PUSH0 PUSH1 0x20 DUP3 ADD SWAP1 POP PUSH2 0xBD0 PUSH0 DUP4 ADD DUP5 PUSH2 0xBAE JUMP JUMPDEST SWAP3 SWAP2 POP POP JUMP JUMPDEST PUSH2 0xBDF DUP2 PUSH2 0xB0E JUMP JUMPDEST DUP3 MSTORE POP POP JUMP JUMPDEST PUSH0 PUSH1 0x20 DUP3 ADD SWAP1 POP PUSH2 0xBF8 PUSH0 DUP4 ADD DUP5 PUSH2 0xBD6 JUMP JUMPDEST SWAP3 SWAP2 POP POP JUMP JUMPDEST PUSH0 PUSH1 0x20 DUP3 DUP5 SUB SLT ISZERO PUSH2 0xC13 JUMPI PUSH2 0xC12 PUSH2 0x964 JUMP JUMPDEST JUMPDEST PUSH0 PUSH2 0xC20 DUP5 DUP3 DUP6 ADD PUSH2 0xB35 JUMP JUMPDEST SWAP2 POP POP SWAP3 SWAP2 POP POP JUMP JUMPDEST PUSH0 DUP3 DUP3 MSTORE PUSH1 0x20 DUP3 ADD SWAP1 POP SWAP3 SWAP2 POP POP JUMP JUMPDEST PUSH32 0x546F7069632063616E6E6F7420626520656D7074790000000000000000000000 PUSH0 DUP3 ADD MSTORE POP JUMP JUMPDEST PUSH0 PUSH2 0xC6D PUSH1 0x15 DUP4 PUSH2 0xC29 JUMP JUMPDEST SWAP2 POP PUSH2 0xC78 DUP3 PUSH2 0xC39 JUMP JUMPDEST PUSH1 0x20 DUP3 ADD SWAP1 POP SWAP2 SWAP1 POP JUMP JUMPDEST PUSH0 PUSH1 0x20 DUP3 ADD SWAP1 POP DUP2 DUP2 SUB PUSH0 DUP4 ADD MSTORE PUSH2 0xC9A DUP2 PUSH2 0xC61 JUMP JUMPDEST SWAP1 POP SWAP2 SWAP1 POP JUMP JUMPDEST PUSH32 0x546F706963206E616D6520746F6F206C6F6E6700000000000000000000000000 PUSH0 DUP3 ADD MSTORE POP JUMP JUMPDEST PUSH0 PUSH2 0xCD5 PUSH1 0x13 DUP4 PUSH2 0xC29 JUMP JUMPDEST SWAP2 POP PUSH2 0xCE0 DUP3 PUSH2 0xCA1 JUMP JUMPDEST PUSH1 0x20 DUP3 ADD SWAP1 POP SWAP2 SWAP1 POP JUMP JUMPDEST PUSH0 PUSH1 0x20 DUP3 ADD SWAP1 POP DUP2 DUP2 SUB PUSH0 DUP4 ADD MSTORE PUSH2 0xD02 DUP2 PUSH2 0xCC9 JUMP JUMPDEST SWAP1 POP SWAP2 SWAP1 POP JUMP JUMPDEST PUSH0 DUP2 MLOAD SWAP1 POP SWAP2 SWAP1 POP JUMP JUMPDEST PUSH0 DUP2 SWAP1 POP SWAP3 SWAP2 POP POP JUMP JUMPDEST DUP3 DUP2 DUP4 MCOPY PUSH0 DUP4 DUP4 ADD MSTORE POP POP POP JUMP JUMPDEST PUSH0 PUSH2 0xD35 DUP3 PUSH2 0xD09 JUMP JUMPDEST PUSH2 0xD3F DUP2 DUP6 PUSH2 0xD13 JUMP JUMPDEST SWAP4 POP PUSH2 0xD4F DUP2 DUP6 PUSH1 0x20 DUP7 ADD PUSH2 0xD1D JUMP JUMPDEST DUP1 DUP5 ADD SWAP2 POP POP SWAP3 SWAP2 POP POP JUMP JUMPDEST PUSH0 PUSH2 0xD66 DUP3 DUP5 PUSH2 0xD2B JUMP JUMPDEST SWAP2 POP DUP2 SWAP1 POP SWAP3 SWAP2 POP POP JUMP JUMPDEST PUSH32 0x596F7520617265206E6F74207375627363726962656420746F20746869732074 PUSH0 DUP3 ADD MSTORE PUSH32 0x6F70696300000000000000000000000000000000000000000000000000000000 PUSH1 0x20 DUP3 ADD MSTORE POP JUMP JUMPDEST PUSH0 PUSH2 0xDCB PUSH1 0x24 DUP4 PUSH2 0xC29 JUMP JUMPDEST SWAP2 POP PUSH2 0xDD6 DUP3 PUSH2 0xD71 JUMP JUMPDEST PUSH1 0x40 DUP3 ADD SWAP1 POP SWAP2 SWAP1 POP JUMP JUMPDEST PUSH0 PUSH1 0x20 DUP3 ADD SWAP1 POP DUP2 DUP2 SUB PUSH0 DUP4 ADD MSTORE PUSH2 0xDF8 DUP2 PUSH2 0xDBF JUMP JUMPDEST SWAP1 POP SWAP2 SWAP1 POP JUMP JUMPDEST PUSH0 PUSH2 0xE09 DUP3 PUSH2 0xD09 JUMP JUMPDEST PUSH2 0xE13 DUP2 DUP6 PUSH2 0xC29 JUMP JUMPDEST SWAP4 POP PUSH2 0xE23 DUP2 DUP6 PUSH1 0x20 DUP7 ADD PUSH2 0xD1D JUMP JUMPDEST PUSH2 0xE2C DUP2 PUSH2 0x974 JUMP JUMPDEST DUP5 ADD SWAP2 POP POP SWAP3 SWAP2 POP POP JUMP JUMPDEST PUSH0 PUSH1 0x20 DUP3 ADD SWAP1 POP DUP2 DUP2 SUB PUSH0 DUP4 ADD MSTORE PUSH2 0xE4F DUP2 DUP5 PUSH2 0xDFF JUMP JUMPDEST SWAP1 POP SWAP3 SWAP2 POP POP JUMP JUMPDEST PUSH32 0x416C7265616479207375627363726962656420746F207468697320746F706963 PUSH0 DUP3 ADD MSTORE POP JUMP JUMPDEST PUSH0 PUSH2 0xE8B PUSH1 0x20 DUP4 PUSH2 0xC29 JUMP JUMPDEST SWAP2 POP PUSH2 0xE96 DUP3 PUSH2 0xE57 JUMP JUMPDEST PUSH1 0x20 DUP3 ADD SWAP1 POP SWAP2 SWAP1 POP JUMP JUMPDEST PUSH0 PUSH1 0x20 DUP3 ADD SWAP1 POP DUP2 DUP2 SUB PUSH0 DUP4 ADD MSTORE PUSH2 0xEB8 DUP2 PUSH2 0xE7F JUMP JUMPDEST SWAP1 POP SWAP2 SWAP1 POP JUMP INVALID LOG2 PUSH5 0x6970667358 0x22 SLT KECCAK256 SWAP11 PUSH8 0xB70D5CA8F2622D4C 0xA7 PUSH5 0xA9D8F393DE 0xF8 0x4F ADDMOD 0xC5 ISZERO DUP1 SHR SAR PUSH5 0x2F7392593B MLOAD PUSH5 0x736F6C6343 STOP ADDMOD BYTE STOP CALLER "
				},
				"gasEstimates": {
					"creation": {
						"codeDepositCost": "765800",
						"executionCost": "infinite",
						"totalCost": "infinite"
					},
					"external": {
						"MAX_TOPIC_LENGTH()": "347",
						"MIN_TOPIC_LENGTH()": "326",
						"getSubscriptionStatus(address,string)": "infinite",
						"isSubscribed(address,string)": "infinite",
						"owner()": "2559",
						"renounceOwnership()": "infinite",
						"subscribe(string)": "infinite",
						"transferOwnership(address)": "infinite",
						"unsubscribe(string)": "infinite"
					}
				},
				"methodIdentifiers": {
					"MAX_TOPIC_LENGTH()": "7db34df2",
					"MIN_TOPIC_LENGTH()": "13d1ab7e",
					"getSubscriptionStatus(address,string)": "e97a3f43",
					"isSubscribed(address,string)": "7a1a14f5",
					"owner()": "8da5cb5b",
					"renounceOwnership()": "715018a6",
					"subscribe(string)": "507e7888",
					"transferOwnership(address)": "f2fde38b",
					"unsubscribe(string)": "47cc5f9a"
				}
			},
			"storageLayout": {
				"storage": [
					{
						"astId": 8,
						"contract": "FINAL_YEAR_PROJECT_WORK/TopicSubscriptionManager.sol:TopicSubscriptionManager",
						"label": "_owner",
						"offset": 0,
						"slot": "0",
						"type": "t_address"
					},
					{
						"astId": 188,
						"contract": "FINAL_YEAR_PROJECT_WORK/TopicSubscriptionManager.sol:TopicSubscriptionManager",
						"label": "subscriptions",
						"offset": 0,
						"slot": "1",
						"type": "t_mapping(t_address,t_mapping(t_string_memory_ptr,t_bool))"
					}
				],
				"types": {
					"t_address": {
						"encoding": "inplace",
						"label": "address",
						"numberOfBytes": "20"
					},
					"t_bool": {
						"encoding": "inplace",
						"label": "bool",
						"numberOfBytes": "1"
					},
					"t_mapping(t_address,t_mapping(t_string_memory_ptr,t_bool))": {
						"encoding": "mapping",
						"key": "t_address",
						"label": "mapping(address => mapping(string => bool))",
						"numberOfBytes": "32",
						"value": "t_mapping(t_string_memory_ptr,t_bool)"
					},
					"t_mapping(t_string_memory_ptr,t_bool)": {
						"encoding": "mapping",
						"key": "t_string_memory_ptr",
						"label": "mapping(string => bool)",
						"numberOfBytes": "32",
						"value": "t_bool"
					},
					"t_string_memory_ptr": {
						"encoding": "bytes",
						"label": "string",
						"numberOfBytes": "32"
					}
				}
			},
			"userdoc": {
				"kind": "user",
				"methods": {},
				"version": 1
			}
		}
	}
}