{
	"FINAL_YEAR_PROJECT_WORK/SocialInteraction.sol": {
		"SocialInteraction": {
			"abi": [
				{
					"anonymous": false,
					"inputs": [
						{
							"indexed": true,
							"internalType": "address",
							"name": "user",
							"type": "address"
						},
						{
							"indexed": true,
							"internalType": "uint256",
							"name": "postId",
							"type": "uint256"
						},
						{
							"indexed": false,
							"internalType": "string",
							"name": "comment",
							"type": "string"
						}
					],
					"name": "PostCommented",
					"type": "event"
				},
				{
					"anonymous": false,
					"inputs": [
						{
							"indexed": true,
							"internalType": "address",
							"name": "user",
							"type": "address"
						},
						{
							"indexed": true,
							"internalType": "uint256",
							"name": "postId",
							"type": "uint256"
						}
					],
					"name": "PostLiked",
					"type": "event"
				},
				{
					"anonymous": false,
					"inputs": [
						{
							"indexed": true,
							"internalType": "address",
							"name": "user",
							"type": "address"
						},
						{
							"indexed": true,
							"internalType": "uint256",
							"name": "postId",
							"type": "uint256"
						}
					],
					"name": "PostShared",
					"type": "event"
				},
				{
					"inputs": [],
					"name": "COMMENT_COOLDOWN",
					"outputs": [
						{
							"internalType": "uint256",
							"name": "",
							"type": "uint256"
						}
					],
					"stateMutability": "view",
					"type": "function"
				},
				{
					"inputs": [],
					"name": "MAX_COMMENT_LENGTH",
					"outputs": [
						{
							"internalType": "uint256",
							"name": "",
							"type": "uint256"
						}
					],
					"stateMutability": "view",
					"type": "function"
				},
				{
					"inputs": [
						{
							"internalType": "uint256",
							"name": "",
							"type": "uint256"
						}
					],
					"name": "commentCounts",
					"outputs": [
						{
							"internalType": "uint256",
							"name": "",
							"type": "uint256"
						}
					],
					"stateMutability": "view",
					"type": "function"
				},
				{
					"inputs": [
						{
							"internalType": "uint256",
							"name": "_postId",
							"type": "uint256"
						},
						{
							"internalType": "string",
							"name": "_comment",
							"type": "string"
						}
					],
					"name": "commentOnPost",
					"outputs": [],
					"stateMutability": "nonpayable",
					"type": "function"
				},
				{
					"inputs": [
						{
							"internalType": "uint256",
							"name": "_postId",
							"type": "uint256"
						}
					],
					"name": "getInteractionCounts",
					"outputs": [
						{
							"internalType": "uint256",
							"name": "likes",
							"type": "uint256"
						},
						{
							"internalType": "uint256",
							"name": "shares",
							"type": "uint256"
						},
						{
							"internalType": "uint256",
							"name": "comments",
							"type": "uint256"
						}
					],
					"stateMutability": "view",
					"type": "function"
				},
				{
					"inputs": [
						{
							"internalType": "uint256",
							"name": "_postId",
							"type": "uint256"
						}
					],
					"name": "getInteractions",
					"outputs": [
						{
							"components": [
								{
									"internalType": "uint256",
									"name": "postId",
									"type": "uint256"
								},
								{
									"internalType": "address",
									"name": "user",
									"type": "address"
								},
								{
									"internalType": "enum SocialInteraction.ActionType",
									"name": "action",
									"type": "uint8"
								},
								{
									"internalType": "string",
									"name": "commentText",
									"type": "string"
								},
								{
									"internalType": "uint256",
									"name": "timestamp",
									"type": "uint256"
								}
							],
							"internalType": "struct SocialInteraction.Interaction[]",
							"name": "",
							"type": "tuple[]"
						}
					],
					"stateMutability": "view",
					"type": "function"
				},
				{
					"inputs": [
						{
							"internalType": "uint256",
							"name": "",
							"type": "uint256"
						},
						{
							"internalType": "address",
							"name": "",
							"type": "address"
						}
					],
					"name": "hasLiked",
					"outputs": [
						{
							"internalType": "bool",
							"name": "",
							"type": "bool"
						}
					],
					"stateMutability": "view",
					"type": "function"
				},
				{
					"inputs": [
						{
							"internalType": "address",
							"name": "",
							"type": "address"
						}
					],
					"name": "lastCommentTime",
					"outputs": [
						{
							"internalType": "uint256",
							"name": "",
							"type": "uint256"
						}
					],
					"stateMutability": "view",
					"type": "function"
				},
				{
					"inputs": [
						{
							"internalType": "uint256",
							"name": "",
							"type": "uint256"
						}
					],
					"name": "likeCounts",
					"outputs": [
						{
							"internalType": "uint256",
							"name": "",
							"type": "uint256"
						}
					],
					"stateMutability": "view",
					"type": "function"
				},
				{
					"inputs": [
						{
							"internalType": "uint256",
							"name": "_postId",
							"type": "uint256"
						}
					],
					"name": "likePost",
					"outputs": [],
					"stateMutability": "nonpayable",
					"type": "function"
				},
				{
					"inputs": [
						{
							"internalType": "uint256",
							"name": "",
							"type": "uint256"
						}
					],
					"name": "shareCounts",
					"outputs": [
						{
							"internalType": "uint256",
							"name": "",
							"type": "uint256"
						}
					],
					"stateMutability": "view",
					"type": "function"
				},
				{
					"inputs": [
						{
							"internalType": "uint256",
							"name": "_postId",
							"type": "uint256"
						}
					],
					"name": "sharePost",
					"outputs": [],
					"stateMutability": "nonpayable",
					"type": "function"
				}
			],
			"devdoc": {
				"kind": "dev",
				"methods": {},
				"version": 1
			},
			"evm": {
				"assembly": "    /* \"FINAL_YEAR_PROJECT_WORK/SocialInteraction.sol\":58:3919  contract SocialInteraction {... */\n  mstore(0x40, 0x80)\n  callvalue\n  dup1\n  iszero\n  tag_1\n  jumpi\n  0x00\n  dup1\n  revert\ntag_1:\n  pop\n  dataSize(sub_0)\n  dup1\n  dataOffset(sub_0)\n  0x00\n  codecopy\n  0x00\n  return\nstop\n\nsub_0: assembly {\n        /* \"FINAL_YEAR_PROJECT_WORK/SocialInteraction.sol\":58:3919  contract SocialInteraction {... */\n      mstore(0x40, 0x80)\n      callvalue\n      dup1\n      iszero\n      tag_1\n      jumpi\n      0x00\n      dup1\n      revert\n    tag_1:\n      pop\n      jumpi(tag_2, lt(calldatasize, 0x04))\n      shr(0xe0, calldataload(0x00))\n      dup1\n      0x725009d3\n      gt\n      tag_15\n      jumpi\n      dup1\n      0x725009d3\n      eq\n      tag_9\n      jumpi\n      dup1\n      0x8fb7092c\n      eq\n      tag_10\n      jumpi\n      dup1\n      0xaf87ad85\n      eq\n      tag_11\n      jumpi\n      dup1\n      0xc6d9a474\n      eq\n      tag_12\n      jumpi\n      dup1\n      0xde53afcc\n      eq\n      tag_13\n      jumpi\n      dup1\n      0xf5d76320\n      eq\n      tag_14\n      jumpi\n      jump(tag_2)\n    tag_15:\n      dup1\n      0x04a7b094\n      eq\n      tag_3\n      jumpi\n      dup1\n      0x1a9a6ef0\n      eq\n      tag_4\n      jumpi\n      dup1\n      0x50e15276\n      eq\n      tag_5\n      jumpi\n      dup1\n      0x5856e4fa\n      eq\n      tag_6\n      jumpi\n      dup1\n      0x64732154\n      eq\n      tag_7\n      jumpi\n      dup1\n      0x6793bcb5\n      eq\n      tag_8\n      jumpi\n    tag_2:\n      0x00\n      dup1\n      revert\n        /* \"FINAL_YEAR_PROJECT_WORK/SocialInteraction.sol\":162:214  uint256 public constant COMMENT_COOLDOWN = 1 minutes */\n    tag_3:\n      tag_16\n      tag_17\n      jump\t// in\n    tag_16:\n      mload(0x40)\n      tag_18\n      swap2\n      swap1\n      tag_19\n      jump\t// in\n    tag_18:\n      mload(0x40)\n      dup1\n      swap2\n      sub\n      swap1\n      return\n        /* \"FINAL_YEAR_PROJECT_WORK/SocialInteraction.sol\":643:688  mapping(uint256 => uint256) public likeCounts */\n    tag_4:\n      tag_20\n      0x04\n      dup1\n      calldatasize\n      sub\n      dup2\n      add\n      swap1\n      tag_21\n      swap2\n      swap1\n      tag_22\n      jump\t// in\n    tag_21:\n      tag_23\n      jump\t// in\n    tag_20:\n      mload(0x40)\n      tag_24\n      swap2\n      swap1\n      tag_19\n      jump\t// in\n    tag_24:\n      mload(0x40)\n      dup1\n      swap2\n      sub\n      swap1\n      return\n        /* \"FINAL_YEAR_PROJECT_WORK/SocialInteraction.sol\":988:1038  mapping(address => uint256) public lastCommentTime */\n    tag_5:\n      tag_25\n      0x04\n      dup1\n      calldatasize\n      sub\n      dup2\n      add\n      swap1\n      tag_26\n      swap2\n      swap1\n      tag_27\n      jump\t// in\n    tag_26:\n      tag_28\n      jump\t// in\n    tag_25:\n      mload(0x40)\n      tag_29\n      swap2\n      swap1\n      tag_19\n      jump\t// in\n    tag_29:\n      mload(0x40)\n      dup1\n      swap2\n      sub\n      swap1\n      return\n        /* \"FINAL_YEAR_PROJECT_WORK/SocialInteraction.sol\":108:156  uint256 public constant MAX_COMMENT_LENGTH = 280 */\n    tag_6:\n      tag_30\n      tag_31\n      jump\t// in\n    tag_30:\n      mload(0x40)\n      tag_32\n      swap2\n      swap1\n      tag_19\n      jump\t// in\n    tag_32:\n      mload(0x40)\n      dup1\n      swap2\n      sub\n      swap1\n      return\n        /* \"FINAL_YEAR_PROJECT_WORK/SocialInteraction.sol\":2871:3455  function commentOnPost(uint256 _postId, string memory _comment)... */\n    tag_7:\n      tag_33\n      0x04\n      dup1\n      calldatasize\n      sub\n      dup2\n      add\n      swap1\n      tag_34\n      swap2\n      swap1\n      tag_35\n      jump\t// in\n    tag_34:\n      tag_36\n      jump\t// in\n    tag_33:\n      stop\n        /* \"FINAL_YEAR_PROJECT_WORK/SocialInteraction.sol\":3707:3917  function getInteractionCounts(uint256 _postId) external view returns (uint256 likes, uint256 shares, uint256 comments) {... */\n    tag_8:\n      tag_37\n      0x04\n      dup1\n      calldatasize\n      sub\n      dup2\n      add\n      swap1\n      tag_38\n      swap2\n      swap1\n      tag_22\n      jump\t// in\n    tag_38:\n      tag_39\n      jump\t// in\n    tag_37:\n      mload(0x40)\n      tag_40\n      swap4\n      swap3\n      swap2\n      swap1\n      tag_41\n      jump\t// in\n    tag_40:\n      mload(0x40)\n      dup1\n      swap2\n      sub\n      swap1\n      return\n        /* \"FINAL_YEAR_PROJECT_WORK/SocialInteraction.sol\":1875:2406  function likePost(uint256 _postId) external {... */\n    tag_9:\n      tag_42\n      0x04\n      dup1\n      calldatasize\n      sub\n      dup2\n      add\n      swap1\n      tag_43\n      swap2\n      swap1\n      tag_22\n      jump\t// in\n    tag_43:\n      tag_44\n      jump\t// in\n    tag_42:\n      stop\n        /* \"FINAL_YEAR_PROJECT_WORK/SocialInteraction.sol\":861:921  mapping(uint256 => mapping(address => bool)) public hasLiked */\n    tag_10:\n      tag_45\n      0x04\n      dup1\n      calldatasize\n      sub\n      dup2\n      add\n      swap1\n      tag_46\n      swap2\n      swap1\n      tag_47\n      jump\t// in\n    tag_46:\n      tag_48\n      jump\t// in\n    tag_45:\n      mload(0x40)\n      tag_49\n      swap2\n      swap1\n      tag_50\n      jump\t// in\n    tag_49:\n      mload(0x40)\n      dup1\n      swap2\n      sub\n      swap1\n      return\n        /* \"FINAL_YEAR_PROJECT_WORK/SocialInteraction.sol\":3500:3632  function getInteractions(uint256 _postId) external view returns (Interaction[] memory) {... */\n    tag_11:\n      tag_51\n      0x04\n      dup1\n      calldatasize\n      sub\n      dup2\n      add\n      swap1\n      tag_52\n      swap2\n      swap1\n      tag_22\n      jump\t// in\n    tag_52:\n      tag_53\n      jump\t// in\n    tag_51:\n      mload(0x40)\n      tag_54\n      swap2\n      swap1\n      tag_55\n      jump\t// in\n    tag_54:\n      mload(0x40)\n      dup1\n      swap2\n      sub\n      swap1\n      return\n        /* \"FINAL_YEAR_PROJECT_WORK/SocialInteraction.sol\":746:794  mapping(uint256 => uint256) public commentCounts */\n    tag_12:\n      tag_56\n      0x04\n      dup1\n      calldatasize\n      sub\n      dup2\n      add\n      swap1\n      tag_57\n      swap2\n      swap1\n      tag_22\n      jump\t// in\n    tag_57:\n      tag_58\n      jump\t// in\n    tag_56:\n      mload(0x40)\n      tag_59\n      swap2\n      swap1\n      tag_19\n      jump\t// in\n    tag_59:\n      mload(0x40)\n      dup1\n      swap2\n      sub\n      swap1\n      return\n        /* \"FINAL_YEAR_PROJECT_WORK/SocialInteraction.sol\":694:740  mapping(uint256 => uint256) public shareCounts */\n    tag_13:\n      tag_60\n      0x04\n      dup1\n      calldatasize\n      sub\n      dup2\n      add\n      swap1\n      tag_61\n      swap2\n      swap1\n      tag_22\n      jump\t// in\n    tag_61:\n      tag_62\n      jump\t// in\n    tag_60:\n      mload(0x40)\n      tag_63\n      swap2\n      swap1\n      tag_19\n      jump\t// in\n    tag_63:\n      mload(0x40)\n      dup1\n      swap2\n      sub\n      swap1\n      return\n        /* \"FINAL_YEAR_PROJECT_WORK/SocialInteraction.sol\":2432:2840  function sharePost(uint256 _postId) external {... */\n    tag_14:\n      tag_64\n      0x04\n      dup1\n      calldatasize\n      sub\n      dup2\n      add\n      swap1\n      tag_65\n      swap2\n      swap1\n      tag_22\n      jump\t// in\n    tag_65:\n      tag_66\n      jump\t// in\n    tag_64:\n      stop\n        /* \"FINAL_YEAR_PROJECT_WORK/SocialInteraction.sol\":162:214  uint256 public constant COMMENT_COOLDOWN = 1 minutes */\n    tag_17:\n        /* \"FINAL_YEAR_PROJECT_WORK/SocialInteraction.sol\":205:214  1 minutes */\n      0x3c\n        /* \"FINAL_YEAR_PROJECT_WORK/SocialInteraction.sol\":162:214  uint256 public constant COMMENT_COOLDOWN = 1 minutes */\n      dup2\n      jump\t// out\n        /* \"FINAL_YEAR_PROJECT_WORK/SocialInteraction.sol\":643:688  mapping(uint256 => uint256) public likeCounts */\n    tag_23:\n      mstore(0x20, 0x01)\n      dup1\n      0x00\n      mstore\n      keccak256(0x00, 0x40)\n      0x00\n      swap2\n      pop\n      swap1\n      pop\n      sload\n      dup2\n      jump\t// out\n        /* \"FINAL_YEAR_PROJECT_WORK/SocialInteraction.sol\":988:1038  mapping(address => uint256) public lastCommentTime */\n    tag_28:\n      mstore(0x20, 0x05)\n      dup1\n      0x00\n      mstore\n      keccak256(0x00, 0x40)\n      0x00\n      swap2\n      pop\n      swap1\n      pop\n      sload\n      dup2\n      jump\t// out\n        /* \"FINAL_YEAR_PROJECT_WORK/SocialInteraction.sol\":108:156  uint256 public constant MAX_COMMENT_LENGTH = 280 */\n    tag_31:\n        /* \"FINAL_YEAR_PROJECT_WORK/SocialInteraction.sol\":153:156  280 */\n      0x0118\n        /* \"FINAL_YEAR_PROJECT_WORK/SocialInteraction.sol\":108:156  uint256 public constant MAX_COMMENT_LENGTH = 280 */\n      dup2\n      jump\t// out\n        /* \"FINAL_YEAR_PROJECT_WORK/SocialInteraction.sol\":2871:3455  function commentOnPost(uint256 _postId, string memory _comment)... */\n    tag_36:\n        /* \"FINAL_YEAR_PROJECT_WORK/SocialInteraction.sol\":2973:2981  _comment */\n      dup1\n        /* \"FINAL_YEAR_PROJECT_WORK/SocialInteraction.sol\":1374:1399  bytes memory commentBytes */\n      0x00\n        /* \"FINAL_YEAR_PROJECT_WORK/SocialInteraction.sol\":1408:1416  _comment */\n      dup2\n        /* \"FINAL_YEAR_PROJECT_WORK/SocialInteraction.sol\":1374:1417  bytes memory commentBytes = bytes(_comment) */\n      swap1\n      pop\n        /* \"FINAL_YEAR_PROJECT_WORK/SocialInteraction.sol\":1457:1458  0 */\n      0x00\n        /* \"FINAL_YEAR_PROJECT_WORK/SocialInteraction.sol\":1435:1447  commentBytes */\n      dup2\n        /* \"FINAL_YEAR_PROJECT_WORK/SocialInteraction.sol\":1435:1454  commentBytes.length */\n      mload\n        /* \"FINAL_YEAR_PROJECT_WORK/SocialInteraction.sol\":1435:1458  commentBytes.length > 0 */\n      gt\n        /* \"FINAL_YEAR_PROJECT_WORK/SocialInteraction.sol\":1427:1486  require(commentBytes.length > 0, \"Comment cannot be empty\") */\n      tag_68\n      jumpi\n      mload(0x40)\n      0x08c379a000000000000000000000000000000000000000000000000000000000\n      dup2\n      mstore\n      0x04\n      add\n      tag_69\n      swap1\n      tag_70\n      jump\t// in\n    tag_69:\n      mload(0x40)\n      dup1\n      swap2\n      sub\n      swap1\n      revert\n    tag_68:\n        /* \"FINAL_YEAR_PROJECT_WORK/SocialInteraction.sol\":153:156  280 */\n      0x0118\n        /* \"FINAL_YEAR_PROJECT_WORK/SocialInteraction.sol\":1504:1516  commentBytes */\n      dup2\n        /* \"FINAL_YEAR_PROJECT_WORK/SocialInteraction.sol\":1504:1523  commentBytes.length */\n      mload\n        /* \"FINAL_YEAR_PROJECT_WORK/SocialInteraction.sol\":1504:1545  commentBytes.length <= MAX_COMMENT_LENGTH */\n      gt\n      iszero\n        /* \"FINAL_YEAR_PROJECT_WORK/SocialInteraction.sol\":1496:1566  require(commentBytes.length <= MAX_COMMENT_LENGTH, \"Comment too long\") */\n      tag_71\n      jumpi\n      mload(0x40)\n      0x08c379a000000000000000000000000000000000000000000000000000000000\n      dup2\n      mstore\n      0x04\n      add\n      tag_72\n      swap1\n      tag_73\n      jump\t// in\n    tag_72:\n      mload(0x40)\n      dup1\n      swap2\n      sub\n      swap1\n      revert\n    tag_71:\n        /* \"FINAL_YEAR_PROJECT_WORK/SocialInteraction.sol\":205:214  1 minutes */\n      0x3c\n        /* \"FINAL_YEAR_PROJECT_WORK/SocialInteraction.sol\":1725:1740  lastCommentTime */\n      0x05\n        /* \"FINAL_YEAR_PROJECT_WORK/SocialInteraction.sol\":1725:1752  lastCommentTime[msg.sender] */\n      0x00\n        /* \"FINAL_YEAR_PROJECT_WORK/SocialInteraction.sol\":1741:1751  msg.sender */\n      caller\n        /* \"FINAL_YEAR_PROJECT_WORK/SocialInteraction.sol\":1725:1752  lastCommentTime[msg.sender] */\n      0xffffffffffffffffffffffffffffffffffffffff\n      and\n      0xffffffffffffffffffffffffffffffffffffffff\n      and\n      dup2\n      mstore\n      0x20\n      add\n      swap1\n      dup2\n      mstore\n      0x20\n      add\n      0x00\n      keccak256\n      sload\n        /* \"FINAL_YEAR_PROJECT_WORK/SocialInteraction.sol\":1725:1771  lastCommentTime[msg.sender] + COMMENT_COOLDOWN */\n      tag_75\n      swap2\n      swap1\n      tag_76\n      jump\t// in\n    tag_75:\n        /* \"FINAL_YEAR_PROJECT_WORK/SocialInteraction.sol\":1706:1721  block.timestamp */\n      timestamp\n        /* \"FINAL_YEAR_PROJECT_WORK/SocialInteraction.sol\":1706:1771  block.timestamp >= lastCommentTime[msg.sender] + COMMENT_COOLDOWN */\n      lt\n      iszero\n        /* \"FINAL_YEAR_PROJECT_WORK/SocialInteraction.sol\":1685:1832  require(... */\n      tag_77\n      jumpi\n      mload(0x40)\n      0x08c379a000000000000000000000000000000000000000000000000000000000\n      dup2\n      mstore\n      0x04\n      add\n      tag_78\n      swap1\n      tag_79\n      jump\t// in\n    tag_78:\n      mload(0x40)\n      dup1\n      swap2\n      sub\n      swap1\n      revert\n    tag_77:\n        /* \"FINAL_YEAR_PROJECT_WORK/SocialInteraction.sol\":3024:3036  interactions */\n      0x00\n        /* \"FINAL_YEAR_PROJECT_WORK/SocialInteraction.sol\":3024:3045  interactions[_postId] */\n      dup1\n        /* \"FINAL_YEAR_PROJECT_WORK/SocialInteraction.sol\":3037:3044  _postId */\n      dup6\n        /* \"FINAL_YEAR_PROJECT_WORK/SocialInteraction.sol\":3024:3045  interactions[_postId] */\n      dup2\n      mstore\n      0x20\n      add\n      swap1\n      dup2\n      mstore\n      0x20\n      add\n      0x00\n      keccak256\n        /* \"FINAL_YEAR_PROJECT_WORK/SocialInteraction.sol\":3064:3285  Interaction({... */\n      mload(0x40)\n      dup1\n      0xa0\n      add\n      0x40\n      mstore\n      dup1\n        /* \"FINAL_YEAR_PROJECT_WORK/SocialInteraction.sol\":3102:3109  _postId */\n      dup7\n        /* \"FINAL_YEAR_PROJECT_WORK/SocialInteraction.sol\":3064:3285  Interaction({... */\n      dup2\n      mstore\n      0x20\n      add\n        /* \"FINAL_YEAR_PROJECT_WORK/SocialInteraction.sol\":3133:3143  msg.sender */\n      caller\n        /* \"FINAL_YEAR_PROJECT_WORK/SocialInteraction.sol\":3064:3285  Interaction({... */\n      0xffffffffffffffffffffffffffffffffffffffff\n      and\n      dup2\n      mstore\n      0x20\n      add\n        /* \"FINAL_YEAR_PROJECT_WORK/SocialInteraction.sol\":3169:3187  ActionType.Comment */\n      0x02\n        /* \"FINAL_YEAR_PROJECT_WORK/SocialInteraction.sol\":3064:3285  Interaction({... */\n      dup1\n      dup2\n      gt\n      iszero\n      tag_81\n      jumpi\n      tag_82\n      tag_83\n      jump\t// in\n    tag_82:\n    tag_81:\n      dup2\n      mstore\n      0x20\n      add\n        /* \"FINAL_YEAR_PROJECT_WORK/SocialInteraction.sol\":3218:3226  _comment */\n      dup6\n        /* \"FINAL_YEAR_PROJECT_WORK/SocialInteraction.sol\":3064:3285  Interaction({... */\n      dup2\n      mstore\n      0x20\n      add\n        /* \"FINAL_YEAR_PROJECT_WORK/SocialInteraction.sol\":3255:3270  block.timestamp */\n      timestamp\n        /* \"FINAL_YEAR_PROJECT_WORK/SocialInteraction.sol\":3064:3285  Interaction({... */\n      dup2\n      mstore\n      pop\n        /* \"FINAL_YEAR_PROJECT_WORK/SocialInteraction.sol\":3024:3295  interactions[_postId].push(... */\n      swap1\n      dup1\n      0x01\n      dup2\n      sload\n      add\n      dup1\n      dup3\n      sstore\n      dup1\n      swap2\n      pop\n      pop\n      0x01\n      swap1\n      sub\n      swap1\n      0x00\n      mstore\n      keccak256(0x00, 0x20)\n      swap1\n      0x04\n      mul\n      add\n      0x00\n      swap1\n      swap2\n      swap1\n      swap2\n      swap1\n      swap2\n      pop\n      0x00\n      dup3\n      add\n      mload\n      dup2\n      0x00\n      add\n      sstore\n      0x20\n      dup3\n      add\n      mload\n      dup2\n      0x01\n      add\n      exp(0x0100, 0x00)\n      dup2\n      sload\n      dup2\n      0xffffffffffffffffffffffffffffffffffffffff\n      mul\n      not\n      and\n      swap1\n      dup4\n      0xffffffffffffffffffffffffffffffffffffffff\n      and\n      mul\n      or\n      swap1\n      sstore\n      pop\n      0x40\n      dup3\n      add\n      mload\n      dup2\n      0x01\n      add\n      exp(0x0100, 0x14)\n      dup2\n      sload\n      dup2\n      0xff\n      mul\n      not\n      and\n      swap1\n      dup4\n      0x02\n      dup2\n      gt\n      iszero\n      tag_85\n      jumpi\n      tag_86\n      tag_83\n      jump\t// in\n    tag_86:\n    tag_85:\n      mul\n      or\n      swap1\n      sstore\n      pop\n      0x60\n      dup3\n      add\n      mload\n      dup2\n      0x02\n      add\n      swap1\n      dup2\n      tag_87\n      swap2\n      swap1\n      tag_88\n      jump\t// in\n    tag_87:\n      pop\n      0x80\n      dup3\n      add\n      mload\n      dup2\n      0x03\n      add\n      sstore\n      pop\n      pop\n        /* \"FINAL_YEAR_PROJECT_WORK/SocialInteraction.sol\":3332:3333  1 */\n      0x01\n        /* \"FINAL_YEAR_PROJECT_WORK/SocialInteraction.sol\":3306:3319  commentCounts */\n      0x03\n        /* \"FINAL_YEAR_PROJECT_WORK/SocialInteraction.sol\":3306:3328  commentCounts[_postId] */\n      0x00\n        /* \"FINAL_YEAR_PROJECT_WORK/SocialInteraction.sol\":3320:3327  _postId */\n      dup7\n        /* \"FINAL_YEAR_PROJECT_WORK/SocialInteraction.sol\":3306:3328  commentCounts[_postId] */\n      dup2\n      mstore\n      0x20\n      add\n      swap1\n      dup2\n      mstore\n      0x20\n      add\n      0x00\n      keccak256\n      0x00\n        /* \"FINAL_YEAR_PROJECT_WORK/SocialInteraction.sol\":3306:3333  commentCounts[_postId] += 1 */\n      dup3\n      dup3\n      sload\n      tag_89\n      swap2\n      swap1\n      tag_76\n      jump\t// in\n    tag_89:\n      swap3\n      pop\n      pop\n      dup2\n      swap1\n      sstore\n      pop\n        /* \"FINAL_YEAR_PROJECT_WORK/SocialInteraction.sol\":3373:3388  block.timestamp */\n      timestamp\n        /* \"FINAL_YEAR_PROJECT_WORK/SocialInteraction.sol\":3343:3358  lastCommentTime */\n      0x05\n        /* \"FINAL_YEAR_PROJECT_WORK/SocialInteraction.sol\":3343:3370  lastCommentTime[msg.sender] */\n      0x00\n        /* \"FINAL_YEAR_PROJECT_WORK/SocialInteraction.sol\":3359:3369  msg.sender */\n      caller\n        /* \"FINAL_YEAR_PROJECT_WORK/SocialInteraction.sol\":3343:3370  lastCommentTime[msg.sender] */\n      0xffffffffffffffffffffffffffffffffffffffff\n      and\n      0xffffffffffffffffffffffffffffffffffffffff\n      and\n      dup2\n      mstore\n      0x20\n      add\n      swap1\n      dup2\n      mstore\n      0x20\n      add\n      0x00\n      keccak256\n        /* \"FINAL_YEAR_PROJECT_WORK/SocialInteraction.sol\":3343:3388  lastCommentTime[msg.sender] = block.timestamp */\n      dup2\n      swap1\n      sstore\n      pop\n        /* \"FINAL_YEAR_PROJECT_WORK/SocialInteraction.sol\":3430:3437  _postId */\n      dup4\n        /* \"FINAL_YEAR_PROJECT_WORK/SocialInteraction.sol\":3418:3428  msg.sender */\n      caller\n        /* \"FINAL_YEAR_PROJECT_WORK/SocialInteraction.sol\":3404:3448  PostCommented(msg.sender, _postId, _comment) */\n      0xffffffffffffffffffffffffffffffffffffffff\n      and\n      0x8c87ad8e2f03ad26e9aea2e5676f51e1e4cf7adee06346a9ddde2a4c62195509\n        /* \"FINAL_YEAR_PROJECT_WORK/SocialInteraction.sol\":3439:3447  _comment */\n      dup6\n        /* \"FINAL_YEAR_PROJECT_WORK/SocialInteraction.sol\":3404:3448  PostCommented(msg.sender, _postId, _comment) */\n      mload(0x40)\n      tag_90\n      swap2\n      swap1\n      tag_91\n      jump\t// in\n    tag_90:\n      mload(0x40)\n      dup1\n      swap2\n      sub\n      swap1\n      log3\n        /* \"FINAL_YEAR_PROJECT_WORK/SocialInteraction.sol\":1364:1584  {... */\n      pop\n        /* \"FINAL_YEAR_PROJECT_WORK/SocialInteraction.sol\":2871:3455  function commentOnPost(uint256 _postId, string memory _comment)... */\n      pop\n      pop\n      pop\n      jump\t// out\n        /* \"FINAL_YEAR_PROJECT_WORK/SocialInteraction.sol\":3707:3917  function getInteractionCounts(uint256 _postId) external view returns (uint256 likes, uint256 shares, uint256 comments) {... */\n    tag_39:\n        /* \"FINAL_YEAR_PROJECT_WORK/SocialInteraction.sol\":3777:3790  uint256 likes */\n      0x00\n        /* \"FINAL_YEAR_PROJECT_WORK/SocialInteraction.sol\":3792:3806  uint256 shares */\n      dup1\n        /* \"FINAL_YEAR_PROJECT_WORK/SocialInteraction.sol\":3808:3824  uint256 comments */\n      0x00\n        /* \"FINAL_YEAR_PROJECT_WORK/SocialInteraction.sol\":3844:3854  likeCounts */\n      0x01\n        /* \"FINAL_YEAR_PROJECT_WORK/SocialInteraction.sol\":3844:3863  likeCounts[_postId] */\n      0x00\n        /* \"FINAL_YEAR_PROJECT_WORK/SocialInteraction.sol\":3855:3862  _postId */\n      dup6\n        /* \"FINAL_YEAR_PROJECT_WORK/SocialInteraction.sol\":3844:3863  likeCounts[_postId] */\n      dup2\n      mstore\n      0x20\n      add\n      swap1\n      dup2\n      mstore\n      0x20\n      add\n      0x00\n      keccak256\n      sload\n        /* \"FINAL_YEAR_PROJECT_WORK/SocialInteraction.sol\":3865:3876  shareCounts */\n      0x02\n        /* \"FINAL_YEAR_PROJECT_WORK/SocialInteraction.sol\":3865:3885  shareCounts[_postId] */\n      0x00\n        /* \"FINAL_YEAR_PROJECT_WORK/SocialInteraction.sol\":3877:3884  _postId */\n      dup7\n        /* \"FINAL_YEAR_PROJECT_WORK/SocialInteraction.sol\":3865:3885  shareCounts[_postId] */\n      dup2\n      mstore\n      0x20\n      add\n      swap1\n      dup2\n      mstore\n      0x20\n      add\n      0x00\n      keccak256\n      sload\n        /* \"FINAL_YEAR_PROJECT_WORK/SocialInteraction.sol\":3887:3900  commentCounts */\n      0x03\n        /* \"FINAL_YEAR_PROJECT_WORK/SocialInteraction.sol\":3887:3909  commentCounts[_postId] */\n      0x00\n        /* \"FINAL_YEAR_PROJECT_WORK/SocialInteraction.sol\":3901:3908  _postId */\n      dup8\n        /* \"FINAL_YEAR_PROJECT_WORK/SocialInteraction.sol\":3887:3909  commentCounts[_postId] */\n      dup2\n      mstore\n      0x20\n      add\n      swap1\n      dup2\n      mstore\n      0x20\n      add\n      0x00\n      keccak256\n      sload\n        /* \"FINAL_YEAR_PROJECT_WORK/SocialInteraction.sol\":3836:3910  return (likeCounts[_postId], shareCounts[_postId], commentCounts[_postId]) */\n      swap3\n      pop\n      swap3\n      pop\n      swap3\n      pop\n        /* \"FINAL_YEAR_PROJECT_WORK/SocialInteraction.sol\":3707:3917  function getInteractionCounts(uint256 _postId) external view returns (uint256 likes, uint256 shares, uint256 comments) {... */\n      swap2\n      swap4\n      swap1\n      swap3\n      pop\n      jump\t// out\n        /* \"FINAL_YEAR_PROJECT_WORK/SocialInteraction.sol\":1875:2406  function likePost(uint256 _postId) external {... */\n    tag_44:\n        /* \"FINAL_YEAR_PROJECT_WORK/SocialInteraction.sol\":1938:1946  hasLiked */\n      0x04\n        /* \"FINAL_YEAR_PROJECT_WORK/SocialInteraction.sol\":1938:1955  hasLiked[_postId] */\n      0x00\n        /* \"FINAL_YEAR_PROJECT_WORK/SocialInteraction.sol\":1947:1954  _postId */\n      dup3\n        /* \"FINAL_YEAR_PROJECT_WORK/SocialInteraction.sol\":1938:1955  hasLiked[_postId] */\n      dup2\n      mstore\n      0x20\n      add\n      swap1\n      dup2\n      mstore\n      0x20\n      add\n      0x00\n      keccak256\n        /* \"FINAL_YEAR_PROJECT_WORK/SocialInteraction.sol\":1938:1967  hasLiked[_postId][msg.sender] */\n      0x00\n        /* \"FINAL_YEAR_PROJECT_WORK/SocialInteraction.sol\":1956:1966  msg.sender */\n      caller\n        /* \"FINAL_YEAR_PROJECT_WORK/SocialInteraction.sol\":1938:1967  hasLiked[_postId][msg.sender] */\n      0xffffffffffffffffffffffffffffffffffffffff\n      and\n      0xffffffffffffffffffffffffffffffffffffffff\n      and\n      dup2\n      mstore\n      0x20\n      add\n      swap1\n      dup2\n      mstore\n      0x20\n      add\n      0x00\n      keccak256\n      0x00\n      swap1\n      sload\n      swap1\n      0x0100\n      exp\n      swap1\n      div\n      0xff\n      and\n        /* \"FINAL_YEAR_PROJECT_WORK/SocialInteraction.sol\":1937:1967  !hasLiked[_postId][msg.sender] */\n      iszero\n        /* \"FINAL_YEAR_PROJECT_WORK/SocialInteraction.sol\":1929:1999  require(!hasLiked[_postId][msg.sender], \"You already liked this post\") */\n      tag_94\n      jumpi\n      mload(0x40)\n      0x08c379a000000000000000000000000000000000000000000000000000000000\n      dup2\n      mstore\n      0x04\n      add\n      tag_95\n      swap1\n      tag_96\n      jump\t// in\n    tag_95:\n      mload(0x40)\n      dup1\n      swap2\n      sub\n      swap1\n      revert\n    tag_94:\n        /* \"FINAL_YEAR_PROJECT_WORK/SocialInteraction.sol\":2010:2022  interactions */\n      0x00\n        /* \"FINAL_YEAR_PROJECT_WORK/SocialInteraction.sol\":2010:2031  interactions[_postId] */\n      dup1\n        /* \"FINAL_YEAR_PROJECT_WORK/SocialInteraction.sol\":2023:2030  _postId */\n      dup3\n        /* \"FINAL_YEAR_PROJECT_WORK/SocialInteraction.sol\":2010:2031  interactions[_postId] */\n      dup2\n      mstore\n      0x20\n      add\n      swap1\n      dup2\n      mstore\n      0x20\n      add\n      0x00\n      keccak256\n        /* \"FINAL_YEAR_PROJECT_WORK/SocialInteraction.sol\":2050:2262  Interaction({... */\n      mload(0x40)\n      dup1\n      0xa0\n      add\n      0x40\n      mstore\n      dup1\n        /* \"FINAL_YEAR_PROJECT_WORK/SocialInteraction.sol\":2088:2095  _postId */\n      dup4\n        /* \"FINAL_YEAR_PROJECT_WORK/SocialInteraction.sol\":2050:2262  Interaction({... */\n      dup2\n      mstore\n      0x20\n      add\n        /* \"FINAL_YEAR_PROJECT_WORK/SocialInteraction.sol\":2119:2129  msg.sender */\n      caller\n        /* \"FINAL_YEAR_PROJECT_WORK/SocialInteraction.sol\":2050:2262  Interaction({... */\n      0xffffffffffffffffffffffffffffffffffffffff\n      and\n      dup2\n      mstore\n      0x20\n      add\n        /* \"FINAL_YEAR_PROJECT_WORK/SocialInteraction.sol\":2155:2170  ActionType.Like */\n      0x00\n        /* \"FINAL_YEAR_PROJECT_WORK/SocialInteraction.sol\":2050:2262  Interaction({... */\n      0x02\n      dup2\n      gt\n      iszero\n      tag_97\n      jumpi\n      tag_98\n      tag_83\n      jump\t// in\n    tag_98:\n    tag_97:\n      dup2\n      mstore\n      0x20\n      add\n      mload(0x40)\n      dup1\n      0x20\n      add\n      0x40\n      mstore\n      dup1\n      0x00\n      dup2\n      mstore\n      pop\n      dup2\n      mstore\n      0x20\n      add\n        /* \"FINAL_YEAR_PROJECT_WORK/SocialInteraction.sol\":2232:2247  block.timestamp */\n      timestamp\n        /* \"FINAL_YEAR_PROJECT_WORK/SocialInteraction.sol\":2050:2262  Interaction({... */\n      dup2\n      mstore\n      pop\n        /* \"FINAL_YEAR_PROJECT_WORK/SocialInteraction.sol\":2010:2272  interactions[_postId].push(... */\n      swap1\n      dup1\n      0x01\n      dup2\n      sload\n      add\n      dup1\n      dup3\n      sstore\n      dup1\n      swap2\n      pop\n      pop\n      0x01\n      swap1\n      sub\n      swap1\n      0x00\n      mstore\n      keccak256(0x00, 0x20)\n      swap1\n      0x04\n      mul\n      add\n      0x00\n      swap1\n      swap2\n      swap1\n      swap2\n      swap1\n      swap2\n      pop\n      0x00\n      dup3\n      add\n      mload\n      dup2\n      0x00\n      add\n      sstore\n      0x20\n      dup3\n      add\n      mload\n      dup2\n      0x01\n      add\n      exp(0x0100, 0x00)\n      dup2\n      sload\n      dup2\n      0xffffffffffffffffffffffffffffffffffffffff\n      mul\n      not\n      and\n      swap1\n      dup4\n      0xffffffffffffffffffffffffffffffffffffffff\n      and\n      mul\n      or\n      swap1\n      sstore\n      pop\n      0x40\n      dup3\n      add\n      mload\n      dup2\n      0x01\n      add\n      exp(0x0100, 0x14)\n      dup2\n      sload\n      dup2\n      0xff\n      mul\n      not\n      and\n      swap1\n      dup4\n      0x02\n      dup2\n      gt\n      iszero\n      tag_100\n      jumpi\n      tag_101\n      tag_83\n      jump\t// in\n    tag_101:\n    tag_100:\n      mul\n      or\n      swap1\n      sstore\n      pop\n      0x60\n      dup3\n      add\n      mload\n      dup2\n      0x02\n      add\n      swap1\n      dup2\n      tag_102\n      swap2\n      swap1\n      tag_88\n      jump\t// in\n    tag_102:\n      pop\n      0x80\n      dup3\n      add\n      mload\n      dup2\n      0x03\n      add\n      sstore\n      pop\n      pop\n        /* \"FINAL_YEAR_PROJECT_WORK/SocialInteraction.sol\":2315:2319  true */\n      0x01\n        /* \"FINAL_YEAR_PROJECT_WORK/SocialInteraction.sol\":2283:2291  hasLiked */\n      0x04\n        /* \"FINAL_YEAR_PROJECT_WORK/SocialInteraction.sol\":2283:2300  hasLiked[_postId] */\n      0x00\n        /* \"FINAL_YEAR_PROJECT_WORK/SocialInteraction.sol\":2292:2299  _postId */\n      dup4\n        /* \"FINAL_YEAR_PROJECT_WORK/SocialInteraction.sol\":2283:2300  hasLiked[_postId] */\n      dup2\n      mstore\n      0x20\n      add\n      swap1\n      dup2\n      mstore\n      0x20\n      add\n      0x00\n      keccak256\n        /* \"FINAL_YEAR_PROJECT_WORK/SocialInteraction.sol\":2283:2312  hasLiked[_postId][msg.sender] */\n      0x00\n        /* \"FINAL_YEAR_PROJECT_WORK/SocialInteraction.sol\":2301:2311  msg.sender */\n      caller\n        /* \"FINAL_YEAR_PROJECT_WORK/SocialInteraction.sol\":2283:2312  hasLiked[_postId][msg.sender] */\n      0xffffffffffffffffffffffffffffffffffffffff\n      and\n      0xffffffffffffffffffffffffffffffffffffffff\n      and\n      dup2\n      mstore\n      0x20\n      add\n      swap1\n      dup2\n      mstore\n      0x20\n      add\n      0x00\n      keccak256\n      0x00\n        /* \"FINAL_YEAR_PROJECT_WORK/SocialInteraction.sol\":2283:2319  hasLiked[_postId][msg.sender] = true */\n      0x0100\n      exp\n      dup2\n      sload\n      dup2\n      0xff\n      mul\n      not\n      and\n      swap1\n      dup4\n      iszero\n      iszero\n      mul\n      or\n      swap1\n      sstore\n      pop\n        /* \"FINAL_YEAR_PROJECT_WORK/SocialInteraction.sol\":2352:2353  1 */\n      0x01\n        /* \"FINAL_YEAR_PROJECT_WORK/SocialInteraction.sol\":2329:2339  likeCounts */\n      dup1\n        /* \"FINAL_YEAR_PROJECT_WORK/SocialInteraction.sol\":2329:2348  likeCounts[_postId] */\n      0x00\n        /* \"FINAL_YEAR_PROJECT_WORK/SocialInteraction.sol\":2340:2347  _postId */\n      dup4\n        /* \"FINAL_YEAR_PROJECT_WORK/SocialInteraction.sol\":2329:2348  likeCounts[_postId] */\n      dup2\n      mstore\n      0x20\n      add\n      swap1\n      dup2\n      mstore\n      0x20\n      add\n      0x00\n      keccak256\n      0x00\n        /* \"FINAL_YEAR_PROJECT_WORK/SocialInteraction.sol\":2329:2353  likeCounts[_postId] += 1 */\n      dup3\n      dup3\n      sload\n      tag_103\n      swap2\n      swap1\n      tag_76\n      jump\t// in\n    tag_103:\n      swap3\n      pop\n      pop\n      dup2\n      swap1\n      sstore\n      pop\n        /* \"FINAL_YEAR_PROJECT_WORK/SocialInteraction.sol\":2391:2398  _postId */\n      dup1\n        /* \"FINAL_YEAR_PROJECT_WORK/SocialInteraction.sol\":2379:2389  msg.sender */\n      caller\n        /* \"FINAL_YEAR_PROJECT_WORK/SocialInteraction.sol\":2369:2399  PostLiked(msg.sender, _postId) */\n      0xffffffffffffffffffffffffffffffffffffffff\n      and\n      0x62500381f39eb6f48b6e6f104021ceeaca9e5354918dc17b4a15bf87c5f5d28b\n      mload(0x40)\n      mload(0x40)\n      dup1\n      swap2\n      sub\n      swap1\n      log3\n        /* \"FINAL_YEAR_PROJECT_WORK/SocialInteraction.sol\":1875:2406  function likePost(uint256 _postId) external {... */\n      pop\n      jump\t// out\n        /* \"FINAL_YEAR_PROJECT_WORK/SocialInteraction.sol\":861:921  mapping(uint256 => mapping(address => bool)) public hasLiked */\n    tag_48:\n      mstore(0x20, 0x04)\n      dup2\n      0x00\n      mstore\n      mstore(0x20, keccak256(0x00, 0x40))\n      dup1\n      0x00\n      mstore\n      keccak256(0x00, 0x40)\n      0x00\n      swap2\n      pop\n      swap2\n      pop\n      swap1\n      sload\n      swap1\n      0x0100\n      exp\n      swap1\n      div\n      0xff\n      and\n      dup2\n      jump\t// out\n        /* \"FINAL_YEAR_PROJECT_WORK/SocialInteraction.sol\":3500:3632  function getInteractions(uint256 _postId) external view returns (Interaction[] memory) {... */\n    tag_53:\n        /* \"FINAL_YEAR_PROJECT_WORK/SocialInteraction.sol\":3565:3585  Interaction[] memory */\n      0x60\n        /* \"FINAL_YEAR_PROJECT_WORK/SocialInteraction.sol\":3604:3616  interactions */\n      0x00\n        /* \"FINAL_YEAR_PROJECT_WORK/SocialInteraction.sol\":3604:3625  interactions[_postId] */\n      dup1\n        /* \"FINAL_YEAR_PROJECT_WORK/SocialInteraction.sol\":3617:3624  _postId */\n      dup4\n        /* \"FINAL_YEAR_PROJECT_WORK/SocialInteraction.sol\":3604:3625  interactions[_postId] */\n      dup2\n      mstore\n      0x20\n      add\n      swap1\n      dup2\n      mstore\n      0x20\n      add\n      0x00\n      keccak256\n        /* \"FINAL_YEAR_PROJECT_WORK/SocialInteraction.sol\":3597:3625  return interactions[_postId] */\n      dup1\n      sload\n      dup1\n      0x20\n      mul\n      0x20\n      add\n      mload(0x40)\n      swap1\n      dup2\n      add\n      0x40\n      mstore\n      dup1\n      swap3\n      swap2\n      swap1\n      dup2\n      dup2\n      mstore\n      0x20\n      add\n      0x00\n      swap1\n    tag_105:\n      dup3\n      dup3\n      lt\n      iszero\n      tag_106\n      jumpi\n      dup4\n      dup3\n      swap1\n      0x00\n      mstore\n      keccak256(0x00, 0x20)\n      swap1\n      0x04\n      mul\n      add\n      mload(0x40)\n      dup1\n      0xa0\n      add\n      0x40\n      mstore\n      swap1\n      dup2\n      0x00\n      dup3\n      add\n      sload\n      dup2\n      mstore\n      0x20\n      add\n      0x01\n      dup3\n      add\n      0x00\n      swap1\n      sload\n      swap1\n      0x0100\n      exp\n      swap1\n      div\n      0xffffffffffffffffffffffffffffffffffffffff\n      and\n      0xffffffffffffffffffffffffffffffffffffffff\n      and\n      0xffffffffffffffffffffffffffffffffffffffff\n      and\n      dup2\n      mstore\n      0x20\n      add\n      0x01\n      dup3\n      add\n      0x14\n      swap1\n      sload\n      swap1\n      0x0100\n      exp\n      swap1\n      div\n      0xff\n      and\n      0x02\n      dup2\n      gt\n      iszero\n      tag_108\n      jumpi\n      tag_109\n      tag_83\n      jump\t// in\n    tag_109:\n    tag_108:\n      0x02\n      dup2\n      gt\n      iszero\n      tag_110\n      jumpi\n      tag_111\n      tag_83\n      jump\t// in\n    tag_111:\n    tag_110:\n      dup2\n      mstore\n      0x20\n      add\n      0x02\n      dup3\n      add\n      dup1\n      sload\n      tag_112\n      swap1\n      tag_113\n      jump\t// in\n    tag_112:\n      dup1\n      0x1f\n      add\n      0x20\n      dup1\n      swap2\n      div\n      mul\n      0x20\n      add\n      mload(0x40)\n      swap1\n      dup2\n      add\n      0x40\n      mstore\n      dup1\n      swap3\n      swap2\n      swap1\n      dup2\n      dup2\n      mstore\n      0x20\n      add\n      dup3\n      dup1\n      sload\n      tag_114\n      swap1\n      tag_113\n      jump\t// in\n    tag_114:\n      dup1\n      iszero\n      tag_115\n      jumpi\n      dup1\n      0x1f\n      lt\n      tag_116\n      jumpi\n      0x0100\n      dup1\n      dup4\n      sload\n      div\n      mul\n      dup4\n      mstore\n      swap2\n      0x20\n      add\n      swap2\n      jump(tag_115)\n    tag_116:\n      dup3\n      add\n      swap2\n      swap1\n      0x00\n      mstore\n      keccak256(0x00, 0x20)\n      swap1\n    tag_117:\n      dup2\n      sload\n      dup2\n      mstore\n      swap1\n      0x01\n      add\n      swap1\n      0x20\n      add\n      dup1\n      dup4\n      gt\n      tag_117\n      jumpi\n      dup3\n      swap1\n      sub\n      0x1f\n      and\n      dup3\n      add\n      swap2\n    tag_115:\n      pop\n      pop\n      pop\n      pop\n      pop\n      dup2\n      mstore\n      0x20\n      add\n      0x03\n      dup3\n      add\n      sload\n      dup2\n      mstore\n      pop\n      pop\n      dup2\n      mstore\n      0x20\n      add\n      swap1\n      0x01\n      add\n      swap1\n      jump(tag_105)\n    tag_106:\n      pop\n      pop\n      pop\n      pop\n      swap1\n      pop\n        /* \"FINAL_YEAR_PROJECT_WORK/SocialInteraction.sol\":3500:3632  function getInteractions(uint256 _postId) external view returns (Interaction[] memory) {... */\n      swap2\n      swap1\n      pop\n      jump\t// out\n        /* \"FINAL_YEAR_PROJECT_WORK/SocialInteraction.sol\":746:794  mapping(uint256 => uint256) public commentCounts */\n    tag_58:\n      mstore(0x20, 0x03)\n      dup1\n      0x00\n      mstore\n      keccak256(0x00, 0x40)\n      0x00\n      swap2\n      pop\n      swap1\n      pop\n      sload\n      dup2\n      jump\t// out\n        /* \"FINAL_YEAR_PROJECT_WORK/SocialInteraction.sol\":694:740  mapping(uint256 => uint256) public shareCounts */\n    tag_62:\n      mstore(0x20, 0x02)\n      dup1\n      0x00\n      mstore\n      keccak256(0x00, 0x40)\n      0x00\n      swap2\n      pop\n      swap1\n      pop\n      sload\n      dup2\n      jump\t// out\n        /* \"FINAL_YEAR_PROJECT_WORK/SocialInteraction.sol\":2432:2840  function sharePost(uint256 _postId) external {... */\n    tag_66:\n        /* \"FINAL_YEAR_PROJECT_WORK/SocialInteraction.sol\":2487:2499  interactions */\n      0x00\n        /* \"FINAL_YEAR_PROJECT_WORK/SocialInteraction.sol\":2487:2508  interactions[_postId] */\n      dup1\n        /* \"FINAL_YEAR_PROJECT_WORK/SocialInteraction.sol\":2500:2507  _postId */\n      dup3\n        /* \"FINAL_YEAR_PROJECT_WORK/SocialInteraction.sol\":2487:2508  interactions[_postId] */\n      dup2\n      mstore\n      0x20\n      add\n      swap1\n      dup2\n      mstore\n      0x20\n      add\n      0x00\n      keccak256\n        /* \"FINAL_YEAR_PROJECT_WORK/SocialInteraction.sol\":2527:2740  Interaction({... */\n      mload(0x40)\n      dup1\n      0xa0\n      add\n      0x40\n      mstore\n      dup1\n        /* \"FINAL_YEAR_PROJECT_WORK/SocialInteraction.sol\":2565:2572  _postId */\n      dup4\n        /* \"FINAL_YEAR_PROJECT_WORK/SocialInteraction.sol\":2527:2740  Interaction({... */\n      dup2\n      mstore\n      0x20\n      add\n        /* \"FINAL_YEAR_PROJECT_WORK/SocialInteraction.sol\":2596:2606  msg.sender */\n      caller\n        /* \"FINAL_YEAR_PROJECT_WORK/SocialInteraction.sol\":2527:2740  Interaction({... */\n      0xffffffffffffffffffffffffffffffffffffffff\n      and\n      dup2\n      mstore\n      0x20\n      add\n        /* \"FINAL_YEAR_PROJECT_WORK/SocialInteraction.sol\":2632:2648  ActionType.Share */\n      0x01\n        /* \"FINAL_YEAR_PROJECT_WORK/SocialInteraction.sol\":2527:2740  Interaction({... */\n      0x02\n      dup2\n      gt\n      iszero\n      tag_119\n      jumpi\n      tag_120\n      tag_83\n      jump\t// in\n    tag_120:\n    tag_119:\n      dup2\n      mstore\n      0x20\n      add\n      mload(0x40)\n      dup1\n      0x20\n      add\n      0x40\n      mstore\n      dup1\n      0x00\n      dup2\n      mstore\n      pop\n      dup2\n      mstore\n      0x20\n      add\n        /* \"FINAL_YEAR_PROJECT_WORK/SocialInteraction.sol\":2710:2725  block.timestamp */\n      timestamp\n        /* \"FINAL_YEAR_PROJECT_WORK/SocialInteraction.sol\":2527:2740  Interaction({... */\n      dup2\n      mstore\n      pop\n        /* \"FINAL_YEAR_PROJECT_WORK/SocialInteraction.sol\":2487:2750  interactions[_postId].push(... */\n      swap1\n      dup1\n      0x01\n      dup2\n      sload\n      add\n      dup1\n      dup3\n      sstore\n      dup1\n      swap2\n      pop\n      pop\n      0x01\n      swap1\n      sub\n      swap1\n      0x00\n      mstore\n      keccak256(0x00, 0x20)\n      swap1\n      0x04\n      mul\n      add\n      0x00\n      swap1\n      swap2\n      swap1\n      swap2\n      swap1\n      swap2\n      pop\n      0x00\n      dup3\n      add\n      mload\n      dup2\n      0x00\n      add\n      sstore\n      0x20\n      dup3\n      add\n      mload\n      dup2\n      0x01\n      add\n      exp(0x0100, 0x00)\n      dup2\n      sload\n      dup2\n      0xffffffffffffffffffffffffffffffffffffffff\n      mul\n      not\n      and\n      swap1\n      dup4\n      0xffffffffffffffffffffffffffffffffffffffff\n      and\n      mul\n      or\n      swap1\n      sstore\n      pop\n      0x40\n      dup3\n      add\n      mload\n      dup2\n      0x01\n      add\n      exp(0x0100, 0x14)\n      dup2\n      sload\n      dup2\n      0xff\n      mul\n      not\n      and\n      swap1\n      dup4\n      0x02\n      dup2\n      gt\n      iszero\n      tag_122\n      jumpi\n      tag_123\n      tag_83\n      jump\t// in\n    tag_123:\n    tag_122:\n      mul\n      or\n      swap1\n      sstore\n      pop\n      0x60\n      dup3\n      add\n      mload\n      dup2\n      0x02\n      add\n      swap1\n      dup2\n      tag_124\n      swap2\n      swap1\n      tag_88\n      jump\t// in\n    tag_124:\n      pop\n      0x80\n      dup3\n      add\n      mload\n      dup2\n      0x03\n      add\n      sstore\n      pop\n      pop\n        /* \"FINAL_YEAR_PROJECT_WORK/SocialInteraction.sol\":2785:2786  1 */\n      0x01\n        /* \"FINAL_YEAR_PROJECT_WORK/SocialInteraction.sol\":2761:2772  shareCounts */\n      0x02\n        /* \"FINAL_YEAR_PROJECT_WORK/SocialInteraction.sol\":2761:2781  shareCounts[_postId] */\n      0x00\n        /* \"FINAL_YEAR_PROJECT_WORK/SocialInteraction.sol\":2773:2780  _postId */\n      dup4\n        /* \"FINAL_YEAR_PROJECT_WORK/SocialInteraction.sol\":2761:2781  shareCounts[_postId] */\n      dup2\n      mstore\n      0x20\n      add\n      swap1\n      dup2\n      mstore\n      0x20\n      add\n      0x00\n      keccak256\n      0x00\n        /* \"FINAL_YEAR_PROJECT_WORK/SocialInteraction.sol\":2761:2786  shareCounts[_postId] += 1 */\n      dup3\n      dup3\n      sload\n      tag_125\n      swap2\n      swap1\n      tag_76\n      jump\t// in\n    tag_125:\n      swap3\n      pop\n      pop\n      dup2\n      swap1\n      sstore\n      pop\n        /* \"FINAL_YEAR_PROJECT_WORK/SocialInteraction.sol\":2825:2832  _postId */\n      dup1\n        /* \"FINAL_YEAR_PROJECT_WORK/SocialInteraction.sol\":2813:2823  msg.sender */\n      caller\n        /* \"FINAL_YEAR_PROJECT_WORK/SocialInteraction.sol\":2802:2833  PostShared(msg.sender, _postId) */\n      0xffffffffffffffffffffffffffffffffffffffff\n      and\n      0x8132fbe9204ecd8ccbe16957db53cb4250fce8520ab7621729d07e9afe6c9737\n      mload(0x40)\n      mload(0x40)\n      dup1\n      swap2\n      sub\n      swap1\n      log3\n        /* \"FINAL_YEAR_PROJECT_WORK/SocialInteraction.sol\":2432:2840  function sharePost(uint256 _postId) external {... */\n      pop\n      jump\t// out\n        /* \"#utility.yul\":7:84   */\n    tag_126:\n        /* \"#utility.yul\":44:51   */\n      0x00\n        /* \"#utility.yul\":73:78   */\n      dup2\n        /* \"#utility.yul\":62:78   */\n      swap1\n      pop\n        /* \"#utility.yul\":7:84   */\n      swap2\n      swap1\n      pop\n      jump\t// out\n        /* \"#utility.yul\":90:208   */\n    tag_127:\n        /* \"#utility.yul\":177:201   */\n      tag_196\n        /* \"#utility.yul\":195:200   */\n      dup2\n        /* \"#utility.yul\":177:201   */\n      tag_126\n      jump\t// in\n    tag_196:\n        /* \"#utility.yul\":172:175   */\n      dup3\n        /* \"#utility.yul\":165:202   */\n      mstore\n        /* \"#utility.yul\":90:208   */\n      pop\n      pop\n      jump\t// out\n        /* \"#utility.yul\":214:436   */\n    tag_19:\n        /* \"#utility.yul\":307:311   */\n      0x00\n        /* \"#utility.yul\":345:347   */\n      0x20\n        /* \"#utility.yul\":334:343   */\n      dup3\n        /* \"#utility.yul\":330:348   */\n      add\n        /* \"#utility.yul\":322:348   */\n      swap1\n      pop\n        /* \"#utility.yul\":358:429   */\n      tag_198\n        /* \"#utility.yul\":426:427   */\n      0x00\n        /* \"#utility.yul\":415:424   */\n      dup4\n        /* \"#utility.yul\":411:428   */\n      add\n        /* \"#utility.yul\":402:408   */\n      dup5\n        /* \"#utility.yul\":358:429   */\n      tag_127\n      jump\t// in\n    tag_198:\n        /* \"#utility.yul\":214:436   */\n      swap3\n      swap2\n      pop\n      pop\n      jump\t// out\n        /* \"#utility.yul\":442:517   */\n    tag_128:\n        /* \"#utility.yul\":475:481   */\n      0x00\n        /* \"#utility.yul\":508:510   */\n      0x40\n        /* \"#utility.yul\":502:511   */\n      mload\n        /* \"#utility.yul\":492:511   */\n      swap1\n      pop\n        /* \"#utility.yul\":442:517   */\n      swap1\n      jump\t// out\n        /* \"#utility.yul\":523:640   */\n    tag_129:\n        /* \"#utility.yul\":632:633   */\n      0x00\n        /* \"#utility.yul\":629:630   */\n      dup1\n        /* \"#utility.yul\":622:634   */\n      revert\n        /* \"#utility.yul\":646:763   */\n    tag_130:\n        /* \"#utility.yul\":755:756   */\n      0x00\n        /* \"#utility.yul\":752:753   */\n      dup1\n        /* \"#utility.yul\":745:757   */\n      revert\n        /* \"#utility.yul\":769:891   */\n    tag_131:\n        /* \"#utility.yul\":842:866   */\n      tag_203\n        /* \"#utility.yul\":860:865   */\n      dup2\n        /* \"#utility.yul\":842:866   */\n      tag_126\n      jump\t// in\n    tag_203:\n        /* \"#utility.yul\":835:840   */\n      dup2\n        /* \"#utility.yul\":832:867   */\n      eq\n        /* \"#utility.yul\":822:885   */\n      tag_204\n      jumpi\n        /* \"#utility.yul\":881:882   */\n      0x00\n        /* \"#utility.yul\":878:879   */\n      dup1\n        /* \"#utility.yul\":871:883   */\n      revert\n        /* \"#utility.yul\":822:885   */\n    tag_204:\n        /* \"#utility.yul\":769:891   */\n      pop\n      jump\t// out\n        /* \"#utility.yul\":897:1036   */\n    tag_132:\n        /* \"#utility.yul\":943:948   */\n      0x00\n        /* \"#utility.yul\":981:987   */\n      dup2\n        /* \"#utility.yul\":968:988   */\n      calldataload\n        /* \"#utility.yul\":959:988   */\n      swap1\n      pop\n        /* \"#utility.yul\":997:1030   */\n      tag_206\n        /* \"#utility.yul\":1024:1029   */\n      dup2\n        /* \"#utility.yul\":997:1030   */\n      tag_131\n      jump\t// in\n    tag_206:\n        /* \"#utility.yul\":897:1036   */\n      swap3\n      swap2\n      pop\n      pop\n      jump\t// out\n        /* \"#utility.yul\":1042:1371   */\n    tag_22:\n        /* \"#utility.yul\":1101:1107   */\n      0x00\n        /* \"#utility.yul\":1150:1152   */\n      0x20\n        /* \"#utility.yul\":1138:1147   */\n      dup3\n        /* \"#utility.yul\":1129:1136   */\n      dup5\n        /* \"#utility.yul\":1125:1148   */\n      sub\n        /* \"#utility.yul\":1121:1153   */\n      slt\n        /* \"#utility.yul\":1118:1237   */\n      iszero\n      tag_208\n      jumpi\n        /* \"#utility.yul\":1156:1235   */\n      tag_209\n      tag_129\n      jump\t// in\n    tag_209:\n        /* \"#utility.yul\":1118:1237   */\n    tag_208:\n        /* \"#utility.yul\":1276:1277   */\n      0x00\n        /* \"#utility.yul\":1301:1354   */\n      tag_210\n        /* \"#utility.yul\":1346:1353   */\n      dup5\n        /* \"#utility.yul\":1337:1343   */\n      dup3\n        /* \"#utility.yul\":1326:1335   */\n      dup6\n        /* \"#utility.yul\":1322:1344   */\n      add\n        /* \"#utility.yul\":1301:1354   */\n      tag_132\n      jump\t// in\n    tag_210:\n        /* \"#utility.yul\":1291:1354   */\n      swap2\n      pop\n        /* \"#utility.yul\":1247:1364   */\n      pop\n        /* \"#utility.yul\":1042:1371   */\n      swap3\n      swap2\n      pop\n      pop\n      jump\t// out\n        /* \"#utility.yul\":1377:1503   */\n    tag_133:\n        /* \"#utility.yul\":1414:1421   */\n      0x00\n        /* \"#utility.yul\":1454:1496   */\n      0xffffffffffffffffffffffffffffffffffffffff\n        /* \"#utility.yul\":1447:1452   */\n      dup3\n        /* \"#utility.yul\":1443:1497   */\n      and\n        /* \"#utility.yul\":1432:1497   */\n      swap1\n      pop\n        /* \"#utility.yul\":1377:1503   */\n      swap2\n      swap1\n      pop\n      jump\t// out\n        /* \"#utility.yul\":1509:1605   */\n    tag_134:\n        /* \"#utility.yul\":1546:1553   */\n      0x00\n        /* \"#utility.yul\":1575:1599   */\n      tag_213\n        /* \"#utility.yul\":1593:1598   */\n      dup3\n        /* \"#utility.yul\":1575:1599   */\n      tag_133\n      jump\t// in\n    tag_213:\n        /* \"#utility.yul\":1564:1599   */\n      swap1\n      pop\n        /* \"#utility.yul\":1509:1605   */\n      swap2\n      swap1\n      pop\n      jump\t// out\n        /* \"#utility.yul\":1611:1733   */\n    tag_135:\n        /* \"#utility.yul\":1684:1708   */\n      tag_215\n        /* \"#utility.yul\":1702:1707   */\n      dup2\n        /* \"#utility.yul\":1684:1708   */\n      tag_134\n      jump\t// in\n    tag_215:\n        /* \"#utility.yul\":1677:1682   */\n      dup2\n        /* \"#utility.yul\":1674:1709   */\n      eq\n        /* \"#utility.yul\":1664:1727   */\n      tag_216\n      jumpi\n        /* \"#utility.yul\":1723:1724   */\n      0x00\n        /* \"#utility.yul\":1720:1721   */\n      dup1\n        /* \"#utility.yul\":1713:1725   */\n      revert\n        /* \"#utility.yul\":1664:1727   */\n    tag_216:\n        /* \"#utility.yul\":1611:1733   */\n      pop\n      jump\t// out\n        /* \"#utility.yul\":1739:1878   */\n    tag_136:\n        /* \"#utility.yul\":1785:1790   */\n      0x00\n        /* \"#utility.yul\":1823:1829   */\n      dup2\n        /* \"#utility.yul\":1810:1830   */\n      calldataload\n        /* \"#utility.yul\":1801:1830   */\n      swap1\n      pop\n        /* \"#utility.yul\":1839:1872   */\n      tag_218\n        /* \"#utility.yul\":1866:1871   */\n      dup2\n        /* \"#utility.yul\":1839:1872   */\n      tag_135\n      jump\t// in\n    tag_218:\n        /* \"#utility.yul\":1739:1878   */\n      swap3\n      swap2\n      pop\n      pop\n      jump\t// out\n        /* \"#utility.yul\":1884:2213   */\n    tag_27:\n        /* \"#utility.yul\":1943:1949   */\n      0x00\n        /* \"#utility.yul\":1992:1994   */\n      0x20\n        /* \"#utility.yul\":1980:1989   */\n      dup3\n        /* \"#utility.yul\":1971:1978   */\n      dup5\n        /* \"#utility.yul\":1967:1990   */\n      sub\n        /* \"#utility.yul\":1963:1995   */\n      slt\n        /* \"#utility.yul\":1960:2079   */\n      iszero\n      tag_220\n      jumpi\n        /* \"#utility.yul\":1998:2077   */\n      tag_221\n      tag_129\n      jump\t// in\n    tag_221:\n        /* \"#utility.yul\":1960:2079   */\n    tag_220:\n        /* \"#utility.yul\":2118:2119   */\n      0x00\n        /* \"#utility.yul\":2143:2196   */\n      tag_222\n        /* \"#utility.yul\":2188:2195   */\n      dup5\n        /* \"#utility.yul\":2179:2185   */\n      dup3\n        /* \"#utility.yul\":2168:2177   */\n      dup6\n        /* \"#utility.yul\":2164:2186   */\n      add\n        /* \"#utility.yul\":2143:2196   */\n      tag_136\n      jump\t// in\n    tag_222:\n        /* \"#utility.yul\":2133:2196   */\n      swap2\n      pop\n        /* \"#utility.yul\":2089:2206   */\n      pop\n        /* \"#utility.yul\":1884:2213   */\n      swap3\n      swap2\n      pop\n      pop\n      jump\t// out\n        /* \"#utility.yul\":2219:2336   */\n    tag_137:\n        /* \"#utility.yul\":2328:2329   */\n      0x00\n        /* \"#utility.yul\":2325:2326   */\n      dup1\n        /* \"#utility.yul\":2318:2330   */\n      revert\n        /* \"#utility.yul\":2342:2459   */\n    tag_138:\n        /* \"#utility.yul\":2451:2452   */\n      0x00\n        /* \"#utility.yul\":2448:2449   */\n      dup1\n        /* \"#utility.yul\":2441:2453   */\n      revert\n        /* \"#utility.yul\":2465:2567   */\n    tag_139:\n        /* \"#utility.yul\":2506:2512   */\n      0x00\n        /* \"#utility.yul\":2557:2559   */\n      0x1f\n        /* \"#utility.yul\":2553:2560   */\n      not\n        /* \"#utility.yul\":2548:2550   */\n      0x1f\n        /* \"#utility.yul\":2541:2546   */\n      dup4\n        /* \"#utility.yul\":2537:2551   */\n      add\n        /* \"#utility.yul\":2533:2561   */\n      and\n        /* \"#utility.yul\":2523:2561   */\n      swap1\n      pop\n        /* \"#utility.yul\":2465:2567   */\n      swap2\n      swap1\n      pop\n      jump\t// out\n        /* \"#utility.yul\":2573:2753   */\n    tag_140:\n        /* \"#utility.yul\":2621:2698   */\n      0x4e487b7100000000000000000000000000000000000000000000000000000000\n        /* \"#utility.yul\":2618:2619   */\n      0x00\n        /* \"#utility.yul\":2611:2699   */\n      mstore\n        /* \"#utility.yul\":2718:2722   */\n      0x41\n        /* \"#utility.yul\":2715:2716   */\n      0x04\n        /* \"#utility.yul\":2708:2723   */\n      mstore\n        /* \"#utility.yul\":2742:2746   */\n      0x24\n        /* \"#utility.yul\":2739:2740   */\n      0x00\n        /* \"#utility.yul\":2732:2747   */\n      revert\n        /* \"#utility.yul\":2759:3040   */\n    tag_141:\n        /* \"#utility.yul\":2842:2869   */\n      tag_228\n        /* \"#utility.yul\":2864:2868   */\n      dup3\n        /* \"#utility.yul\":2842:2869   */\n      tag_139\n      jump\t// in\n    tag_228:\n        /* \"#utility.yul\":2834:2840   */\n      dup2\n        /* \"#utility.yul\":2830:2870   */\n      add\n        /* \"#utility.yul\":2972:2978   */\n      dup2\n        /* \"#utility.yul\":2960:2970   */\n      dup2\n        /* \"#utility.yul\":2957:2979   */\n      lt\n        /* \"#utility.yul\":2936:2954   */\n      0xffffffffffffffff\n        /* \"#utility.yul\":2924:2934   */\n      dup3\n        /* \"#utility.yul\":2921:2955   */\n      gt\n        /* \"#utility.yul\":2918:2980   */\n      or\n        /* \"#utility.yul\":2915:3003   */\n      iszero\n      tag_229\n      jumpi\n        /* \"#utility.yul\":2983:3001   */\n      tag_230\n      tag_140\n      jump\t// in\n    tag_230:\n        /* \"#utility.yul\":2915:3003   */\n    tag_229:\n        /* \"#utility.yul\":3023:3033   */\n      dup1\n        /* \"#utility.yul\":3019:3021   */\n      0x40\n        /* \"#utility.yul\":3012:3034   */\n      mstore\n        /* \"#utility.yul\":2802:3040   */\n      pop\n        /* \"#utility.yul\":2759:3040   */\n      pop\n      pop\n      jump\t// out\n        /* \"#utility.yul\":3046:3175   */\n    tag_142:\n        /* \"#utility.yul\":3080:3086   */\n      0x00\n        /* \"#utility.yul\":3107:3127   */\n      tag_232\n      tag_128\n      jump\t// in\n    tag_232:\n        /* \"#utility.yul\":3097:3127   */\n      swap1\n      pop\n        /* \"#utility.yul\":3136:3169   */\n      tag_233\n        /* \"#utility.yul\":3164:3168   */\n      dup3\n        /* \"#utility.yul\":3156:3162   */\n      dup3\n        /* \"#utility.yul\":3136:3169   */\n      tag_141\n      jump\t// in\n    tag_233:\n        /* \"#utility.yul\":3046:3175   */\n      swap2\n      swap1\n      pop\n      jump\t// out\n        /* \"#utility.yul\":3181:3489   */\n    tag_143:\n        /* \"#utility.yul\":3243:3247   */\n      0x00\n        /* \"#utility.yul\":3333:3351   */\n      0xffffffffffffffff\n        /* \"#utility.yul\":3325:3331   */\n      dup3\n        /* \"#utility.yul\":3322:3352   */\n      gt\n        /* \"#utility.yul\":3319:3375   */\n      iszero\n      tag_235\n      jumpi\n        /* \"#utility.yul\":3355:3373   */\n      tag_236\n      tag_140\n      jump\t// in\n    tag_236:\n        /* \"#utility.yul\":3319:3375   */\n    tag_235:\n        /* \"#utility.yul\":3393:3422   */\n      tag_237\n        /* \"#utility.yul\":3415:3421   */\n      dup3\n        /* \"#utility.yul\":3393:3422   */\n      tag_139\n      jump\t// in\n    tag_237:\n        /* \"#utility.yul\":3385:3422   */\n      swap1\n      pop\n        /* \"#utility.yul\":3477:3481   */\n      0x20\n        /* \"#utility.yul\":3471:3475   */\n      dup2\n        /* \"#utility.yul\":3467:3482   */\n      add\n        /* \"#utility.yul\":3459:3482   */\n      swap1\n      pop\n        /* \"#utility.yul\":3181:3489   */\n      swap2\n      swap1\n      pop\n      jump\t// out\n        /* \"#utility.yul\":3495:3643   */\n    tag_144:\n        /* \"#utility.yul\":3593:3599   */\n      dup3\n        /* \"#utility.yul\":3588:3591   */\n      dup2\n        /* \"#utility.yul\":3583:3586   */\n      dup4\n        /* \"#utility.yul\":3570:3600   */\n      calldatacopy\n        /* \"#utility.yul\":3634:3635   */\n      0x00\n        /* \"#utility.yul\":3625:3631   */\n      dup4\n        /* \"#utility.yul\":3620:3623   */\n      dup4\n        /* \"#utility.yul\":3616:3632   */\n      add\n        /* \"#utility.yul\":3609:3636   */\n      mstore\n        /* \"#utility.yul\":3495:3643   */\n      pop\n      pop\n      pop\n      jump\t// out\n        /* \"#utility.yul\":3649:4074   */\n    tag_145:\n        /* \"#utility.yul\":3727:3732   */\n      0x00\n        /* \"#utility.yul\":3752:3818   */\n      tag_240\n        /* \"#utility.yul\":3768:3817   */\n      tag_241\n        /* \"#utility.yul\":3810:3816   */\n      dup5\n        /* \"#utility.yul\":3768:3817   */\n      tag_143\n      jump\t// in\n    tag_241:\n        /* \"#utility.yul\":3752:3818   */\n      tag_142\n      jump\t// in\n    tag_240:\n        /* \"#utility.yul\":3743:3818   */\n      swap1\n      pop\n        /* \"#utility.yul\":3841:3847   */\n      dup3\n        /* \"#utility.yul\":3834:3839   */\n      dup2\n        /* \"#utility.yul\":3827:3848   */\n      mstore\n        /* \"#utility.yul\":3879:3883   */\n      0x20\n        /* \"#utility.yul\":3872:3877   */\n      dup2\n        /* \"#utility.yul\":3868:3884   */\n      add\n        /* \"#utility.yul\":3917:3920   */\n      dup5\n        /* \"#utility.yul\":3908:3914   */\n      dup5\n        /* \"#utility.yul\":3903:3906   */\n      dup5\n        /* \"#utility.yul\":3899:3915   */\n      add\n        /* \"#utility.yul\":3896:3921   */\n      gt\n        /* \"#utility.yul\":3893:4005   */\n      iszero\n      tag_242\n      jumpi\n        /* \"#utility.yul\":3924:4003   */\n      tag_243\n      tag_138\n      jump\t// in\n    tag_243:\n        /* \"#utility.yul\":3893:4005   */\n    tag_242:\n        /* \"#utility.yul\":4014:4068   */\n      tag_244\n        /* \"#utility.yul\":4061:4067   */\n      dup5\n        /* \"#utility.yul\":4056:4059   */\n      dup3\n        /* \"#utility.yul\":4051:4054   */\n      dup6\n        /* \"#utility.yul\":4014:4068   */\n      tag_144\n      jump\t// in\n    tag_244:\n        /* \"#utility.yul\":3733:4074   */\n      pop\n        /* \"#utility.yul\":3649:4074   */\n      swap4\n      swap3\n      pop\n      pop\n      pop\n      jump\t// out\n        /* \"#utility.yul\":4094:4434   */\n    tag_146:\n        /* \"#utility.yul\":4150:4155   */\n      0x00\n        /* \"#utility.yul\":4199:4202   */\n      dup3\n        /* \"#utility.yul\":4192:4196   */\n      0x1f\n        /* \"#utility.yul\":4184:4190   */\n      dup4\n        /* \"#utility.yul\":4180:4197   */\n      add\n        /* \"#utility.yul\":4176:4203   */\n      slt\n        /* \"#utility.yul\":4166:4288   */\n      tag_246\n      jumpi\n        /* \"#utility.yul\":4207:4286   */\n      tag_247\n      tag_137\n      jump\t// in\n    tag_247:\n        /* \"#utility.yul\":4166:4288   */\n    tag_246:\n        /* \"#utility.yul\":4324:4330   */\n      dup2\n        /* \"#utility.yul\":4311:4331   */\n      calldataload\n        /* \"#utility.yul\":4349:4428   */\n      tag_248\n        /* \"#utility.yul\":4424:4427   */\n      dup5\n        /* \"#utility.yul\":4416:4422   */\n      dup3\n        /* \"#utility.yul\":4409:4413   */\n      0x20\n        /* \"#utility.yul\":4401:4407   */\n      dup7\n        /* \"#utility.yul\":4397:4414   */\n      add\n        /* \"#utility.yul\":4349:4428   */\n      tag_145\n      jump\t// in\n    tag_248:\n        /* \"#utility.yul\":4340:4428   */\n      swap2\n      pop\n        /* \"#utility.yul\":4156:4434   */\n      pop\n        /* \"#utility.yul\":4094:4434   */\n      swap3\n      swap2\n      pop\n      pop\n      jump\t// out\n        /* \"#utility.yul\":4440:5094   */\n    tag_35:\n        /* \"#utility.yul\":4518:4524   */\n      0x00\n        /* \"#utility.yul\":4526:4532   */\n      dup1\n        /* \"#utility.yul\":4575:4577   */\n      0x40\n        /* \"#utility.yul\":4563:4572   */\n      dup4\n        /* \"#utility.yul\":4554:4561   */\n      dup6\n        /* \"#utility.yul\":4550:4573   */\n      sub\n        /* \"#utility.yul\":4546:4578   */\n      slt\n        /* \"#utility.yul\":4543:4662   */\n      iszero\n      tag_250\n      jumpi\n        /* \"#utility.yul\":4581:4660   */\n      tag_251\n      tag_129\n      jump\t// in\n    tag_251:\n        /* \"#utility.yul\":4543:4662   */\n    tag_250:\n        /* \"#utility.yul\":4701:4702   */\n      0x00\n        /* \"#utility.yul\":4726:4779   */\n      tag_252\n        /* \"#utility.yul\":4771:4778   */\n      dup6\n        /* \"#utility.yul\":4762:4768   */\n      dup3\n        /* \"#utility.yul\":4751:4760   */\n      dup7\n        /* \"#utility.yul\":4747:4769   */\n      add\n        /* \"#utility.yul\":4726:4779   */\n      tag_132\n      jump\t// in\n    tag_252:\n        /* \"#utility.yul\":4716:4779   */\n      swap3\n      pop\n        /* \"#utility.yul\":4672:4789   */\n      pop\n        /* \"#utility.yul\":4856:4858   */\n      0x20\n        /* \"#utility.yul\":4845:4854   */\n      dup4\n        /* \"#utility.yul\":4841:4859   */\n      add\n        /* \"#utility.yul\":4828:4860   */\n      calldataload\n        /* \"#utility.yul\":4887:4905   */\n      0xffffffffffffffff\n        /* \"#utility.yul\":4879:4885   */\n      dup2\n        /* \"#utility.yul\":4876:4906   */\n      gt\n        /* \"#utility.yul\":4873:4990   */\n      iszero\n      tag_253\n      jumpi\n        /* \"#utility.yul\":4909:4988   */\n      tag_254\n      tag_130\n      jump\t// in\n    tag_254:\n        /* \"#utility.yul\":4873:4990   */\n    tag_253:\n        /* \"#utility.yul\":5014:5077   */\n      tag_255\n        /* \"#utility.yul\":5069:5076   */\n      dup6\n        /* \"#utility.yul\":5060:5066   */\n      dup3\n        /* \"#utility.yul\":5049:5058   */\n      dup7\n        /* \"#utility.yul\":5045:5067   */\n      add\n        /* \"#utility.yul\":5014:5077   */\n      tag_146\n      jump\t// in\n    tag_255:\n        /* \"#utility.yul\":5004:5077   */\n      swap2\n      pop\n        /* \"#utility.yul\":4799:5087   */\n      pop\n        /* \"#utility.yul\":4440:5094   */\n      swap3\n      pop\n      swap3\n      swap1\n      pop\n      jump\t// out\n        /* \"#utility.yul\":5100:5542   */\n    tag_41:\n        /* \"#utility.yul\":5249:5253   */\n      0x00\n        /* \"#utility.yul\":5287:5289   */\n      0x60\n        /* \"#utility.yul\":5276:5285   */\n      dup3\n        /* \"#utility.yul\":5272:5290   */\n      add\n        /* \"#utility.yul\":5264:5290   */\n      swap1\n      pop\n        /* \"#utility.yul\":5300:5371   */\n      tag_257\n        /* \"#utility.yul\":5368:5369   */\n      0x00\n        /* \"#utility.yul\":5357:5366   */\n      dup4\n        /* \"#utility.yul\":5353:5370   */\n      add\n        /* \"#utility.yul\":5344:5350   */\n      dup7\n        /* \"#utility.yul\":5300:5371   */\n      tag_127\n      jump\t// in\n    tag_257:\n        /* \"#utility.yul\":5381:5453   */\n      tag_258\n        /* \"#utility.yul\":5449:5451   */\n      0x20\n        /* \"#utility.yul\":5438:5447   */\n      dup4\n        /* \"#utility.yul\":5434:5452   */\n      add\n        /* \"#utility.yul\":5425:5431   */\n      dup6\n        /* \"#utility.yul\":5381:5453   */\n      tag_127\n      jump\t// in\n    tag_258:\n        /* \"#utility.yul\":5463:5535   */\n      tag_259\n        /* \"#utility.yul\":5531:5533   */\n      0x40\n        /* \"#utility.yul\":5520:5529   */\n      dup4\n        /* \"#utility.yul\":5516:5534   */\n      add\n        /* \"#utility.yul\":5507:5513   */\n      dup5\n        /* \"#utility.yul\":5463:5535   */\n      tag_127\n      jump\t// in\n    tag_259:\n        /* \"#utility.yul\":5100:5542   */\n      swap5\n      swap4\n      pop\n      pop\n      pop\n      pop\n      jump\t// out\n        /* \"#utility.yul\":5548:6022   */\n    tag_47:\n        /* \"#utility.yul\":5616:5622   */\n      0x00\n        /* \"#utility.yul\":5624:5630   */\n      dup1\n        /* \"#utility.yul\":5673:5675   */\n      0x40\n        /* \"#utility.yul\":5661:5670   */\n      dup4\n        /* \"#utility.yul\":5652:5659   */\n      dup6\n        /* \"#utility.yul\":5648:5671   */\n      sub\n        /* \"#utility.yul\":5644:5676   */\n      slt\n        /* \"#utility.yul\":5641:5760   */\n      iszero\n      tag_261\n      jumpi\n        /* \"#utility.yul\":5679:5758   */\n      tag_262\n      tag_129\n      jump\t// in\n    tag_262:\n        /* \"#utility.yul\":5641:5760   */\n    tag_261:\n        /* \"#utility.yul\":5799:5800   */\n      0x00\n        /* \"#utility.yul\":5824:5877   */\n      tag_263\n        /* \"#utility.yul\":5869:5876   */\n      dup6\n        /* \"#utility.yul\":5860:5866   */\n      dup3\n        /* \"#utility.yul\":5849:5858   */\n      dup7\n        /* \"#utility.yul\":5845:5867   */\n      add\n        /* \"#utility.yul\":5824:5877   */\n      tag_132\n      jump\t// in\n    tag_263:\n        /* \"#utility.yul\":5814:5877   */\n      swap3\n      pop\n        /* \"#utility.yul\":5770:5887   */\n      pop\n        /* \"#utility.yul\":5926:5928   */\n      0x20\n        /* \"#utility.yul\":5952:6005   */\n      tag_264\n        /* \"#utility.yul\":5997:6004   */\n      dup6\n        /* \"#utility.yul\":5988:5994   */\n      dup3\n        /* \"#utility.yul\":5977:5986   */\n      dup7\n        /* \"#utility.yul\":5973:5995   */\n      add\n        /* \"#utility.yul\":5952:6005   */\n      tag_136\n      jump\t// in\n    tag_264:\n        /* \"#utility.yul\":5942:6005   */\n      swap2\n      pop\n        /* \"#utility.yul\":5897:6015   */\n      pop\n        /* \"#utility.yul\":5548:6022   */\n      swap3\n      pop\n      swap3\n      swap1\n      pop\n      jump\t// out\n        /* \"#utility.yul\":6028:6118   */\n    tag_147:\n        /* \"#utility.yul\":6062:6069   */\n      0x00\n        /* \"#utility.yul\":6105:6110   */\n      dup2\n        /* \"#utility.yul\":6098:6111   */\n      iszero\n        /* \"#utility.yul\":6091:6112   */\n      iszero\n        /* \"#utility.yul\":6080:6112   */\n      swap1\n      pop\n        /* \"#utility.yul\":6028:6118   */\n      swap2\n      swap1\n      pop\n      jump\t// out\n        /* \"#utility.yul\":6124:6233   */\n    tag_148:\n        /* \"#utility.yul\":6205:6226   */\n      tag_267\n        /* \"#utility.yul\":6220:6225   */\n      dup2\n        /* \"#utility.yul\":6205:6226   */\n      tag_147\n      jump\t// in\n    tag_267:\n        /* \"#utility.yul\":6200:6203   */\n      dup3\n        /* \"#utility.yul\":6193:6227   */\n      mstore\n        /* \"#utility.yul\":6124:6233   */\n      pop\n      pop\n      jump\t// out\n        /* \"#utility.yul\":6239:6449   */\n    tag_50:\n        /* \"#utility.yul\":6326:6330   */\n      0x00\n        /* \"#utility.yul\":6364:6366   */\n      0x20\n        /* \"#utility.yul\":6353:6362   */\n      dup3\n        /* \"#utility.yul\":6349:6367   */\n      add\n        /* \"#utility.yul\":6341:6367   */\n      swap1\n      pop\n        /* \"#utility.yul\":6377:6442   */\n      tag_269\n        /* \"#utility.yul\":6439:6440   */\n      0x00\n        /* \"#utility.yul\":6428:6437   */\n      dup4\n        /* \"#utility.yul\":6424:6441   */\n      add\n        /* \"#utility.yul\":6415:6421   */\n      dup5\n        /* \"#utility.yul\":6377:6442   */\n      tag_148\n      jump\t// in\n    tag_269:\n        /* \"#utility.yul\":6239:6449   */\n      swap3\n      swap2\n      pop\n      pop\n      jump\t// out\n        /* \"#utility.yul\":6455:6596   */\n    tag_149:\n        /* \"#utility.yul\":6549:6555   */\n      0x00\n        /* \"#utility.yul\":6583:6588   */\n      dup2\n        /* \"#utility.yul\":6577:6589   */\n      mload\n        /* \"#utility.yul\":6567:6589   */\n      swap1\n      pop\n        /* \"#utility.yul\":6455:6596   */\n      swap2\n      swap1\n      pop\n      jump\t// out\n        /* \"#utility.yul\":6602:6813   */\n    tag_150:\n        /* \"#utility.yul\":6728:6739   */\n      0x00\n        /* \"#utility.yul\":6762:6768   */\n      dup3\n        /* \"#utility.yul\":6757:6760   */\n      dup3\n        /* \"#utility.yul\":6750:6769   */\n      mstore\n        /* \"#utility.yul\":6802:6806   */\n      0x20\n        /* \"#utility.yul\":6797:6800   */\n      dup3\n        /* \"#utility.yul\":6793:6807   */\n      add\n        /* \"#utility.yul\":6778:6807   */\n      swap1\n      pop\n        /* \"#utility.yul\":6602:6813   */\n      swap3\n      swap2\n      pop\n      pop\n      jump\t// out\n        /* \"#utility.yul\":6819:6978   */\n    tag_151:\n        /* \"#utility.yul\":6913:6917   */\n      0x00\n        /* \"#utility.yul\":6936:6939   */\n      dup2\n        /* \"#utility.yul\":6928:6939   */\n      swap1\n      pop\n        /* \"#utility.yul\":6966:6970   */\n      0x20\n        /* \"#utility.yul\":6961:6964   */\n      dup3\n        /* \"#utility.yul\":6957:6971   */\n      add\n        /* \"#utility.yul\":6949:6971   */\n      swap1\n      pop\n        /* \"#utility.yul\":6819:6978   */\n      swap2\n      swap1\n      pop\n      jump\t// out\n        /* \"#utility.yul\":6984:7092   */\n    tag_152:\n        /* \"#utility.yul\":7061:7085   */\n      tag_274\n        /* \"#utility.yul\":7079:7084   */\n      dup2\n        /* \"#utility.yul\":7061:7085   */\n      tag_126\n      jump\t// in\n    tag_274:\n        /* \"#utility.yul\":7056:7059   */\n      dup3\n        /* \"#utility.yul\":7049:7086   */\n      mstore\n        /* \"#utility.yul\":6984:7092   */\n      pop\n      pop\n      jump\t// out\n        /* \"#utility.yul\":7098:7206   */\n    tag_153:\n        /* \"#utility.yul\":7175:7199   */\n      tag_276\n        /* \"#utility.yul\":7193:7198   */\n      dup2\n        /* \"#utility.yul\":7175:7199   */\n      tag_134\n      jump\t// in\n    tag_276:\n        /* \"#utility.yul\":7170:7173   */\n      dup3\n        /* \"#utility.yul\":7163:7200   */\n      mstore\n        /* \"#utility.yul\":7098:7206   */\n      pop\n      pop\n      jump\t// out\n        /* \"#utility.yul\":7212:7392   */\n    tag_83:\n        /* \"#utility.yul\":7260:7337   */\n      0x4e487b7100000000000000000000000000000000000000000000000000000000\n        /* \"#utility.yul\":7257:7258   */\n      0x00\n        /* \"#utility.yul\":7250:7338   */\n      mstore\n        /* \"#utility.yul\":7357:7361   */\n      0x21\n        /* \"#utility.yul\":7354:7355   */\n      0x04\n        /* \"#utility.yul\":7347:7362   */\n      mstore\n        /* \"#utility.yul\":7381:7385   */\n      0x24\n        /* \"#utility.yul\":7378:7379   */\n      0x00\n        /* \"#utility.yul\":7371:7386   */\n      revert\n        /* \"#utility.yul\":7398:7516   */\n    tag_154:\n        /* \"#utility.yul\":7484:7485   */\n      0x03\n        /* \"#utility.yul\":7477:7482   */\n      dup2\n        /* \"#utility.yul\":7474:7486   */\n      lt\n        /* \"#utility.yul\":7464:7510   */\n      tag_279\n      jumpi\n        /* \"#utility.yul\":7490:7508   */\n      tag_280\n      tag_83\n      jump\t// in\n    tag_280:\n        /* \"#utility.yul\":7464:7510   */\n    tag_279:\n        /* \"#utility.yul\":7398:7516   */\n      pop\n      jump\t// out\n        /* \"#utility.yul\":7522:7659   */\n    tag_155:\n        /* \"#utility.yul\":7572:7579   */\n      0x00\n        /* \"#utility.yul\":7601:7606   */\n      dup2\n        /* \"#utility.yul\":7590:7606   */\n      swap1\n      pop\n        /* \"#utility.yul\":7607:7653   */\n      tag_282\n        /* \"#utility.yul\":7647:7652   */\n      dup3\n        /* \"#utility.yul\":7607:7653   */\n      tag_154\n      jump\t// in\n    tag_282:\n        /* \"#utility.yul\":7522:7659   */\n      swap2\n      swap1\n      pop\n      jump\t// out\n        /* \"#utility.yul\":7665:7802   */\n    tag_156:\n        /* \"#utility.yul\":7726:7735   */\n      0x00\n        /* \"#utility.yul\":7759:7796   */\n      tag_284\n        /* \"#utility.yul\":7790:7795   */\n      dup3\n        /* \"#utility.yul\":7759:7796   */\n      tag_155\n      jump\t// in\n    tag_284:\n        /* \"#utility.yul\":7746:7796   */\n      swap1\n      pop\n        /* \"#utility.yul\":7665:7802   */\n      swap2\n      swap1\n      pop\n      jump\t// out\n        /* \"#utility.yul\":7808:7951   */\n    tag_157:\n        /* \"#utility.yul\":7896:7944   */\n      tag_286\n        /* \"#utility.yul\":7938:7943   */\n      dup2\n        /* \"#utility.yul\":7896:7944   */\n      tag_156\n      jump\t// in\n    tag_286:\n        /* \"#utility.yul\":7891:7894   */\n      dup3\n        /* \"#utility.yul\":7884:7945   */\n      mstore\n        /* \"#utility.yul\":7808:7951   */\n      pop\n      pop\n      jump\t// out\n        /* \"#utility.yul\":7957:8056   */\n    tag_158:\n        /* \"#utility.yul\":8009:8015   */\n      0x00\n        /* \"#utility.yul\":8043:8048   */\n      dup2\n        /* \"#utility.yul\":8037:8049   */\n      mload\n        /* \"#utility.yul\":8027:8049   */\n      swap1\n      pop\n        /* \"#utility.yul\":7957:8056   */\n      swap2\n      swap1\n      pop\n      jump\t// out\n        /* \"#utility.yul\":8062:8221   */\n    tag_159:\n        /* \"#utility.yul\":8136:8147   */\n      0x00\n        /* \"#utility.yul\":8170:8176   */\n      dup3\n        /* \"#utility.yul\":8165:8168   */\n      dup3\n        /* \"#utility.yul\":8158:8177   */\n      mstore\n        /* \"#utility.yul\":8210:8214   */\n      0x20\n        /* \"#utility.yul\":8205:8208   */\n      dup3\n        /* \"#utility.yul\":8201:8215   */\n      add\n        /* \"#utility.yul\":8186:8215   */\n      swap1\n      pop\n        /* \"#utility.yul\":8062:8221   */\n      swap3\n      swap2\n      pop\n      pop\n      jump\t// out\n        /* \"#utility.yul\":8227:8366   */\n    tag_160:\n        /* \"#utility.yul\":8316:8322   */\n      dup3\n        /* \"#utility.yul\":8311:8314   */\n      dup2\n        /* \"#utility.yul\":8306:8309   */\n      dup4\n        /* \"#utility.yul\":8300:8323   */\n      mcopy\n        /* \"#utility.yul\":8357:8358   */\n      0x00\n        /* \"#utility.yul\":8348:8354   */\n      dup4\n        /* \"#utility.yul\":8343:8346   */\n      dup4\n        /* \"#utility.yul\":8339:8355   */\n      add\n        /* \"#utility.yul\":8332:8359   */\n      mstore\n        /* \"#utility.yul\":8227:8366   */\n      pop\n      pop\n      pop\n      jump\t// out\n        /* \"#utility.yul\":8372:8729   */\n    tag_161:\n        /* \"#utility.yul\":8450:8453   */\n      0x00\n        /* \"#utility.yul\":8478:8517   */\n      tag_291\n        /* \"#utility.yul\":8511:8516   */\n      dup3\n        /* \"#utility.yul\":8478:8517   */\n      tag_158\n      jump\t// in\n    tag_291:\n        /* \"#utility.yul\":8533:8594   */\n      tag_292\n        /* \"#utility.yul\":8587:8593   */\n      dup2\n        /* \"#utility.yul\":8582:8585   */\n      dup6\n        /* \"#utility.yul\":8533:8594   */\n      tag_159\n      jump\t// in\n    tag_292:\n        /* \"#utility.yul\":8526:8594   */\n      swap4\n      pop\n        /* \"#utility.yul\":8603:8668   */\n      tag_293\n        /* \"#utility.yul\":8661:8667   */\n      dup2\n        /* \"#utility.yul\":8656:8659   */\n      dup6\n        /* \"#utility.yul\":8649:8653   */\n      0x20\n        /* \"#utility.yul\":8642:8647   */\n      dup7\n        /* \"#utility.yul\":8638:8654   */\n      add\n        /* \"#utility.yul\":8603:8668   */\n      tag_160\n      jump\t// in\n    tag_293:\n        /* \"#utility.yul\":8693:8722   */\n      tag_294\n        /* \"#utility.yul\":8715:8721   */\n      dup2\n        /* \"#utility.yul\":8693:8722   */\n      tag_139\n      jump\t// in\n    tag_294:\n        /* \"#utility.yul\":8688:8691   */\n      dup5\n        /* \"#utility.yul\":8684:8723   */\n      add\n        /* \"#utility.yul\":8677:8723   */\n      swap2\n      pop\n        /* \"#utility.yul\":8454:8729   */\n      pop\n        /* \"#utility.yul\":8372:8729   */\n      swap3\n      swap2\n      pop\n      pop\n      jump\t// out\n        /* \"#utility.yul\":8819:9968   */\n    tag_162:\n        /* \"#utility.yul\":8932:8935   */\n      0x00\n        /* \"#utility.yul\":8968:8972   */\n      0xa0\n        /* \"#utility.yul\":8963:8966   */\n      dup4\n        /* \"#utility.yul\":8959:8973   */\n      add\n        /* \"#utility.yul\":9057:9061   */\n      0x00\n        /* \"#utility.yul\":9050:9055   */\n      dup4\n        /* \"#utility.yul\":9046:9062   */\n      add\n        /* \"#utility.yul\":9040:9063   */\n      mload\n        /* \"#utility.yul\":9076:9139   */\n      tag_296\n        /* \"#utility.yul\":9133:9137   */\n      0x00\n        /* \"#utility.yul\":9128:9131   */\n      dup7\n        /* \"#utility.yul\":9124:9138   */\n      add\n        /* \"#utility.yul\":9110:9122   */\n      dup3\n        /* \"#utility.yul\":9076:9139   */\n      tag_152\n      jump\t// in\n    tag_296:\n        /* \"#utility.yul\":8983:9149   */\n      pop\n        /* \"#utility.yul\":9231:9235   */\n      0x20\n        /* \"#utility.yul\":9224:9229   */\n      dup4\n        /* \"#utility.yul\":9220:9236   */\n      add\n        /* \"#utility.yul\":9214:9237   */\n      mload\n        /* \"#utility.yul\":9250:9313   */\n      tag_297\n        /* \"#utility.yul\":9307:9311   */\n      0x20\n        /* \"#utility.yul\":9302:9305   */\n      dup7\n        /* \"#utility.yul\":9298:9312   */\n      add\n        /* \"#utility.yul\":9284:9296   */\n      dup3\n        /* \"#utility.yul\":9250:9313   */\n      tag_153\n      jump\t// in\n    tag_297:\n        /* \"#utility.yul\":9159:9323   */\n      pop\n        /* \"#utility.yul\":9407:9411   */\n      0x40\n        /* \"#utility.yul\":9400:9405   */\n      dup4\n        /* \"#utility.yul\":9396:9412   */\n      add\n        /* \"#utility.yul\":9390:9413   */\n      mload\n        /* \"#utility.yul\":9426:9500   */\n      tag_298\n        /* \"#utility.yul\":9494:9498   */\n      0x40\n        /* \"#utility.yul\":9489:9492   */\n      dup7\n        /* \"#utility.yul\":9485:9499   */\n      add\n        /* \"#utility.yul\":9471:9483   */\n      dup3\n        /* \"#utility.yul\":9426:9500   */\n      tag_157\n      jump\t// in\n    tag_298:\n        /* \"#utility.yul\":9333:9510   */\n      pop\n        /* \"#utility.yul\":9599:9603   */\n      0x60\n        /* \"#utility.yul\":9592:9597   */\n      dup4\n        /* \"#utility.yul\":9588:9604   */\n      add\n        /* \"#utility.yul\":9582:9605   */\n      mload\n        /* \"#utility.yul\":9652:9655   */\n      dup5\n        /* \"#utility.yul\":9646:9650   */\n      dup3\n        /* \"#utility.yul\":9642:9656   */\n      sub\n        /* \"#utility.yul\":9635:9639   */\n      0x60\n        /* \"#utility.yul\":9630:9633   */\n      dup7\n        /* \"#utility.yul\":9626:9640   */\n      add\n        /* \"#utility.yul\":9619:9657   */\n      mstore\n        /* \"#utility.yul\":9678:9751   */\n      tag_299\n        /* \"#utility.yul\":9746:9750   */\n      dup3\n        /* \"#utility.yul\":9732:9744   */\n      dup3\n        /* \"#utility.yul\":9678:9751   */\n      tag_161\n      jump\t// in\n    tag_299:\n        /* \"#utility.yul\":9670:9751   */\n      swap2\n      pop\n        /* \"#utility.yul\":9520:9762   */\n      pop\n        /* \"#utility.yul\":9849:9853   */\n      0x80\n        /* \"#utility.yul\":9842:9847   */\n      dup4\n        /* \"#utility.yul\":9838:9854   */\n      add\n        /* \"#utility.yul\":9832:9855   */\n      mload\n        /* \"#utility.yul\":9868:9931   */\n      tag_300\n        /* \"#utility.yul\":9925:9929   */\n      0x80\n        /* \"#utility.yul\":9920:9923   */\n      dup7\n        /* \"#utility.yul\":9916:9930   */\n      add\n        /* \"#utility.yul\":9902:9914   */\n      dup3\n        /* \"#utility.yul\":9868:9931   */\n      tag_152\n      jump\t// in\n    tag_300:\n        /* \"#utility.yul\":9772:9941   */\n      pop\n        /* \"#utility.yul\":9958:9962   */\n      dup1\n        /* \"#utility.yul\":9951:9962   */\n      swap2\n      pop\n        /* \"#utility.yul\":8937:9968   */\n      pop\n        /* \"#utility.yul\":8819:9968   */\n      swap3\n      swap2\n      pop\n      pop\n      jump\t// out\n        /* \"#utility.yul\":9974:10238   */\n    tag_163:\n        /* \"#utility.yul\":10097:10107   */\n      0x00\n        /* \"#utility.yul\":10132:10232   */\n      tag_302\n        /* \"#utility.yul\":10228:10231   */\n      dup4\n        /* \"#utility.yul\":10220:10226   */\n      dup4\n        /* \"#utility.yul\":10132:10232   */\n      tag_162\n      jump\t// in\n    tag_302:\n        /* \"#utility.yul\":10118:10232   */\n      swap1\n      pop\n        /* \"#utility.yul\":9974:10238   */\n      swap3\n      swap2\n      pop\n      pop\n      jump\t// out\n        /* \"#utility.yul\":10244:10384   */\n    tag_164:\n        /* \"#utility.yul\":10341:10345   */\n      0x00\n        /* \"#utility.yul\":10373:10377   */\n      0x20\n        /* \"#utility.yul\":10368:10371   */\n      dup3\n        /* \"#utility.yul\":10364:10378   */\n      add\n        /* \"#utility.yul\":10356:10378   */\n      swap1\n      pop\n        /* \"#utility.yul\":10244:10384   */\n      swap2\n      swap1\n      pop\n      jump\t// out\n        /* \"#utility.yul\":10478:11605   */\n    tag_165:\n        /* \"#utility.yul\":10651:10654   */\n      0x00\n        /* \"#utility.yul\":10680:10761   */\n      tag_305\n        /* \"#utility.yul\":10755:10760   */\n      dup3\n        /* \"#utility.yul\":10680:10761   */\n      tag_149\n      jump\t// in\n    tag_305:\n        /* \"#utility.yul\":10777:10890   */\n      tag_306\n        /* \"#utility.yul\":10883:10889   */\n      dup2\n        /* \"#utility.yul\":10878:10881   */\n      dup6\n        /* \"#utility.yul\":10777:10890   */\n      tag_150\n      jump\t// in\n    tag_306:\n        /* \"#utility.yul\":10770:10890   */\n      swap4\n      pop\n        /* \"#utility.yul\":10916:10919   */\n      dup4\n        /* \"#utility.yul\":10961:10965   */\n      0x20\n        /* \"#utility.yul\":10953:10959   */\n      dup3\n        /* \"#utility.yul\":10949:10966   */\n      mul\n        /* \"#utility.yul\":10944:10947   */\n      dup6\n        /* \"#utility.yul\":10940:10967   */\n      add\n        /* \"#utility.yul\":10991:11074   */\n      tag_307\n        /* \"#utility.yul\":11068:11073   */\n      dup6\n        /* \"#utility.yul\":10991:11074   */\n      tag_151\n      jump\t// in\n    tag_307:\n        /* \"#utility.yul\":11097:11104   */\n      dup1\n        /* \"#utility.yul\":11128:11129   */\n      0x00\n        /* \"#utility.yul\":11113:11560   */\n    tag_308:\n        /* \"#utility.yul\":11138:11144   */\n      dup6\n        /* \"#utility.yul\":11135:11136   */\n      dup2\n        /* \"#utility.yul\":11132:11145   */\n      lt\n        /* \"#utility.yul\":11113:11560   */\n      iszero\n      tag_310\n      jumpi\n        /* \"#utility.yul\":11209:11218   */\n      dup5\n        /* \"#utility.yul\":11203:11207   */\n      dup5\n        /* \"#utility.yul\":11199:11219   */\n      sub\n        /* \"#utility.yul\":11194:11197   */\n      dup10\n        /* \"#utility.yul\":11187:11220   */\n      mstore\n        /* \"#utility.yul\":11260:11266   */\n      dup2\n        /* \"#utility.yul\":11254:11267   */\n      mload\n        /* \"#utility.yul\":11288:11406   */\n      tag_311\n        /* \"#utility.yul\":11401:11405   */\n      dup6\n        /* \"#utility.yul\":11386:11399   */\n      dup3\n        /* \"#utility.yul\":11288:11406   */\n      tag_163\n      jump\t// in\n    tag_311:\n        /* \"#utility.yul\":11280:11406   */\n      swap5\n      pop\n        /* \"#utility.yul\":11429:11516   */\n      tag_312\n        /* \"#utility.yul\":11509:11515   */\n      dup4\n        /* \"#utility.yul\":11429:11516   */\n      tag_164\n      jump\t// in\n    tag_312:\n        /* \"#utility.yul\":11419:11516   */\n      swap3\n      pop\n        /* \"#utility.yul\":11545:11549   */\n      0x20\n        /* \"#utility.yul\":11540:11543   */\n      dup11\n        /* \"#utility.yul\":11536:11550   */\n      add\n        /* \"#utility.yul\":11529:11550   */\n      swap10\n      pop\n        /* \"#utility.yul\":11173:11560   */\n      pop\n        /* \"#utility.yul\":11160:11161   */\n      0x01\n        /* \"#utility.yul\":11157:11158   */\n      dup2\n        /* \"#utility.yul\":11153:11162   */\n      add\n        /* \"#utility.yul\":11148:11162   */\n      swap1\n      pop\n        /* \"#utility.yul\":11113:11560   */\n      jump(tag_308)\n    tag_310:\n        /* \"#utility.yul\":11117:11131   */\n      pop\n        /* \"#utility.yul\":11576:11580   */\n      dup3\n        /* \"#utility.yul\":11569:11580   */\n      swap8\n      pop\n        /* \"#utility.yul\":11596:11599   */\n      dup8\n        /* \"#utility.yul\":11589:11599   */\n      swap6\n      pop\n        /* \"#utility.yul\":10656:11605   */\n      pop\n      pop\n      pop\n      pop\n      pop\n        /* \"#utility.yul\":10478:11605   */\n      swap3\n      swap2\n      pop\n      pop\n      jump\t// out\n        /* \"#utility.yul\":11611:12092   */\n    tag_55:\n        /* \"#utility.yul\":11808:11812   */\n      0x00\n        /* \"#utility.yul\":11846:11848   */\n      0x20\n        /* \"#utility.yul\":11835:11844   */\n      dup3\n        /* \"#utility.yul\":11831:11849   */\n      add\n        /* \"#utility.yul\":11823:11849   */\n      swap1\n      pop\n        /* \"#utility.yul\":11895:11904   */\n      dup2\n        /* \"#utility.yul\":11889:11893   */\n      dup2\n        /* \"#utility.yul\":11885:11905   */\n      sub\n        /* \"#utility.yul\":11881:11882   */\n      0x00\n        /* \"#utility.yul\":11870:11879   */\n      dup4\n        /* \"#utility.yul\":11866:11883   */\n      add\n        /* \"#utility.yul\":11859:11906   */\n      mstore\n        /* \"#utility.yul\":11923:12085   */\n      tag_314\n        /* \"#utility.yul\":12080:12084   */\n      dup2\n        /* \"#utility.yul\":12071:12077   */\n      dup5\n        /* \"#utility.yul\":11923:12085   */\n      tag_165\n      jump\t// in\n    tag_314:\n        /* \"#utility.yul\":11915:12085   */\n      swap1\n      pop\n        /* \"#utility.yul\":11611:12092   */\n      swap3\n      swap2\n      pop\n      pop\n      jump\t// out\n        /* \"#utility.yul\":12098:12267   */\n    tag_166:\n        /* \"#utility.yul\":12182:12193   */\n      0x00\n        /* \"#utility.yul\":12216:12222   */\n      dup3\n        /* \"#utility.yul\":12211:12214   */\n      dup3\n        /* \"#utility.yul\":12204:12223   */\n      mstore\n        /* \"#utility.yul\":12256:12260   */\n      0x20\n        /* \"#utility.yul\":12251:12254   */\n      dup3\n        /* \"#utility.yul\":12247:12261   */\n      add\n        /* \"#utility.yul\":12232:12261   */\n      swap1\n      pop\n        /* \"#utility.yul\":12098:12267   */\n      swap3\n      swap2\n      pop\n      pop\n      jump\t// out\n        /* \"#utility.yul\":12273:12446   */\n    tag_167:\n        /* \"#utility.yul\":12413:12438   */\n      0x436f6d6d656e742063616e6e6f7420626520656d707479000000000000000000\n        /* \"#utility.yul\":12409:12410   */\n      0x00\n        /* \"#utility.yul\":12401:12407   */\n      dup3\n        /* \"#utility.yul\":12397:12411   */\n      add\n        /* \"#utility.yul\":12390:12439   */\n      mstore\n        /* \"#utility.yul\":12273:12446   */\n      pop\n      jump\t// out\n        /* \"#utility.yul\":12452:12818   */\n    tag_168:\n        /* \"#utility.yul\":12594:12597   */\n      0x00\n        /* \"#utility.yul\":12615:12682   */\n      tag_318\n        /* \"#utility.yul\":12679:12681   */\n      0x17\n        /* \"#utility.yul\":12674:12677   */\n      dup4\n        /* \"#utility.yul\":12615:12682   */\n      tag_166\n      jump\t// in\n    tag_318:\n        /* \"#utility.yul\":12608:12682   */\n      swap2\n      pop\n        /* \"#utility.yul\":12691:12784   */\n      tag_319\n        /* \"#utility.yul\":12780:12783   */\n      dup3\n        /* \"#utility.yul\":12691:12784   */\n      tag_167\n      jump\t// in\n    tag_319:\n        /* \"#utility.yul\":12809:12811   */\n      0x20\n        /* \"#utility.yul\":12804:12807   */\n      dup3\n        /* \"#utility.yul\":12800:12812   */\n      add\n        /* \"#utility.yul\":12793:12812   */\n      swap1\n      pop\n        /* \"#utility.yul\":12452:12818   */\n      swap2\n      swap1\n      pop\n      jump\t// out\n        /* \"#utility.yul\":12824:13243   */\n    tag_70:\n        /* \"#utility.yul\":12990:12994   */\n      0x00\n        /* \"#utility.yul\":13028:13030   */\n      0x20\n        /* \"#utility.yul\":13017:13026   */\n      dup3\n        /* \"#utility.yul\":13013:13031   */\n      add\n        /* \"#utility.yul\":13005:13031   */\n      swap1\n      pop\n        /* \"#utility.yul\":13077:13086   */\n      dup2\n        /* \"#utility.yul\":13071:13075   */\n      dup2\n        /* \"#utility.yul\":13067:13087   */\n      sub\n        /* \"#utility.yul\":13063:13064   */\n      0x00\n        /* \"#utility.yul\":13052:13061   */\n      dup4\n        /* \"#utility.yul\":13048:13065   */\n      add\n        /* \"#utility.yul\":13041:13088   */\n      mstore\n        /* \"#utility.yul\":13105:13236   */\n      tag_321\n        /* \"#utility.yul\":13231:13235   */\n      dup2\n        /* \"#utility.yul\":13105:13236   */\n      tag_168\n      jump\t// in\n    tag_321:\n        /* \"#utility.yul\":13097:13236   */\n      swap1\n      pop\n        /* \"#utility.yul\":12824:13243   */\n      swap2\n      swap1\n      pop\n      jump\t// out\n        /* \"#utility.yul\":13249:13415   */\n    tag_169:\n        /* \"#utility.yul\":13389:13407   */\n      0x436f6d6d656e7420746f6f206c6f6e6700000000000000000000000000000000\n        /* \"#utility.yul\":13385:13386   */\n      0x00\n        /* \"#utility.yul\":13377:13383   */\n      dup3\n        /* \"#utility.yul\":13373:13387   */\n      add\n        /* \"#utility.yul\":13366:13408   */\n      mstore\n        /* \"#utility.yul\":13249:13415   */\n      pop\n      jump\t// out\n        /* \"#utility.yul\":13421:13787   */\n    tag_170:\n        /* \"#utility.yul\":13563:13566   */\n      0x00\n        /* \"#utility.yul\":13584:13651   */\n      tag_324\n        /* \"#utility.yul\":13648:13650   */\n      0x10\n        /* \"#utility.yul\":13643:13646   */\n      dup4\n        /* \"#utility.yul\":13584:13651   */\n      tag_166\n      jump\t// in\n    tag_324:\n        /* \"#utility.yul\":13577:13651   */\n      swap2\n      pop\n        /* \"#utility.yul\":13660:13753   */\n      tag_325\n        /* \"#utility.yul\":13749:13752   */\n      dup3\n        /* \"#utility.yul\":13660:13753   */\n      tag_169\n      jump\t// in\n    tag_325:\n        /* \"#utility.yul\":13778:13780   */\n      0x20\n        /* \"#utility.yul\":13773:13776   */\n      dup3\n        /* \"#utility.yul\":13769:13781   */\n      add\n        /* \"#utility.yul\":13762:13781   */\n      swap1\n      pop\n        /* \"#utility.yul\":13421:13787   */\n      swap2\n      swap1\n      pop\n      jump\t// out\n        /* \"#utility.yul\":13793:14212   */\n    tag_73:\n        /* \"#utility.yul\":13959:13963   */\n      0x00\n        /* \"#utility.yul\":13997:13999   */\n      0x20\n        /* \"#utility.yul\":13986:13995   */\n      dup3\n        /* \"#utility.yul\":13982:14000   */\n      add\n        /* \"#utility.yul\":13974:14000   */\n      swap1\n      pop\n        /* \"#utility.yul\":14046:14055   */\n      dup2\n        /* \"#utility.yul\":14040:14044   */\n      dup2\n        /* \"#utility.yul\":14036:14056   */\n      sub\n        /* \"#utility.yul\":14032:14033   */\n      0x00\n        /* \"#utility.yul\":14021:14030   */\n      dup4\n        /* \"#utility.yul\":14017:14034   */\n      add\n        /* \"#utility.yul\":14010:14057   */\n      mstore\n        /* \"#utility.yul\":14074:14205   */\n      tag_327\n        /* \"#utility.yul\":14200:14204   */\n      dup2\n        /* \"#utility.yul\":14074:14205   */\n      tag_170\n      jump\t// in\n    tag_327:\n        /* \"#utility.yul\":14066:14205   */\n      swap1\n      pop\n        /* \"#utility.yul\":13793:14212   */\n      swap2\n      swap1\n      pop\n      jump\t// out\n        /* \"#utility.yul\":14218:14398   */\n    tag_171:\n        /* \"#utility.yul\":14266:14343   */\n      0x4e487b7100000000000000000000000000000000000000000000000000000000\n        /* \"#utility.yul\":14263:14264   */\n      0x00\n        /* \"#utility.yul\":14256:14344   */\n      mstore\n        /* \"#utility.yul\":14363:14367   */\n      0x11\n        /* \"#utility.yul\":14360:14361   */\n      0x04\n        /* \"#utility.yul\":14353:14368   */\n      mstore\n        /* \"#utility.yul\":14387:14391   */\n      0x24\n        /* \"#utility.yul\":14384:14385   */\n      0x00\n        /* \"#utility.yul\":14377:14392   */\n      revert\n        /* \"#utility.yul\":14404:14595   */\n    tag_76:\n        /* \"#utility.yul\":14444:14447   */\n      0x00\n        /* \"#utility.yul\":14463:14483   */\n      tag_330\n        /* \"#utility.yul\":14481:14482   */\n      dup3\n        /* \"#utility.yul\":14463:14483   */\n      tag_126\n      jump\t// in\n    tag_330:\n        /* \"#utility.yul\":14458:14483   */\n      swap2\n      pop\n        /* \"#utility.yul\":14497:14517   */\n      tag_331\n        /* \"#utility.yul\":14515:14516   */\n      dup4\n        /* \"#utility.yul\":14497:14517   */\n      tag_126\n      jump\t// in\n    tag_331:\n        /* \"#utility.yul\":14492:14517   */\n      swap3\n      pop\n        /* \"#utility.yul\":14540:14541   */\n      dup3\n        /* \"#utility.yul\":14537:14538   */\n      dup3\n        /* \"#utility.yul\":14533:14542   */\n      add\n        /* \"#utility.yul\":14526:14542   */\n      swap1\n      pop\n        /* \"#utility.yul\":14561:14564   */\n      dup1\n        /* \"#utility.yul\":14558:14559   */\n      dup3\n        /* \"#utility.yul\":14555:14565   */\n      gt\n        /* \"#utility.yul\":14552:14588   */\n      iszero\n      tag_332\n      jumpi\n        /* \"#utility.yul\":14568:14586   */\n      tag_333\n      tag_171\n      jump\t// in\n    tag_333:\n        /* \"#utility.yul\":14552:14588   */\n    tag_332:\n        /* \"#utility.yul\":14404:14595   */\n      swap3\n      swap2\n      pop\n      pop\n      jump\t// out\n        /* \"#utility.yul\":14601:14823   */\n    tag_172:\n        /* \"#utility.yul\":14741:14775   */\n      0x506c656173652077616974206265666f726520636f6d6d656e74696e67206167\n        /* \"#utility.yul\":14737:14738   */\n      0x00\n        /* \"#utility.yul\":14729:14735   */\n      dup3\n        /* \"#utility.yul\":14725:14739   */\n      add\n        /* \"#utility.yul\":14718:14776   */\n      mstore\n        /* \"#utility.yul\":14810:14815   */\n      0x61696e0000000000000000000000000000000000000000000000000000000000\n        /* \"#utility.yul\":14805:14807   */\n      0x20\n        /* \"#utility.yul\":14797:14803   */\n      dup3\n        /* \"#utility.yul\":14793:14808   */\n      add\n        /* \"#utility.yul\":14786:14816   */\n      mstore\n        /* \"#utility.yul\":14601:14823   */\n      pop\n      jump\t// out\n        /* \"#utility.yul\":14829:15195   */\n    tag_173:\n        /* \"#utility.yul\":14971:14974   */\n      0x00\n        /* \"#utility.yul\":14992:15059   */\n      tag_336\n        /* \"#utility.yul\":15056:15058   */\n      0x23\n        /* \"#utility.yul\":15051:15054   */\n      dup4\n        /* \"#utility.yul\":14992:15059   */\n      tag_166\n      jump\t// in\n    tag_336:\n        /* \"#utility.yul\":14985:15059   */\n      swap2\n      pop\n        /* \"#utility.yul\":15068:15161   */\n      tag_337\n        /* \"#utility.yul\":15157:15160   */\n      dup3\n        /* \"#utility.yul\":15068:15161   */\n      tag_172\n      jump\t// in\n    tag_337:\n        /* \"#utility.yul\":15186:15188   */\n      0x40\n        /* \"#utility.yul\":15181:15184   */\n      dup3\n        /* \"#utility.yul\":15177:15189   */\n      add\n        /* \"#utility.yul\":15170:15189   */\n      swap1\n      pop\n        /* \"#utility.yul\":14829:15195   */\n      swap2\n      swap1\n      pop\n      jump\t// out\n        /* \"#utility.yul\":15201:15620   */\n    tag_79:\n        /* \"#utility.yul\":15367:15371   */\n      0x00\n        /* \"#utility.yul\":15405:15407   */\n      0x20\n        /* \"#utility.yul\":15394:15403   */\n      dup3\n        /* \"#utility.yul\":15390:15408   */\n      add\n        /* \"#utility.yul\":15382:15408   */\n      swap1\n      pop\n        /* \"#utility.yul\":15454:15463   */\n      dup2\n        /* \"#utility.yul\":15448:15452   */\n      dup2\n        /* \"#utility.yul\":15444:15464   */\n      sub\n        /* \"#utility.yul\":15440:15441   */\n      0x00\n        /* \"#utility.yul\":15429:15438   */\n      dup4\n        /* \"#utility.yul\":15425:15442   */\n      add\n        /* \"#utility.yul\":15418:15465   */\n      mstore\n        /* \"#utility.yul\":15482:15613   */\n      tag_339\n        /* \"#utility.yul\":15608:15612   */\n      dup2\n        /* \"#utility.yul\":15482:15613   */\n      tag_173\n      jump\t// in\n    tag_339:\n        /* \"#utility.yul\":15474:15613   */\n      swap1\n      pop\n        /* \"#utility.yul\":15201:15620   */\n      swap2\n      swap1\n      pop\n      jump\t// out\n        /* \"#utility.yul\":15626:15806   */\n    tag_174:\n        /* \"#utility.yul\":15674:15751   */\n      0x4e487b7100000000000000000000000000000000000000000000000000000000\n        /* \"#utility.yul\":15671:15672   */\n      0x00\n        /* \"#utility.yul\":15664:15752   */\n      mstore\n        /* \"#utility.yul\":15771:15775   */\n      0x22\n        /* \"#utility.yul\":15768:15769   */\n      0x04\n        /* \"#utility.yul\":15761:15776   */\n      mstore\n        /* \"#utility.yul\":15795:15799   */\n      0x24\n        /* \"#utility.yul\":15792:15793   */\n      0x00\n        /* \"#utility.yul\":15785:15800   */\n      revert\n        /* \"#utility.yul\":15812:16132   */\n    tag_113:\n        /* \"#utility.yul\":15856:15862   */\n      0x00\n        /* \"#utility.yul\":15893:15894   */\n      0x02\n        /* \"#utility.yul\":15887:15891   */\n      dup3\n        /* \"#utility.yul\":15883:15895   */\n      div\n        /* \"#utility.yul\":15873:15895   */\n      swap1\n      pop\n        /* \"#utility.yul\":15940:15941   */\n      0x01\n        /* \"#utility.yul\":15934:15938   */\n      dup3\n        /* \"#utility.yul\":15930:15942   */\n      and\n        /* \"#utility.yul\":15961:15979   */\n      dup1\n        /* \"#utility.yul\":15951:16032   */\n      tag_342\n      jumpi\n        /* \"#utility.yul\":16017:16021   */\n      0x7f\n        /* \"#utility.yul\":16009:16015   */\n      dup3\n        /* \"#utility.yul\":16005:16022   */\n      and\n        /* \"#utility.yul\":15995:16022   */\n      swap2\n      pop\n        /* \"#utility.yul\":15951:16032   */\n    tag_342:\n        /* \"#utility.yul\":16079:16081   */\n      0x20\n        /* \"#utility.yul\":16071:16077   */\n      dup3\n        /* \"#utility.yul\":16068:16082   */\n      lt\n        /* \"#utility.yul\":16048:16066   */\n      dup2\n        /* \"#utility.yul\":16045:16083   */\n      sub\n        /* \"#utility.yul\":16042:16126   */\n      tag_343\n      jumpi\n        /* \"#utility.yul\":16098:16116   */\n      tag_344\n      tag_174\n      jump\t// in\n    tag_344:\n        /* \"#utility.yul\":16042:16126   */\n    tag_343:\n        /* \"#utility.yul\":15863:16132   */\n      pop\n        /* \"#utility.yul\":15812:16132   */\n      swap2\n      swap1\n      pop\n      jump\t// out\n        /* \"#utility.yul\":16138:16279   */\n    tag_175:\n        /* \"#utility.yul\":16187:16191   */\n      0x00\n        /* \"#utility.yul\":16210:16213   */\n      dup2\n        /* \"#utility.yul\":16202:16213   */\n      swap1\n      pop\n        /* \"#utility.yul\":16233:16236   */\n      dup2\n        /* \"#utility.yul\":16230:16231   */\n      0x00\n        /* \"#utility.yul\":16223:16237   */\n      mstore\n        /* \"#utility.yul\":16267:16271   */\n      0x20\n        /* \"#utility.yul\":16264:16265   */\n      0x00\n        /* \"#utility.yul\":16254:16272   */\n      keccak256\n        /* \"#utility.yul\":16246:16272   */\n      swap1\n      pop\n        /* \"#utility.yul\":16138:16279   */\n      swap2\n      swap1\n      pop\n      jump\t// out\n        /* \"#utility.yul\":16285:16378   */\n    tag_176:\n        /* \"#utility.yul\":16322:16328   */\n      0x00\n        /* \"#utility.yul\":16369:16371   */\n      0x20\n        /* \"#utility.yul\":16364:16366   */\n      0x1f\n        /* \"#utility.yul\":16357:16362   */\n      dup4\n        /* \"#utility.yul\":16353:16367   */\n      add\n        /* \"#utility.yul\":16349:16372   */\n      div\n        /* \"#utility.yul\":16339:16372   */\n      swap1\n      pop\n        /* \"#utility.yul\":16285:16378   */\n      swap2\n      swap1\n      pop\n      jump\t// out\n        /* \"#utility.yul\":16384:16491   */\n    tag_177:\n        /* \"#utility.yul\":16428:16436   */\n      0x00\n        /* \"#utility.yul\":16478:16483   */\n      dup3\n        /* \"#utility.yul\":16472:16476   */\n      dup3\n        /* \"#utility.yul\":16468:16484   */\n      shl\n        /* \"#utility.yul\":16447:16484   */\n      swap1\n      pop\n        /* \"#utility.yul\":16384:16491   */\n      swap3\n      swap2\n      pop\n      pop\n      jump\t// out\n        /* \"#utility.yul\":16497:16890   */\n    tag_178:\n        /* \"#utility.yul\":16566:16572   */\n      0x00\n        /* \"#utility.yul\":16616:16617   */\n      0x08\n        /* \"#utility.yul\":16604:16614   */\n      dup4\n        /* \"#utility.yul\":16600:16618   */\n      mul\n        /* \"#utility.yul\":16639:16736   */\n      tag_349\n        /* \"#utility.yul\":16669:16735   */\n      0xffffffffffffffffffffffffffffffffffffffffffffffffffffffffffffffff\n        /* \"#utility.yul\":16658:16667   */\n      dup3\n        /* \"#utility.yul\":16639:16736   */\n      tag_177\n      jump\t// in\n    tag_349:\n        /* \"#utility.yul\":16757:16796   */\n      tag_350\n        /* \"#utility.yul\":16787:16795   */\n      dup7\n        /* \"#utility.yul\":16776:16785   */\n      dup4\n        /* \"#utility.yul\":16757:16796   */\n      tag_177\n      jump\t// in\n    tag_350:\n        /* \"#utility.yul\":16745:16796   */\n      swap6\n      pop\n        /* \"#utility.yul\":16829:16833   */\n      dup1\n        /* \"#utility.yul\":16825:16834   */\n      not\n        /* \"#utility.yul\":16818:16823   */\n      dup5\n        /* \"#utility.yul\":16814:16835   */\n      and\n        /* \"#utility.yul\":16805:16835   */\n      swap4\n      pop\n        /* \"#utility.yul\":16878:16882   */\n      dup1\n        /* \"#utility.yul\":16868:16876   */\n      dup7\n        /* \"#utility.yul\":16864:16883   */\n      and\n        /* \"#utility.yul\":16857:16862   */\n      dup5\n        /* \"#utility.yul\":16854:16884   */\n      or\n        /* \"#utility.yul\":16844:16884   */\n      swap3\n      pop\n        /* \"#utility.yul\":16573:16890   */\n      pop\n      pop\n        /* \"#utility.yul\":16497:16890   */\n      swap4\n      swap3\n      pop\n      pop\n      pop\n      jump\t// out\n        /* \"#utility.yul\":16896:16956   */\n    tag_179:\n        /* \"#utility.yul\":16924:16927   */\n      0x00\n        /* \"#utility.yul\":16945:16950   */\n      dup2\n        /* \"#utility.yul\":16938:16950   */\n      swap1\n      pop\n        /* \"#utility.yul\":16896:16956   */\n      swap2\n      swap1\n      pop\n      jump\t// out\n        /* \"#utility.yul\":16962:17104   */\n    tag_180:\n        /* \"#utility.yul\":17012:17021   */\n      0x00\n        /* \"#utility.yul\":17045:17098   */\n      tag_353\n        /* \"#utility.yul\":17063:17097   */\n      tag_354\n        /* \"#utility.yul\":17072:17096   */\n      tag_355\n        /* \"#utility.yul\":17090:17095   */\n      dup5\n        /* \"#utility.yul\":17072:17096   */\n      tag_126\n      jump\t// in\n    tag_355:\n        /* \"#utility.yul\":17063:17097   */\n      tag_179\n      jump\t// in\n    tag_354:\n        /* \"#utility.yul\":17045:17098   */\n      tag_126\n      jump\t// in\n    tag_353:\n        /* \"#utility.yul\":17032:17098   */\n      swap1\n      pop\n        /* \"#utility.yul\":16962:17104   */\n      swap2\n      swap1\n      pop\n      jump\t// out\n        /* \"#utility.yul\":17110:17185   */\n    tag_181:\n        /* \"#utility.yul\":17153:17156   */\n      0x00\n        /* \"#utility.yul\":17174:17179   */\n      dup2\n        /* \"#utility.yul\":17167:17179   */\n      swap1\n      pop\n        /* \"#utility.yul\":17110:17185   */\n      swap2\n      swap1\n      pop\n      jump\t// out\n        /* \"#utility.yul\":17191:17460   */\n    tag_182:\n        /* \"#utility.yul\":17301:17340   */\n      tag_358\n        /* \"#utility.yul\":17332:17339   */\n      dup4\n        /* \"#utility.yul\":17301:17340   */\n      tag_180\n      jump\t// in\n    tag_358:\n        /* \"#utility.yul\":17362:17453   */\n      tag_359\n        /* \"#utility.yul\":17411:17452   */\n      tag_360\n        /* \"#utility.yul\":17435:17451   */\n      dup3\n        /* \"#utility.yul\":17411:17452   */\n      tag_181\n      jump\t// in\n    tag_360:\n        /* \"#utility.yul\":17403:17409   */\n      dup5\n        /* \"#utility.yul\":17396:17400   */\n      dup5\n        /* \"#utility.yul\":17390:17401   */\n      sload\n        /* \"#utility.yul\":17362:17453   */\n      tag_178\n      jump\t// in\n    tag_359:\n        /* \"#utility.yul\":17356:17360   */\n      dup3\n        /* \"#utility.yul\":17349:17454   */\n      sstore\n        /* \"#utility.yul\":17267:17460   */\n      pop\n        /* \"#utility.yul\":17191:17460   */\n      pop\n      pop\n      pop\n      jump\t// out\n        /* \"#utility.yul\":17466:17539   */\n    tag_183:\n        /* \"#utility.yul\":17511:17514   */\n      0x00\n        /* \"#utility.yul\":17466:17539   */\n      swap1\n      jump\t// out\n        /* \"#utility.yul\":17545:17734   */\n    tag_184:\n        /* \"#utility.yul\":17622:17654   */\n      tag_363\n      tag_183\n      jump\t// in\n    tag_363:\n        /* \"#utility.yul\":17663:17728   */\n      tag_364\n        /* \"#utility.yul\":17721:17727   */\n      dup2\n        /* \"#utility.yul\":17713:17719   */\n      dup5\n        /* \"#utility.yul\":17707:17711   */\n      dup5\n        /* \"#utility.yul\":17663:17728   */\n      tag_182\n      jump\t// in\n    tag_364:\n        /* \"#utility.yul\":17598:17734   */\n      pop\n        /* \"#utility.yul\":17545:17734   */\n      pop\n      pop\n      jump\t// out\n        /* \"#utility.yul\":17740:17926   */\n    tag_185:\n        /* \"#utility.yul\":17800:17920   */\n    tag_366:\n        /* \"#utility.yul\":17817:17820   */\n      dup2\n        /* \"#utility.yul\":17810:17815   */\n      dup2\n        /* \"#utility.yul\":17807:17821   */\n      lt\n        /* \"#utility.yul\":17800:17920   */\n      iszero\n      tag_368\n      jumpi\n        /* \"#utility.yul\":17871:17910   */\n      tag_369\n        /* \"#utility.yul\":17908:17909   */\n      0x00\n        /* \"#utility.yul\":17901:17906   */\n      dup3\n        /* \"#utility.yul\":17871:17910   */\n      tag_184\n      jump\t// in\n    tag_369:\n        /* \"#utility.yul\":17844:17845   */\n      0x01\n        /* \"#utility.yul\":17837:17842   */\n      dup2\n        /* \"#utility.yul\":17833:17846   */\n      add\n        /* \"#utility.yul\":17824:17846   */\n      swap1\n      pop\n        /* \"#utility.yul\":17800:17920   */\n      jump(tag_366)\n    tag_368:\n        /* \"#utility.yul\":17740:17926   */\n      pop\n      pop\n      jump\t// out\n        /* \"#utility.yul\":17932:18475   */\n    tag_186:\n        /* \"#utility.yul\":18033:18035   */\n      0x1f\n        /* \"#utility.yul\":18028:18031   */\n      dup3\n        /* \"#utility.yul\":18025:18036   */\n      gt\n        /* \"#utility.yul\":18022:18468   */\n      iszero\n      tag_371\n      jumpi\n        /* \"#utility.yul\":18067:18105   */\n      tag_372\n        /* \"#utility.yul\":18099:18104   */\n      dup2\n        /* \"#utility.yul\":18067:18105   */\n      tag_175\n      jump\t// in\n    tag_372:\n        /* \"#utility.yul\":18151:18180   */\n      tag_373\n        /* \"#utility.yul\":18169:18179   */\n      dup5\n        /* \"#utility.yul\":18151:18180   */\n      tag_176\n      jump\t// in\n    tag_373:\n        /* \"#utility.yul\":18141:18149   */\n      dup2\n        /* \"#utility.yul\":18137:18181   */\n      add\n        /* \"#utility.yul\":18334:18336   */\n      0x20\n        /* \"#utility.yul\":18322:18332   */\n      dup6\n        /* \"#utility.yul\":18319:18337   */\n      lt\n        /* \"#utility.yul\":18316:18365   */\n      iszero\n      tag_374\n      jumpi\n        /* \"#utility.yul\":18355:18363   */\n      dup2\n        /* \"#utility.yul\":18340:18363   */\n      swap1\n      pop\n        /* \"#utility.yul\":18316:18365   */\n    tag_374:\n        /* \"#utility.yul\":18378:18458   */\n      tag_375\n        /* \"#utility.yul\":18434:18456   */\n      tag_376\n        /* \"#utility.yul\":18452:18455   */\n      dup6\n        /* \"#utility.yul\":18434:18456   */\n      tag_176\n      jump\t// in\n    tag_376:\n        /* \"#utility.yul\":18424:18432   */\n      dup4\n        /* \"#utility.yul\":18420:18457   */\n      add\n        /* \"#utility.yul\":18407:18418   */\n      dup3\n        /* \"#utility.yul\":18378:18458   */\n      tag_185\n      jump\t// in\n    tag_375:\n        /* \"#utility.yul\":18037:18468   */\n      pop\n      pop\n        /* \"#utility.yul\":18022:18468   */\n    tag_371:\n        /* \"#utility.yul\":17932:18475   */\n      pop\n      pop\n      pop\n      jump\t// out\n        /* \"#utility.yul\":18481:18598   */\n    tag_187:\n        /* \"#utility.yul\":18535:18543   */\n      0x00\n        /* \"#utility.yul\":18585:18590   */\n      dup3\n        /* \"#utility.yul\":18579:18583   */\n      dup3\n        /* \"#utility.yul\":18575:18591   */\n      shr\n        /* \"#utility.yul\":18554:18591   */\n      swap1\n      pop\n        /* \"#utility.yul\":18481:18598   */\n      swap3\n      swap2\n      pop\n      pop\n      jump\t// out\n        /* \"#utility.yul\":18604:18773   */\n    tag_188:\n        /* \"#utility.yul\":18648:18654   */\n      0x00\n        /* \"#utility.yul\":18681:18732   */\n      tag_379\n        /* \"#utility.yul\":18729:18730   */\n      0x00\n        /* \"#utility.yul\":18725:18731   */\n      not\n        /* \"#utility.yul\":18717:18722   */\n      dup5\n        /* \"#utility.yul\":18714:18715   */\n      0x08\n        /* \"#utility.yul\":18710:18723   */\n      mul\n        /* \"#utility.yul\":18681:18732   */\n      tag_187\n      jump\t// in\n    tag_379:\n        /* \"#utility.yul\":18677:18733   */\n      not\n        /* \"#utility.yul\":18762:18766   */\n      dup1\n        /* \"#utility.yul\":18756:18760   */\n      dup4\n        /* \"#utility.yul\":18752:18767   */\n      and\n        /* \"#utility.yul\":18742:18767   */\n      swap2\n      pop\n        /* \"#utility.yul\":18655:18773   */\n      pop\n        /* \"#utility.yul\":18604:18773   */\n      swap3\n      swap2\n      pop\n      pop\n      jump\t// out\n        /* \"#utility.yul\":18778:19073   */\n    tag_189:\n        /* \"#utility.yul\":18854:18858   */\n      0x00\n        /* \"#utility.yul\":19000:19029   */\n      tag_381\n        /* \"#utility.yul\":19025:19028   */\n      dup4\n        /* \"#utility.yul\":19019:19023   */\n      dup4\n        /* \"#utility.yul\":19000:19029   */\n      tag_188\n      jump\t// in\n    tag_381:\n        /* \"#utility.yul\":18992:19029   */\n      swap2\n      pop\n        /* \"#utility.yul\":19062:19065   */\n      dup3\n        /* \"#utility.yul\":19059:19060   */\n      0x02\n        /* \"#utility.yul\":19055:19066   */\n      mul\n        /* \"#utility.yul\":19049:19053   */\n      dup3\n        /* \"#utility.yul\":19046:19067   */\n      or\n        /* \"#utility.yul\":19038:19067   */\n      swap1\n      pop\n        /* \"#utility.yul\":18778:19073   */\n      swap3\n      swap2\n      pop\n      pop\n      jump\t// out\n        /* \"#utility.yul\":19078:20473   */\n    tag_88:\n        /* \"#utility.yul\":19195:19232   */\n      tag_383\n        /* \"#utility.yul\":19228:19231   */\n      dup3\n        /* \"#utility.yul\":19195:19232   */\n      tag_158\n      jump\t// in\n    tag_383:\n        /* \"#utility.yul\":19297:19315   */\n      0xffffffffffffffff\n        /* \"#utility.yul\":19289:19295   */\n      dup2\n        /* \"#utility.yul\":19286:19316   */\n      gt\n        /* \"#utility.yul\":19283:19339   */\n      iszero\n      tag_384\n      jumpi\n        /* \"#utility.yul\":19319:19337   */\n      tag_385\n      tag_140\n      jump\t// in\n    tag_385:\n        /* \"#utility.yul\":19283:19339   */\n    tag_384:\n        /* \"#utility.yul\":19363:19401   */\n      tag_386\n        /* \"#utility.yul\":19395:19399   */\n      dup3\n        /* \"#utility.yul\":19389:19400   */\n      sload\n        /* \"#utility.yul\":19363:19401   */\n      tag_113\n      jump\t// in\n    tag_386:\n        /* \"#utility.yul\":19448:19515   */\n      tag_387\n        /* \"#utility.yul\":19508:19514   */\n      dup3\n        /* \"#utility.yul\":19500:19506   */\n      dup3\n        /* \"#utility.yul\":19494:19498   */\n      dup6\n        /* \"#utility.yul\":19448:19515   */\n      tag_186\n      jump\t// in\n    tag_387:\n        /* \"#utility.yul\":19542:19543   */\n      0x00\n        /* \"#utility.yul\":19566:19570   */\n      0x20\n        /* \"#utility.yul\":19553:19570   */\n      swap1\n      pop\n        /* \"#utility.yul\":19598:19600   */\n      0x1f\n        /* \"#utility.yul\":19590:19596   */\n      dup4\n        /* \"#utility.yul\":19587:19601   */\n      gt\n        /* \"#utility.yul\":19615:19616   */\n      0x01\n        /* \"#utility.yul\":19610:20228   */\n      dup2\n      eq\n      tag_389\n      jumpi\n        /* \"#utility.yul\":20272:20273   */\n      0x00\n        /* \"#utility.yul\":20289:20295   */\n      dup5\n        /* \"#utility.yul\":20286:20363   */\n      iszero\n      tag_390\n      jumpi\n        /* \"#utility.yul\":20338:20347   */\n      dup3\n        /* \"#utility.yul\":20333:20336   */\n      dup8\n        /* \"#utility.yul\":20329:20348   */\n      add\n        /* \"#utility.yul\":20323:20349   */\n      mload\n        /* \"#utility.yul\":20314:20349   */\n      swap1\n      pop\n        /* \"#utility.yul\":20286:20363   */\n    tag_390:\n        /* \"#utility.yul\":20389:20456   */\n      tag_391\n        /* \"#utility.yul\":20449:20455   */\n      dup6\n        /* \"#utility.yul\":20442:20447   */\n      dup3\n        /* \"#utility.yul\":20389:20456   */\n      tag_189\n      jump\t// in\n    tag_391:\n        /* \"#utility.yul\":20383:20387   */\n      dup7\n        /* \"#utility.yul\":20376:20457   */\n      sstore\n        /* \"#utility.yul\":20245:20467   */\n      pop\n        /* \"#utility.yul\":19580:20467   */\n      jump(tag_388)\n        /* \"#utility.yul\":19610:20228   */\n    tag_389:\n        /* \"#utility.yul\":19662:19666   */\n      0x1f\n        /* \"#utility.yul\":19658:19667   */\n      not\n        /* \"#utility.yul\":19650:19656   */\n      dup5\n        /* \"#utility.yul\":19646:19668   */\n      and\n        /* \"#utility.yul\":19696:19733   */\n      tag_392\n        /* \"#utility.yul\":19728:19732   */\n      dup7\n        /* \"#utility.yul\":19696:19733   */\n      tag_175\n      jump\t// in\n    tag_392:\n        /* \"#utility.yul\":19755:19756   */\n      0x00\n        /* \"#utility.yul\":19769:19977   */\n    tag_393:\n        /* \"#utility.yul\":19783:19790   */\n      dup3\n        /* \"#utility.yul\":19780:19781   */\n      dup2\n        /* \"#utility.yul\":19777:19791   */\n      lt\n        /* \"#utility.yul\":19769:19977   */\n      iszero\n      tag_395\n      jumpi\n        /* \"#utility.yul\":19862:19871   */\n      dup5\n        /* \"#utility.yul\":19857:19860   */\n      dup10\n        /* \"#utility.yul\":19853:19872   */\n      add\n        /* \"#utility.yul\":19847:19873   */\n      mload\n        /* \"#utility.yul\":19839:19845   */\n      dup3\n        /* \"#utility.yul\":19832:19874   */\n      sstore\n        /* \"#utility.yul\":19913:19914   */\n      0x01\n        /* \"#utility.yul\":19905:19911   */\n      dup3\n        /* \"#utility.yul\":19901:19915   */\n      add\n        /* \"#utility.yul\":19891:19915   */\n      swap2\n      pop\n        /* \"#utility.yul\":19960:19962   */\n      0x20\n        /* \"#utility.yul\":19949:19958   */\n      dup6\n        /* \"#utility.yul\":19945:19963   */\n      add\n        /* \"#utility.yul\":19932:19963   */\n      swap5\n      pop\n        /* \"#utility.yul\":19806:19810   */\n      0x20\n        /* \"#utility.yul\":19803:19804   */\n      dup2\n        /* \"#utility.yul\":19799:19811   */\n      add\n        /* \"#utility.yul\":19794:19811   */\n      swap1\n      pop\n        /* \"#utility.yul\":19769:19977   */\n      jump(tag_393)\n    tag_395:\n        /* \"#utility.yul\":20005:20011   */\n      dup7\n        /* \"#utility.yul\":19996:20003   */\n      dup4\n        /* \"#utility.yul\":19993:20012   */\n      lt\n        /* \"#utility.yul\":19990:20169   */\n      iszero\n      tag_396\n      jumpi\n        /* \"#utility.yul\":20063:20072   */\n      dup5\n        /* \"#utility.yul\":20058:20061   */\n      dup10\n        /* \"#utility.yul\":20054:20073   */\n      add\n        /* \"#utility.yul\":20048:20074   */\n      mload\n        /* \"#utility.yul\":20106:20154   */\n      tag_397\n        /* \"#utility.yul\":20148:20152   */\n      0x1f\n        /* \"#utility.yul\":20140:20146   */\n      dup10\n        /* \"#utility.yul\":20136:20153   */\n      and\n        /* \"#utility.yul\":20125:20134   */\n      dup3\n        /* \"#utility.yul\":20106:20154   */\n      tag_188\n      jump\t// in\n    tag_397:\n        /* \"#utility.yul\":20098:20104   */\n      dup4\n        /* \"#utility.yul\":20091:20155   */\n      sstore\n        /* \"#utility.yul\":20013:20169   */\n      pop\n        /* \"#utility.yul\":19990:20169   */\n    tag_396:\n        /* \"#utility.yul\":20215:20216   */\n      0x01\n        /* \"#utility.yul\":20211:20212   */\n      0x02\n        /* \"#utility.yul\":20203:20209   */\n      dup9\n        /* \"#utility.yul\":20199:20213   */\n      mul\n        /* \"#utility.yul\":20195:20217   */\n      add\n        /* \"#utility.yul\":20189:20193   */\n      dup9\n        /* \"#utility.yul\":20182:20218   */\n      sstore\n        /* \"#utility.yul\":19617:20228   */\n      pop\n      pop\n      pop\n        /* \"#utility.yul\":19580:20467   */\n    tag_388:\n      pop\n        /* \"#utility.yul\":19170:20473   */\n      pop\n      pop\n      pop\n        /* \"#utility.yul\":19078:20473   */\n      pop\n      pop\n      jump\t// out\n        /* \"#utility.yul\":20479:20856   */\n    tag_190:\n        /* \"#utility.yul\":20567:20570   */\n      0x00\n        /* \"#utility.yul\":20595:20634   */\n      tag_399\n        /* \"#utility.yul\":20628:20633   */\n      dup3\n        /* \"#utility.yul\":20595:20634   */\n      tag_158\n      jump\t// in\n    tag_399:\n        /* \"#utility.yul\":20650:20721   */\n      tag_400\n        /* \"#utility.yul\":20714:20720   */\n      dup2\n        /* \"#utility.yul\":20709:20712   */\n      dup6\n        /* \"#utility.yul\":20650:20721   */\n      tag_166\n      jump\t// in\n    tag_400:\n        /* \"#utility.yul\":20643:20721   */\n      swap4\n      pop\n        /* \"#utility.yul\":20730:20795   */\n      tag_401\n        /* \"#utility.yul\":20788:20794   */\n      dup2\n        /* \"#utility.yul\":20783:20786   */\n      dup6\n        /* \"#utility.yul\":20776:20780   */\n      0x20\n        /* \"#utility.yul\":20769:20774   */\n      dup7\n        /* \"#utility.yul\":20765:20781   */\n      add\n        /* \"#utility.yul\":20730:20795   */\n      tag_160\n      jump\t// in\n    tag_401:\n        /* \"#utility.yul\":20820:20849   */\n      tag_402\n        /* \"#utility.yul\":20842:20848   */\n      dup2\n        /* \"#utility.yul\":20820:20849   */\n      tag_139\n      jump\t// in\n    tag_402:\n        /* \"#utility.yul\":20815:20818   */\n      dup5\n        /* \"#utility.yul\":20811:20850   */\n      add\n        /* \"#utility.yul\":20804:20850   */\n      swap2\n      pop\n        /* \"#utility.yul\":20571:20856   */\n      pop\n        /* \"#utility.yul\":20479:20856   */\n      swap3\n      swap2\n      pop\n      pop\n      jump\t// out\n        /* \"#utility.yul\":20862:21175   */\n    tag_91:\n        /* \"#utility.yul\":20975:20979   */\n      0x00\n        /* \"#utility.yul\":21013:21015   */\n      0x20\n        /* \"#utility.yul\":21002:21011   */\n      dup3\n        /* \"#utility.yul\":20998:21016   */\n      add\n        /* \"#utility.yul\":20990:21016   */\n      swap1\n      pop\n        /* \"#utility.yul\":21062:21071   */\n      dup2\n        /* \"#utility.yul\":21056:21060   */\n      dup2\n        /* \"#utility.yul\":21052:21072   */\n      sub\n        /* \"#utility.yul\":21048:21049   */\n      0x00\n        /* \"#utility.yul\":21037:21046   */\n      dup4\n        /* \"#utility.yul\":21033:21050   */\n      add\n        /* \"#utility.yul\":21026:21073   */\n      mstore\n        /* \"#utility.yul\":21090:21168   */\n      tag_404\n        /* \"#utility.yul\":21163:21167   */\n      dup2\n        /* \"#utility.yul\":21154:21160   */\n      dup5\n        /* \"#utility.yul\":21090:21168   */\n      tag_190\n      jump\t// in\n    tag_404:\n        /* \"#utility.yul\":21082:21168   */\n      swap1\n      pop\n        /* \"#utility.yul\":20862:21175   */\n      swap3\n      swap2\n      pop\n      pop\n      jump\t// out\n        /* \"#utility.yul\":21181:21358   */\n    tag_191:\n        /* \"#utility.yul\":21321:21350   */\n      0x596f7520616c7265616479206c696b6564207468697320706f73740000000000\n        /* \"#utility.yul\":21317:21318   */\n      0x00\n        /* \"#utility.yul\":21309:21315   */\n      dup3\n        /* \"#utility.yul\":21305:21319   */\n      add\n        /* \"#utility.yul\":21298:21351   */\n      mstore\n        /* \"#utility.yul\":21181:21358   */\n      pop\n      jump\t// out\n        /* \"#utility.yul\":21364:21730   */\n    tag_192:\n        /* \"#utility.yul\":21506:21509   */\n      0x00\n        /* \"#utility.yul\":21527:21594   */\n      tag_407\n        /* \"#utility.yul\":21591:21593   */\n      0x1b\n        /* \"#utility.yul\":21586:21589   */\n      dup4\n        /* \"#utility.yul\":21527:21594   */\n      tag_166\n      jump\t// in\n    tag_407:\n        /* \"#utility.yul\":21520:21594   */\n      swap2\n      pop\n        /* \"#utility.yul\":21603:21696   */\n      tag_408\n        /* \"#utility.yul\":21692:21695   */\n      dup3\n        /* \"#utility.yul\":21603:21696   */\n      tag_191\n      jump\t// in\n    tag_408:\n        /* \"#utility.yul\":21721:21723   */\n      0x20\n        /* \"#utility.yul\":21716:21719   */\n      dup3\n        /* \"#utility.yul\":21712:21724   */\n      add\n        /* \"#utility.yul\":21705:21724   */\n      swap1\n      pop\n        /* \"#utility.yul\":21364:21730   */\n      swap2\n      swap1\n      pop\n      jump\t// out\n        /* \"#utility.yul\":21736:22155   */\n    tag_96:\n        /* \"#utility.yul\":21902:21906   */\n      0x00\n        /* \"#utility.yul\":21940:21942   */\n      0x20\n        /* \"#utility.yul\":21929:21938   */\n      dup3\n        /* \"#utility.yul\":21925:21943   */\n      add\n        /* \"#utility.yul\":21917:21943   */\n      swap1\n      pop\n        /* \"#utility.yul\":21989:21998   */\n      dup2\n        /* \"#utility.yul\":21983:21987   */\n      dup2\n        /* \"#utility.yul\":21979:21999   */\n      sub\n        /* \"#utility.yul\":21975:21976   */\n      0x00\n        /* \"#utility.yul\":21964:21973   */\n      dup4\n        /* \"#utility.yul\":21960:21977   */\n      add\n        /* \"#utility.yul\":21953:22000   */\n      mstore\n        /* \"#utility.yul\":22017:22148   */\n      tag_410\n        /* \"#utility.yul\":22143:22147   */\n      dup2\n        /* \"#utility.yul\":22017:22148   */\n      tag_192\n      jump\t// in\n    tag_410:\n        /* \"#utility.yul\":22009:22148   */\n      swap1\n      pop\n        /* \"#utility.yul\":21736:22155   */\n      swap2\n      swap1\n      pop\n      jump\t// out\n\n    auxdata: 0xa264697066735822122072efe0a82ac6155ad390f59f35ad8d686a90c92874af787cb0ba4657265b8cc664736f6c634300081a0033\n}\n",
				"bytecode": {
					"linkReferences": {},
					"object": "6080604052348015600e575f80fd5b506117698061001c5f395ff3fe608060405234801561000f575f80fd5b50600436106100b2575f3560e01c8063725009d31161006f578063725009d3146101a05780638fb7092c146101bc578063af87ad85146101ec578063c6d9a4741461021c578063de53afcc1461024c578063f5d763201461027c576100b2565b806304a7b094146100b65780631a9a6ef0146100d457806350e15276146101045780635856e4fa1461013457806364732154146101525780636793bcb51461016e575b5f80fd5b6100be610298565b6040516100cb9190610c5d565b60405180910390f35b6100ee60048036038101906100e99190610cb1565b61029d565b6040516100fb9190610c5d565b60405180910390f35b61011e60048036038101906101199190610d36565b6102b2565b60405161012b9190610c5d565b60405180910390f35b61013c6102c7565b6040516101499190610c5d565b60405180910390f35b61016c60048036038101906101679190610e9d565b6102cd565b005b61018860048036038101906101839190610cb1565b6105cb565b60405161019793929190610ef7565b60405180910390f35b6101ba60048036038101906101b59190610cb1565b610611565b005b6101d660048036038101906101d19190610f2c565b6108af565b6040516101e39190610f84565b60405180910390f35b61020660048036038101906102019190610cb1565b6108d9565b60405161021391906111bc565b60405180910390f35b61023660048036038101906102319190610cb1565b610a78565b6040516102439190610c5d565b60405180910390f35b61026660048036038101906102619190610cb1565b610a8d565b6040516102739190610c5d565b60405180910390f35b61029660048036038101906102919190610cb1565b610aa2565b005b603c81565b6001602052805f5260405f205f915090505481565b6005602052805f5260405f205f915090505481565b61011881565b805f8190505f815111610315576040517f08c379a000000000000000000000000000000000000000000000000000000000815260040161030c90611236565b60405180910390fd5b6101188151111561035b576040517f08c379a00000000000000000000000000000000000000000000000000000000081526004016103529061129e565b60405180910390fd5b603c60055f3373ffffffffffffffffffffffffffffffffffffffff1673ffffffffffffffffffffffffffffffffffffffff1681526020019081526020015f20546103a591906112e9565b4210156103e7576040517f08c379a00000000000000000000000000000000000000000000000000000000081526004016103de9061138c565b60405180910390fd5b5f808581526020019081526020015f206040518060a001604052808681526020013373ffffffffffffffffffffffffffffffffffffffff16815260200160028081111561043757610436610fe4565b5b815260200185815260200142815250908060018154018082558091505060019003905f5260205f2090600402015f909190919091505f820151815f01556020820151816001015f6101000a81548173ffffffffffffffffffffffffffffffffffffffff021916908373ffffffffffffffffffffffffffffffffffffffff16021790555060408201518160010160146101000a81548160ff021916908360028111156104e5576104e4610fe4565b5b021790555060608201518160020190816104ff91906115a4565b50608082015181600301555050600160035f8681526020019081526020015f205f82825461052d91906112e9565b925050819055504260055f3373ffffffffffffffffffffffffffffffffffffffff1673ffffffffffffffffffffffffffffffffffffffff1681526020019081526020015f2081905550833373ffffffffffffffffffffffffffffffffffffffff167f8c87ad8e2f03ad26e9aea2e5676f51e1e4cf7adee06346a9ddde2a4c62195509856040516105bd91906116ab565b60405180910390a350505050565b5f805f60015f8581526020019081526020015f205460025f8681526020019081526020015f205460035f8781526020019081526020015f20549250925092509193909250565b60045f8281526020019081526020015f205f3373ffffffffffffffffffffffffffffffffffffffff1673ffffffffffffffffffffffffffffffffffffffff1681526020019081526020015f205f9054906101000a900460ff16156106aa576040517f08c379a00000000000000000000000000000000000000000000000000000000081526004016106a190611715565b60405180910390fd5b5f808281526020019081526020015f206040518060a001604052808381526020013373ffffffffffffffffffffffffffffffffffffffff1681526020015f60028111156106fa576106f9610fe4565b5b815260200160405180602001604052805f815250815260200142815250908060018154018082558091505060019003905f5260205f2090600402015f909190919091505f820151815f01556020820151816001015f6101000a81548173ffffffffffffffffffffffffffffffffffffffff021916908373ffffffffffffffffffffffffffffffffffffffff16021790555060408201518160010160146101000a81548160ff021916908360028111156107b6576107b5610fe4565b5b021790555060608201518160020190816107d091906115a4565b50608082015181600301555050600160045f8381526020019081526020015f205f3373ffffffffffffffffffffffffffffffffffffffff1673ffffffffffffffffffffffffffffffffffffffff1681526020019081526020015f205f6101000a81548160ff0219169083151502179055506001805f8381526020019081526020015f205f82825461086191906112e9565b92505081905550803373ffffffffffffffffffffffffffffffffffffffff167f62500381f39eb6f48b6e6f104021ceeaca9e5354918dc17b4a15bf87c5f5d28b60405160405180910390a350565b6004602052815f5260405f20602052805f5260405f205f915091509054906101000a900460ff1681565b60605f808381526020019081526020015f20805480602002602001604051908101604052809291908181526020015f905b82821015610a6d578382905f5260205f2090600402016040518060a00160405290815f8201548152602001600182015f9054906101000a900473ffffffffffffffffffffffffffffffffffffffff1673ffffffffffffffffffffffffffffffffffffffff1673ffffffffffffffffffffffffffffffffffffffff1681526020016001820160149054906101000a900460ff1660028111156109ae576109ad610fe4565b5b60028111156109c0576109bf610fe4565b5b81526020016002820180546109d4906113d7565b80601f0160208091040260200160405190810160405280929190818152602001828054610a00906113d7565b8015610a4b5780601f10610a2257610100808354040283529160200191610a4b565b820191905f5260205f20905b815481529060010190602001808311610a2e57829003601f168201915b505050505081526020016003820154815250508152602001906001019061090a565b505050509050919050565b6003602052805f5260405f205f915090505481565b6002602052805f5260405f205f915090505481565b5f808281526020019081526020015f206040518060a001604052808381526020013373ffffffffffffffffffffffffffffffffffffffff16815260200160016002811115610af357610af2610fe4565b5b815260200160405180602001604052805f815250815260200142815250908060018154018082558091505060019003905f5260205f2090600402015f909190919091505f820151815f01556020820151816001015f6101000a81548173ffffffffffffffffffffffffffffffffffffffff021916908373ffffffffffffffffffffffffffffffffffffffff16021790555060408201518160010160146101000a81548160ff02191690836002811115610baf57610bae610fe4565b5b02179055506060820151816002019081610bc991906115a4565b50608082015181600301555050600160025f8381526020019081526020015f205f828254610bf791906112e9565b92505081905550803373ffffffffffffffffffffffffffffffffffffffff167f8132fbe9204ecd8ccbe16957db53cb4250fce8520ab7621729d07e9afe6c973760405160405180910390a350565b5f819050919050565b610c5781610c45565b82525050565b5f602082019050610c705f830184610c4e565b92915050565b5f604051905090565b5f80fd5b5f80fd5b610c9081610c45565b8114610c9a575f80fd5b50565b5f81359050610cab81610c87565b92915050565b5f60208284031215610cc657610cc5610c7f565b5b5f610cd384828501610c9d565b91505092915050565b5f73ffffffffffffffffffffffffffffffffffffffff82169050919050565b5f610d0582610cdc565b9050919050565b610d1581610cfb565b8114610d1f575f80fd5b50565b5f81359050610d3081610d0c565b92915050565b5f60208284031215610d4b57610d4a610c7f565b5b5f610d5884828501610d22565b91505092915050565b5f80fd5b5f80fd5b5f601f19601f8301169050919050565b7f4e487b71000000000000000000000000000000000000000000000000000000005f52604160045260245ffd5b610daf82610d69565b810181811067ffffffffffffffff82111715610dce57610dcd610d79565b5b80604052505050565b5f610de0610c76565b9050610dec8282610da6565b919050565b5f67ffffffffffffffff821115610e0b57610e0a610d79565b5b610e1482610d69565b9050602081019050919050565b828183375f83830152505050565b5f610e41610e3c84610df1565b610dd7565b905082815260208101848484011115610e5d57610e5c610d65565b5b610e68848285610e21565b509392505050565b5f82601f830112610e8457610e83610d61565b5b8135610e94848260208601610e2f565b91505092915050565b5f8060408385031215610eb357610eb2610c7f565b5b5f610ec085828601610c9d565b925050602083013567ffffffffffffffff811115610ee157610ee0610c83565b5b610eed85828601610e70565b9150509250929050565b5f606082019050610f0a5f830186610c4e565b610f176020830185610c4e565b610f246040830184610c4e565b949350505050565b5f8060408385031215610f4257610f41610c7f565b5b5f610f4f85828601610c9d565b9250506020610f6085828601610d22565b9150509250929050565b5f8115159050919050565b610f7e81610f6a565b82525050565b5f602082019050610f975f830184610f75565b92915050565b5f81519050919050565b5f82825260208201905092915050565b5f819050602082019050919050565b610fcf81610c45565b82525050565b610fde81610cfb565b82525050565b7f4e487b71000000000000000000000000000000000000000000000000000000005f52602160045260245ffd5b6003811061102257611021610fe4565b5b50565b5f81905061103282611011565b919050565b5f61104182611025565b9050919050565b61105181611037565b82525050565b5f81519050919050565b5f82825260208201905092915050565b8281835e5f83830152505050565b5f61108982611057565b6110938185611061565b93506110a3818560208601611071565b6110ac81610d69565b840191505092915050565b5f60a083015f8301516110cc5f860182610fc6565b5060208301516110df6020860182610fd5565b5060408301516110f26040860182611048565b506060830151848203606086015261110a828261107f565b915050608083015161111f6080860182610fc6565b508091505092915050565b5f61113583836110b7565b905092915050565b5f602082019050919050565b5f61115382610f9d565b61115d8185610fa7565b93508360208202850161116f85610fb7565b805f5b858110156111aa578484038952815161118b858261112a565b94506111968361113d565b925060208a01995050600181019050611172565b50829750879550505050505092915050565b5f6020820190508181035f8301526111d48184611149565b905092915050565b5f82825260208201905092915050565b7f436f6d6d656e742063616e6e6f7420626520656d7074790000000000000000005f82015250565b5f6112206017836111dc565b915061122b826111ec565b602082019050919050565b5f6020820190508181035f83015261124d81611214565b9050919050565b7f436f6d6d656e7420746f6f206c6f6e67000000000000000000000000000000005f82015250565b5f6112886010836111dc565b915061129382611254565b602082019050919050565b5f6020820190508181035f8301526112b58161127c565b9050919050565b7f4e487b71000000000000000000000000000000000000000000000000000000005f52601160045260245ffd5b5f6112f382610c45565b91506112fe83610c45565b9250828201905080821115611316576113156112bc565b5b92915050565b7f506c656173652077616974206265666f726520636f6d6d656e74696e672061675f8201527f61696e0000000000000000000000000000000000000000000000000000000000602082015250565b5f6113766023836111dc565b91506113818261131c565b604082019050919050565b5f6020820190508181035f8301526113a38161136a565b9050919050565b7f4e487b71000000000000000000000000000000000000000000000000000000005f52602260045260245ffd5b5f60028204905060018216806113ee57607f821691505b602082108103611401576114006113aa565b5b50919050565b5f819050815f5260205f209050919050565b5f6020601f8301049050919050565b5f82821b905092915050565b5f600883026114637fffffffffffffffffffffffffffffffffffffffffffffffffffffffffffffffff82611428565b61146d8683611428565b95508019841693508086168417925050509392505050565b5f819050919050565b5f6114a86114a361149e84610c45565b611485565b610c45565b9050919050565b5f819050919050565b6114c18361148e565b6114d56114cd826114af565b848454611434565b825550505050565b5f90565b6114e96114dd565b6114f48184846114b8565b505050565b5b818110156115175761150c5f826114e1565b6001810190506114fa565b5050565b601f82111561155c5761152d81611407565b61153684611419565b81016020851015611545578190505b61155961155185611419565b8301826114f9565b50505b505050565b5f82821c905092915050565b5f61157c5f1984600802611561565b1980831691505092915050565b5f611594838361156d565b9150826002028217905092915050565b6115ad82611057565b67ffffffffffffffff8111156115c6576115c5610d79565b5b6115d082546113d7565b6115db82828561151b565b5f60209050601f83116001811461160c575f84156115fa578287015190505b6116048582611589565b86555061166b565b601f19841661161a86611407565b5f5b828110156116415784890151825560018201915060208501945060208101905061161c565b8683101561165e578489015161165a601f89168261156d565b8355505b6001600288020188555050505b505050505050565b5f61167d82611057565b61168781856111dc565b9350611697818560208601611071565b6116a081610d69565b840191505092915050565b5f6020820190508181035f8301526116c38184611673565b905092915050565b7f596f7520616c7265616479206c696b6564207468697320706f737400000000005f82015250565b5f6116ff601b836111dc565b915061170a826116cb565b602082019050919050565b5f6020820190508181035f83015261172c816116f3565b905091905056fea264697066735822122072efe0a82ac6155ad390f59f35ad8d686a90c92874af787cb0ba4657265b8cc664736f6c634300081a0033",
					"opcodes": "PUSH1 0x80 PUSH1 0x40 MSTORE CALLVALUE DUP1 ISZERO PUSH1 0xE JUMPI PUSH0 DUP1 REVERT JUMPDEST POP PUSH2 0x1769 DUP1 PUSH2 0x1C PUSH0 CODECOPY PUSH0 RETURN INVALID PUSH1 0x80 PUSH1 0x40 MSTORE CALLVALUE DUP1 ISZERO PUSH2 0xF JUMPI PUSH0 DUP1 REVERT JUMPDEST POP PUSH1 0x4 CALLDATASIZE LT PUSH2 0xB2 JUMPI PUSH0 CALLDATALOAD PUSH1 0xE0 SHR DUP1 PUSH4 0x725009D3 GT PUSH2 0x6F JUMPI DUP1 PUSH4 0x725009D3 EQ PUSH2 0x1A0 JUMPI DUP1 PUSH4 0x8FB7092C EQ PUSH2 0x1BC JUMPI DUP1 PUSH4 0xAF87AD85 EQ PUSH2 0x1EC JUMPI DUP1 PUSH4 0xC6D9A474 EQ PUSH2 0x21C JUMPI DUP1 PUSH4 0xDE53AFCC EQ PUSH2 0x24C JUMPI DUP1 PUSH4 0xF5D76320 EQ PUSH2 0x27C JUMPI PUSH2 0xB2 JUMP JUMPDEST DUP1 PUSH4 0x4A7B094 EQ PUSH2 0xB6 JUMPI DUP1 PUSH4 0x1A9A6EF0 EQ PUSH2 0xD4 JUMPI DUP1 PUSH4 0x50E15276 EQ PUSH2 0x104 JUMPI DUP1 PUSH4 0x5856E4FA EQ PUSH2 0x134 JUMPI DUP1 PUSH4 0x64732154 EQ PUSH2 0x152 JUMPI DUP1 PUSH4 0x6793BCB5 EQ PUSH2 0x16E JUMPI JUMPDEST PUSH0 DUP1 REVERT JUMPDEST PUSH2 0xBE PUSH2 0x298 JUMP JUMPDEST PUSH1 0x40 MLOAD PUSH2 0xCB SWAP2 SWAP1 PUSH2 0xC5D JUMP JUMPDEST PUSH1 0x40 MLOAD DUP1 SWAP2 SUB SWAP1 RETURN JUMPDEST PUSH2 0xEE PUSH1 0x4 DUP1 CALLDATASIZE SUB DUP2 ADD SWAP1 PUSH2 0xE9 SWAP2 SWAP1 PUSH2 0xCB1 JUMP JUMPDEST PUSH2 0x29D JUMP JUMPDEST PUSH1 0x40 MLOAD PUSH2 0xFB SWAP2 SWAP1 PUSH2 0xC5D JUMP JUMPDEST PUSH1 0x40 MLOAD DUP1 SWAP2 SUB SWAP1 RETURN JUMPDEST PUSH2 0x11E PUSH1 0x4 DUP1 CALLDATASIZE SUB DUP2 ADD SWAP1 PUSH2 0x119 SWAP2 SWAP1 PUSH2 0xD36 JUMP JUMPDEST PUSH2 0x2B2 JUMP JUMPDEST PUSH1 0x40 MLOAD PUSH2 0x12B SWAP2 SWAP1 PUSH2 0xC5D JUMP JUMPDEST PUSH1 0x40 MLOAD DUP1 SWAP2 SUB SWAP1 RETURN JUMPDEST PUSH2 0x13C PUSH2 0x2C7 JUMP JUMPDEST PUSH1 0x40 MLOAD PUSH2 0x149 SWAP2 SWAP1 PUSH2 0xC5D JUMP JUMPDEST PUSH1 0x40 MLOAD DUP1 SWAP2 SUB SWAP1 RETURN JUMPDEST PUSH2 0x16C PUSH1 0x4 DUP1 CALLDATASIZE SUB DUP2 ADD SWAP1 PUSH2 0x167 SWAP2 SWAP1 PUSH2 0xE9D JUMP JUMPDEST PUSH2 0x2CD JUMP JUMPDEST STOP JUMPDEST PUSH2 0x188 PUSH1 0x4 DUP1 CALLDATASIZE SUB DUP2 ADD SWAP1 PUSH2 0x183 SWAP2 SWAP1 PUSH2 0xCB1 JUMP JUMPDEST PUSH2 0x5CB JUMP JUMPDEST PUSH1 0x40 MLOAD PUSH2 0x197 SWAP4 SWAP3 SWAP2 SWAP1 PUSH2 0xEF7 JUMP JUMPDEST PUSH1 0x40 MLOAD DUP1 SWAP2 SUB SWAP1 RETURN JUMPDEST PUSH2 0x1BA PUSH1 0x4 DUP1 CALLDATASIZE SUB DUP2 ADD SWAP1 PUSH2 0x1B5 SWAP2 SWAP1 PUSH2 0xCB1 JUMP JUMPDEST PUSH2 0x611 JUMP JUMPDEST STOP JUMPDEST PUSH2 0x1D6 PUSH1 0x4 DUP1 CALLDATASIZE SUB DUP2 ADD SWAP1 PUSH2 0x1D1 SWAP2 SWAP1 PUSH2 0xF2C JUMP JUMPDEST PUSH2 0x8AF JUMP JUMPDEST PUSH1 0x40 MLOAD PUSH2 0x1E3 SWAP2 SWAP1 PUSH2 0xF84 JUMP JUMPDEST PUSH1 0x40 MLOAD DUP1 SWAP2 SUB SWAP1 RETURN JUMPDEST PUSH2 0x206 PUSH1 0x4 DUP1 CALLDATASIZE SUB DUP2 ADD SWAP1 PUSH2 0x201 SWAP2 SWAP1 PUSH2 0xCB1 JUMP JUMPDEST PUSH2 0x8D9 JUMP JUMPDEST PUSH1 0x40 MLOAD PUSH2 0x213 SWAP2 SWAP1 PUSH2 0x11BC JUMP JUMPDEST PUSH1 0x40 MLOAD DUP1 SWAP2 SUB SWAP1 RETURN JUMPDEST PUSH2 0x236 PUSH1 0x4 DUP1 CALLDATASIZE SUB DUP2 ADD SWAP1 PUSH2 0x231 SWAP2 SWAP1 PUSH2 0xCB1 JUMP JUMPDEST PUSH2 0xA78 JUMP JUMPDEST PUSH1 0x40 MLOAD PUSH2 0x243 SWAP2 SWAP1 PUSH2 0xC5D JUMP JUMPDEST PUSH1 0x40 MLOAD DUP1 SWAP2 SUB SWAP1 RETURN JUMPDEST PUSH2 0x266 PUSH1 0x4 DUP1 CALLDATASIZE SUB DUP2 ADD SWAP1 PUSH2 0x261 SWAP2 SWAP1 PUSH2 0xCB1 JUMP JUMPDEST PUSH2 0xA8D JUMP JUMPDEST PUSH1 0x40 MLOAD PUSH2 0x273 SWAP2 SWAP1 PUSH2 0xC5D JUMP JUMPDEST PUSH1 0x40 MLOAD DUP1 SWAP2 SUB SWAP1 RETURN JUMPDEST PUSH2 0x296 PUSH1 0x4 DUP1 CALLDATASIZE SUB DUP2 ADD SWAP1 PUSH2 0x291 SWAP2 SWAP1 PUSH2 0xCB1 JUMP JUMPDEST PUSH2 0xAA2 JUMP JUMPDEST STOP JUMPDEST PUSH1 0x3C DUP2 JUMP JUMPDEST PUSH1 0x1 PUSH1 0x20 MSTORE DUP1 PUSH0 MSTORE PUSH1 0x40 PUSH0 KECCAK256 PUSH0 SWAP2 POP SWAP1 POP SLOAD DUP2 JUMP JUMPDEST PUSH1 0x5 PUSH1 0x20 MSTORE DUP1 PUSH0 MSTORE PUSH1 0x40 PUSH0 KECCAK256 PUSH0 SWAP2 POP SWAP1 POP SLOAD DUP2 JUMP JUMPDEST PUSH2 0x118 DUP2 JUMP JUMPDEST DUP1 PUSH0 DUP2 SWAP1 POP PUSH0 DUP2 MLOAD GT PUSH2 0x315 JUMPI PUSH1 0x40 MLOAD PUSH32 0x8C379A000000000000000000000000000000000000000000000000000000000 DUP2 MSTORE PUSH1 0x4 ADD PUSH2 0x30C SWAP1 PUSH2 0x1236 JUMP JUMPDEST PUSH1 0x40 MLOAD DUP1 SWAP2 SUB SWAP1 REVERT JUMPDEST PUSH2 0x118 DUP2 MLOAD GT ISZERO PUSH2 0x35B JUMPI PUSH1 0x40 MLOAD PUSH32 0x8C379A000000000000000000000000000000000000000000000000000000000 DUP2 MSTORE PUSH1 0x4 ADD PUSH2 0x352 SWAP1 PUSH2 0x129E JUMP JUMPDEST PUSH1 0x40 MLOAD DUP1 SWAP2 SUB SWAP1 REVERT JUMPDEST PUSH1 0x3C PUSH1 0x5 PUSH0 CALLER PUSH20 0xFFFFFFFFFFFFFFFFFFFFFFFFFFFFFFFFFFFFFFFF AND PUSH20 0xFFFFFFFFFFFFFFFFFFFFFFFFFFFFFFFFFFFFFFFF AND DUP2 MSTORE PUSH1 0x20 ADD SWAP1 DUP2 MSTORE PUSH1 0x20 ADD PUSH0 KECCAK256 SLOAD PUSH2 0x3A5 SWAP2 SWAP1 PUSH2 0x12E9 JUMP JUMPDEST TIMESTAMP LT ISZERO PUSH2 0x3E7 JUMPI PUSH1 0x40 MLOAD PUSH32 0x8C379A000000000000000000000000000000000000000000000000000000000 DUP2 MSTORE PUSH1 0x4 ADD PUSH2 0x3DE SWAP1 PUSH2 0x138C JUMP JUMPDEST PUSH1 0x40 MLOAD DUP1 SWAP2 SUB SWAP1 REVERT JUMPDEST PUSH0 DUP1 DUP6 DUP2 MSTORE PUSH1 0x20 ADD SWAP1 DUP2 MSTORE PUSH1 0x20 ADD PUSH0 KECCAK256 PUSH1 0x40 MLOAD DUP1 PUSH1 0xA0 ADD PUSH1 0x40 MSTORE DUP1 DUP7 DUP2 MSTORE PUSH1 0x20 ADD CALLER PUSH20 0xFFFFFFFFFFFFFFFFFFFFFFFFFFFFFFFFFFFFFFFF AND DUP2 MSTORE PUSH1 0x20 ADD PUSH1 0x2 DUP1 DUP2 GT ISZERO PUSH2 0x437 JUMPI PUSH2 0x436 PUSH2 0xFE4 JUMP JUMPDEST JUMPDEST DUP2 MSTORE PUSH1 0x20 ADD DUP6 DUP2 MSTORE PUSH1 0x20 ADD TIMESTAMP DUP2 MSTORE POP SWAP1 DUP1 PUSH1 0x1 DUP2 SLOAD ADD DUP1 DUP3 SSTORE DUP1 SWAP2 POP POP PUSH1 0x1 SWAP1 SUB SWAP1 PUSH0 MSTORE PUSH1 0x20 PUSH0 KECCAK256 SWAP1 PUSH1 0x4 MUL ADD PUSH0 SWAP1 SWAP2 SWAP1 SWAP2 SWAP1 SWAP2 POP PUSH0 DUP3 ADD MLOAD DUP2 PUSH0 ADD SSTORE PUSH1 0x20 DUP3 ADD MLOAD DUP2 PUSH1 0x1 ADD PUSH0 PUSH2 0x100 EXP DUP2 SLOAD DUP2 PUSH20 0xFFFFFFFFFFFFFFFFFFFFFFFFFFFFFFFFFFFFFFFF MUL NOT AND SWAP1 DUP4 PUSH20 0xFFFFFFFFFFFFFFFFFFFFFFFFFFFFFFFFFFFFFFFF AND MUL OR SWAP1 SSTORE POP PUSH1 0x40 DUP3 ADD MLOAD DUP2 PUSH1 0x1 ADD PUSH1 0x14 PUSH2 0x100 EXP DUP2 SLOAD DUP2 PUSH1 0xFF MUL NOT AND SWAP1 DUP4 PUSH1 0x2 DUP2 GT ISZERO PUSH2 0x4E5 JUMPI PUSH2 0x4E4 PUSH2 0xFE4 JUMP JUMPDEST JUMPDEST MUL OR SWAP1 SSTORE POP PUSH1 0x60 DUP3 ADD MLOAD DUP2 PUSH1 0x2 ADD SWAP1 DUP2 PUSH2 0x4FF SWAP2 SWAP1 PUSH2 0x15A4 JUMP JUMPDEST POP PUSH1 0x80 DUP3 ADD MLOAD DUP2 PUSH1 0x3 ADD SSTORE POP POP PUSH1 0x1 PUSH1 0x3 PUSH0 DUP7 DUP2 MSTORE PUSH1 0x20 ADD SWAP1 DUP2 MSTORE PUSH1 0x20 ADD PUSH0 KECCAK256 PUSH0 DUP3 DUP3 SLOAD PUSH2 0x52D SWAP2 SWAP1 PUSH2 0x12E9 JUMP JUMPDEST SWAP3 POP POP DUP2 SWAP1 SSTORE POP TIMESTAMP PUSH1 0x5 PUSH0 CALLER PUSH20 0xFFFFFFFFFFFFFFFFFFFFFFFFFFFFFFFFFFFFFFFF AND PUSH20 0xFFFFFFFFFFFFFFFFFFFFFFFFFFFFFFFFFFFFFFFF AND DUP2 MSTORE PUSH1 0x20 ADD SWAP1 DUP2 MSTORE PUSH1 0x20 ADD PUSH0 KECCAK256 DUP2 SWAP1 SSTORE POP DUP4 CALLER PUSH20 0xFFFFFFFFFFFFFFFFFFFFFFFFFFFFFFFFFFFFFFFF AND PUSH32 0x8C87AD8E2F03AD26E9AEA2E5676F51E1E4CF7ADEE06346A9DDDE2A4C62195509 DUP6 PUSH1 0x40 MLOAD PUSH2 0x5BD SWAP2 SWAP1 PUSH2 0x16AB JUMP JUMPDEST PUSH1 0x40 MLOAD DUP1 SWAP2 SUB SWAP1 LOG3 POP POP POP POP JUMP JUMPDEST PUSH0 DUP1 PUSH0 PUSH1 0x1 PUSH0 DUP6 DUP2 MSTORE PUSH1 0x20 ADD SWAP1 DUP2 MSTORE PUSH1 0x20 ADD PUSH0 KECCAK256 SLOAD PUSH1 0x2 PUSH0 DUP7 DUP2 MSTORE PUSH1 0x20 ADD SWAP1 DUP2 MSTORE PUSH1 0x20 ADD PUSH0 KECCAK256 SLOAD PUSH1 0x3 PUSH0 DUP8 DUP2 MSTORE PUSH1 0x20 ADD SWAP1 DUP2 MSTORE PUSH1 0x20 ADD PUSH0 KECCAK256 SLOAD SWAP3 POP SWAP3 POP SWAP3 POP SWAP2 SWAP4 SWAP1 SWAP3 POP JUMP JUMPDEST PUSH1 0x4 PUSH0 DUP3 DUP2 MSTORE PUSH1 0x20 ADD SWAP1 DUP2 MSTORE PUSH1 0x20 ADD PUSH0 KECCAK256 PUSH0 CALLER PUSH20 0xFFFFFFFFFFFFFFFFFFFFFFFFFFFFFFFFFFFFFFFF AND PUSH20 0xFFFFFFFFFFFFFFFFFFFFFFFFFFFFFFFFFFFFFFFF AND DUP2 MSTORE PUSH1 0x20 ADD SWAP1 DUP2 MSTORE PUSH1 0x20 ADD PUSH0 KECCAK256 PUSH0 SWAP1 SLOAD SWAP1 PUSH2 0x100 EXP SWAP1 DIV PUSH1 0xFF AND ISZERO PUSH2 0x6AA JUMPI PUSH1 0x40 MLOAD PUSH32 0x8C379A000000000000000000000000000000000000000000000000000000000 DUP2 MSTORE PUSH1 0x4 ADD PUSH2 0x6A1 SWAP1 PUSH2 0x1715 JUMP JUMPDEST PUSH1 0x40 MLOAD DUP1 SWAP2 SUB SWAP1 REVERT JUMPDEST PUSH0 DUP1 DUP3 DUP2 MSTORE PUSH1 0x20 ADD SWAP1 DUP2 MSTORE PUSH1 0x20 ADD PUSH0 KECCAK256 PUSH1 0x40 MLOAD DUP1 PUSH1 0xA0 ADD PUSH1 0x40 MSTORE DUP1 DUP4 DUP2 MSTORE PUSH1 0x20 ADD CALLER PUSH20 0xFFFFFFFFFFFFFFFFFFFFFFFFFFFFFFFFFFFFFFFF AND DUP2 MSTORE PUSH1 0x20 ADD PUSH0 PUSH1 0x2 DUP2 GT ISZERO PUSH2 0x6FA JUMPI PUSH2 0x6F9 PUSH2 0xFE4 JUMP JUMPDEST JUMPDEST DUP2 MSTORE PUSH1 0x20 ADD PUSH1 0x40 MLOAD DUP1 PUSH1 0x20 ADD PUSH1 0x40 MSTORE DUP1 PUSH0 DUP2 MSTORE POP DUP2 MSTORE PUSH1 0x20 ADD TIMESTAMP DUP2 MSTORE POP SWAP1 DUP1 PUSH1 0x1 DUP2 SLOAD ADD DUP1 DUP3 SSTORE DUP1 SWAP2 POP POP PUSH1 0x1 SWAP1 SUB SWAP1 PUSH0 MSTORE PUSH1 0x20 PUSH0 KECCAK256 SWAP1 PUSH1 0x4 MUL ADD PUSH0 SWAP1 SWAP2 SWAP1 SWAP2 SWAP1 SWAP2 POP PUSH0 DUP3 ADD MLOAD DUP2 PUSH0 ADD SSTORE PUSH1 0x20 DUP3 ADD MLOAD DUP2 PUSH1 0x1 ADD PUSH0 PUSH2 0x100 EXP DUP2 SLOAD DUP2 PUSH20 0xFFFFFFFFFFFFFFFFFFFFFFFFFFFFFFFFFFFFFFFF MUL NOT AND SWAP1 DUP4 PUSH20 0xFFFFFFFFFFFFFFFFFFFFFFFFFFFFFFFFFFFFFFFF AND MUL OR SWAP1 SSTORE POP PUSH1 0x40 DUP3 ADD MLOAD DUP2 PUSH1 0x1 ADD PUSH1 0x14 PUSH2 0x100 EXP DUP2 SLOAD DUP2 PUSH1 0xFF MUL NOT AND SWAP1 DUP4 PUSH1 0x2 DUP2 GT ISZERO PUSH2 0x7B6 JUMPI PUSH2 0x7B5 PUSH2 0xFE4 JUMP JUMPDEST JUMPDEST MUL OR SWAP1 SSTORE POP PUSH1 0x60 DUP3 ADD MLOAD DUP2 PUSH1 0x2 ADD SWAP1 DUP2 PUSH2 0x7D0 SWAP2 SWAP1 PUSH2 0x15A4 JUMP JUMPDEST POP PUSH1 0x80 DUP3 ADD MLOAD DUP2 PUSH1 0x3 ADD SSTORE POP POP PUSH1 0x1 PUSH1 0x4 PUSH0 DUP4 DUP2 MSTORE PUSH1 0x20 ADD SWAP1 DUP2 MSTORE PUSH1 0x20 ADD PUSH0 KECCAK256 PUSH0 CALLER PUSH20 0xFFFFFFFFFFFFFFFFFFFFFFFFFFFFFFFFFFFFFFFF AND PUSH20 0xFFFFFFFFFFFFFFFFFFFFFFFFFFFFFFFFFFFFFFFF AND DUP2 MSTORE PUSH1 0x20 ADD SWAP1 DUP2 MSTORE PUSH1 0x20 ADD PUSH0 KECCAK256 PUSH0 PUSH2 0x100 EXP DUP2 SLOAD DUP2 PUSH1 0xFF MUL NOT AND SWAP1 DUP4 ISZERO ISZERO MUL OR SWAP1 SSTORE POP PUSH1 0x1 DUP1 PUSH0 DUP4 DUP2 MSTORE PUSH1 0x20 ADD SWAP1 DUP2 MSTORE PUSH1 0x20 ADD PUSH0 KECCAK256 PUSH0 DUP3 DUP3 SLOAD PUSH2 0x861 SWAP2 SWAP1 PUSH2 0x12E9 JUMP JUMPDEST SWAP3 POP POP DUP2 SWAP1 SSTORE POP DUP1 CALLER PUSH20 0xFFFFFFFFFFFFFFFFFFFFFFFFFFFFFFFFFFFFFFFF AND PUSH32 0x62500381F39EB6F48B6E6F104021CEEACA9E5354918DC17B4A15BF87C5F5D28B PUSH1 0x40 MLOAD PUSH1 0x40 MLOAD DUP1 SWAP2 SUB SWAP1 LOG3 POP JUMP JUMPDEST PUSH1 0x4 PUSH1 0x20 MSTORE DUP2 PUSH0 MSTORE PUSH1 0x40 PUSH0 KECCAK256 PUSH1 0x20 MSTORE DUP1 PUSH0 MSTORE PUSH1 0x40 PUSH0 KECCAK256 PUSH0 SWAP2 POP SWAP2 POP SWAP1 SLOAD SWAP1 PUSH2 0x100 EXP SWAP1 DIV PUSH1 0xFF AND DUP2 JUMP JUMPDEST PUSH1 0x60 PUSH0 DUP1 DUP4 DUP2 MSTORE PUSH1 0x20 ADD SWAP1 DUP2 MSTORE PUSH1 0x20 ADD PUSH0 KECCAK256 DUP1 SLOAD DUP1 PUSH1 0x20 MUL PUSH1 0x20 ADD PUSH1 0x40 MLOAD SWAP1 DUP2 ADD PUSH1 0x40 MSTORE DUP1 SWAP3 SWAP2 SWAP1 DUP2 DUP2 MSTORE PUSH1 0x20 ADD PUSH0 SWAP1 JUMPDEST DUP3 DUP3 LT ISZERO PUSH2 0xA6D JUMPI DUP4 DUP3 SWAP1 PUSH0 MSTORE PUSH1 0x20 PUSH0 KECCAK256 SWAP1 PUSH1 0x4 MUL ADD PUSH1 0x40 MLOAD DUP1 PUSH1 0xA0 ADD PUSH1 0x40 MSTORE SWAP1 DUP2 PUSH0 DUP3 ADD SLOAD DUP2 MSTORE PUSH1 0x20 ADD PUSH1 0x1 DUP3 ADD PUSH0 SWAP1 SLOAD SWAP1 PUSH2 0x100 EXP SWAP1 DIV PUSH20 0xFFFFFFFFFFFFFFFFFFFFFFFFFFFFFFFFFFFFFFFF AND PUSH20 0xFFFFFFFFFFFFFFFFFFFFFFFFFFFFFFFFFFFFFFFF AND PUSH20 0xFFFFFFFFFFFFFFFFFFFFFFFFFFFFFFFFFFFFFFFF AND DUP2 MSTORE PUSH1 0x20 ADD PUSH1 0x1 DUP3 ADD PUSH1 0x14 SWAP1 SLOAD SWAP1 PUSH2 0x100 EXP SWAP1 DIV PUSH1 0xFF AND PUSH1 0x2 DUP2 GT ISZERO PUSH2 0x9AE JUMPI PUSH2 0x9AD PUSH2 0xFE4 JUMP JUMPDEST JUMPDEST PUSH1 0x2 DUP2 GT ISZERO PUSH2 0x9C0 JUMPI PUSH2 0x9BF PUSH2 0xFE4 JUMP JUMPDEST JUMPDEST DUP2 MSTORE PUSH1 0x20 ADD PUSH1 0x2 DUP3 ADD DUP1 SLOAD PUSH2 0x9D4 SWAP1 PUSH2 0x13D7 JUMP JUMPDEST DUP1 PUSH1 0x1F ADD PUSH1 0x20 DUP1 SWAP2 DIV MUL PUSH1 0x20 ADD PUSH1 0x40 MLOAD SWAP1 DUP2 ADD PUSH1 0x40 MSTORE DUP1 SWAP3 SWAP2 SWAP1 DUP2 DUP2 MSTORE PUSH1 0x20 ADD DUP3 DUP1 SLOAD PUSH2 0xA00 SWAP1 PUSH2 0x13D7 JUMP JUMPDEST DUP1 ISZERO PUSH2 0xA4B JUMPI DUP1 PUSH1 0x1F LT PUSH2 0xA22 JUMPI PUSH2 0x100 DUP1 DUP4 SLOAD DIV MUL DUP4 MSTORE SWAP2 PUSH1 0x20 ADD SWAP2 PUSH2 0xA4B JUMP JUMPDEST DUP3 ADD SWAP2 SWAP1 PUSH0 MSTORE PUSH1 0x20 PUSH0 KECCAK256 SWAP1 JUMPDEST DUP2 SLOAD DUP2 MSTORE SWAP1 PUSH1 0x1 ADD SWAP1 PUSH1 0x20 ADD DUP1 DUP4 GT PUSH2 0xA2E JUMPI DUP3 SWAP1 SUB PUSH1 0x1F AND DUP3 ADD SWAP2 JUMPDEST POP POP POP POP POP DUP2 MSTORE PUSH1 0x20 ADD PUSH1 0x3 DUP3 ADD SLOAD DUP2 MSTORE POP POP DUP2 MSTORE PUSH1 0x20 ADD SWAP1 PUSH1 0x1 ADD SWAP1 PUSH2 0x90A JUMP JUMPDEST POP POP POP POP SWAP1 POP SWAP2 SWAP1 POP JUMP JUMPDEST PUSH1 0x3 PUSH1 0x20 MSTORE DUP1 PUSH0 MSTORE PUSH1 0x40 PUSH0 KECCAK256 PUSH0 SWAP2 POP SWAP1 POP SLOAD DUP2 JUMP JUMPDEST PUSH1 0x2 PUSH1 0x20 MSTORE DUP1 PUSH0 MSTORE PUSH1 0x40 PUSH0 KECCAK256 PUSH0 SWAP2 POP SWAP1 POP SLOAD DUP2 JUMP JUMPDEST PUSH0 DUP1 DUP3 DUP2 MSTORE PUSH1 0x20 ADD SWAP1 DUP2 MSTORE PUSH1 0x20 ADD PUSH0 KECCAK256 PUSH1 0x40 MLOAD DUP1 PUSH1 0xA0 ADD PUSH1 0x40 MSTORE DUP1 DUP4 DUP2 MSTORE PUSH1 0x20 ADD CALLER PUSH20 0xFFFFFFFFFFFFFFFFFFFFFFFFFFFFFFFFFFFFFFFF AND DUP2 MSTORE PUSH1 0x20 ADD PUSH1 0x1 PUSH1 0x2 DUP2 GT ISZERO PUSH2 0xAF3 JUMPI PUSH2 0xAF2 PUSH2 0xFE4 JUMP JUMPDEST JUMPDEST DUP2 MSTORE PUSH1 0x20 ADD PUSH1 0x40 MLOAD DUP1 PUSH1 0x20 ADD PUSH1 0x40 MSTORE DUP1 PUSH0 DUP2 MSTORE POP DUP2 MSTORE PUSH1 0x20 ADD TIMESTAMP DUP2 MSTORE POP SWAP1 DUP1 PUSH1 0x1 DUP2 SLOAD ADD DUP1 DUP3 SSTORE DUP1 SWAP2 POP POP PUSH1 0x1 SWAP1 SUB SWAP1 PUSH0 MSTORE PUSH1 0x20 PUSH0 KECCAK256 SWAP1 PUSH1 0x4 MUL ADD PUSH0 SWAP1 SWAP2 SWAP1 SWAP2 SWAP1 SWAP2 POP PUSH0 DUP3 ADD MLOAD DUP2 PUSH0 ADD SSTORE PUSH1 0x20 DUP3 ADD MLOAD DUP2 PUSH1 0x1 ADD PUSH0 PUSH2 0x100 EXP DUP2 SLOAD DUP2 PUSH20 0xFFFFFFFFFFFFFFFFFFFFFFFFFFFFFFFFFFFFFFFF MUL NOT AND SWAP1 DUP4 PUSH20 0xFFFFFFFFFFFFFFFFFFFFFFFFFFFFFFFFFFFFFFFF AND MUL OR SWAP1 SSTORE POP PUSH1 0x40 DUP3 ADD MLOAD DUP2 PUSH1 0x1 ADD PUSH1 0x14 PUSH2 0x100 EXP DUP2 SLOAD DUP2 PUSH1 0xFF MUL NOT AND SWAP1 DUP4 PUSH1 0x2 DUP2 GT ISZERO PUSH2 0xBAF JUMPI PUSH2 0xBAE PUSH2 0xFE4 JUMP JUMPDEST JUMPDEST MUL OR SWAP1 SSTORE POP PUSH1 0x60 DUP3 ADD MLOAD DUP2 PUSH1 0x2 ADD SWAP1 DUP2 PUSH2 0xBC9 SWAP2 SWAP1 PUSH2 0x15A4 JUMP JUMPDEST POP PUSH1 0x80 DUP3 ADD MLOAD DUP2 PUSH1 0x3 ADD SSTORE POP POP PUSH1 0x1 PUSH1 0x2 PUSH0 DUP4 DUP2 MSTORE PUSH1 0x20 ADD SWAP1 DUP2 MSTORE PUSH1 0x20 ADD PUSH0 KECCAK256 PUSH0 DUP3 DUP3 SLOAD PUSH2 0xBF7 SWAP2 SWAP1 PUSH2 0x12E9 JUMP JUMPDEST SWAP3 POP POP DUP2 SWAP1 SSTORE POP DUP1 CALLER PUSH20 0xFFFFFFFFFFFFFFFFFFFFFFFFFFFFFFFFFFFFFFFF AND PUSH32 0x8132FBE9204ECD8CCBE16957DB53CB4250FCE8520AB7621729D07E9AFE6C9737 PUSH1 0x40 MLOAD PUSH1 0x40 MLOAD DUP1 SWAP2 SUB SWAP1 LOG3 POP JUMP JUMPDEST PUSH0 DUP2 SWAP1 POP SWAP2 SWAP1 POP JUMP JUMPDEST PUSH2 0xC57 DUP2 PUSH2 0xC45 JUMP JUMPDEST DUP3 MSTORE POP POP JUMP JUMPDEST PUSH0 PUSH1 0x20 DUP3 ADD SWAP1 POP PUSH2 0xC70 PUSH0 DUP4 ADD DUP5 PUSH2 0xC4E JUMP JUMPDEST SWAP3 SWAP2 POP POP JUMP JUMPDEST PUSH0 PUSH1 0x40 MLOAD SWAP1 POP SWAP1 JUMP JUMPDEST PUSH0 DUP1 REVERT JUMPDEST PUSH0 DUP1 REVERT JUMPDEST PUSH2 0xC90 DUP2 PUSH2 0xC45 JUMP JUMPDEST DUP2 EQ PUSH2 0xC9A JUMPI PUSH0 DUP1 REVERT JUMPDEST POP JUMP JUMPDEST PUSH0 DUP2 CALLDATALOAD SWAP1 POP PUSH2 0xCAB DUP2 PUSH2 0xC87 JUMP JUMPDEST SWAP3 SWAP2 POP POP JUMP JUMPDEST PUSH0 PUSH1 0x20 DUP3 DUP5 SUB SLT ISZERO PUSH2 0xCC6 JUMPI PUSH2 0xCC5 PUSH2 0xC7F JUMP JUMPDEST JUMPDEST PUSH0 PUSH2 0xCD3 DUP5 DUP3 DUP6 ADD PUSH2 0xC9D JUMP JUMPDEST SWAP2 POP POP SWAP3 SWAP2 POP POP JUMP JUMPDEST PUSH0 PUSH20 0xFFFFFFFFFFFFFFFFFFFFFFFFFFFFFFFFFFFFFFFF DUP3 AND SWAP1 POP SWAP2 SWAP1 POP JUMP JUMPDEST PUSH0 PUSH2 0xD05 DUP3 PUSH2 0xCDC JUMP JUMPDEST SWAP1 POP SWAP2 SWAP1 POP JUMP JUMPDEST PUSH2 0xD15 DUP2 PUSH2 0xCFB JUMP JUMPDEST DUP2 EQ PUSH2 0xD1F JUMPI PUSH0 DUP1 REVERT JUMPDEST POP JUMP JUMPDEST PUSH0 DUP2 CALLDATALOAD SWAP1 POP PUSH2 0xD30 DUP2 PUSH2 0xD0C JUMP JUMPDEST SWAP3 SWAP2 POP POP JUMP JUMPDEST PUSH0 PUSH1 0x20 DUP3 DUP5 SUB SLT ISZERO PUSH2 0xD4B JUMPI PUSH2 0xD4A PUSH2 0xC7F JUMP JUMPDEST JUMPDEST PUSH0 PUSH2 0xD58 DUP5 DUP3 DUP6 ADD PUSH2 0xD22 JUMP JUMPDEST SWAP2 POP POP SWAP3 SWAP2 POP POP JUMP JUMPDEST PUSH0 DUP1 REVERT JUMPDEST PUSH0 DUP1 REVERT JUMPDEST PUSH0 PUSH1 0x1F NOT PUSH1 0x1F DUP4 ADD AND SWAP1 POP SWAP2 SWAP1 POP JUMP JUMPDEST PUSH32 0x4E487B7100000000000000000000000000000000000000000000000000000000 PUSH0 MSTORE PUSH1 0x41 PUSH1 0x4 MSTORE PUSH1 0x24 PUSH0 REVERT JUMPDEST PUSH2 0xDAF DUP3 PUSH2 0xD69 JUMP JUMPDEST DUP2 ADD DUP2 DUP2 LT PUSH8 0xFFFFFFFFFFFFFFFF DUP3 GT OR ISZERO PUSH2 0xDCE JUMPI PUSH2 0xDCD PUSH2 0xD79 JUMP JUMPDEST JUMPDEST DUP1 PUSH1 0x40 MSTORE POP POP POP JUMP JUMPDEST PUSH0 PUSH2 0xDE0 PUSH2 0xC76 JUMP JUMPDEST SWAP1 POP PUSH2 0xDEC DUP3 DUP3 PUSH2 0xDA6 JUMP JUMPDEST SWAP2 SWAP1 POP JUMP JUMPDEST PUSH0 PUSH8 0xFFFFFFFFFFFFFFFF DUP3 GT ISZERO PUSH2 0xE0B JUMPI PUSH2 0xE0A PUSH2 0xD79 JUMP JUMPDEST JUMPDEST PUSH2 0xE14 DUP3 PUSH2 0xD69 JUMP JUMPDEST SWAP1 POP PUSH1 0x20 DUP2 ADD SWAP1 POP SWAP2 SWAP1 POP JUMP JUMPDEST DUP3 DUP2 DUP4 CALLDATACOPY PUSH0 DUP4 DUP4 ADD MSTORE POP POP POP JUMP JUMPDEST PUSH0 PUSH2 0xE41 PUSH2 0xE3C DUP5 PUSH2 0xDF1 JUMP JUMPDEST PUSH2 0xDD7 JUMP JUMPDEST SWAP1 POP DUP3 DUP2 MSTORE PUSH1 0x20 DUP2 ADD DUP5 DUP5 DUP5 ADD GT ISZERO PUSH2 0xE5D JUMPI PUSH2 0xE5C PUSH2 0xD65 JUMP JUMPDEST JUMPDEST PUSH2 0xE68 DUP5 DUP3 DUP6 PUSH2 0xE21 JUMP JUMPDEST POP SWAP4 SWAP3 POP POP POP JUMP JUMPDEST PUSH0 DUP3 PUSH1 0x1F DUP4 ADD SLT PUSH2 0xE84 JUMPI PUSH2 0xE83 PUSH2 0xD61 JUMP JUMPDEST JUMPDEST DUP2 CALLDATALOAD PUSH2 0xE94 DUP5 DUP3 PUSH1 0x20 DUP7 ADD PUSH2 0xE2F JUMP JUMPDEST SWAP2 POP POP SWAP3 SWAP2 POP POP JUMP JUMPDEST PUSH0 DUP1 PUSH1 0x40 DUP4 DUP6 SUB SLT ISZERO PUSH2 0xEB3 JUMPI PUSH2 0xEB2 PUSH2 0xC7F JUMP JUMPDEST JUMPDEST PUSH0 PUSH2 0xEC0 DUP6 DUP3 DUP7 ADD PUSH2 0xC9D JUMP JUMPDEST SWAP3 POP POP PUSH1 0x20 DUP4 ADD CALLDATALOAD PUSH8 0xFFFFFFFFFFFFFFFF DUP2 GT ISZERO PUSH2 0xEE1 JUMPI PUSH2 0xEE0 PUSH2 0xC83 JUMP JUMPDEST JUMPDEST PUSH2 0xEED DUP6 DUP3 DUP7 ADD PUSH2 0xE70 JUMP JUMPDEST SWAP2 POP POP SWAP3 POP SWAP3 SWAP1 POP JUMP JUMPDEST PUSH0 PUSH1 0x60 DUP3 ADD SWAP1 POP PUSH2 0xF0A PUSH0 DUP4 ADD DUP7 PUSH2 0xC4E JUMP JUMPDEST PUSH2 0xF17 PUSH1 0x20 DUP4 ADD DUP6 PUSH2 0xC4E JUMP JUMPDEST PUSH2 0xF24 PUSH1 0x40 DUP4 ADD DUP5 PUSH2 0xC4E JUMP JUMPDEST SWAP5 SWAP4 POP POP POP POP JUMP JUMPDEST PUSH0 DUP1 PUSH1 0x40 DUP4 DUP6 SUB SLT ISZERO PUSH2 0xF42 JUMPI PUSH2 0xF41 PUSH2 0xC7F JUMP JUMPDEST JUMPDEST PUSH0 PUSH2 0xF4F DUP6 DUP3 DUP7 ADD PUSH2 0xC9D JUMP JUMPDEST SWAP3 POP POP PUSH1 0x20 PUSH2 0xF60 DUP6 DUP3 DUP7 ADD PUSH2 0xD22 JUMP JUMPDEST SWAP2 POP POP SWAP3 POP SWAP3 SWAP1 POP JUMP JUMPDEST PUSH0 DUP2 ISZERO ISZERO SWAP1 POP SWAP2 SWAP1 POP JUMP JUMPDEST PUSH2 0xF7E DUP2 PUSH2 0xF6A JUMP JUMPDEST DUP3 MSTORE POP POP JUMP JUMPDEST PUSH0 PUSH1 0x20 DUP3 ADD SWAP1 POP PUSH2 0xF97 PUSH0 DUP4 ADD DUP5 PUSH2 0xF75 JUMP JUMPDEST SWAP3 SWAP2 POP POP JUMP JUMPDEST PUSH0 DUP2 MLOAD SWAP1 POP SWAP2 SWAP1 POP JUMP JUMPDEST PUSH0 DUP3 DUP3 MSTORE PUSH1 0x20 DUP3 ADD SWAP1 POP SWAP3 SWAP2 POP POP JUMP JUMPDEST PUSH0 DUP2 SWAP1 POP PUSH1 0x20 DUP3 ADD SWAP1 POP SWAP2 SWAP1 POP JUMP JUMPDEST PUSH2 0xFCF DUP2 PUSH2 0xC45 JUMP JUMPDEST DUP3 MSTORE POP POP JUMP JUMPDEST PUSH2 0xFDE DUP2 PUSH2 0xCFB JUMP JUMPDEST DUP3 MSTORE POP POP JUMP JUMPDEST PUSH32 0x4E487B7100000000000000000000000000000000000000000000000000000000 PUSH0 MSTORE PUSH1 0x21 PUSH1 0x4 MSTORE PUSH1 0x24 PUSH0 REVERT JUMPDEST PUSH1 0x3 DUP2 LT PUSH2 0x1022 JUMPI PUSH2 0x1021 PUSH2 0xFE4 JUMP JUMPDEST JUMPDEST POP JUMP JUMPDEST PUSH0 DUP2 SWAP1 POP PUSH2 0x1032 DUP3 PUSH2 0x1011 JUMP JUMPDEST SWAP2 SWAP1 POP JUMP JUMPDEST PUSH0 PUSH2 0x1041 DUP3 PUSH2 0x1025 JUMP JUMPDEST SWAP1 POP SWAP2 SWAP1 POP JUMP JUMPDEST PUSH2 0x1051 DUP2 PUSH2 0x1037 JUMP JUMPDEST DUP3 MSTORE POP POP JUMP JUMPDEST PUSH0 DUP2 MLOAD SWAP1 POP SWAP2 SWAP1 POP JUMP JUMPDEST PUSH0 DUP3 DUP3 MSTORE PUSH1 0x20 DUP3 ADD SWAP1 POP SWAP3 SWAP2 POP POP JUMP JUMPDEST DUP3 DUP2 DUP4 MCOPY PUSH0 DUP4 DUP4 ADD MSTORE POP POP POP JUMP JUMPDEST PUSH0 PUSH2 0x1089 DUP3 PUSH2 0x1057 JUMP JUMPDEST PUSH2 0x1093 DUP2 DUP6 PUSH2 0x1061 JUMP JUMPDEST SWAP4 POP PUSH2 0x10A3 DUP2 DUP6 PUSH1 0x20 DUP7 ADD PUSH2 0x1071 JUMP JUMPDEST PUSH2 0x10AC DUP2 PUSH2 0xD69 JUMP JUMPDEST DUP5 ADD SWAP2 POP POP SWAP3 SWAP2 POP POP JUMP JUMPDEST PUSH0 PUSH1 0xA0 DUP4 ADD PUSH0 DUP4 ADD MLOAD PUSH2 0x10CC PUSH0 DUP7 ADD DUP3 PUSH2 0xFC6 JUMP JUMPDEST POP PUSH1 0x20 DUP4 ADD MLOAD PUSH2 0x10DF PUSH1 0x20 DUP7 ADD DUP3 PUSH2 0xFD5 JUMP JUMPDEST POP PUSH1 0x40 DUP4 ADD MLOAD PUSH2 0x10F2 PUSH1 0x40 DUP7 ADD DUP3 PUSH2 0x1048 JUMP JUMPDEST POP PUSH1 0x60 DUP4 ADD MLOAD DUP5 DUP3 SUB PUSH1 0x60 DUP7 ADD MSTORE PUSH2 0x110A DUP3 DUP3 PUSH2 0x107F JUMP JUMPDEST SWAP2 POP POP PUSH1 0x80 DUP4 ADD MLOAD PUSH2 0x111F PUSH1 0x80 DUP7 ADD DUP3 PUSH2 0xFC6 JUMP JUMPDEST POP DUP1 SWAP2 POP POP SWAP3 SWAP2 POP POP JUMP JUMPDEST PUSH0 PUSH2 0x1135 DUP4 DUP4 PUSH2 0x10B7 JUMP JUMPDEST SWAP1 POP SWAP3 SWAP2 POP POP JUMP JUMPDEST PUSH0 PUSH1 0x20 DUP3 ADD SWAP1 POP SWAP2 SWAP1 POP JUMP JUMPDEST PUSH0 PUSH2 0x1153 DUP3 PUSH2 0xF9D JUMP JUMPDEST PUSH2 0x115D DUP2 DUP6 PUSH2 0xFA7 JUMP JUMPDEST SWAP4 POP DUP4 PUSH1 0x20 DUP3 MUL DUP6 ADD PUSH2 0x116F DUP6 PUSH2 0xFB7 JUMP JUMPDEST DUP1 PUSH0 JUMPDEST DUP6 DUP2 LT ISZERO PUSH2 0x11AA JUMPI DUP5 DUP5 SUB DUP10 MSTORE DUP2 MLOAD PUSH2 0x118B DUP6 DUP3 PUSH2 0x112A JUMP JUMPDEST SWAP5 POP PUSH2 0x1196 DUP4 PUSH2 0x113D JUMP JUMPDEST SWAP3 POP PUSH1 0x20 DUP11 ADD SWAP10 POP POP PUSH1 0x1 DUP2 ADD SWAP1 POP PUSH2 0x1172 JUMP JUMPDEST POP DUP3 SWAP8 POP DUP8 SWAP6 POP POP POP POP POP POP SWAP3 SWAP2 POP POP JUMP JUMPDEST PUSH0 PUSH1 0x20 DUP3 ADD SWAP1 POP DUP2 DUP2 SUB PUSH0 DUP4 ADD MSTORE PUSH2 0x11D4 DUP2 DUP5 PUSH2 0x1149 JUMP JUMPDEST SWAP1 POP SWAP3 SWAP2 POP POP JUMP JUMPDEST PUSH0 DUP3 DUP3 MSTORE PUSH1 0x20 DUP3 ADD SWAP1 POP SWAP3 SWAP2 POP POP JUMP JUMPDEST PUSH32 0x436F6D6D656E742063616E6E6F7420626520656D707479000000000000000000 PUSH0 DUP3 ADD MSTORE POP JUMP JUMPDEST PUSH0 PUSH2 0x1220 PUSH1 0x17 DUP4 PUSH2 0x11DC JUMP JUMPDEST SWAP2 POP PUSH2 0x122B DUP3 PUSH2 0x11EC JUMP JUMPDEST PUSH1 0x20 DUP3 ADD SWAP1 POP SWAP2 SWAP1 POP JUMP JUMPDEST PUSH0 PUSH1 0x20 DUP3 ADD SWAP1 POP DUP2 DUP2 SUB PUSH0 DUP4 ADD MSTORE PUSH2 0x124D DUP2 PUSH2 0x1214 JUMP JUMPDEST SWAP1 POP SWAP2 SWAP1 POP JUMP JUMPDEST PUSH32 0x436F6D6D656E7420746F6F206C6F6E6700000000000000000000000000000000 PUSH0 DUP3 ADD MSTORE POP JUMP JUMPDEST PUSH0 PUSH2 0x1288 PUSH1 0x10 DUP4 PUSH2 0x11DC JUMP JUMPDEST SWAP2 POP PUSH2 0x1293 DUP3 PUSH2 0x1254 JUMP JUMPDEST PUSH1 0x20 DUP3 ADD SWAP1 POP SWAP2 SWAP1 POP JUMP JUMPDEST PUSH0 PUSH1 0x20 DUP3 ADD SWAP1 POP DUP2 DUP2 SUB PUSH0 DUP4 ADD MSTORE PUSH2 0x12B5 DUP2 PUSH2 0x127C JUMP JUMPDEST SWAP1 POP SWAP2 SWAP1 POP JUMP JUMPDEST PUSH32 0x4E487B7100000000000000000000000000000000000000000000000000000000 PUSH0 MSTORE PUSH1 0x11 PUSH1 0x4 MSTORE PUSH1 0x24 PUSH0 REVERT JUMPDEST PUSH0 PUSH2 0x12F3 DUP3 PUSH2 0xC45 JUMP JUMPDEST SWAP2 POP PUSH2 0x12FE DUP4 PUSH2 0xC45 JUMP JUMPDEST SWAP3 POP DUP3 DUP3 ADD SWAP1 POP DUP1 DUP3 GT ISZERO PUSH2 0x1316 JUMPI PUSH2 0x1315 PUSH2 0x12BC JUMP JUMPDEST JUMPDEST SWAP3 SWAP2 POP POP JUMP JUMPDEST PUSH32 0x506C656173652077616974206265666F726520636F6D6D656E74696E67206167 PUSH0 DUP3 ADD MSTORE PUSH32 0x61696E0000000000000000000000000000000000000000000000000000000000 PUSH1 0x20 DUP3 ADD MSTORE POP JUMP JUMPDEST PUSH0 PUSH2 0x1376 PUSH1 0x23 DUP4 PUSH2 0x11DC JUMP JUMPDEST SWAP2 POP PUSH2 0x1381 DUP3 PUSH2 0x131C JUMP JUMPDEST PUSH1 0x40 DUP3 ADD SWAP1 POP SWAP2 SWAP1 POP JUMP JUMPDEST PUSH0 PUSH1 0x20 DUP3 ADD SWAP1 POP DUP2 DUP2 SUB PUSH0 DUP4 ADD MSTORE PUSH2 0x13A3 DUP2 PUSH2 0x136A JUMP JUMPDEST SWAP1 POP SWAP2 SWAP1 POP JUMP JUMPDEST PUSH32 0x4E487B7100000000000000000000000000000000000000000000000000000000 PUSH0 MSTORE PUSH1 0x22 PUSH1 0x4 MSTORE PUSH1 0x24 PUSH0 REVERT JUMPDEST PUSH0 PUSH1 0x2 DUP3 DIV SWAP1 POP PUSH1 0x1 DUP3 AND DUP1 PUSH2 0x13EE JUMPI PUSH1 0x7F DUP3 AND SWAP2 POP JUMPDEST PUSH1 0x20 DUP3 LT DUP2 SUB PUSH2 0x1401 JUMPI PUSH2 0x1400 PUSH2 0x13AA JUMP JUMPDEST JUMPDEST POP SWAP2 SWAP1 POP JUMP JUMPDEST PUSH0 DUP2 SWAP1 POP DUP2 PUSH0 MSTORE PUSH1 0x20 PUSH0 KECCAK256 SWAP1 POP SWAP2 SWAP1 POP JUMP JUMPDEST PUSH0 PUSH1 0x20 PUSH1 0x1F DUP4 ADD DIV SWAP1 POP SWAP2 SWAP1 POP JUMP JUMPDEST PUSH0 DUP3 DUP3 SHL SWAP1 POP SWAP3 SWAP2 POP POP JUMP JUMPDEST PUSH0 PUSH1 0x8 DUP4 MUL PUSH2 0x1463 PUSH32 0xFFFFFFFFFFFFFFFFFFFFFFFFFFFFFFFFFFFFFFFFFFFFFFFFFFFFFFFFFFFFFFFF DUP3 PUSH2 0x1428 JUMP JUMPDEST PUSH2 0x146D DUP7 DUP4 PUSH2 0x1428 JUMP JUMPDEST SWAP6 POP DUP1 NOT DUP5 AND SWAP4 POP DUP1 DUP7 AND DUP5 OR SWAP3 POP POP POP SWAP4 SWAP3 POP POP POP JUMP JUMPDEST PUSH0 DUP2 SWAP1 POP SWAP2 SWAP1 POP JUMP JUMPDEST PUSH0 PUSH2 0x14A8 PUSH2 0x14A3 PUSH2 0x149E DUP5 PUSH2 0xC45 JUMP JUMPDEST PUSH2 0x1485 JUMP JUMPDEST PUSH2 0xC45 JUMP JUMPDEST SWAP1 POP SWAP2 SWAP1 POP JUMP JUMPDEST PUSH0 DUP2 SWAP1 POP SWAP2 SWAP1 POP JUMP JUMPDEST PUSH2 0x14C1 DUP4 PUSH2 0x148E JUMP JUMPDEST PUSH2 0x14D5 PUSH2 0x14CD DUP3 PUSH2 0x14AF JUMP JUMPDEST DUP5 DUP5 SLOAD PUSH2 0x1434 JUMP JUMPDEST DUP3 SSTORE POP POP POP POP JUMP JUMPDEST PUSH0 SWAP1 JUMP JUMPDEST PUSH2 0x14E9 PUSH2 0x14DD JUMP JUMPDEST PUSH2 0x14F4 DUP2 DUP5 DUP5 PUSH2 0x14B8 JUMP JUMPDEST POP POP POP JUMP JUMPDEST JUMPDEST DUP2 DUP2 LT ISZERO PUSH2 0x1517 JUMPI PUSH2 0x150C PUSH0 DUP3 PUSH2 0x14E1 JUMP JUMPDEST PUSH1 0x1 DUP2 ADD SWAP1 POP PUSH2 0x14FA JUMP JUMPDEST POP POP JUMP JUMPDEST PUSH1 0x1F DUP3 GT ISZERO PUSH2 0x155C JUMPI PUSH2 0x152D DUP2 PUSH2 0x1407 JUMP JUMPDEST PUSH2 0x1536 DUP5 PUSH2 0x1419 JUMP JUMPDEST DUP2 ADD PUSH1 0x20 DUP6 LT ISZERO PUSH2 0x1545 JUMPI DUP2 SWAP1 POP JUMPDEST PUSH2 0x1559 PUSH2 0x1551 DUP6 PUSH2 0x1419 JUMP JUMPDEST DUP4 ADD DUP3 PUSH2 0x14F9 JUMP JUMPDEST POP POP JUMPDEST POP POP POP JUMP JUMPDEST PUSH0 DUP3 DUP3 SHR SWAP1 POP SWAP3 SWAP2 POP POP JUMP JUMPDEST PUSH0 PUSH2 0x157C PUSH0 NOT DUP5 PUSH1 0x8 MUL PUSH2 0x1561 JUMP JUMPDEST NOT DUP1 DUP4 AND SWAP2 POP POP SWAP3 SWAP2 POP POP JUMP JUMPDEST PUSH0 PUSH2 0x1594 DUP4 DUP4 PUSH2 0x156D JUMP JUMPDEST SWAP2 POP DUP3 PUSH1 0x2 MUL DUP3 OR SWAP1 POP SWAP3 SWAP2 POP POP JUMP JUMPDEST PUSH2 0x15AD DUP3 PUSH2 0x1057 JUMP JUMPDEST PUSH8 0xFFFFFFFFFFFFFFFF DUP2 GT ISZERO PUSH2 0x15C6 JUMPI PUSH2 0x15C5 PUSH2 0xD79 JUMP JUMPDEST JUMPDEST PUSH2 0x15D0 DUP3 SLOAD PUSH2 0x13D7 JUMP JUMPDEST PUSH2 0x15DB DUP3 DUP3 DUP6 PUSH2 0x151B JUMP JUMPDEST PUSH0 PUSH1 0x20 SWAP1 POP PUSH1 0x1F DUP4 GT PUSH1 0x1 DUP2 EQ PUSH2 0x160C JUMPI PUSH0 DUP5 ISZERO PUSH2 0x15FA JUMPI DUP3 DUP8 ADD MLOAD SWAP1 POP JUMPDEST PUSH2 0x1604 DUP6 DUP3 PUSH2 0x1589 JUMP JUMPDEST DUP7 SSTORE POP PUSH2 0x166B JUMP JUMPDEST PUSH1 0x1F NOT DUP5 AND PUSH2 0x161A DUP7 PUSH2 0x1407 JUMP JUMPDEST PUSH0 JUMPDEST DUP3 DUP2 LT ISZERO PUSH2 0x1641 JUMPI DUP5 DUP10 ADD MLOAD DUP3 SSTORE PUSH1 0x1 DUP3 ADD SWAP2 POP PUSH1 0x20 DUP6 ADD SWAP5 POP PUSH1 0x20 DUP2 ADD SWAP1 POP PUSH2 0x161C JUMP JUMPDEST DUP7 DUP4 LT ISZERO PUSH2 0x165E JUMPI DUP5 DUP10 ADD MLOAD PUSH2 0x165A PUSH1 0x1F DUP10 AND DUP3 PUSH2 0x156D JUMP JUMPDEST DUP4 SSTORE POP JUMPDEST PUSH1 0x1 PUSH1 0x2 DUP9 MUL ADD DUP9 SSTORE POP POP POP JUMPDEST POP POP POP POP POP POP JUMP JUMPDEST PUSH0 PUSH2 0x167D DUP3 PUSH2 0x1057 JUMP JUMPDEST PUSH2 0x1687 DUP2 DUP6 PUSH2 0x11DC JUMP JUMPDEST SWAP4 POP PUSH2 0x1697 DUP2 DUP6 PUSH1 0x20 DUP7 ADD PUSH2 0x1071 JUMP JUMPDEST PUSH2 0x16A0 DUP2 PUSH2 0xD69 JUMP JUMPDEST DUP5 ADD SWAP2 POP POP SWAP3 SWAP2 POP POP JUMP JUMPDEST PUSH0 PUSH1 0x20 DUP3 ADD SWAP1 POP DUP2 DUP2 SUB PUSH0 DUP4 ADD MSTORE PUSH2 0x16C3 DUP2 DUP5 PUSH2 0x1673 JUMP JUMPDEST SWAP1 POP SWAP3 SWAP2 POP POP JUMP JUMPDEST PUSH32 0x596F7520616C7265616479206C696B6564207468697320706F73740000000000 PUSH0 DUP3 ADD MSTORE POP JUMP JUMPDEST PUSH0 PUSH2 0x16FF PUSH1 0x1B DUP4 PUSH2 0x11DC JUMP JUMPDEST SWAP2 POP PUSH2 0x170A DUP3 PUSH2 0x16CB JUMP JUMPDEST PUSH1 0x20 DUP3 ADD SWAP1 POP SWAP2 SWAP1 POP JUMP JUMPDEST PUSH0 PUSH1 0x20 DUP3 ADD SWAP1 POP DUP2 DUP2 SUB PUSH0 DUP4 ADD MSTORE PUSH2 0x172C DUP2 PUSH2 0x16F3 JUMP JUMPDEST SWAP1 POP SWAP2 SWAP1 POP JUMP INVALID LOG2 PUSH5 0x6970667358 0x22 SLT KECCAK256 PUSH19 0xEFE0A82AC6155AD390F59F35AD8D686A90C928 PUSH21 0xAF787CB0BA4657265B8CC664736F6C634300081A00 CALLER "
				},
				"gasEstimates": {
					"creation": {
						"codeDepositCost": "1198600",
						"executionCost": "1246",
						"totalCost": "1199846"
					},
					"external": {
						"COMMENT_COOLDOWN()": "326",
						"MAX_COMMENT_LENGTH()": "392",
						"commentCounts(uint256)": "infinite",
						"commentOnPost(uint256,string)": "infinite",
						"getInteractionCounts(uint256)": "infinite",
						"getInteractions(uint256)": "infinite",
						"hasLiked(uint256,address)": "3093",
						"lastCommentTime(address)": "2847",
						"likeCounts(uint256)": "infinite",
						"likePost(uint256)": "infinite",
						"shareCounts(uint256)": "infinite",
						"sharePost(uint256)": "infinite"
					}
				},
				"methodIdentifiers": {
					"COMMENT_COOLDOWN()": "04a7b094",
					"MAX_COMMENT_LENGTH()": "5856e4fa",
					"commentCounts(uint256)": "c6d9a474",
					"commentOnPost(uint256,string)": "64732154",
					"getInteractionCounts(uint256)": "6793bcb5",
					"getInteractions(uint256)": "af87ad85",
					"hasLiked(uint256,address)": "8fb7092c",
					"lastCommentTime(address)": "50e15276",
					"likeCounts(uint256)": "1a9a6ef0",
					"likePost(uint256)": "725009d3",
					"shareCounts(uint256)": "de53afcc",
					"sharePost(uint256)": "f5d76320"
				}
			},
			"storageLayout": {
				"storage": [
					{
						"astId": 29,
						"contract": "FINAL_YEAR_PROJECT_WORK/SocialInteraction.sol:SocialInteraction",
						"label": "interactions",
						"offset": 0,
						"slot": "0",
						"type": "t_mapping(t_uint256,t_array(t_struct(Interaction)23_storage)dyn_storage)"
					},
					{
						"astId": 33,
						"contract": "FINAL_YEAR_PROJECT_WORK/SocialInteraction.sol:SocialInteraction",
						"label": "likeCounts",
						"offset": 0,
						"slot": "1",
						"type": "t_mapping(t_uint256,t_uint256)"
					},
					{
						"astId": 37,
						"contract": "FINAL_YEAR_PROJECT_WORK/SocialInteraction.sol:SocialInteraction",
						"label": "shareCounts",
						"offset": 0,
						"slot": "2",
						"type": "t_mapping(t_uint256,t_uint256)"
					},
					{
						"astId": 41,
						"contract": "FINAL_YEAR_PROJECT_WORK/SocialInteraction.sol:SocialInteraction",
						"label": "commentCounts",
						"offset": 0,
						"slot": "3",
						"type": "t_mapping(t_uint256,t_uint256)"
					},
					{
						"astId": 47,
						"contract": "FINAL_YEAR_PROJECT_WORK/SocialInteraction.sol:SocialInteraction",
						"label": "hasLiked",
						"offset": 0,
						"slot": "4",
						"type": "t_mapping(t_uint256,t_mapping(t_address,t_bool))"
					},
					{
						"astId": 51,
						"contract": "FINAL_YEAR_PROJECT_WORK/SocialInteraction.sol:SocialInteraction",
						"label": "lastCommentTime",
						"offset": 0,
						"slot": "5",
						"type": "t_mapping(t_address,t_uint256)"
					}
				],
				"types": {
					"t_address": {
						"encoding": "inplace",
						"label": "address",
						"numberOfBytes": "20"
					},
					"t_array(t_struct(Interaction)23_storage)dyn_storage": {
						"base": "t_struct(Interaction)23_storage",
						"encoding": "dynamic_array",
						"label": "struct SocialInteraction.Interaction[]",
						"numberOfBytes": "32"
					},
					"t_bool": {
						"encoding": "inplace",
						"label": "bool",
						"numberOfBytes": "1"
					},
					"t_enum(ActionType)11": {
						"encoding": "inplace",
						"label": "enum SocialInteraction.ActionType",
						"numberOfBytes": "1"
					},
					"t_mapping(t_address,t_bool)": {
						"encoding": "mapping",
						"key": "t_address",
						"label": "mapping(address => bool)",
						"numberOfBytes": "32",
						"value": "t_bool"
					},
					"t_mapping(t_address,t_uint256)": {
						"encoding": "mapping",
						"key": "t_address",
						"label": "mapping(address => uint256)",
						"numberOfBytes": "32",
						"value": "t_uint256"
					},
					"t_mapping(t_uint256,t_array(t_struct(Interaction)23_storage)dyn_storage)": {
						"encoding": "mapping",
						"key": "t_uint256",
						"label": "mapping(uint256 => struct SocialInteraction.Interaction[])",
						"numberOfBytes": "32",
						"value": "t_array(t_struct(Interaction)23_storage)dyn_storage"
					},
					"t_mapping(t_uint256,t_mapping(t_address,t_bool))": {
						"encoding": "mapping",
						"key": "t_uint256",
						"label": "mapping(uint256 => mapping(address => bool))",
						"numberOfBytes": "32",
						"value": "t_mapping(t_address,t_bool)"
					},
					"t_mapping(t_uint256,t_uint256)": {
						"encoding": "mapping",
						"key": "t_uint256",
						"label": "mapping(uint256 => uint256)",
						"numberOfBytes": "32",
						"value": "t_uint256"
					},
					"t_string_storage": {
						"encoding": "bytes",
						"label": "string",
						"numberOfBytes": "32"
					},
					"t_struct(Interaction)23_storage": {
						"encoding": "inplace",
						"label": "struct SocialInteraction.Interaction",
						"members": [
							{
								"astId": 13,
								"contract": "FINAL_YEAR_PROJECT_WORK/SocialInteraction.sol:SocialInteraction",
								"label": "postId",
								"offset": 0,
								"slot": "0",
								"type": "t_uint256"
							},
							{
								"astId": 15,
								"contract": "FINAL_YEAR_PROJECT_WORK/SocialInteraction.sol:SocialInteraction",
								"label": "user",
								"offset": 0,
								"slot": "1",
								"type": "t_address"
							},
							{
								"astId": 18,
								"contract": "FINAL_YEAR_PROJECT_WORK/SocialInteraction.sol:SocialInteraction",
								"label": "action",
								"offset": 20,
								"slot": "1",
								"type": "t_enum(ActionType)11"
							},
							{
								"astId": 20,
								"contract": "FINAL_YEAR_PROJECT_WORK/SocialInteraction.sol:SocialInteraction",
								"label": "commentText",
								"offset": 0,
								"slot": "2",
								"type": "t_string_storage"
							},
							{
								"astId": 22,
								"contract": "FINAL_YEAR_PROJECT_WORK/SocialInteraction.sol:SocialInteraction",
								"label": "timestamp",
								"offset": 0,
								"slot": "3",
								"type": "t_uint256"
							}
						],
						"numberOfBytes": "128"
					},
					"t_uint256": {
						"encoding": "inplace",
						"label": "uint256",
						"numberOfBytes": "32"
					}
				}
			},
			"userdoc": {
				"kind": "user",
				"methods": {},
				"version": 1
			}
		}
	}
}