{
	"FINAL_YEAR_PROJECT_WORK/UserRegistration.sol": {
		"UserManager": {
			"abi": [
				{
					"inputs": [],
					"name": "InvalidUsername",
					"type": "error"
				},
				{
					"inputs": [],
					"name": "NoInterestsProvided",
					"type": "error"
				},
				{
					"inputs": [],
					"name": "UserAlreadyRegistered",
					"type": "error"
				},
				{
					"inputs": [],
					"name": "UserNotRegistered",
					"type": "error"
				},
				{
					"anonymous": false,
					"inputs": [
						{
							"indexed": true,
							"internalType": "address",
							"name": "user",
							"type": "address"
						},
						{
							"indexed": false,
							"internalType": "string[]",
							"name": "newInterests",
							"type": "string[]"
						}
					],
					"name": "InterestsUpdated",
					"type": "event"
				},
				{
					"anonymous": false,
					"inputs": [
						{
							"indexed": true,
							"internalType": "address",
							"name": "user",
							"type": "address"
						},
						{
							"indexed": false,
							"internalType": "string",
							"name": "username",
							"type": "string"
						},
						{
							"indexed": false,
							"internalType": "string[]",
							"name": "interests",
							"type": "string[]"
						}
					],
					"name": "UserRegistered",
					"type": "event"
				},
				{
					"inputs": [
						{
							"internalType": "address",
							"name": "_user",
							"type": "address"
						}
					],
					"name": "getUserDetails",
					"outputs": [
						{
							"internalType": "string",
							"name": "username",
							"type": "string"
						},
						{
							"internalType": "string[]",
							"name": "interests",
							"type": "string[]"
						}
					],
					"stateMutability": "view",
					"type": "function"
				},
				{
					"inputs": [
						{
							"internalType": "address",
							"name": "_user",
							"type": "address"
						}
					],
					"name": "isUserRegistered",
					"outputs": [
						{
							"internalType": "bool",
							"name": "",
							"type": "bool"
						}
					],
					"stateMutability": "view",
					"type": "function"
				},
				{
					"inputs": [
						{
							"internalType": "string",
							"name": "_username",
							"type": "string"
						},
						{
							"internalType": "string[]",
							"name": "_interests",
							"type": "string[]"
						}
					],
					"name": "registerUser",
					"outputs": [],
					"stateMutability": "nonpayable",
					"type": "function"
				},
				{
					"inputs": [
						{
							"internalType": "string[]",
							"name": "_newInterests",
							"type": "string[]"
						}
					],
					"name": "updateInterests",
					"outputs": [],
					"stateMutability": "nonpayable",
					"type": "function"
				}
			],
			"devdoc": {
				"author": "Your Name",
				"details": "Uses mappings, events, and gas-efficient error handling.",
				"errors": {
					"UserAlreadyRegistered()": [
						{
							"details": "Custom error for better gas optimization"
						}
					]
				},
				"kind": "dev",
				"methods": {
					"getUserDetails(address)": {
						"params": {
							"_user": "Address of the user to fetch details for"
						},
						"returns": {
							"interests": "The list of interests stored by the user",
							"username": "The username of the user"
						}
					},
					"isUserRegistered(address)": {
						"params": {
							"_user": "Address of the user to check"
						},
						"returns": {
							"_0": "isRegistered True if the user is registered, otherwise false"
						}
					},
					"registerUser(string,string[])": {
						"params": {
							"_interests": "An array of interests the user wants to store",
							"_username": "The desired username of the user"
						}
					},
					"updateInterests(string[])": {
						"params": {
							"_newInterests": "The new set of interests the user wants to store"
						}
					}
				},
				"stateVariables": {
					"users": {
						"details": "Mapping of user addresses to their profile information"
					}
				},
				"title": "UserManager - Manages user registration and interests in a decentralized social media platform.",
				"version": 1
			},
			"evm": {
				"assembly": "    /* \"FINAL_YEAR_PROJECT_WORK/UserRegistration.sol\":369:3208  contract UserManager {... */\n  mstore(0x40, 0x80)\n  callvalue\n  dup1\n  iszero\n  tag_1\n  jumpi\n  0x00\n  dup1\n  revert\ntag_1:\n  pop\n  dataSize(sub_0)\n  dup1\n  dataOffset(sub_0)\n  0x00\n  codecopy\n  0x00\n  return\nstop\n\nsub_0: assembly {\n        /* \"FINAL_YEAR_PROJECT_WORK/UserRegistration.sol\":369:3208  contract UserManager {... */\n      mstore(0x40, 0x80)\n      callvalue\n      dup1\n      iszero\n      tag_1\n      jumpi\n      0x00\n      dup1\n      revert\n    tag_1:\n      pop\n      jumpi(tag_2, lt(calldatasize, 0x04))\n      shr(0xe0, calldataload(0x00))\n      dup1\n      0x163f7522\n      eq\n      tag_3\n      jumpi\n      dup1\n      0xa60c94cf\n      eq\n      tag_4\n      jumpi\n      dup1\n      0xcc3d967b\n      eq\n      tag_5\n      jumpi\n      dup1\n      0xeee6efd5\n      eq\n      tag_6\n      jumpi\n    tag_2:\n      0x00\n      dup1\n      revert\n        /* \"FINAL_YEAR_PROJECT_WORK/UserRegistration.sol\":3087:3206  function isUserRegistered(address _user) external view returns (bool) {... */\n    tag_3:\n      tag_7\n      0x04\n      dup1\n      calldatasize\n      sub\n      dup2\n      add\n      swap1\n      tag_8\n      swap2\n      swap1\n      tag_9\n      jump\t// in\n    tag_8:\n      tag_10\n      jump\t// in\n    tag_7:\n      mload(0x40)\n      tag_11\n      swap2\n      swap1\n      tag_12\n      jump\t// in\n    tag_11:\n      mload(0x40)\n      dup1\n      swap2\n      sub\n      swap1\n      return\n        /* \"FINAL_YEAR_PROJECT_WORK/UserRegistration.sol\":2111:2384  function updateInterests(string[] memory _newInterests) external onlyRegisteredUser {... */\n    tag_4:\n      tag_13\n      0x04\n      dup1\n      calldatasize\n      sub\n      dup2\n      add\n      swap1\n      tag_14\n      swap2\n      swap1\n      tag_15\n      jump\t// in\n    tag_14:\n      tag_16\n      jump\t// in\n    tag_13:\n      stop\n        /* \"FINAL_YEAR_PROJECT_WORK/UserRegistration.sol\":2629:2907  function getUserDetails(address _user) external view returns (string memory username, string[] memory interests) {... */\n    tag_5:\n      tag_17\n      0x04\n      dup1\n      calldatasize\n      sub\n      dup2\n      add\n      swap1\n      tag_18\n      swap2\n      swap1\n      tag_9\n      jump\t// in\n    tag_18:\n      tag_19\n      jump\t// in\n    tag_17:\n      mload(0x40)\n      tag_20\n      swap3\n      swap2\n      swap1\n      tag_21\n      jump\t// in\n    tag_20:\n      mload(0x40)\n      dup1\n      swap2\n      sub\n      swap1\n      return\n        /* \"FINAL_YEAR_PROJECT_WORK/UserRegistration.sol\":1521:1951  function registerUser(string memory _username, string[] memory _interests) external {... */\n    tag_6:\n      tag_22\n      0x04\n      dup1\n      calldatasize\n      sub\n      dup2\n      add\n      swap1\n      tag_23\n      swap2\n      swap1\n      tag_24\n      jump\t// in\n    tag_23:\n      tag_25\n      jump\t// in\n    tag_22:\n      stop\n        /* \"FINAL_YEAR_PROJECT_WORK/UserRegistration.sol\":3087:3206  function isUserRegistered(address _user) external view returns (bool) {... */\n    tag_10:\n        /* \"FINAL_YEAR_PROJECT_WORK/UserRegistration.sol\":3151:3155  bool */\n      0x00\n        /* \"FINAL_YEAR_PROJECT_WORK/UserRegistration.sol\":3174:3179  users */\n      dup1\n        /* \"FINAL_YEAR_PROJECT_WORK/UserRegistration.sol\":3174:3186  users[_user] */\n      0x00\n        /* \"FINAL_YEAR_PROJECT_WORK/UserRegistration.sol\":3180:3185  _user */\n      dup4\n        /* \"FINAL_YEAR_PROJECT_WORK/UserRegistration.sol\":3174:3186  users[_user] */\n      0xffffffffffffffffffffffffffffffffffffffff\n      and\n      0xffffffffffffffffffffffffffffffffffffffff\n      and\n      dup2\n      mstore\n      0x20\n      add\n      swap1\n      dup2\n      mstore\n      0x20\n      add\n      0x00\n      keccak256\n        /* \"FINAL_YEAR_PROJECT_WORK/UserRegistration.sol\":3174:3199  users[_user].isRegistered */\n      0x02\n      add\n      0x00\n      swap1\n      sload\n      swap1\n      0x0100\n      exp\n      swap1\n      div\n      0xff\n      and\n        /* \"FINAL_YEAR_PROJECT_WORK/UserRegistration.sol\":3167:3199  return users[_user].isRegistered */\n      swap1\n      pop\n        /* \"FINAL_YEAR_PROJECT_WORK/UserRegistration.sol\":3087:3206  function isUserRegistered(address _user) external view returns (bool) {... */\n      swap2\n      swap1\n      pop\n      jump\t// out\n        /* \"FINAL_YEAR_PROJECT_WORK/UserRegistration.sol\":2111:2384  function updateInterests(string[] memory _newInterests) external onlyRegisteredUser {... */\n    tag_16:\n        /* \"FINAL_YEAR_PROJECT_WORK/UserRegistration.sol\":1233:1238  users */\n      0x00\n        /* \"FINAL_YEAR_PROJECT_WORK/UserRegistration.sol\":1233:1250  users[msg.sender] */\n      dup1\n        /* \"FINAL_YEAR_PROJECT_WORK/UserRegistration.sol\":1239:1249  msg.sender */\n      caller\n        /* \"FINAL_YEAR_PROJECT_WORK/UserRegistration.sol\":1233:1250  users[msg.sender] */\n      0xffffffffffffffffffffffffffffffffffffffff\n      and\n      0xffffffffffffffffffffffffffffffffffffffff\n      and\n      dup2\n      mstore\n      0x20\n      add\n      swap1\n      dup2\n      mstore\n      0x20\n      add\n      0x00\n      keccak256\n        /* \"FINAL_YEAR_PROJECT_WORK/UserRegistration.sol\":1233:1263  users[msg.sender].isRegistered */\n      0x02\n      add\n      0x00\n      swap1\n      sload\n      swap1\n      0x0100\n      exp\n      swap1\n      div\n      0xff\n      and\n        /* \"FINAL_YEAR_PROJECT_WORK/UserRegistration.sol\":1228:1291  if (!users[msg.sender].isRegistered) revert UserNotRegistered() */\n      tag_28\n      jumpi\n        /* \"FINAL_YEAR_PROJECT_WORK/UserRegistration.sol\":1272:1291  UserNotRegistered() */\n      mload(0x40)\n      0x2163950f00000000000000000000000000000000000000000000000000000000\n      dup2\n      mstore\n      0x04\n      add\n      mload(0x40)\n      dup1\n      swap2\n      sub\n      swap1\n      revert\n        /* \"FINAL_YEAR_PROJECT_WORK/UserRegistration.sol\":1228:1291  if (!users[msg.sender].isRegistered) revert UserNotRegistered() */\n    tag_28:\n        /* \"FINAL_YEAR_PROJECT_WORK/UserRegistration.sol\":2233:2234  0 */\n      0x00\n        /* \"FINAL_YEAR_PROJECT_WORK/UserRegistration.sol\":2209:2222  _newInterests */\n      dup2\n        /* \"FINAL_YEAR_PROJECT_WORK/UserRegistration.sol\":2209:2229  _newInterests.length */\n      mload\n        /* \"FINAL_YEAR_PROJECT_WORK/UserRegistration.sol\":2209:2234  _newInterests.length == 0 */\n      sub\n        /* \"FINAL_YEAR_PROJECT_WORK/UserRegistration.sol\":2205:2264  if (_newInterests.length == 0) revert NoInterestsProvided() */\n      tag_30\n      jumpi\n        /* \"FINAL_YEAR_PROJECT_WORK/UserRegistration.sol\":2243:2264  NoInterestsProvided() */\n      mload(0x40)\n      0x99d6f6dc00000000000000000000000000000000000000000000000000000000\n      dup2\n      mstore\n      0x04\n      add\n      mload(0x40)\n      dup1\n      swap2\n      sub\n      swap1\n      revert\n        /* \"FINAL_YEAR_PROJECT_WORK/UserRegistration.sol\":2205:2264  if (_newInterests.length == 0) revert NoInterestsProvided() */\n    tag_30:\n        /* \"FINAL_YEAR_PROJECT_WORK/UserRegistration.sol\":2305:2318  _newInterests */\n      dup1\n        /* \"FINAL_YEAR_PROJECT_WORK/UserRegistration.sol\":2275:2280  users */\n      0x00\n        /* \"FINAL_YEAR_PROJECT_WORK/UserRegistration.sol\":2275:2292  users[msg.sender] */\n      dup1\n        /* \"FINAL_YEAR_PROJECT_WORK/UserRegistration.sol\":2281:2291  msg.sender */\n      caller\n        /* \"FINAL_YEAR_PROJECT_WORK/UserRegistration.sol\":2275:2292  users[msg.sender] */\n      0xffffffffffffffffffffffffffffffffffffffff\n      and\n      0xffffffffffffffffffffffffffffffffffffffff\n      and\n      dup2\n      mstore\n      0x20\n      add\n      swap1\n      dup2\n      mstore\n      0x20\n      add\n      0x00\n      keccak256\n        /* \"FINAL_YEAR_PROJECT_WORK/UserRegistration.sol\":2275:2302  users[msg.sender].interests */\n      0x01\n      add\n        /* \"FINAL_YEAR_PROJECT_WORK/UserRegistration.sol\":2275:2318  users[msg.sender].interests = _newInterests */\n      swap1\n      dup1\n      mload\n      swap1\n      0x20\n      add\n      swap1\n      tag_31\n      swap3\n      swap2\n      swap1\n      tag_32\n      jump\t// in\n    tag_31:\n      pop\n        /* \"FINAL_YEAR_PROJECT_WORK/UserRegistration.sol\":2351:2361  msg.sender */\n      caller\n        /* \"FINAL_YEAR_PROJECT_WORK/UserRegistration.sol\":2334:2377  InterestsUpdated(msg.sender, _newInterests) */\n      0xffffffffffffffffffffffffffffffffffffffff\n      and\n      0x82836018d98e43d68f86ca5d3323435ae9e83d18b33ebfd1d579cd6002882247\n        /* \"FINAL_YEAR_PROJECT_WORK/UserRegistration.sol\":2363:2376  _newInterests */\n      dup3\n        /* \"FINAL_YEAR_PROJECT_WORK/UserRegistration.sol\":2334:2377  InterestsUpdated(msg.sender, _newInterests) */\n      mload(0x40)\n      tag_33\n      swap2\n      swap1\n      tag_34\n      jump\t// in\n    tag_33:\n      mload(0x40)\n      dup1\n      swap2\n      sub\n      swap1\n      log2\n        /* \"FINAL_YEAR_PROJECT_WORK/UserRegistration.sol\":2111:2384  function updateInterests(string[] memory _newInterests) external onlyRegisteredUser {... */\n      pop\n      jump\t// out\n        /* \"FINAL_YEAR_PROJECT_WORK/UserRegistration.sol\":2629:2907  function getUserDetails(address _user) external view returns (string memory username, string[] memory interests) {... */\n    tag_19:\n        /* \"FINAL_YEAR_PROJECT_WORK/UserRegistration.sol\":2691:2713  string memory username */\n      0x60\n        /* \"FINAL_YEAR_PROJECT_WORK/UserRegistration.sol\":2715:2740  string[] memory interests */\n      dup1\n        /* \"FINAL_YEAR_PROJECT_WORK/UserRegistration.sol\":2757:2762  users */\n      0x00\n        /* \"FINAL_YEAR_PROJECT_WORK/UserRegistration.sol\":2757:2769  users[_user] */\n      dup1\n        /* \"FINAL_YEAR_PROJECT_WORK/UserRegistration.sol\":2763:2768  _user */\n      dup5\n        /* \"FINAL_YEAR_PROJECT_WORK/UserRegistration.sol\":2757:2769  users[_user] */\n      0xffffffffffffffffffffffffffffffffffffffff\n      and\n      0xffffffffffffffffffffffffffffffffffffffff\n      and\n      dup2\n      mstore\n      0x20\n      add\n      swap1\n      dup2\n      mstore\n      0x20\n      add\n      0x00\n      keccak256\n        /* \"FINAL_YEAR_PROJECT_WORK/UserRegistration.sol\":2757:2782  users[_user].isRegistered */\n      0x02\n      add\n      0x00\n      swap1\n      sload\n      swap1\n      0x0100\n      exp\n      swap1\n      div\n      0xff\n      and\n        /* \"FINAL_YEAR_PROJECT_WORK/UserRegistration.sol\":2752:2810  if (!users[_user].isRegistered) revert UserNotRegistered() */\n      tag_36\n      jumpi\n        /* \"FINAL_YEAR_PROJECT_WORK/UserRegistration.sol\":2791:2810  UserNotRegistered() */\n      mload(0x40)\n      0x2163950f00000000000000000000000000000000000000000000000000000000\n      dup2\n      mstore\n      0x04\n      add\n      mload(0x40)\n      dup1\n      swap2\n      sub\n      swap1\n      revert\n        /* \"FINAL_YEAR_PROJECT_WORK/UserRegistration.sol\":2752:2810  if (!users[_user].isRegistered) revert UserNotRegistered() */\n    tag_36:\n        /* \"FINAL_YEAR_PROJECT_WORK/UserRegistration.sol\":2820:2837  User storage user */\n      0x00\n        /* \"FINAL_YEAR_PROJECT_WORK/UserRegistration.sol\":2840:2845  users */\n      dup1\n        /* \"FINAL_YEAR_PROJECT_WORK/UserRegistration.sol\":2840:2852  users[_user] */\n      0x00\n        /* \"FINAL_YEAR_PROJECT_WORK/UserRegistration.sol\":2846:2851  _user */\n      dup6\n        /* \"FINAL_YEAR_PROJECT_WORK/UserRegistration.sol\":2840:2852  users[_user] */\n      0xffffffffffffffffffffffffffffffffffffffff\n      and\n      0xffffffffffffffffffffffffffffffffffffffff\n      and\n      dup2\n      mstore\n      0x20\n      add\n      swap1\n      dup2\n      mstore\n      0x20\n      add\n      0x00\n      keccak256\n        /* \"FINAL_YEAR_PROJECT_WORK/UserRegistration.sol\":2820:2852  User storage user = users[_user] */\n      swap1\n      pop\n        /* \"FINAL_YEAR_PROJECT_WORK/UserRegistration.sol\":2870:2874  user */\n      dup1\n        /* \"FINAL_YEAR_PROJECT_WORK/UserRegistration.sol\":2870:2883  user.username */\n      0x00\n      add\n        /* \"FINAL_YEAR_PROJECT_WORK/UserRegistration.sol\":2885:2889  user */\n      dup2\n        /* \"FINAL_YEAR_PROJECT_WORK/UserRegistration.sol\":2885:2899  user.interests */\n      0x01\n      add\n        /* \"FINAL_YEAR_PROJECT_WORK/UserRegistration.sol\":2862:2900  return (user.username, user.interests) */\n      dup2\n      dup1\n      sload\n      tag_37\n      swap1\n      tag_38\n      jump\t// in\n    tag_37:\n      dup1\n      0x1f\n      add\n      0x20\n      dup1\n      swap2\n      div\n      mul\n      0x20\n      add\n      mload(0x40)\n      swap1\n      dup2\n      add\n      0x40\n      mstore\n      dup1\n      swap3\n      swap2\n      swap1\n      dup2\n      dup2\n      mstore\n      0x20\n      add\n      dup3\n      dup1\n      sload\n      tag_39\n      swap1\n      tag_38\n      jump\t// in\n    tag_39:\n      dup1\n      iszero\n      tag_40\n      jumpi\n      dup1\n      0x1f\n      lt\n      tag_41\n      jumpi\n      0x0100\n      dup1\n      dup4\n      sload\n      div\n      mul\n      dup4\n      mstore\n      swap2\n      0x20\n      add\n      swap2\n      jump(tag_40)\n    tag_41:\n      dup3\n      add\n      swap2\n      swap1\n      0x00\n      mstore\n      keccak256(0x00, 0x20)\n      swap1\n    tag_42:\n      dup2\n      sload\n      dup2\n      mstore\n      swap1\n      0x01\n      add\n      swap1\n      0x20\n      add\n      dup1\n      dup4\n      gt\n      tag_42\n      jumpi\n      dup3\n      swap1\n      sub\n      0x1f\n      and\n      dup3\n      add\n      swap2\n    tag_40:\n      pop\n      pop\n      pop\n      pop\n      pop\n      swap2\n      pop\n      dup1\n      dup1\n      sload\n      dup1\n      0x20\n      mul\n      0x20\n      add\n      mload(0x40)\n      swap1\n      dup2\n      add\n      0x40\n      mstore\n      dup1\n      swap3\n      swap2\n      swap1\n      dup2\n      dup2\n      mstore\n      0x20\n      add\n      0x00\n      swap1\n    tag_43:\n      dup3\n      dup3\n      lt\n      iszero\n      tag_44\n      jumpi\n      dup4\n      dup3\n      swap1\n      0x00\n      mstore\n      keccak256(0x00, 0x20)\n      add\n      dup1\n      sload\n      tag_46\n      swap1\n      tag_38\n      jump\t// in\n    tag_46:\n      dup1\n      0x1f\n      add\n      0x20\n      dup1\n      swap2\n      div\n      mul\n      0x20\n      add\n      mload(0x40)\n      swap1\n      dup2\n      add\n      0x40\n      mstore\n      dup1\n      swap3\n      swap2\n      swap1\n      dup2\n      dup2\n      mstore\n      0x20\n      add\n      dup3\n      dup1\n      sload\n      tag_47\n      swap1\n      tag_38\n      jump\t// in\n    tag_47:\n      dup1\n      iszero\n      tag_48\n      jumpi\n      dup1\n      0x1f\n      lt\n      tag_49\n      jumpi\n      0x0100\n      dup1\n      dup4\n      sload\n      div\n      mul\n      dup4\n      mstore\n      swap2\n      0x20\n      add\n      swap2\n      jump(tag_48)\n    tag_49:\n      dup3\n      add\n      swap2\n      swap1\n      0x00\n      mstore\n      keccak256(0x00, 0x20)\n      swap1\n    tag_50:\n      dup2\n      sload\n      dup2\n      mstore\n      swap1\n      0x01\n      add\n      swap1\n      0x20\n      add\n      dup1\n      dup4\n      gt\n      tag_50\n      jumpi\n      dup3\n      swap1\n      sub\n      0x1f\n      and\n      dup3\n      add\n      swap2\n    tag_48:\n      pop\n      pop\n      pop\n      pop\n      pop\n      dup2\n      mstore\n      0x20\n      add\n      swap1\n      0x01\n      add\n      swap1\n      jump(tag_43)\n    tag_44:\n      pop\n      pop\n      pop\n      pop\n      swap1\n      pop\n      swap3\n      pop\n      swap3\n      pop\n      pop\n        /* \"FINAL_YEAR_PROJECT_WORK/UserRegistration.sol\":2629:2907  function getUserDetails(address _user) external view returns (string memory username, string[] memory interests) {... */\n      swap2\n      pop\n      swap2\n      jump\t// out\n        /* \"FINAL_YEAR_PROJECT_WORK/UserRegistration.sol\":1521:1951  function registerUser(string memory _username, string[] memory _interests) external {... */\n    tag_25:\n        /* \"FINAL_YEAR_PROJECT_WORK/UserRegistration.sol\":1619:1624  users */\n      0x00\n        /* \"FINAL_YEAR_PROJECT_WORK/UserRegistration.sol\":1619:1636  users[msg.sender] */\n      dup1\n        /* \"FINAL_YEAR_PROJECT_WORK/UserRegistration.sol\":1625:1635  msg.sender */\n      caller\n        /* \"FINAL_YEAR_PROJECT_WORK/UserRegistration.sol\":1619:1636  users[msg.sender] */\n      0xffffffffffffffffffffffffffffffffffffffff\n      and\n      0xffffffffffffffffffffffffffffffffffffffff\n      and\n      dup2\n      mstore\n      0x20\n      add\n      swap1\n      dup2\n      mstore\n      0x20\n      add\n      0x00\n      keccak256\n        /* \"FINAL_YEAR_PROJECT_WORK/UserRegistration.sol\":1619:1649  users[msg.sender].isRegistered */\n      0x02\n      add\n      0x00\n      swap1\n      sload\n      swap1\n      0x0100\n      exp\n      swap1\n      div\n      0xff\n      and\n        /* \"FINAL_YEAR_PROJECT_WORK/UserRegistration.sol\":1615:1681  if (users[msg.sender].isRegistered) revert UserAlreadyRegistered() */\n      iszero\n      tag_52\n      jumpi\n        /* \"FINAL_YEAR_PROJECT_WORK/UserRegistration.sol\":1658:1681  UserAlreadyRegistered() */\n      mload(0x40)\n      0x9e4a65f600000000000000000000000000000000000000000000000000000000\n      dup2\n      mstore\n      0x04\n      add\n      mload(0x40)\n      dup1\n      swap2\n      sub\n      swap1\n      revert\n        /* \"FINAL_YEAR_PROJECT_WORK/UserRegistration.sol\":1615:1681  if (users[msg.sender].isRegistered) revert UserAlreadyRegistered() */\n    tag_52:\n        /* \"FINAL_YEAR_PROJECT_WORK/UserRegistration.sol\":1722:1723  0 */\n      0x00\n        /* \"FINAL_YEAR_PROJECT_WORK/UserRegistration.sol\":1701:1710  _username */\n      dup3\n        /* \"FINAL_YEAR_PROJECT_WORK/UserRegistration.sol\":1695:1718  bytes(_username).length */\n      mload\n        /* \"FINAL_YEAR_PROJECT_WORK/UserRegistration.sol\":1695:1723  bytes(_username).length == 0 */\n      sub\n        /* \"FINAL_YEAR_PROJECT_WORK/UserRegistration.sol\":1691:1749  if (bytes(_username).length == 0) revert InvalidUsername() */\n      tag_53\n      jumpi\n        /* \"FINAL_YEAR_PROJECT_WORK/UserRegistration.sol\":1732:1749  InvalidUsername() */\n      mload(0x40)\n      0x50ef328800000000000000000000000000000000000000000000000000000000\n      dup2\n      mstore\n      0x04\n      add\n      mload(0x40)\n      dup1\n      swap2\n      sub\n      swap1\n      revert\n        /* \"FINAL_YEAR_PROJECT_WORK/UserRegistration.sol\":1691:1749  if (bytes(_username).length == 0) revert InvalidUsername() */\n    tag_53:\n        /* \"FINAL_YEAR_PROJECT_WORK/UserRegistration.sol\":1784:1785  0 */\n      0x00\n        /* \"FINAL_YEAR_PROJECT_WORK/UserRegistration.sol\":1763:1773  _interests */\n      dup2\n        /* \"FINAL_YEAR_PROJECT_WORK/UserRegistration.sol\":1763:1780  _interests.length */\n      mload\n        /* \"FINAL_YEAR_PROJECT_WORK/UserRegistration.sol\":1763:1785  _interests.length == 0 */\n      sub\n        /* \"FINAL_YEAR_PROJECT_WORK/UserRegistration.sol\":1759:1815  if (_interests.length == 0) revert NoInterestsProvided() */\n      tag_54\n      jumpi\n        /* \"FINAL_YEAR_PROJECT_WORK/UserRegistration.sol\":1794:1815  NoInterestsProvided() */\n      mload(0x40)\n      0x99d6f6dc00000000000000000000000000000000000000000000000000000000\n      dup2\n      mstore\n      0x04\n      add\n      mload(0x40)\n      dup1\n      swap2\n      sub\n      swap1\n      revert\n        /* \"FINAL_YEAR_PROJECT_WORK/UserRegistration.sol\":1759:1815  if (_interests.length == 0) revert NoInterestsProvided() */\n    tag_54:\n        /* \"FINAL_YEAR_PROJECT_WORK/UserRegistration.sol\":1846:1879  User(_username, _interests, true) */\n      mload(0x40)\n      dup1\n      0x60\n      add\n      0x40\n      mstore\n      dup1\n        /* \"FINAL_YEAR_PROJECT_WORK/UserRegistration.sol\":1851:1860  _username */\n      dup4\n        /* \"FINAL_YEAR_PROJECT_WORK/UserRegistration.sol\":1846:1879  User(_username, _interests, true) */\n      dup2\n      mstore\n      0x20\n      add\n        /* \"FINAL_YEAR_PROJECT_WORK/UserRegistration.sol\":1862:1872  _interests */\n      dup3\n        /* \"FINAL_YEAR_PROJECT_WORK/UserRegistration.sol\":1846:1879  User(_username, _interests, true) */\n      dup2\n      mstore\n      0x20\n      add\n        /* \"FINAL_YEAR_PROJECT_WORK/UserRegistration.sol\":1874:1878  true */\n      0x01\n        /* \"FINAL_YEAR_PROJECT_WORK/UserRegistration.sol\":1846:1879  User(_username, _interests, true) */\n      iszero\n      iszero\n      dup2\n      mstore\n      pop\n        /* \"FINAL_YEAR_PROJECT_WORK/UserRegistration.sol\":1826:1831  users */\n      0x00\n        /* \"FINAL_YEAR_PROJECT_WORK/UserRegistration.sol\":1826:1843  users[msg.sender] */\n      dup1\n        /* \"FINAL_YEAR_PROJECT_WORK/UserRegistration.sol\":1832:1842  msg.sender */\n      caller\n        /* \"FINAL_YEAR_PROJECT_WORK/UserRegistration.sol\":1826:1843  users[msg.sender] */\n      0xffffffffffffffffffffffffffffffffffffffff\n      and\n      0xffffffffffffffffffffffffffffffffffffffff\n      and\n      dup2\n      mstore\n      0x20\n      add\n      swap1\n      dup2\n      mstore\n      0x20\n      add\n      0x00\n      keccak256\n        /* \"FINAL_YEAR_PROJECT_WORK/UserRegistration.sol\":1826:1879  users[msg.sender] = User(_username, _interests, true) */\n      0x00\n      dup3\n      add\n      mload\n      dup2\n      0x00\n      add\n      swap1\n      dup2\n      tag_55\n      swap2\n      swap1\n      tag_56\n      jump\t// in\n    tag_55:\n      pop\n      0x20\n      dup3\n      add\n      mload\n      dup2\n      0x01\n      add\n      swap1\n      dup1\n      mload\n      swap1\n      0x20\n      add\n      swap1\n      tag_57\n      swap3\n      swap2\n      swap1\n      tag_32\n      jump\t// in\n    tag_57:\n      pop\n      0x40\n      dup3\n      add\n      mload\n      dup2\n      0x02\n      add\n      exp(0x0100, 0x00)\n      dup2\n      sload\n      dup2\n      0xff\n      mul\n      not\n      and\n      swap1\n      dup4\n      iszero\n      iszero\n      mul\n      or\n      swap1\n      sstore\n      pop\n      swap1\n      pop\n      pop\n        /* \"FINAL_YEAR_PROJECT_WORK/UserRegistration.sol\":1910:1920  msg.sender */\n      caller\n        /* \"FINAL_YEAR_PROJECT_WORK/UserRegistration.sol\":1895:1944  UserRegistered(msg.sender, _username, _interests) */\n      0xffffffffffffffffffffffffffffffffffffffff\n      and\n      0xa829c8622530f92e2b272cea9a11acaf81bbd6fb95ac0e5ec4af90790f7db6cb\n        /* \"FINAL_YEAR_PROJECT_WORK/UserRegistration.sol\":1922:1931  _username */\n      dup4\n        /* \"FINAL_YEAR_PROJECT_WORK/UserRegistration.sol\":1933:1943  _interests */\n      dup4\n        /* \"FINAL_YEAR_PROJECT_WORK/UserRegistration.sol\":1895:1944  UserRegistered(msg.sender, _username, _interests) */\n      mload(0x40)\n      tag_58\n      swap3\n      swap2\n      swap1\n      tag_21\n      jump\t// in\n    tag_58:\n      mload(0x40)\n      dup1\n      swap2\n      sub\n      swap1\n      log2\n        /* \"FINAL_YEAR_PROJECT_WORK/UserRegistration.sol\":1521:1951  function registerUser(string memory _username, string[] memory _interests) external {... */\n      pop\n      pop\n      jump\t// out\n    tag_32:\n      dup3\n      dup1\n      sload\n      dup3\n      dup3\n      sstore\n      swap1\n      0x00\n      mstore\n      keccak256(0x00, 0x20)\n      swap1\n      dup2\n      add\n      swap3\n      dup3\n      iszero\n      tag_59\n      jumpi\n      swap2\n      0x20\n      mul\n      dup3\n      add\n    tag_60:\n      dup3\n      dup2\n      gt\n      iszero\n      tag_61\n      jumpi\n      dup3\n      mload\n      dup3\n      swap1\n      dup2\n      tag_62\n      swap2\n      swap1\n      tag_56\n      jump\t// in\n    tag_62:\n      pop\n      swap2\n      0x20\n      add\n      swap2\n      swap1\n      0x01\n      add\n      swap1\n      jump(tag_60)\n    tag_61:\n    tag_59:\n      pop\n      swap1\n      pop\n      tag_63\n      swap2\n      swap1\n      tag_64\n      jump\t// in\n    tag_63:\n      pop\n      swap1\n      jump\t// out\n    tag_64:\n    tag_65:\n      dup1\n      dup3\n      gt\n      iszero\n      tag_66\n      jumpi\n      0x00\n      dup2\n      dup2\n      tag_67\n      swap2\n      swap1\n      tag_68\n      jump\t// in\n    tag_67:\n      pop\n      0x01\n      add\n      jump(tag_65)\n    tag_66:\n      pop\n      swap1\n      jump\t// out\n    tag_68:\n      pop\n      dup1\n      sload\n      tag_69\n      swap1\n      tag_38\n      jump\t// in\n    tag_69:\n      0x00\n      dup3\n      sstore\n      dup1\n      0x1f\n      lt\n      tag_71\n      jumpi\n      pop\n      jump(tag_70)\n    tag_71:\n      0x1f\n      add\n      0x20\n      swap1\n      div\n      swap1\n      0x00\n      mstore\n      keccak256(0x00, 0x20)\n      swap1\n      dup2\n      add\n      swap1\n      tag_72\n      swap2\n      swap1\n      tag_73\n      jump\t// in\n    tag_72:\n    tag_70:\n      pop\n      jump\t// out\n    tag_73:\n    tag_74:\n      dup1\n      dup3\n      gt\n      iszero\n      tag_75\n      jumpi\n      0x00\n      dup2\n      0x00\n      swap1\n      sstore\n      pop\n      0x01\n      add\n      jump(tag_74)\n    tag_75:\n      pop\n      swap1\n      jump\t// out\n        /* \"#utility.yul\":7:82   */\n    tag_76:\n        /* \"#utility.yul\":40:46   */\n      0x00\n        /* \"#utility.yul\":73:75   */\n      0x40\n        /* \"#utility.yul\":67:76   */\n      mload\n        /* \"#utility.yul\":57:76   */\n      swap1\n      pop\n        /* \"#utility.yul\":7:82   */\n      swap1\n      jump\t// out\n        /* \"#utility.yul\":88:205   */\n    tag_77:\n        /* \"#utility.yul\":197:198   */\n      0x00\n        /* \"#utility.yul\":194:195   */\n      dup1\n        /* \"#utility.yul\":187:199   */\n      revert\n        /* \"#utility.yul\":211:328   */\n    tag_78:\n        /* \"#utility.yul\":320:321   */\n      0x00\n        /* \"#utility.yul\":317:318   */\n      dup1\n        /* \"#utility.yul\":310:322   */\n      revert\n        /* \"#utility.yul\":334:460   */\n    tag_79:\n        /* \"#utility.yul\":371:378   */\n      0x00\n        /* \"#utility.yul\":411:453   */\n      0xffffffffffffffffffffffffffffffffffffffff\n        /* \"#utility.yul\":404:409   */\n      dup3\n        /* \"#utility.yul\":400:454   */\n      and\n        /* \"#utility.yul\":389:454   */\n      swap1\n      pop\n        /* \"#utility.yul\":334:460   */\n      swap2\n      swap1\n      pop\n      jump\t// out\n        /* \"#utility.yul\":466:562   */\n    tag_80:\n        /* \"#utility.yul\":503:510   */\n      0x00\n        /* \"#utility.yul\":532:556   */\n      tag_134\n        /* \"#utility.yul\":550:555   */\n      dup3\n        /* \"#utility.yul\":532:556   */\n      tag_79\n      jump\t// in\n    tag_134:\n        /* \"#utility.yul\":521:556   */\n      swap1\n      pop\n        /* \"#utility.yul\":466:562   */\n      swap2\n      swap1\n      pop\n      jump\t// out\n        /* \"#utility.yul\":568:690   */\n    tag_81:\n        /* \"#utility.yul\":641:665   */\n      tag_136\n        /* \"#utility.yul\":659:664   */\n      dup2\n        /* \"#utility.yul\":641:665   */\n      tag_80\n      jump\t// in\n    tag_136:\n        /* \"#utility.yul\":634:639   */\n      dup2\n        /* \"#utility.yul\":631:666   */\n      eq\n        /* \"#utility.yul\":621:684   */\n      tag_137\n      jumpi\n        /* \"#utility.yul\":680:681   */\n      0x00\n        /* \"#utility.yul\":677:678   */\n      dup1\n        /* \"#utility.yul\":670:682   */\n      revert\n        /* \"#utility.yul\":621:684   */\n    tag_137:\n        /* \"#utility.yul\":568:690   */\n      pop\n      jump\t// out\n        /* \"#utility.yul\":696:835   */\n    tag_82:\n        /* \"#utility.yul\":742:747   */\n      0x00\n        /* \"#utility.yul\":780:786   */\n      dup2\n        /* \"#utility.yul\":767:787   */\n      calldataload\n        /* \"#utility.yul\":758:787   */\n      swap1\n      pop\n        /* \"#utility.yul\":796:829   */\n      tag_139\n        /* \"#utility.yul\":823:828   */\n      dup2\n        /* \"#utility.yul\":796:829   */\n      tag_81\n      jump\t// in\n    tag_139:\n        /* \"#utility.yul\":696:835   */\n      swap3\n      swap2\n      pop\n      pop\n      jump\t// out\n        /* \"#utility.yul\":841:1170   */\n    tag_9:\n        /* \"#utility.yul\":900:906   */\n      0x00\n        /* \"#utility.yul\":949:951   */\n      0x20\n        /* \"#utility.yul\":937:946   */\n      dup3\n        /* \"#utility.yul\":928:935   */\n      dup5\n        /* \"#utility.yul\":924:947   */\n      sub\n        /* \"#utility.yul\":920:952   */\n      slt\n        /* \"#utility.yul\":917:1036   */\n      iszero\n      tag_141\n      jumpi\n        /* \"#utility.yul\":955:1034   */\n      tag_142\n      tag_77\n      jump\t// in\n    tag_142:\n        /* \"#utility.yul\":917:1036   */\n    tag_141:\n        /* \"#utility.yul\":1075:1076   */\n      0x00\n        /* \"#utility.yul\":1100:1153   */\n      tag_143\n        /* \"#utility.yul\":1145:1152   */\n      dup5\n        /* \"#utility.yul\":1136:1142   */\n      dup3\n        /* \"#utility.yul\":1125:1134   */\n      dup6\n        /* \"#utility.yul\":1121:1143   */\n      add\n        /* \"#utility.yul\":1100:1153   */\n      tag_82\n      jump\t// in\n    tag_143:\n        /* \"#utility.yul\":1090:1153   */\n      swap2\n      pop\n        /* \"#utility.yul\":1046:1163   */\n      pop\n        /* \"#utility.yul\":841:1170   */\n      swap3\n      swap2\n      pop\n      pop\n      jump\t// out\n        /* \"#utility.yul\":1176:1266   */\n    tag_83:\n        /* \"#utility.yul\":1210:1217   */\n      0x00\n        /* \"#utility.yul\":1253:1258   */\n      dup2\n        /* \"#utility.yul\":1246:1259   */\n      iszero\n        /* \"#utility.yul\":1239:1260   */\n      iszero\n        /* \"#utility.yul\":1228:1260   */\n      swap1\n      pop\n        /* \"#utility.yul\":1176:1266   */\n      swap2\n      swap1\n      pop\n      jump\t// out\n        /* \"#utility.yul\":1272:1381   */\n    tag_84:\n        /* \"#utility.yul\":1353:1374   */\n      tag_146\n        /* \"#utility.yul\":1368:1373   */\n      dup2\n        /* \"#utility.yul\":1353:1374   */\n      tag_83\n      jump\t// in\n    tag_146:\n        /* \"#utility.yul\":1348:1351   */\n      dup3\n        /* \"#utility.yul\":1341:1375   */\n      mstore\n        /* \"#utility.yul\":1272:1381   */\n      pop\n      pop\n      jump\t// out\n        /* \"#utility.yul\":1387:1597   */\n    tag_12:\n        /* \"#utility.yul\":1474:1478   */\n      0x00\n        /* \"#utility.yul\":1512:1514   */\n      0x20\n        /* \"#utility.yul\":1501:1510   */\n      dup3\n        /* \"#utility.yul\":1497:1515   */\n      add\n        /* \"#utility.yul\":1489:1515   */\n      swap1\n      pop\n        /* \"#utility.yul\":1525:1590   */\n      tag_148\n        /* \"#utility.yul\":1587:1588   */\n      0x00\n        /* \"#utility.yul\":1576:1585   */\n      dup4\n        /* \"#utility.yul\":1572:1589   */\n      add\n        /* \"#utility.yul\":1563:1569   */\n      dup5\n        /* \"#utility.yul\":1525:1590   */\n      tag_84\n      jump\t// in\n    tag_148:\n        /* \"#utility.yul\":1387:1597   */\n      swap3\n      swap2\n      pop\n      pop\n      jump\t// out\n        /* \"#utility.yul\":1603:1720   */\n    tag_85:\n        /* \"#utility.yul\":1712:1713   */\n      0x00\n        /* \"#utility.yul\":1709:1710   */\n      dup1\n        /* \"#utility.yul\":1702:1714   */\n      revert\n        /* \"#utility.yul\":1726:1828   */\n    tag_86:\n        /* \"#utility.yul\":1767:1773   */\n      0x00\n        /* \"#utility.yul\":1818:1820   */\n      0x1f\n        /* \"#utility.yul\":1814:1821   */\n      not\n        /* \"#utility.yul\":1809:1811   */\n      0x1f\n        /* \"#utility.yul\":1802:1807   */\n      dup4\n        /* \"#utility.yul\":1798:1812   */\n      add\n        /* \"#utility.yul\":1794:1822   */\n      and\n        /* \"#utility.yul\":1784:1822   */\n      swap1\n      pop\n        /* \"#utility.yul\":1726:1828   */\n      swap2\n      swap1\n      pop\n      jump\t// out\n        /* \"#utility.yul\":1834:2014   */\n    tag_87:\n        /* \"#utility.yul\":1882:1959   */\n      0x4e487b7100000000000000000000000000000000000000000000000000000000\n        /* \"#utility.yul\":1879:1880   */\n      0x00\n        /* \"#utility.yul\":1872:1960   */\n      mstore\n        /* \"#utility.yul\":1979:1983   */\n      0x41\n        /* \"#utility.yul\":1976:1977   */\n      0x04\n        /* \"#utility.yul\":1969:1984   */\n      mstore\n        /* \"#utility.yul\":2003:2007   */\n      0x24\n        /* \"#utility.yul\":2000:2001   */\n      0x00\n        /* \"#utility.yul\":1993:2008   */\n      revert\n        /* \"#utility.yul\":2020:2301   */\n    tag_88:\n        /* \"#utility.yul\":2103:2130   */\n      tag_153\n        /* \"#utility.yul\":2125:2129   */\n      dup3\n        /* \"#utility.yul\":2103:2130   */\n      tag_86\n      jump\t// in\n    tag_153:\n        /* \"#utility.yul\":2095:2101   */\n      dup2\n        /* \"#utility.yul\":2091:2131   */\n      add\n        /* \"#utility.yul\":2233:2239   */\n      dup2\n        /* \"#utility.yul\":2221:2231   */\n      dup2\n        /* \"#utility.yul\":2218:2240   */\n      lt\n        /* \"#utility.yul\":2197:2215   */\n      0xffffffffffffffff\n        /* \"#utility.yul\":2185:2195   */\n      dup3\n        /* \"#utility.yul\":2182:2216   */\n      gt\n        /* \"#utility.yul\":2179:2241   */\n      or\n        /* \"#utility.yul\":2176:2264   */\n      iszero\n      tag_154\n      jumpi\n        /* \"#utility.yul\":2244:2262   */\n      tag_155\n      tag_87\n      jump\t// in\n    tag_155:\n        /* \"#utility.yul\":2176:2264   */\n    tag_154:\n        /* \"#utility.yul\":2284:2294   */\n      dup1\n        /* \"#utility.yul\":2280:2282   */\n      0x40\n        /* \"#utility.yul\":2273:2295   */\n      mstore\n        /* \"#utility.yul\":2063:2301   */\n      pop\n        /* \"#utility.yul\":2020:2301   */\n      pop\n      pop\n      jump\t// out\n        /* \"#utility.yul\":2307:2436   */\n    tag_89:\n        /* \"#utility.yul\":2341:2347   */\n      0x00\n        /* \"#utility.yul\":2368:2388   */\n      tag_157\n      tag_76\n      jump\t// in\n    tag_157:\n        /* \"#utility.yul\":2358:2388   */\n      swap1\n      pop\n        /* \"#utility.yul\":2397:2430   */\n      tag_158\n        /* \"#utility.yul\":2425:2429   */\n      dup3\n        /* \"#utility.yul\":2417:2423   */\n      dup3\n        /* \"#utility.yul\":2397:2430   */\n      tag_88\n      jump\t// in\n    tag_158:\n        /* \"#utility.yul\":2307:2436   */\n      swap2\n      swap1\n      pop\n      jump\t// out\n        /* \"#utility.yul\":2442:2763   */\n    tag_90:\n        /* \"#utility.yul\":2529:2533   */\n      0x00\n        /* \"#utility.yul\":2619:2637   */\n      0xffffffffffffffff\n        /* \"#utility.yul\":2611:2617   */\n      dup3\n        /* \"#utility.yul\":2608:2638   */\n      gt\n        /* \"#utility.yul\":2605:2661   */\n      iszero\n      tag_160\n      jumpi\n        /* \"#utility.yul\":2641:2659   */\n      tag_161\n      tag_87\n      jump\t// in\n    tag_161:\n        /* \"#utility.yul\":2605:2661   */\n    tag_160:\n        /* \"#utility.yul\":2691:2695   */\n      0x20\n        /* \"#utility.yul\":2683:2689   */\n      dup3\n        /* \"#utility.yul\":2679:2696   */\n      mul\n        /* \"#utility.yul\":2671:2696   */\n      swap1\n      pop\n        /* \"#utility.yul\":2751:2755   */\n      0x20\n        /* \"#utility.yul\":2745:2749   */\n      dup2\n        /* \"#utility.yul\":2741:2756   */\n      add\n        /* \"#utility.yul\":2733:2756   */\n      swap1\n      pop\n        /* \"#utility.yul\":2442:2763   */\n      swap2\n      swap1\n      pop\n      jump\t// out\n        /* \"#utility.yul\":2769:2886   */\n    tag_91:\n        /* \"#utility.yul\":2878:2879   */\n      0x00\n        /* \"#utility.yul\":2875:2876   */\n      dup1\n        /* \"#utility.yul\":2868:2880   */\n      revert\n        /* \"#utility.yul\":2892:3009   */\n    tag_92:\n        /* \"#utility.yul\":3001:3002   */\n      0x00\n        /* \"#utility.yul\":2998:2999   */\n      dup1\n        /* \"#utility.yul\":2991:3003   */\n      revert\n        /* \"#utility.yul\":3015:3323   */\n    tag_93:\n        /* \"#utility.yul\":3077:3081   */\n      0x00\n        /* \"#utility.yul\":3167:3185   */\n      0xffffffffffffffff\n        /* \"#utility.yul\":3159:3165   */\n      dup3\n        /* \"#utility.yul\":3156:3186   */\n      gt\n        /* \"#utility.yul\":3153:3209   */\n      iszero\n      tag_165\n      jumpi\n        /* \"#utility.yul\":3189:3207   */\n      tag_166\n      tag_87\n      jump\t// in\n    tag_166:\n        /* \"#utility.yul\":3153:3209   */\n    tag_165:\n        /* \"#utility.yul\":3227:3256   */\n      tag_167\n        /* \"#utility.yul\":3249:3255   */\n      dup3\n        /* \"#utility.yul\":3227:3256   */\n      tag_86\n      jump\t// in\n    tag_167:\n        /* \"#utility.yul\":3219:3256   */\n      swap1\n      pop\n        /* \"#utility.yul\":3311:3315   */\n      0x20\n        /* \"#utility.yul\":3305:3309   */\n      dup2\n        /* \"#utility.yul\":3301:3316   */\n      add\n        /* \"#utility.yul\":3293:3316   */\n      swap1\n      pop\n        /* \"#utility.yul\":3015:3323   */\n      swap2\n      swap1\n      pop\n      jump\t// out\n        /* \"#utility.yul\":3329:3477   */\n    tag_94:\n        /* \"#utility.yul\":3427:3433   */\n      dup3\n        /* \"#utility.yul\":3422:3425   */\n      dup2\n        /* \"#utility.yul\":3417:3420   */\n      dup4\n        /* \"#utility.yul\":3404:3434   */\n      calldatacopy\n        /* \"#utility.yul\":3468:3469   */\n      0x00\n        /* \"#utility.yul\":3459:3465   */\n      dup4\n        /* \"#utility.yul\":3454:3457   */\n      dup4\n        /* \"#utility.yul\":3450:3466   */\n      add\n        /* \"#utility.yul\":3443:3470   */\n      mstore\n        /* \"#utility.yul\":3329:3477   */\n      pop\n      pop\n      pop\n      jump\t// out\n        /* \"#utility.yul\":3483:3908   */\n    tag_95:\n        /* \"#utility.yul\":3561:3566   */\n      0x00\n        /* \"#utility.yul\":3586:3652   */\n      tag_170\n        /* \"#utility.yul\":3602:3651   */\n      tag_171\n        /* \"#utility.yul\":3644:3650   */\n      dup5\n        /* \"#utility.yul\":3602:3651   */\n      tag_93\n      jump\t// in\n    tag_171:\n        /* \"#utility.yul\":3586:3652   */\n      tag_89\n      jump\t// in\n    tag_170:\n        /* \"#utility.yul\":3577:3652   */\n      swap1\n      pop\n        /* \"#utility.yul\":3675:3681   */\n      dup3\n        /* \"#utility.yul\":3668:3673   */\n      dup2\n        /* \"#utility.yul\":3661:3682   */\n      mstore\n        /* \"#utility.yul\":3713:3717   */\n      0x20\n        /* \"#utility.yul\":3706:3711   */\n      dup2\n        /* \"#utility.yul\":3702:3718   */\n      add\n        /* \"#utility.yul\":3751:3754   */\n      dup5\n        /* \"#utility.yul\":3742:3748   */\n      dup5\n        /* \"#utility.yul\":3737:3740   */\n      dup5\n        /* \"#utility.yul\":3733:3749   */\n      add\n        /* \"#utility.yul\":3730:3755   */\n      gt\n        /* \"#utility.yul\":3727:3839   */\n      iszero\n      tag_172\n      jumpi\n        /* \"#utility.yul\":3758:3837   */\n      tag_173\n      tag_92\n      jump\t// in\n    tag_173:\n        /* \"#utility.yul\":3727:3839   */\n    tag_172:\n        /* \"#utility.yul\":3848:3902   */\n      tag_174\n        /* \"#utility.yul\":3895:3901   */\n      dup5\n        /* \"#utility.yul\":3890:3893   */\n      dup3\n        /* \"#utility.yul\":3885:3888   */\n      dup6\n        /* \"#utility.yul\":3848:3902   */\n      tag_94\n      jump\t// in\n    tag_174:\n        /* \"#utility.yul\":3567:3908   */\n      pop\n        /* \"#utility.yul\":3483:3908   */\n      swap4\n      swap3\n      pop\n      pop\n      pop\n      jump\t// out\n        /* \"#utility.yul\":3928:4268   */\n    tag_96:\n        /* \"#utility.yul\":3984:3989   */\n      0x00\n        /* \"#utility.yul\":4033:4036   */\n      dup3\n        /* \"#utility.yul\":4026:4030   */\n      0x1f\n        /* \"#utility.yul\":4018:4024   */\n      dup4\n        /* \"#utility.yul\":4014:4031   */\n      add\n        /* \"#utility.yul\":4010:4037   */\n      slt\n        /* \"#utility.yul\":4000:4122   */\n      tag_176\n      jumpi\n        /* \"#utility.yul\":4041:4120   */\n      tag_177\n      tag_85\n      jump\t// in\n    tag_177:\n        /* \"#utility.yul\":4000:4122   */\n    tag_176:\n        /* \"#utility.yul\":4158:4164   */\n      dup2\n        /* \"#utility.yul\":4145:4165   */\n      calldataload\n        /* \"#utility.yul\":4183:4262   */\n      tag_178\n        /* \"#utility.yul\":4258:4261   */\n      dup5\n        /* \"#utility.yul\":4250:4256   */\n      dup3\n        /* \"#utility.yul\":4243:4247   */\n      0x20\n        /* \"#utility.yul\":4235:4241   */\n      dup7\n        /* \"#utility.yul\":4231:4248   */\n      add\n        /* \"#utility.yul\":4183:4262   */\n      tag_95\n      jump\t// in\n    tag_178:\n        /* \"#utility.yul\":4174:4262   */\n      swap2\n      pop\n        /* \"#utility.yul\":3990:4268   */\n      pop\n        /* \"#utility.yul\":3928:4268   */\n      swap3\n      swap2\n      pop\n      pop\n      jump\t// out\n        /* \"#utility.yul\":4290:5235   */\n    tag_97:\n        /* \"#utility.yul\":4396:4401   */\n      0x00\n        /* \"#utility.yul\":4421:4512   */\n      tag_180\n        /* \"#utility.yul\":4437:4511   */\n      tag_181\n        /* \"#utility.yul\":4504:4510   */\n      dup5\n        /* \"#utility.yul\":4437:4511   */\n      tag_90\n      jump\t// in\n    tag_181:\n        /* \"#utility.yul\":4421:4512   */\n      tag_89\n      jump\t// in\n    tag_180:\n        /* \"#utility.yul\":4412:4512   */\n      swap1\n      pop\n        /* \"#utility.yul\":4532:4537   */\n      dup1\n        /* \"#utility.yul\":4561:4567   */\n      dup4\n        /* \"#utility.yul\":4554:4559   */\n      dup3\n        /* \"#utility.yul\":4547:4568   */\n      mstore\n        /* \"#utility.yul\":4595:4599   */\n      0x20\n        /* \"#utility.yul\":4588:4593   */\n      dup3\n        /* \"#utility.yul\":4584:4600   */\n      add\n        /* \"#utility.yul\":4577:4600   */\n      swap1\n      pop\n        /* \"#utility.yul\":4648:4652   */\n      0x20\n        /* \"#utility.yul\":4640:4646   */\n      dup5\n        /* \"#utility.yul\":4636:4653   */\n      mul\n        /* \"#utility.yul\":4628:4634   */\n      dup4\n        /* \"#utility.yul\":4624:4654   */\n      add\n        /* \"#utility.yul\":4677:4680   */\n      dup6\n        /* \"#utility.yul\":4669:4675   */\n      dup2\n        /* \"#utility.yul\":4666:4681   */\n      gt\n        /* \"#utility.yul\":4663:4785   */\n      iszero\n      tag_182\n      jumpi\n        /* \"#utility.yul\":4696:4775   */\n      tag_183\n      tag_91\n      jump\t// in\n    tag_183:\n        /* \"#utility.yul\":4663:4785   */\n    tag_182:\n        /* \"#utility.yul\":4811:4817   */\n      dup4\n        /* \"#utility.yul\":4794:5229   */\n    tag_184:\n        /* \"#utility.yul\":4828:4834   */\n      dup2\n        /* \"#utility.yul\":4823:4826   */\n      dup2\n        /* \"#utility.yul\":4820:4835   */\n      lt\n        /* \"#utility.yul\":4794:5229   */\n      iszero\n      tag_186\n      jumpi\n        /* \"#utility.yul\":4917:4920   */\n      dup1\n        /* \"#utility.yul\":4904:4921   */\n      calldataload\n        /* \"#utility.yul\":4953:4971   */\n      0xffffffffffffffff\n        /* \"#utility.yul\":4940:4951   */\n      dup2\n        /* \"#utility.yul\":4937:4972   */\n      gt\n        /* \"#utility.yul\":4934:5056   */\n      iszero\n      tag_187\n      jumpi\n        /* \"#utility.yul\":4975:5054   */\n      tag_188\n      tag_85\n      jump\t// in\n    tag_188:\n        /* \"#utility.yul\":4934:5056   */\n    tag_187:\n        /* \"#utility.yul\":5099:5110   */\n      dup1\n        /* \"#utility.yul\":5091:5097   */\n      dup7\n        /* \"#utility.yul\":5087:5111   */\n      add\n        /* \"#utility.yul\":5137:5184   */\n      tag_189\n        /* \"#utility.yul\":5180:5183   */\n      dup10\n        /* \"#utility.yul\":5168:5178   */\n      dup3\n        /* \"#utility.yul\":5137:5184   */\n      tag_96\n      jump\t// in\n    tag_189:\n        /* \"#utility.yul\":5132:5135   */\n      dup6\n        /* \"#utility.yul\":5125:5185   */\n      mstore\n        /* \"#utility.yul\":5214:5218   */\n      0x20\n        /* \"#utility.yul\":5209:5212   */\n      dup6\n        /* \"#utility.yul\":5205:5219   */\n      add\n        /* \"#utility.yul\":5198:5219   */\n      swap5\n      pop\n        /* \"#utility.yul\":4870:5229   */\n      pop\n      pop\n        /* \"#utility.yul\":4854:4858   */\n      0x20\n        /* \"#utility.yul\":4849:4852   */\n      dup2\n        /* \"#utility.yul\":4845:4859   */\n      add\n        /* \"#utility.yul\":4838:4859   */\n      swap1\n      pop\n        /* \"#utility.yul\":4794:5229   */\n      jump(tag_184)\n    tag_186:\n        /* \"#utility.yul\":4798:4819   */\n      pop\n        /* \"#utility.yul\":4402:5235   */\n      pop\n      pop\n        /* \"#utility.yul\":4290:5235   */\n      swap4\n      swap3\n      pop\n      pop\n      pop\n      jump\t// out\n        /* \"#utility.yul\":5257:5647   */\n    tag_98:\n        /* \"#utility.yul\":5338:5343   */\n      0x00\n        /* \"#utility.yul\":5387:5390   */\n      dup3\n        /* \"#utility.yul\":5380:5384   */\n      0x1f\n        /* \"#utility.yul\":5372:5378   */\n      dup4\n        /* \"#utility.yul\":5368:5385   */\n      add\n        /* \"#utility.yul\":5364:5391   */\n      slt\n        /* \"#utility.yul\":5354:5476   */\n      tag_191\n      jumpi\n        /* \"#utility.yul\":5395:5474   */\n      tag_192\n      tag_85\n      jump\t// in\n    tag_192:\n        /* \"#utility.yul\":5354:5476   */\n    tag_191:\n        /* \"#utility.yul\":5512:5518   */\n      dup2\n        /* \"#utility.yul\":5499:5519   */\n      calldataload\n        /* \"#utility.yul\":5537:5641   */\n      tag_193\n        /* \"#utility.yul\":5637:5640   */\n      dup5\n        /* \"#utility.yul\":5629:5635   */\n      dup3\n        /* \"#utility.yul\":5622:5626   */\n      0x20\n        /* \"#utility.yul\":5614:5620   */\n      dup7\n        /* \"#utility.yul\":5610:5627   */\n      add\n        /* \"#utility.yul\":5537:5641   */\n      tag_97\n      jump\t// in\n    tag_193:\n        /* \"#utility.yul\":5528:5641   */\n      swap2\n      pop\n        /* \"#utility.yul\":5344:5647   */\n      pop\n        /* \"#utility.yul\":5257:5647   */\n      swap3\n      swap2\n      pop\n      pop\n      jump\t// out\n        /* \"#utility.yul\":5653:6212   */\n    tag_15:\n        /* \"#utility.yul\":5747:5753   */\n      0x00\n        /* \"#utility.yul\":5796:5798   */\n      0x20\n        /* \"#utility.yul\":5784:5793   */\n      dup3\n        /* \"#utility.yul\":5775:5782   */\n      dup5\n        /* \"#utility.yul\":5771:5794   */\n      sub\n        /* \"#utility.yul\":5767:5799   */\n      slt\n        /* \"#utility.yul\":5764:5883   */\n      iszero\n      tag_195\n      jumpi\n        /* \"#utility.yul\":5802:5881   */\n      tag_196\n      tag_77\n      jump\t// in\n    tag_196:\n        /* \"#utility.yul\":5764:5883   */\n    tag_195:\n        /* \"#utility.yul\":5950:5951   */\n      0x00\n        /* \"#utility.yul\":5939:5948   */\n      dup3\n        /* \"#utility.yul\":5935:5952   */\n      add\n        /* \"#utility.yul\":5922:5953   */\n      calldataload\n        /* \"#utility.yul\":5980:5998   */\n      0xffffffffffffffff\n        /* \"#utility.yul\":5972:5978   */\n      dup2\n        /* \"#utility.yul\":5969:5999   */\n      gt\n        /* \"#utility.yul\":5966:6083   */\n      iszero\n      tag_197\n      jumpi\n        /* \"#utility.yul\":6002:6081   */\n      tag_198\n      tag_78\n      jump\t// in\n    tag_198:\n        /* \"#utility.yul\":5966:6083   */\n    tag_197:\n        /* \"#utility.yul\":6107:6195   */\n      tag_199\n        /* \"#utility.yul\":6187:6194   */\n      dup5\n        /* \"#utility.yul\":6178:6184   */\n      dup3\n        /* \"#utility.yul\":6167:6176   */\n      dup6\n        /* \"#utility.yul\":6163:6185   */\n      add\n        /* \"#utility.yul\":6107:6195   */\n      tag_98\n      jump\t// in\n    tag_199:\n        /* \"#utility.yul\":6097:6195   */\n      swap2\n      pop\n        /* \"#utility.yul\":5893:6205   */\n      pop\n        /* \"#utility.yul\":5653:6212   */\n      swap3\n      swap2\n      pop\n      pop\n      jump\t// out\n        /* \"#utility.yul\":6218:6317   */\n    tag_99:\n        /* \"#utility.yul\":6270:6276   */\n      0x00\n        /* \"#utility.yul\":6304:6309   */\n      dup2\n        /* \"#utility.yul\":6298:6310   */\n      mload\n        /* \"#utility.yul\":6288:6310   */\n      swap1\n      pop\n        /* \"#utility.yul\":6218:6317   */\n      swap2\n      swap1\n      pop\n      jump\t// out\n        /* \"#utility.yul\":6323:6492   */\n    tag_100:\n        /* \"#utility.yul\":6407:6418   */\n      0x00\n        /* \"#utility.yul\":6441:6447   */\n      dup3\n        /* \"#utility.yul\":6436:6439   */\n      dup3\n        /* \"#utility.yul\":6429:6448   */\n      mstore\n        /* \"#utility.yul\":6481:6485   */\n      0x20\n        /* \"#utility.yul\":6476:6479   */\n      dup3\n        /* \"#utility.yul\":6472:6486   */\n      add\n        /* \"#utility.yul\":6457:6486   */\n      swap1\n      pop\n        /* \"#utility.yul\":6323:6492   */\n      swap3\n      swap2\n      pop\n      pop\n      jump\t// out\n        /* \"#utility.yul\":6498:6637   */\n    tag_101:\n        /* \"#utility.yul\":6587:6593   */\n      dup3\n        /* \"#utility.yul\":6582:6585   */\n      dup2\n        /* \"#utility.yul\":6577:6580   */\n      dup4\n        /* \"#utility.yul\":6571:6594   */\n      mcopy\n        /* \"#utility.yul\":6628:6629   */\n      0x00\n        /* \"#utility.yul\":6619:6625   */\n      dup4\n        /* \"#utility.yul\":6614:6617   */\n      dup4\n        /* \"#utility.yul\":6610:6626   */\n      add\n        /* \"#utility.yul\":6603:6630   */\n      mstore\n        /* \"#utility.yul\":6498:6637   */\n      pop\n      pop\n      pop\n      jump\t// out\n        /* \"#utility.yul\":6643:7020   */\n    tag_102:\n        /* \"#utility.yul\":6731:6734   */\n      0x00\n        /* \"#utility.yul\":6759:6798   */\n      tag_204\n        /* \"#utility.yul\":6792:6797   */\n      dup3\n        /* \"#utility.yul\":6759:6798   */\n      tag_99\n      jump\t// in\n    tag_204:\n        /* \"#utility.yul\":6814:6885   */\n      tag_205\n        /* \"#utility.yul\":6878:6884   */\n      dup2\n        /* \"#utility.yul\":6873:6876   */\n      dup6\n        /* \"#utility.yul\":6814:6885   */\n      tag_100\n      jump\t// in\n    tag_205:\n        /* \"#utility.yul\":6807:6885   */\n      swap4\n      pop\n        /* \"#utility.yul\":6894:6959   */\n      tag_206\n        /* \"#utility.yul\":6952:6958   */\n      dup2\n        /* \"#utility.yul\":6947:6950   */\n      dup6\n        /* \"#utility.yul\":6940:6944   */\n      0x20\n        /* \"#utility.yul\":6933:6938   */\n      dup7\n        /* \"#utility.yul\":6929:6945   */\n      add\n        /* \"#utility.yul\":6894:6959   */\n      tag_101\n      jump\t// in\n    tag_206:\n        /* \"#utility.yul\":6984:7013   */\n      tag_207\n        /* \"#utility.yul\":7006:7012   */\n      dup2\n        /* \"#utility.yul\":6984:7013   */\n      tag_86\n      jump\t// in\n    tag_207:\n        /* \"#utility.yul\":6979:6982   */\n      dup5\n        /* \"#utility.yul\":6975:7014   */\n      add\n        /* \"#utility.yul\":6968:7014   */\n      swap2\n      pop\n        /* \"#utility.yul\":6735:7020   */\n      pop\n        /* \"#utility.yul\":6643:7020   */\n      swap3\n      swap2\n      pop\n      pop\n      jump\t// out\n        /* \"#utility.yul\":7026:7150   */\n    tag_103:\n        /* \"#utility.yul\":7103:7109   */\n      0x00\n        /* \"#utility.yul\":7137:7142   */\n      dup2\n        /* \"#utility.yul\":7131:7143   */\n      mload\n        /* \"#utility.yul\":7121:7143   */\n      swap1\n      pop\n        /* \"#utility.yul\":7026:7150   */\n      swap2\n      swap1\n      pop\n      jump\t// out\n        /* \"#utility.yul\":7156:7350   */\n    tag_104:\n        /* \"#utility.yul\":7265:7276   */\n      0x00\n        /* \"#utility.yul\":7299:7305   */\n      dup3\n        /* \"#utility.yul\":7294:7297   */\n      dup3\n        /* \"#utility.yul\":7287:7306   */\n      mstore\n        /* \"#utility.yul\":7339:7343   */\n      0x20\n        /* \"#utility.yul\":7334:7337   */\n      dup3\n        /* \"#utility.yul\":7330:7344   */\n      add\n        /* \"#utility.yul\":7315:7344   */\n      swap1\n      pop\n        /* \"#utility.yul\":7156:7350   */\n      swap3\n      swap2\n      pop\n      pop\n      jump\t// out\n        /* \"#utility.yul\":7356:7498   */\n    tag_105:\n        /* \"#utility.yul\":7433:7437   */\n      0x00\n        /* \"#utility.yul\":7456:7459   */\n      dup2\n        /* \"#utility.yul\":7448:7459   */\n      swap1\n      pop\n        /* \"#utility.yul\":7486:7490   */\n      0x20\n        /* \"#utility.yul\":7481:7484   */\n      dup3\n        /* \"#utility.yul\":7477:7491   */\n      add\n        /* \"#utility.yul\":7469:7491   */\n      swap1\n      pop\n        /* \"#utility.yul\":7356:7498   */\n      swap2\n      swap1\n      pop\n      jump\t// out\n        /* \"#utility.yul\":7504:7663   */\n    tag_106:\n        /* \"#utility.yul\":7578:7589   */\n      0x00\n        /* \"#utility.yul\":7612:7618   */\n      dup3\n        /* \"#utility.yul\":7607:7610   */\n      dup3\n        /* \"#utility.yul\":7600:7619   */\n      mstore\n        /* \"#utility.yul\":7652:7656   */\n      0x20\n        /* \"#utility.yul\":7647:7650   */\n      dup3\n        /* \"#utility.yul\":7643:7657   */\n      add\n        /* \"#utility.yul\":7628:7657   */\n      swap1\n      pop\n        /* \"#utility.yul\":7504:7663   */\n      swap3\n      swap2\n      pop\n      pop\n      jump\t// out\n        /* \"#utility.yul\":7669:8026   */\n    tag_107:\n        /* \"#utility.yul\":7747:7750   */\n      0x00\n        /* \"#utility.yul\":7775:7814   */\n      tag_213\n        /* \"#utility.yul\":7808:7813   */\n      dup3\n        /* \"#utility.yul\":7775:7814   */\n      tag_99\n      jump\t// in\n    tag_213:\n        /* \"#utility.yul\":7830:7891   */\n      tag_214\n        /* \"#utility.yul\":7884:7890   */\n      dup2\n        /* \"#utility.yul\":7879:7882   */\n      dup6\n        /* \"#utility.yul\":7830:7891   */\n      tag_106\n      jump\t// in\n    tag_214:\n        /* \"#utility.yul\":7823:7891   */\n      swap4\n      pop\n        /* \"#utility.yul\":7900:7965   */\n      tag_215\n        /* \"#utility.yul\":7958:7964   */\n      dup2\n        /* \"#utility.yul\":7953:7956   */\n      dup6\n        /* \"#utility.yul\":7946:7950   */\n      0x20\n        /* \"#utility.yul\":7939:7944   */\n      dup7\n        /* \"#utility.yul\":7935:7951   */\n      add\n        /* \"#utility.yul\":7900:7965   */\n      tag_101\n      jump\t// in\n    tag_215:\n        /* \"#utility.yul\":7990:8019   */\n      tag_216\n        /* \"#utility.yul\":8012:8018   */\n      dup2\n        /* \"#utility.yul\":7990:8019   */\n      tag_86\n      jump\t// in\n    tag_216:\n        /* \"#utility.yul\":7985:7988   */\n      dup5\n        /* \"#utility.yul\":7981:8020   */\n      add\n        /* \"#utility.yul\":7974:8020   */\n      swap2\n      pop\n        /* \"#utility.yul\":7751:8026   */\n      pop\n        /* \"#utility.yul\":7669:8026   */\n      swap3\n      swap2\n      pop\n      pop\n      jump\t// out\n        /* \"#utility.yul\":8032:8228   */\n    tag_108:\n        /* \"#utility.yul\":8121:8131   */\n      0x00\n        /* \"#utility.yul\":8156:8222   */\n      tag_218\n        /* \"#utility.yul\":8218:8221   */\n      dup4\n        /* \"#utility.yul\":8210:8216   */\n      dup4\n        /* \"#utility.yul\":8156:8222   */\n      tag_107\n      jump\t// in\n    tag_218:\n        /* \"#utility.yul\":8142:8222   */\n      swap1\n      pop\n        /* \"#utility.yul\":8032:8228   */\n      swap3\n      swap2\n      pop\n      pop\n      jump\t// out\n        /* \"#utility.yul\":8234:8357   */\n    tag_109:\n        /* \"#utility.yul\":8314:8318   */\n      0x00\n        /* \"#utility.yul\":8346:8350   */\n      0x20\n        /* \"#utility.yul\":8341:8344   */\n      dup3\n        /* \"#utility.yul\":8337:8351   */\n      add\n        /* \"#utility.yul\":8329:8351   */\n      swap1\n      pop\n        /* \"#utility.yul\":8234:8357   */\n      swap2\n      swap1\n      pop\n      jump\t// out\n        /* \"#utility.yul\":8391:9382   */\n    tag_110:\n        /* \"#utility.yul\":8530:8533   */\n      0x00\n        /* \"#utility.yul\":8559:8623   */\n      tag_221\n        /* \"#utility.yul\":8617:8622   */\n      dup3\n        /* \"#utility.yul\":8559:8623   */\n      tag_103\n      jump\t// in\n    tag_221:\n        /* \"#utility.yul\":8639:8735   */\n      tag_222\n        /* \"#utility.yul\":8728:8734   */\n      dup2\n        /* \"#utility.yul\":8723:8726   */\n      dup6\n        /* \"#utility.yul\":8639:8735   */\n      tag_104\n      jump\t// in\n    tag_222:\n        /* \"#utility.yul\":8632:8735   */\n      swap4\n      pop\n        /* \"#utility.yul\":8761:8764   */\n      dup4\n        /* \"#utility.yul\":8806:8810   */\n      0x20\n        /* \"#utility.yul\":8798:8804   */\n      dup3\n        /* \"#utility.yul\":8794:8811   */\n      mul\n        /* \"#utility.yul\":8789:8792   */\n      dup6\n        /* \"#utility.yul\":8785:8812   */\n      add\n        /* \"#utility.yul\":8836:8902   */\n      tag_223\n        /* \"#utility.yul\":8896:8901   */\n      dup6\n        /* \"#utility.yul\":8836:8902   */\n      tag_105\n      jump\t// in\n    tag_223:\n        /* \"#utility.yul\":8925:8932   */\n      dup1\n        /* \"#utility.yul\":8956:8957   */\n      0x00\n        /* \"#utility.yul\":8941:9337   */\n    tag_224:\n        /* \"#utility.yul\":8966:8972   */\n      dup6\n        /* \"#utility.yul\":8963:8964   */\n      dup2\n        /* \"#utility.yul\":8960:8973   */\n      lt\n        /* \"#utility.yul\":8941:9337   */\n      iszero\n      tag_226\n      jumpi\n        /* \"#utility.yul\":9037:9046   */\n      dup5\n        /* \"#utility.yul\":9031:9035   */\n      dup5\n        /* \"#utility.yul\":9027:9047   */\n      sub\n        /* \"#utility.yul\":9022:9025   */\n      dup10\n        /* \"#utility.yul\":9015:9048   */\n      mstore\n        /* \"#utility.yul\":9088:9094   */\n      dup2\n        /* \"#utility.yul\":9082:9095   */\n      mload\n        /* \"#utility.yul\":9116:9200   */\n      tag_227\n        /* \"#utility.yul\":9195:9199   */\n      dup6\n        /* \"#utility.yul\":9180:9193   */\n      dup3\n        /* \"#utility.yul\":9116:9200   */\n      tag_108\n      jump\t// in\n    tag_227:\n        /* \"#utility.yul\":9108:9200   */\n      swap5\n      pop\n        /* \"#utility.yul\":9223:9293   */\n      tag_228\n        /* \"#utility.yul\":9286:9292   */\n      dup4\n        /* \"#utility.yul\":9223:9293   */\n      tag_109\n      jump\t// in\n    tag_228:\n        /* \"#utility.yul\":9213:9293   */\n      swap3\n      pop\n        /* \"#utility.yul\":9322:9326   */\n      0x20\n        /* \"#utility.yul\":9317:9320   */\n      dup11\n        /* \"#utility.yul\":9313:9327   */\n      add\n        /* \"#utility.yul\":9306:9327   */\n      swap10\n      pop\n        /* \"#utility.yul\":9001:9337   */\n      pop\n        /* \"#utility.yul\":8988:8989   */\n      0x01\n        /* \"#utility.yul\":8985:8986   */\n      dup2\n        /* \"#utility.yul\":8981:8990   */\n      add\n        /* \"#utility.yul\":8976:8990   */\n      swap1\n      pop\n        /* \"#utility.yul\":8941:9337   */\n      jump(tag_224)\n    tag_226:\n        /* \"#utility.yul\":8945:8959   */\n      pop\n        /* \"#utility.yul\":9353:9357   */\n      dup3\n        /* \"#utility.yul\":9346:9357   */\n      swap8\n      pop\n        /* \"#utility.yul\":9373:9376   */\n      dup8\n        /* \"#utility.yul\":9366:9376   */\n      swap6\n      pop\n        /* \"#utility.yul\":8535:9382   */\n      pop\n      pop\n      pop\n      pop\n      pop\n        /* \"#utility.yul\":8391:9382   */\n      swap3\n      swap2\n      pop\n      pop\n      jump\t// out\n        /* \"#utility.yul\":9388:10002   */\n    tag_21:\n        /* \"#utility.yul\":9599:9603   */\n      0x00\n        /* \"#utility.yul\":9637:9639   */\n      0x40\n        /* \"#utility.yul\":9626:9635   */\n      dup3\n        /* \"#utility.yul\":9622:9640   */\n      add\n        /* \"#utility.yul\":9614:9640   */\n      swap1\n      pop\n        /* \"#utility.yul\":9686:9695   */\n      dup2\n        /* \"#utility.yul\":9680:9684   */\n      dup2\n        /* \"#utility.yul\":9676:9696   */\n      sub\n        /* \"#utility.yul\":9672:9673   */\n      0x00\n        /* \"#utility.yul\":9661:9670   */\n      dup4\n        /* \"#utility.yul\":9657:9674   */\n      add\n        /* \"#utility.yul\":9650:9697   */\n      mstore\n        /* \"#utility.yul\":9714:9792   */\n      tag_230\n        /* \"#utility.yul\":9787:9791   */\n      dup2\n        /* \"#utility.yul\":9778:9784   */\n      dup6\n        /* \"#utility.yul\":9714:9792   */\n      tag_102\n      jump\t// in\n    tag_230:\n        /* \"#utility.yul\":9706:9792   */\n      swap1\n      pop\n        /* \"#utility.yul\":9839:9848   */\n      dup2\n        /* \"#utility.yul\":9833:9837   */\n      dup2\n        /* \"#utility.yul\":9829:9849   */\n      sub\n        /* \"#utility.yul\":9824:9826   */\n      0x20\n        /* \"#utility.yul\":9813:9822   */\n      dup4\n        /* \"#utility.yul\":9809:9827   */\n      add\n        /* \"#utility.yul\":9802:9850   */\n      mstore\n        /* \"#utility.yul\":9867:9995   */\n      tag_231\n        /* \"#utility.yul\":9990:9994   */\n      dup2\n        /* \"#utility.yul\":9981:9987   */\n      dup5\n        /* \"#utility.yul\":9867:9995   */\n      tag_110\n      jump\t// in\n    tag_231:\n        /* \"#utility.yul\":9859:9995   */\n      swap1\n      pop\n        /* \"#utility.yul\":9388:10002   */\n      swap4\n      swap3\n      pop\n      pop\n      pop\n      jump\t// out\n        /* \"#utility.yul\":10008:10892   */\n    tag_24:\n        /* \"#utility.yul\":10121:10127   */\n      0x00\n        /* \"#utility.yul\":10129:10135   */\n      dup1\n        /* \"#utility.yul\":10178:10180   */\n      0x40\n        /* \"#utility.yul\":10166:10175   */\n      dup4\n        /* \"#utility.yul\":10157:10164   */\n      dup6\n        /* \"#utility.yul\":10153:10176   */\n      sub\n        /* \"#utility.yul\":10149:10181   */\n      slt\n        /* \"#utility.yul\":10146:10265   */\n      iszero\n      tag_233\n      jumpi\n        /* \"#utility.yul\":10184:10263   */\n      tag_234\n      tag_77\n      jump\t// in\n    tag_234:\n        /* \"#utility.yul\":10146:10265   */\n    tag_233:\n        /* \"#utility.yul\":10332:10333   */\n      0x00\n        /* \"#utility.yul\":10321:10330   */\n      dup4\n        /* \"#utility.yul\":10317:10334   */\n      add\n        /* \"#utility.yul\":10304:10335   */\n      calldataload\n        /* \"#utility.yul\":10362:10380   */\n      0xffffffffffffffff\n        /* \"#utility.yul\":10354:10360   */\n      dup2\n        /* \"#utility.yul\":10351:10381   */\n      gt\n        /* \"#utility.yul\":10348:10465   */\n      iszero\n      tag_235\n      jumpi\n        /* \"#utility.yul\":10384:10463   */\n      tag_236\n      tag_78\n      jump\t// in\n    tag_236:\n        /* \"#utility.yul\":10348:10465   */\n    tag_235:\n        /* \"#utility.yul\":10489:10552   */\n      tag_237\n        /* \"#utility.yul\":10544:10551   */\n      dup6\n        /* \"#utility.yul\":10535:10541   */\n      dup3\n        /* \"#utility.yul\":10524:10533   */\n      dup7\n        /* \"#utility.yul\":10520:10542   */\n      add\n        /* \"#utility.yul\":10489:10552   */\n      tag_96\n      jump\t// in\n    tag_237:\n        /* \"#utility.yul\":10479:10552   */\n      swap3\n      pop\n        /* \"#utility.yul\":10275:10562   */\n      pop\n        /* \"#utility.yul\":10629:10631   */\n      0x20\n        /* \"#utility.yul\":10618:10627   */\n      dup4\n        /* \"#utility.yul\":10614:10632   */\n      add\n        /* \"#utility.yul\":10601:10633   */\n      calldataload\n        /* \"#utility.yul\":10660:10678   */\n      0xffffffffffffffff\n        /* \"#utility.yul\":10652:10658   */\n      dup2\n        /* \"#utility.yul\":10649:10679   */\n      gt\n        /* \"#utility.yul\":10646:10763   */\n      iszero\n      tag_238\n      jumpi\n        /* \"#utility.yul\":10682:10761   */\n      tag_239\n      tag_78\n      jump\t// in\n    tag_239:\n        /* \"#utility.yul\":10646:10763   */\n    tag_238:\n        /* \"#utility.yul\":10787:10875   */\n      tag_240\n        /* \"#utility.yul\":10867:10874   */\n      dup6\n        /* \"#utility.yul\":10858:10864   */\n      dup3\n        /* \"#utility.yul\":10847:10856   */\n      dup7\n        /* \"#utility.yul\":10843:10865   */\n      add\n        /* \"#utility.yul\":10787:10875   */\n      tag_98\n      jump\t// in\n    tag_240:\n        /* \"#utility.yul\":10777:10875   */\n      swap2\n      pop\n        /* \"#utility.yul\":10572:10885   */\n      pop\n        /* \"#utility.yul\":10008:10892   */\n      swap3\n      pop\n      swap3\n      swap1\n      pop\n      jump\t// out\n        /* \"#utility.yul\":10898:11311   */\n    tag_34:\n        /* \"#utility.yul\":11061:11065   */\n      0x00\n        /* \"#utility.yul\":11099:11101   */\n      0x20\n        /* \"#utility.yul\":11088:11097   */\n      dup3\n        /* \"#utility.yul\":11084:11102   */\n      add\n        /* \"#utility.yul\":11076:11102   */\n      swap1\n      pop\n        /* \"#utility.yul\":11148:11157   */\n      dup2\n        /* \"#utility.yul\":11142:11146   */\n      dup2\n        /* \"#utility.yul\":11138:11158   */\n      sub\n        /* \"#utility.yul\":11134:11135   */\n      0x00\n        /* \"#utility.yul\":11123:11132   */\n      dup4\n        /* \"#utility.yul\":11119:11136   */\n      add\n        /* \"#utility.yul\":11112:11159   */\n      mstore\n        /* \"#utility.yul\":11176:11304   */\n      tag_242\n        /* \"#utility.yul\":11299:11303   */\n      dup2\n        /* \"#utility.yul\":11290:11296   */\n      dup5\n        /* \"#utility.yul\":11176:11304   */\n      tag_110\n      jump\t// in\n    tag_242:\n        /* \"#utility.yul\":11168:11304   */\n      swap1\n      pop\n        /* \"#utility.yul\":10898:11311   */\n      swap3\n      swap2\n      pop\n      pop\n      jump\t// out\n        /* \"#utility.yul\":11317:11497   */\n    tag_111:\n        /* \"#utility.yul\":11365:11442   */\n      0x4e487b7100000000000000000000000000000000000000000000000000000000\n        /* \"#utility.yul\":11362:11363   */\n      0x00\n        /* \"#utility.yul\":11355:11443   */\n      mstore\n        /* \"#utility.yul\":11462:11466   */\n      0x22\n        /* \"#utility.yul\":11459:11460   */\n      0x04\n        /* \"#utility.yul\":11452:11467   */\n      mstore\n        /* \"#utility.yul\":11486:11490   */\n      0x24\n        /* \"#utility.yul\":11483:11484   */\n      0x00\n        /* \"#utility.yul\":11476:11491   */\n      revert\n        /* \"#utility.yul\":11503:11823   */\n    tag_38:\n        /* \"#utility.yul\":11547:11553   */\n      0x00\n        /* \"#utility.yul\":11584:11585   */\n      0x02\n        /* \"#utility.yul\":11578:11582   */\n      dup3\n        /* \"#utility.yul\":11574:11586   */\n      div\n        /* \"#utility.yul\":11564:11586   */\n      swap1\n      pop\n        /* \"#utility.yul\":11631:11632   */\n      0x01\n        /* \"#utility.yul\":11625:11629   */\n      dup3\n        /* \"#utility.yul\":11621:11633   */\n      and\n        /* \"#utility.yul\":11652:11670   */\n      dup1\n        /* \"#utility.yul\":11642:11723   */\n      tag_245\n      jumpi\n        /* \"#utility.yul\":11708:11712   */\n      0x7f\n        /* \"#utility.yul\":11700:11706   */\n      dup3\n        /* \"#utility.yul\":11696:11713   */\n      and\n        /* \"#utility.yul\":11686:11713   */\n      swap2\n      pop\n        /* \"#utility.yul\":11642:11723   */\n    tag_245:\n        /* \"#utility.yul\":11770:11772   */\n      0x20\n        /* \"#utility.yul\":11762:11768   */\n      dup3\n        /* \"#utility.yul\":11759:11773   */\n      lt\n        /* \"#utility.yul\":11739:11757   */\n      dup2\n        /* \"#utility.yul\":11736:11774   */\n      sub\n        /* \"#utility.yul\":11733:11817   */\n      tag_246\n      jumpi\n        /* \"#utility.yul\":11789:11807   */\n      tag_247\n      tag_111\n      jump\t// in\n    tag_247:\n        /* \"#utility.yul\":11733:11817   */\n    tag_246:\n        /* \"#utility.yul\":11554:11823   */\n      pop\n        /* \"#utility.yul\":11503:11823   */\n      swap2\n      swap1\n      pop\n      jump\t// out\n        /* \"#utility.yul\":11829:11970   */\n    tag_112:\n        /* \"#utility.yul\":11878:11882   */\n      0x00\n        /* \"#utility.yul\":11901:11904   */\n      dup2\n        /* \"#utility.yul\":11893:11904   */\n      swap1\n      pop\n        /* \"#utility.yul\":11924:11927   */\n      dup2\n        /* \"#utility.yul\":11921:11922   */\n      0x00\n        /* \"#utility.yul\":11914:11928   */\n      mstore\n        /* \"#utility.yul\":11958:11962   */\n      0x20\n        /* \"#utility.yul\":11955:11956   */\n      0x00\n        /* \"#utility.yul\":11945:11963   */\n      keccak256\n        /* \"#utility.yul\":11937:11963   */\n      swap1\n      pop\n        /* \"#utility.yul\":11829:11970   */\n      swap2\n      swap1\n      pop\n      jump\t// out\n        /* \"#utility.yul\":11976:12069   */\n    tag_113:\n        /* \"#utility.yul\":12013:12019   */\n      0x00\n        /* \"#utility.yul\":12060:12062   */\n      0x20\n        /* \"#utility.yul\":12055:12057   */\n      0x1f\n        /* \"#utility.yul\":12048:12053   */\n      dup4\n        /* \"#utility.yul\":12044:12058   */\n      add\n        /* \"#utility.yul\":12040:12063   */\n      div\n        /* \"#utility.yul\":12030:12063   */\n      swap1\n      pop\n        /* \"#utility.yul\":11976:12069   */\n      swap2\n      swap1\n      pop\n      jump\t// out\n        /* \"#utility.yul\":12075:12182   */\n    tag_114:\n        /* \"#utility.yul\":12119:12127   */\n      0x00\n        /* \"#utility.yul\":12169:12174   */\n      dup3\n        /* \"#utility.yul\":12163:12167   */\n      dup3\n        /* \"#utility.yul\":12159:12175   */\n      shl\n        /* \"#utility.yul\":12138:12175   */\n      swap1\n      pop\n        /* \"#utility.yul\":12075:12182   */\n      swap3\n      swap2\n      pop\n      pop\n      jump\t// out\n        /* \"#utility.yul\":12188:12581   */\n    tag_115:\n        /* \"#utility.yul\":12257:12263   */\n      0x00\n        /* \"#utility.yul\":12307:12308   */\n      0x08\n        /* \"#utility.yul\":12295:12305   */\n      dup4\n        /* \"#utility.yul\":12291:12309   */\n      mul\n        /* \"#utility.yul\":12330:12427   */\n      tag_252\n        /* \"#utility.yul\":12360:12426   */\n      0xffffffffffffffffffffffffffffffffffffffffffffffffffffffffffffffff\n        /* \"#utility.yul\":12349:12358   */\n      dup3\n        /* \"#utility.yul\":12330:12427   */\n      tag_114\n      jump\t// in\n    tag_252:\n        /* \"#utility.yul\":12448:12487   */\n      tag_253\n        /* \"#utility.yul\":12478:12486   */\n      dup7\n        /* \"#utility.yul\":12467:12476   */\n      dup4\n        /* \"#utility.yul\":12448:12487   */\n      tag_114\n      jump\t// in\n    tag_253:\n        /* \"#utility.yul\":12436:12487   */\n      swap6\n      pop\n        /* \"#utility.yul\":12520:12524   */\n      dup1\n        /* \"#utility.yul\":12516:12525   */\n      not\n        /* \"#utility.yul\":12509:12514   */\n      dup5\n        /* \"#utility.yul\":12505:12526   */\n      and\n        /* \"#utility.yul\":12496:12526   */\n      swap4\n      pop\n        /* \"#utility.yul\":12569:12573   */\n      dup1\n        /* \"#utility.yul\":12559:12567   */\n      dup7\n        /* \"#utility.yul\":12555:12574   */\n      and\n        /* \"#utility.yul\":12548:12553   */\n      dup5\n        /* \"#utility.yul\":12545:12575   */\n      or\n        /* \"#utility.yul\":12535:12575   */\n      swap3\n      pop\n        /* \"#utility.yul\":12264:12581   */\n      pop\n      pop\n        /* \"#utility.yul\":12188:12581   */\n      swap4\n      swap3\n      pop\n      pop\n      pop\n      jump\t// out\n        /* \"#utility.yul\":12587:12664   */\n    tag_116:\n        /* \"#utility.yul\":12624:12631   */\n      0x00\n        /* \"#utility.yul\":12653:12658   */\n      dup2\n        /* \"#utility.yul\":12642:12658   */\n      swap1\n      pop\n        /* \"#utility.yul\":12587:12664   */\n      swap2\n      swap1\n      pop\n      jump\t// out\n        /* \"#utility.yul\":12670:12730   */\n    tag_117:\n        /* \"#utility.yul\":12698:12701   */\n      0x00\n        /* \"#utility.yul\":12719:12724   */\n      dup2\n        /* \"#utility.yul\":12712:12724   */\n      swap1\n      pop\n        /* \"#utility.yul\":12670:12730   */\n      swap2\n      swap1\n      pop\n      jump\t// out\n        /* \"#utility.yul\":12736:12878   */\n    tag_118:\n        /* \"#utility.yul\":12786:12795   */\n      0x00\n        /* \"#utility.yul\":12819:12872   */\n      tag_257\n        /* \"#utility.yul\":12837:12871   */\n      tag_258\n        /* \"#utility.yul\":12846:12870   */\n      tag_259\n        /* \"#utility.yul\":12864:12869   */\n      dup5\n        /* \"#utility.yul\":12846:12870   */\n      tag_116\n      jump\t// in\n    tag_259:\n        /* \"#utility.yul\":12837:12871   */\n      tag_117\n      jump\t// in\n    tag_258:\n        /* \"#utility.yul\":12819:12872   */\n      tag_116\n      jump\t// in\n    tag_257:\n        /* \"#utility.yul\":12806:12872   */\n      swap1\n      pop\n        /* \"#utility.yul\":12736:12878   */\n      swap2\n      swap1\n      pop\n      jump\t// out\n        /* \"#utility.yul\":12884:12959   */\n    tag_119:\n        /* \"#utility.yul\":12927:12930   */\n      0x00\n        /* \"#utility.yul\":12948:12953   */\n      dup2\n        /* \"#utility.yul\":12941:12953   */\n      swap1\n      pop\n        /* \"#utility.yul\":12884:12959   */\n      swap2\n      swap1\n      pop\n      jump\t// out\n        /* \"#utility.yul\":12965:13234   */\n    tag_120:\n        /* \"#utility.yul\":13075:13114   */\n      tag_262\n        /* \"#utility.yul\":13106:13113   */\n      dup4\n        /* \"#utility.yul\":13075:13114   */\n      tag_118\n      jump\t// in\n    tag_262:\n        /* \"#utility.yul\":13136:13227   */\n      tag_263\n        /* \"#utility.yul\":13185:13226   */\n      tag_264\n        /* \"#utility.yul\":13209:13225   */\n      dup3\n        /* \"#utility.yul\":13185:13226   */\n      tag_119\n      jump\t// in\n    tag_264:\n        /* \"#utility.yul\":13177:13183   */\n      dup5\n        /* \"#utility.yul\":13170:13174   */\n      dup5\n        /* \"#utility.yul\":13164:13175   */\n      sload\n        /* \"#utility.yul\":13136:13227   */\n      tag_115\n      jump\t// in\n    tag_263:\n        /* \"#utility.yul\":13130:13134   */\n      dup3\n        /* \"#utility.yul\":13123:13228   */\n      sstore\n        /* \"#utility.yul\":13041:13234   */\n      pop\n        /* \"#utility.yul\":12965:13234   */\n      pop\n      pop\n      pop\n      jump\t// out\n        /* \"#utility.yul\":13240:13313   */\n    tag_121:\n        /* \"#utility.yul\":13285:13288   */\n      0x00\n        /* \"#utility.yul\":13240:13313   */\n      swap1\n      jump\t// out\n        /* \"#utility.yul\":13319:13508   */\n    tag_122:\n        /* \"#utility.yul\":13396:13428   */\n      tag_267\n      tag_121\n      jump\t// in\n    tag_267:\n        /* \"#utility.yul\":13437:13502   */\n      tag_268\n        /* \"#utility.yul\":13495:13501   */\n      dup2\n        /* \"#utility.yul\":13487:13493   */\n      dup5\n        /* \"#utility.yul\":13481:13485   */\n      dup5\n        /* \"#utility.yul\":13437:13502   */\n      tag_120\n      jump\t// in\n    tag_268:\n        /* \"#utility.yul\":13372:13508   */\n      pop\n        /* \"#utility.yul\":13319:13508   */\n      pop\n      pop\n      jump\t// out\n        /* \"#utility.yul\":13514:13700   */\n    tag_123:\n        /* \"#utility.yul\":13574:13694   */\n    tag_270:\n        /* \"#utility.yul\":13591:13594   */\n      dup2\n        /* \"#utility.yul\":13584:13589   */\n      dup2\n        /* \"#utility.yul\":13581:13595   */\n      lt\n        /* \"#utility.yul\":13574:13694   */\n      iszero\n      tag_272\n      jumpi\n        /* \"#utility.yul\":13645:13684   */\n      tag_273\n        /* \"#utility.yul\":13682:13683   */\n      0x00\n        /* \"#utility.yul\":13675:13680   */\n      dup3\n        /* \"#utility.yul\":13645:13684   */\n      tag_122\n      jump\t// in\n    tag_273:\n        /* \"#utility.yul\":13618:13619   */\n      0x01\n        /* \"#utility.yul\":13611:13616   */\n      dup2\n        /* \"#utility.yul\":13607:13620   */\n      add\n        /* \"#utility.yul\":13598:13620   */\n      swap1\n      pop\n        /* \"#utility.yul\":13574:13694   */\n      jump(tag_270)\n    tag_272:\n        /* \"#utility.yul\":13514:13700   */\n      pop\n      pop\n      jump\t// out\n        /* \"#utility.yul\":13706:14249   */\n    tag_124:\n        /* \"#utility.yul\":13807:13809   */\n      0x1f\n        /* \"#utility.yul\":13802:13805   */\n      dup3\n        /* \"#utility.yul\":13799:13810   */\n      gt\n        /* \"#utility.yul\":13796:14242   */\n      iszero\n      tag_275\n      jumpi\n        /* \"#utility.yul\":13841:13879   */\n      tag_276\n        /* \"#utility.yul\":13873:13878   */\n      dup2\n        /* \"#utility.yul\":13841:13879   */\n      tag_112\n      jump\t// in\n    tag_276:\n        /* \"#utility.yul\":13925:13954   */\n      tag_277\n        /* \"#utility.yul\":13943:13953   */\n      dup5\n        /* \"#utility.yul\":13925:13954   */\n      tag_113\n      jump\t// in\n    tag_277:\n        /* \"#utility.yul\":13915:13923   */\n      dup2\n        /* \"#utility.yul\":13911:13955   */\n      add\n        /* \"#utility.yul\":14108:14110   */\n      0x20\n        /* \"#utility.yul\":14096:14106   */\n      dup6\n        /* \"#utility.yul\":14093:14111   */\n      lt\n        /* \"#utility.yul\":14090:14139   */\n      iszero\n      tag_278\n      jumpi\n        /* \"#utility.yul\":14129:14137   */\n      dup2\n        /* \"#utility.yul\":14114:14137   */\n      swap1\n      pop\n        /* \"#utility.yul\":14090:14139   */\n    tag_278:\n        /* \"#utility.yul\":14152:14232   */\n      tag_279\n        /* \"#utility.yul\":14208:14230   */\n      tag_280\n        /* \"#utility.yul\":14226:14229   */\n      dup6\n        /* \"#utility.yul\":14208:14230   */\n      tag_113\n      jump\t// in\n    tag_280:\n        /* \"#utility.yul\":14198:14206   */\n      dup4\n        /* \"#utility.yul\":14194:14231   */\n      add\n        /* \"#utility.yul\":14181:14192   */\n      dup3\n        /* \"#utility.yul\":14152:14232   */\n      tag_123\n      jump\t// in\n    tag_279:\n        /* \"#utility.yul\":13811:14242   */\n      pop\n      pop\n        /* \"#utility.yul\":13796:14242   */\n    tag_275:\n        /* \"#utility.yul\":13706:14249   */\n      pop\n      pop\n      pop\n      jump\t// out\n        /* \"#utility.yul\":14255:14372   */\n    tag_125:\n        /* \"#utility.yul\":14309:14317   */\n      0x00\n        /* \"#utility.yul\":14359:14364   */\n      dup3\n        /* \"#utility.yul\":14353:14357   */\n      dup3\n        /* \"#utility.yul\":14349:14365   */\n      shr\n        /* \"#utility.yul\":14328:14365   */\n      swap1\n      pop\n        /* \"#utility.yul\":14255:14372   */\n      swap3\n      swap2\n      pop\n      pop\n      jump\t// out\n        /* \"#utility.yul\":14378:14547   */\n    tag_126:\n        /* \"#utility.yul\":14422:14428   */\n      0x00\n        /* \"#utility.yul\":14455:14506   */\n      tag_283\n        /* \"#utility.yul\":14503:14504   */\n      0x00\n        /* \"#utility.yul\":14499:14505   */\n      not\n        /* \"#utility.yul\":14491:14496   */\n      dup5\n        /* \"#utility.yul\":14488:14489   */\n      0x08\n        /* \"#utility.yul\":14484:14497   */\n      mul\n        /* \"#utility.yul\":14455:14506   */\n      tag_125\n      jump\t// in\n    tag_283:\n        /* \"#utility.yul\":14451:14507   */\n      not\n        /* \"#utility.yul\":14536:14540   */\n      dup1\n        /* \"#utility.yul\":14530:14534   */\n      dup4\n        /* \"#utility.yul\":14526:14541   */\n      and\n        /* \"#utility.yul\":14516:14541   */\n      swap2\n      pop\n        /* \"#utility.yul\":14429:14547   */\n      pop\n        /* \"#utility.yul\":14378:14547   */\n      swap3\n      swap2\n      pop\n      pop\n      jump\t// out\n        /* \"#utility.yul\":14552:14847   */\n    tag_127:\n        /* \"#utility.yul\":14628:14632   */\n      0x00\n        /* \"#utility.yul\":14774:14803   */\n      tag_285\n        /* \"#utility.yul\":14799:14802   */\n      dup4\n        /* \"#utility.yul\":14793:14797   */\n      dup4\n        /* \"#utility.yul\":14774:14803   */\n      tag_126\n      jump\t// in\n    tag_285:\n        /* \"#utility.yul\":14766:14803   */\n      swap2\n      pop\n        /* \"#utility.yul\":14836:14839   */\n      dup3\n        /* \"#utility.yul\":14833:14834   */\n      0x02\n        /* \"#utility.yul\":14829:14840   */\n      mul\n        /* \"#utility.yul\":14823:14827   */\n      dup3\n        /* \"#utility.yul\":14820:14841   */\n      or\n        /* \"#utility.yul\":14812:14841   */\n      swap1\n      pop\n        /* \"#utility.yul\":14552:14847   */\n      swap3\n      swap2\n      pop\n      pop\n      jump\t// out\n        /* \"#utility.yul\":14852:16247   */\n    tag_56:\n        /* \"#utility.yul\":14969:15006   */\n      tag_287\n        /* \"#utility.yul\":15002:15005   */\n      dup3\n        /* \"#utility.yul\":14969:15006   */\n      tag_99\n      jump\t// in\n    tag_287:\n        /* \"#utility.yul\":15071:15089   */\n      0xffffffffffffffff\n        /* \"#utility.yul\":15063:15069   */\n      dup2\n        /* \"#utility.yul\":15060:15090   */\n      gt\n        /* \"#utility.yul\":15057:15113   */\n      iszero\n      tag_288\n      jumpi\n        /* \"#utility.yul\":15093:15111   */\n      tag_289\n      tag_87\n      jump\t// in\n    tag_289:\n        /* \"#utility.yul\":15057:15113   */\n    tag_288:\n        /* \"#utility.yul\":15137:15175   */\n      tag_290\n        /* \"#utility.yul\":15169:15173   */\n      dup3\n        /* \"#utility.yul\":15163:15174   */\n      sload\n        /* \"#utility.yul\":15137:15175   */\n      tag_38\n      jump\t// in\n    tag_290:\n        /* \"#utility.yul\":15222:15289   */\n      tag_291\n        /* \"#utility.yul\":15282:15288   */\n      dup3\n        /* \"#utility.yul\":15274:15280   */\n      dup3\n        /* \"#utility.yul\":15268:15272   */\n      dup6\n        /* \"#utility.yul\":15222:15289   */\n      tag_124\n      jump\t// in\n    tag_291:\n        /* \"#utility.yul\":15316:15317   */\n      0x00\n        /* \"#utility.yul\":15340:15344   */\n      0x20\n        /* \"#utility.yul\":15327:15344   */\n      swap1\n      pop\n        /* \"#utility.yul\":15372:15374   */\n      0x1f\n        /* \"#utility.yul\":15364:15370   */\n      dup4\n        /* \"#utility.yul\":15361:15375   */\n      gt\n        /* \"#utility.yul\":15389:15390   */\n      0x01\n        /* \"#utility.yul\":15384:16002   */\n      dup2\n      eq\n      tag_293\n      jumpi\n        /* \"#utility.yul\":16046:16047   */\n      0x00\n        /* \"#utility.yul\":16063:16069   */\n      dup5\n        /* \"#utility.yul\":16060:16137   */\n      iszero\n      tag_294\n      jumpi\n        /* \"#utility.yul\":16112:16121   */\n      dup3\n        /* \"#utility.yul\":16107:16110   */\n      dup8\n        /* \"#utility.yul\":16103:16122   */\n      add\n        /* \"#utility.yul\":16097:16123   */\n      mload\n        /* \"#utility.yul\":16088:16123   */\n      swap1\n      pop\n        /* \"#utility.yul\":16060:16137   */\n    tag_294:\n        /* \"#utility.yul\":16163:16230   */\n      tag_295\n        /* \"#utility.yul\":16223:16229   */\n      dup6\n        /* \"#utility.yul\":16216:16221   */\n      dup3\n        /* \"#utility.yul\":16163:16230   */\n      tag_127\n      jump\t// in\n    tag_295:\n        /* \"#utility.yul\":16157:16161   */\n      dup7\n        /* \"#utility.yul\":16150:16231   */\n      sstore\n        /* \"#utility.yul\":16019:16241   */\n      pop\n        /* \"#utility.yul\":15354:16241   */\n      jump(tag_292)\n        /* \"#utility.yul\":15384:16002   */\n    tag_293:\n        /* \"#utility.yul\":15436:15440   */\n      0x1f\n        /* \"#utility.yul\":15432:15441   */\n      not\n        /* \"#utility.yul\":15424:15430   */\n      dup5\n        /* \"#utility.yul\":15420:15442   */\n      and\n        /* \"#utility.yul\":15470:15507   */\n      tag_296\n        /* \"#utility.yul\":15502:15506   */\n      dup7\n        /* \"#utility.yul\":15470:15507   */\n      tag_112\n      jump\t// in\n    tag_296:\n        /* \"#utility.yul\":15529:15530   */\n      0x00\n        /* \"#utility.yul\":15543:15751   */\n    tag_297:\n        /* \"#utility.yul\":15557:15564   */\n      dup3\n        /* \"#utility.yul\":15554:15555   */\n      dup2\n        /* \"#utility.yul\":15551:15565   */\n      lt\n        /* \"#utility.yul\":15543:15751   */\n      iszero\n      tag_299\n      jumpi\n        /* \"#utility.yul\":15636:15645   */\n      dup5\n        /* \"#utility.yul\":15631:15634   */\n      dup10\n        /* \"#utility.yul\":15627:15646   */\n      add\n        /* \"#utility.yul\":15621:15647   */\n      mload\n        /* \"#utility.yul\":15613:15619   */\n      dup3\n        /* \"#utility.yul\":15606:15648   */\n      sstore\n        /* \"#utility.yul\":15687:15688   */\n      0x01\n        /* \"#utility.yul\":15679:15685   */\n      dup3\n        /* \"#utility.yul\":15675:15689   */\n      add\n        /* \"#utility.yul\":15665:15689   */\n      swap2\n      pop\n        /* \"#utility.yul\":15734:15736   */\n      0x20\n        /* \"#utility.yul\":15723:15732   */\n      dup6\n        /* \"#utility.yul\":15719:15737   */\n      add\n        /* \"#utility.yul\":15706:15737   */\n      swap5\n      pop\n        /* \"#utility.yul\":15580:15584   */\n      0x20\n        /* \"#utility.yul\":15577:15578   */\n      dup2\n        /* \"#utility.yul\":15573:15585   */\n      add\n        /* \"#utility.yul\":15568:15585   */\n      swap1\n      pop\n        /* \"#utility.yul\":15543:15751   */\n      jump(tag_297)\n    tag_299:\n        /* \"#utility.yul\":15779:15785   */\n      dup7\n        /* \"#utility.yul\":15770:15777   */\n      dup4\n        /* \"#utility.yul\":15767:15786   */\n      lt\n        /* \"#utility.yul\":15764:15943   */\n      iszero\n      tag_300\n      jumpi\n        /* \"#utility.yul\":15837:15846   */\n      dup5\n        /* \"#utility.yul\":15832:15835   */\n      dup10\n        /* \"#utility.yul\":15828:15847   */\n      add\n        /* \"#utility.yul\":15822:15848   */\n      mload\n        /* \"#utility.yul\":15880:15928   */\n      tag_301\n        /* \"#utility.yul\":15922:15926   */\n      0x1f\n        /* \"#utility.yul\":15914:15920   */\n      dup10\n        /* \"#utility.yul\":15910:15927   */\n      and\n        /* \"#utility.yul\":15899:15908   */\n      dup3\n        /* \"#utility.yul\":15880:15928   */\n      tag_126\n      jump\t// in\n    tag_301:\n        /* \"#utility.yul\":15872:15878   */\n      dup4\n        /* \"#utility.yul\":15865:15929   */\n      sstore\n        /* \"#utility.yul\":15787:15943   */\n      pop\n        /* \"#utility.yul\":15764:15943   */\n    tag_300:\n        /* \"#utility.yul\":15989:15990   */\n      0x01\n        /* \"#utility.yul\":15985:15986   */\n      0x02\n        /* \"#utility.yul\":15977:15983   */\n      dup9\n        /* \"#utility.yul\":15973:15987   */\n      mul\n        /* \"#utility.yul\":15969:15991   */\n      add\n        /* \"#utility.yul\":15963:15967   */\n      dup9\n        /* \"#utility.yul\":15956:15992   */\n      sstore\n        /* \"#utility.yul\":15391:16002   */\n      pop\n      pop\n      pop\n        /* \"#utility.yul\":15354:16241   */\n    tag_292:\n      pop\n        /* \"#utility.yul\":14944:16247   */\n      pop\n      pop\n      pop\n        /* \"#utility.yul\":14852:16247   */\n      pop\n      pop\n      jump\t// out\n\n    auxdata: 0xa26469706673582212208ebd974b93bcbdd32d585ccd02a004ffe18ab9083ebc5895c6f092291fc356b064736f6c634300081a0033\n}\n",
				"bytecode": {
					"linkReferences": {},
					"object": "6080604052348015600e575f80fd5b50610ff78061001c5f395ff3fe608060405234801561000f575f80fd5b506004361061004a575f3560e01c8063163f75221461004e578063a60c94cf1461007e578063cc3d967b1461009a578063eee6efd5146100cb575b5f80fd5b610068600480360381019061006391906107fe565b6100e7565b6040516100759190610843565b60405180910390f35b61009860048036038101906100939190610a7a565b61013b565b005b6100b460048036038101906100af91906107fe565b61029c565b6040516100c2929190610c24565b60405180910390f35b6100e560048036038101906100e09190610c59565b6104c9565b005b5f805f8373ffffffffffffffffffffffffffffffffffffffff1673ffffffffffffffffffffffffffffffffffffffff1681526020019081526020015f206002015f9054906101000a900460ff169050919050565b5f803373ffffffffffffffffffffffffffffffffffffffff1673ffffffffffffffffffffffffffffffffffffffff1681526020019081526020015f206002015f9054906101000a900460ff166101bd576040517f2163950f00000000000000000000000000000000000000000000000000000000815260040160405180910390fd5b5f8151036101f7576040517f99d6f6dc00000000000000000000000000000000000000000000000000000000815260040160405180910390fd5b805f803373ffffffffffffffffffffffffffffffffffffffff1673ffffffffffffffffffffffffffffffffffffffff1681526020019081526020015f20600101908051906020019061024a9291906106c1565b503373ffffffffffffffffffffffffffffffffffffffff167f82836018d98e43d68f86ca5d3323435ae9e83d18b33ebfd1d579cd6002882247826040516102919190610ccf565b60405180910390a250565b6060805f808473ffffffffffffffffffffffffffffffffffffffff1673ffffffffffffffffffffffffffffffffffffffff1681526020019081526020015f206002015f9054906101000a900460ff16610321576040517f2163950f00000000000000000000000000000000000000000000000000000000815260040160405180910390fd5b5f805f8573ffffffffffffffffffffffffffffffffffffffff1673ffffffffffffffffffffffffffffffffffffffff1681526020019081526020015f209050805f018160010181805461037390610d1c565b80601f016020809104026020016040519081016040528092919081815260200182805461039f90610d1c565b80156103ea5780601f106103c1576101008083540402835291602001916103ea565b820191905f5260205f20905b8154815290600101906020018083116103cd57829003601f168201915b5050505050915080805480602002602001604051908101604052809291908181526020015f905b828210156104b9578382905f5260205f2001805461042e90610d1c565b80601f016020809104026020016040519081016040528092919081815260200182805461045a90610d1c565b80156104a55780601f1061047c576101008083540402835291602001916104a5565b820191905f5260205f20905b81548152906001019060200180831161048857829003601f168201915b505050505081526020019060010190610411565b5050505090509250925050915091565b5f803373ffffffffffffffffffffffffffffffffffffffff1673ffffffffffffffffffffffffffffffffffffffff1681526020019081526020015f206002015f9054906101000a900460ff161561054c576040517f9e4a65f600000000000000000000000000000000000000000000000000000000815260040160405180910390fd5b5f825103610586576040517f50ef328800000000000000000000000000000000000000000000000000000000815260040160405180910390fd5b5f8151036105c0576040517f99d6f6dc00000000000000000000000000000000000000000000000000000000815260040160405180910390fd5b6040518060600160405280838152602001828152602001600115158152505f803373ffffffffffffffffffffffffffffffffffffffff1673ffffffffffffffffffffffffffffffffffffffff1681526020019081526020015f205f820151815f01908161062d9190610ef2565b50602082015181600101908051906020019061064a9291906106c1565b506040820151816002015f6101000a81548160ff0219169083151502179055509050503373ffffffffffffffffffffffffffffffffffffffff167fa829c8622530f92e2b272cea9a11acaf81bbd6fb95ac0e5ec4af90790f7db6cb83836040516106b5929190610c24565b60405180910390a25050565b828054828255905f5260205f20908101928215610707579160200282015b828111156107065782518290816106f69190610ef2565b50916020019190600101906106df565b5b5090506107149190610718565b5090565b5b80821115610737575f818161072e919061073b565b50600101610719565b5090565b50805461074790610d1c565b5f825580601f106107585750610775565b601f0160209004905f5260205f20908101906107749190610778565b5b50565b5b8082111561078f575f815f905550600101610779565b5090565b5f604051905090565b5f80fd5b5f80fd5b5f73ffffffffffffffffffffffffffffffffffffffff82169050919050565b5f6107cd826107a4565b9050919050565b6107dd816107c3565b81146107e7575f80fd5b50565b5f813590506107f8816107d4565b92915050565b5f602082840312156108135761081261079c565b5b5f610820848285016107ea565b91505092915050565b5f8115159050919050565b61083d81610829565b82525050565b5f6020820190506108565f830184610834565b92915050565b5f80fd5b5f601f19601f8301169050919050565b7f4e487b71000000000000000000000000000000000000000000000000000000005f52604160045260245ffd5b6108a682610860565b810181811067ffffffffffffffff821117156108c5576108c4610870565b5b80604052505050565b5f6108d7610793565b90506108e3828261089d565b919050565b5f67ffffffffffffffff82111561090257610901610870565b5b602082029050602081019050919050565b5f80fd5b5f80fd5b5f67ffffffffffffffff82111561093557610934610870565b5b61093e82610860565b9050602081019050919050565b828183375f83830152505050565b5f61096b6109668461091b565b6108ce565b90508281526020810184848401111561098757610986610917565b5b61099284828561094b565b509392505050565b5f82601f8301126109ae576109ad61085c565b5b81356109be848260208601610959565b91505092915050565b5f6109d96109d4846108e8565b6108ce565b905080838252602082019050602084028301858111156109fc576109fb610913565b5b835b81811015610a4357803567ffffffffffffffff811115610a2157610a2061085c565b5b808601610a2e898261099a565b855260208501945050506020810190506109fe565b5050509392505050565b5f82601f830112610a6157610a6061085c565b5b8135610a718482602086016109c7565b91505092915050565b5f60208284031215610a8f57610a8e61079c565b5b5f82013567ffffffffffffffff811115610aac57610aab6107a0565b5b610ab884828501610a4d565b91505092915050565b5f81519050919050565b5f82825260208201905092915050565b8281835e5f83830152505050565b5f610af382610ac1565b610afd8185610acb565b9350610b0d818560208601610adb565b610b1681610860565b840191505092915050565b5f81519050919050565b5f82825260208201905092915050565b5f819050602082019050919050565b5f82825260208201905092915050565b5f610b6482610ac1565b610b6e8185610b4a565b9350610b7e818560208601610adb565b610b8781610860565b840191505092915050565b5f610b9d8383610b5a565b905092915050565b5f602082019050919050565b5f610bbb82610b21565b610bc58185610b2b565b935083602082028501610bd785610b3b565b805f5b85811015610c125784840389528151610bf38582610b92565b9450610bfe83610ba5565b925060208a01995050600181019050610bda565b50829750879550505050505092915050565b5f6040820190508181035f830152610c3c8185610ae9565b90508181036020830152610c508184610bb1565b90509392505050565b5f8060408385031215610c6f57610c6e61079c565b5b5f83013567ffffffffffffffff811115610c8c57610c8b6107a0565b5b610c988582860161099a565b925050602083013567ffffffffffffffff811115610cb957610cb86107a0565b5b610cc585828601610a4d565b9150509250929050565b5f6020820190508181035f830152610ce78184610bb1565b905092915050565b7f4e487b71000000000000000000000000000000000000000000000000000000005f52602260045260245ffd5b5f6002820490506001821680610d3357607f821691505b602082108103610d4657610d45610cef565b5b50919050565b5f819050815f5260205f209050919050565b5f6020601f8301049050919050565b5f82821b905092915050565b5f60088302610da87fffffffffffffffffffffffffffffffffffffffffffffffffffffffffffffffff82610d6d565b610db28683610d6d565b95508019841693508086168417925050509392505050565b5f819050919050565b5f819050919050565b5f610df6610df1610dec84610dca565b610dd3565b610dca565b9050919050565b5f819050919050565b610e0f83610ddc565b610e23610e1b82610dfd565b848454610d79565b825550505050565b5f90565b610e37610e2b565b610e42818484610e06565b505050565b5b81811015610e6557610e5a5f82610e2f565b600181019050610e48565b5050565b601f821115610eaa57610e7b81610d4c565b610e8484610d5e565b81016020851015610e93578190505b610ea7610e9f85610d5e565b830182610e47565b50505b505050565b5f82821c905092915050565b5f610eca5f1984600802610eaf565b1980831691505092915050565b5f610ee28383610ebb565b9150826002028217905092915050565b610efb82610ac1565b67ffffffffffffffff811115610f1457610f13610870565b5b610f1e8254610d1c565b610f29828285610e69565b5f60209050601f831160018114610f5a575f8415610f48578287015190505b610f528582610ed7565b865550610fb9565b601f198416610f6886610d4c565b5f5b82811015610f8f57848901518255600182019150602085019450602081019050610f6a565b86831015610fac5784890151610fa8601f891682610ebb565b8355505b6001600288020188555050505b50505050505056fea26469706673582212208ebd974b93bcbdd32d585ccd02a004ffe18ab9083ebc5895c6f092291fc356b064736f6c634300081a0033",
					"opcodes": "PUSH1 0x80 PUSH1 0x40 MSTORE CALLVALUE DUP1 ISZERO PUSH1 0xE JUMPI PUSH0 DUP1 REVERT JUMPDEST POP PUSH2 0xFF7 DUP1 PUSH2 0x1C PUSH0 CODECOPY PUSH0 RETURN INVALID PUSH1 0x80 PUSH1 0x40 MSTORE CALLVALUE DUP1 ISZERO PUSH2 0xF JUMPI PUSH0 DUP1 REVERT JUMPDEST POP PUSH1 0x4 CALLDATASIZE LT PUSH2 0x4A JUMPI PUSH0 CALLDATALOAD PUSH1 0xE0 SHR DUP1 PUSH4 0x163F7522 EQ PUSH2 0x4E JUMPI DUP1 PUSH4 0xA60C94CF EQ PUSH2 0x7E JUMPI DUP1 PUSH4 0xCC3D967B EQ PUSH2 0x9A JUMPI DUP1 PUSH4 0xEEE6EFD5 EQ PUSH2 0xCB JUMPI JUMPDEST PUSH0 DUP1 REVERT JUMPDEST PUSH2 0x68 PUSH1 0x4 DUP1 CALLDATASIZE SUB DUP2 ADD SWAP1 PUSH2 0x63 SWAP2 SWAP1 PUSH2 0x7FE JUMP JUMPDEST PUSH2 0xE7 JUMP JUMPDEST PUSH1 0x40 MLOAD PUSH2 0x75 SWAP2 SWAP1 PUSH2 0x843 JUMP JUMPDEST PUSH1 0x40 MLOAD DUP1 SWAP2 SUB SWAP1 RETURN JUMPDEST PUSH2 0x98 PUSH1 0x4 DUP1 CALLDATASIZE SUB DUP2 ADD SWAP1 PUSH2 0x93 SWAP2 SWAP1 PUSH2 0xA7A JUMP JUMPDEST PUSH2 0x13B JUMP JUMPDEST STOP JUMPDEST PUSH2 0xB4 PUSH1 0x4 DUP1 CALLDATASIZE SUB DUP2 ADD SWAP1 PUSH2 0xAF SWAP2 SWAP1 PUSH2 0x7FE JUMP JUMPDEST PUSH2 0x29C JUMP JUMPDEST PUSH1 0x40 MLOAD PUSH2 0xC2 SWAP3 SWAP2 SWAP1 PUSH2 0xC24 JUMP JUMPDEST PUSH1 0x40 MLOAD DUP1 SWAP2 SUB SWAP1 RETURN JUMPDEST PUSH2 0xE5 PUSH1 0x4 DUP1 CALLDATASIZE SUB DUP2 ADD SWAP1 PUSH2 0xE0 SWAP2 SWAP1 PUSH2 0xC59 JUMP JUMPDEST PUSH2 0x4C9 JUMP JUMPDEST STOP JUMPDEST PUSH0 DUP1 PUSH0 DUP4 PUSH20 0xFFFFFFFFFFFFFFFFFFFFFFFFFFFFFFFFFFFFFFFF AND PUSH20 0xFFFFFFFFFFFFFFFFFFFFFFFFFFFFFFFFFFFFFFFF AND DUP2 MSTORE PUSH1 0x20 ADD SWAP1 DUP2 MSTORE PUSH1 0x20 ADD PUSH0 KECCAK256 PUSH1 0x2 ADD PUSH0 SWAP1 SLOAD SWAP1 PUSH2 0x100 EXP SWAP1 DIV PUSH1 0xFF AND SWAP1 POP SWAP2 SWAP1 POP JUMP JUMPDEST PUSH0 DUP1 CALLER PUSH20 0xFFFFFFFFFFFFFFFFFFFFFFFFFFFFFFFFFFFFFFFF AND PUSH20 0xFFFFFFFFFFFFFFFFFFFFFFFFFFFFFFFFFFFFFFFF AND DUP2 MSTORE PUSH1 0x20 ADD SWAP1 DUP2 MSTORE PUSH1 0x20 ADD PUSH0 KECCAK256 PUSH1 0x2 ADD PUSH0 SWAP1 SLOAD SWAP1 PUSH2 0x100 EXP SWAP1 DIV PUSH1 0xFF AND PUSH2 0x1BD JUMPI PUSH1 0x40 MLOAD PUSH32 0x2163950F00000000000000000000000000000000000000000000000000000000 DUP2 MSTORE PUSH1 0x4 ADD PUSH1 0x40 MLOAD DUP1 SWAP2 SUB SWAP1 REVERT JUMPDEST PUSH0 DUP2 MLOAD SUB PUSH2 0x1F7 JUMPI PUSH1 0x40 MLOAD PUSH32 0x99D6F6DC00000000000000000000000000000000000000000000000000000000 DUP2 MSTORE PUSH1 0x4 ADD PUSH1 0x40 MLOAD DUP1 SWAP2 SUB SWAP1 REVERT JUMPDEST DUP1 PUSH0 DUP1 CALLER PUSH20 0xFFFFFFFFFFFFFFFFFFFFFFFFFFFFFFFFFFFFFFFF AND PUSH20 0xFFFFFFFFFFFFFFFFFFFFFFFFFFFFFFFFFFFFFFFF AND DUP2 MSTORE PUSH1 0x20 ADD SWAP1 DUP2 MSTORE PUSH1 0x20 ADD PUSH0 KECCAK256 PUSH1 0x1 ADD SWAP1 DUP1 MLOAD SWAP1 PUSH1 0x20 ADD SWAP1 PUSH2 0x24A SWAP3 SWAP2 SWAP1 PUSH2 0x6C1 JUMP JUMPDEST POP CALLER PUSH20 0xFFFFFFFFFFFFFFFFFFFFFFFFFFFFFFFFFFFFFFFF AND PUSH32 0x82836018D98E43D68F86CA5D3323435AE9E83D18B33EBFD1D579CD6002882247 DUP3 PUSH1 0x40 MLOAD PUSH2 0x291 SWAP2 SWAP1 PUSH2 0xCCF JUMP JUMPDEST PUSH1 0x40 MLOAD DUP1 SWAP2 SUB SWAP1 LOG2 POP JUMP JUMPDEST PUSH1 0x60 DUP1 PUSH0 DUP1 DUP5 PUSH20 0xFFFFFFFFFFFFFFFFFFFFFFFFFFFFFFFFFFFFFFFF AND PUSH20 0xFFFFFFFFFFFFFFFFFFFFFFFFFFFFFFFFFFFFFFFF AND DUP2 MSTORE PUSH1 0x20 ADD SWAP1 DUP2 MSTORE PUSH1 0x20 ADD PUSH0 KECCAK256 PUSH1 0x2 ADD PUSH0 SWAP1 SLOAD SWAP1 PUSH2 0x100 EXP SWAP1 DIV PUSH1 0xFF AND PUSH2 0x321 JUMPI PUSH1 0x40 MLOAD PUSH32 0x2163950F00000000000000000000000000000000000000000000000000000000 DUP2 MSTORE PUSH1 0x4 ADD PUSH1 0x40 MLOAD DUP1 SWAP2 SUB SWAP1 REVERT JUMPDEST PUSH0 DUP1 PUSH0 DUP6 PUSH20 0xFFFFFFFFFFFFFFFFFFFFFFFFFFFFFFFFFFFFFFFF AND PUSH20 0xFFFFFFFFFFFFFFFFFFFFFFFFFFFFFFFFFFFFFFFF AND DUP2 MSTORE PUSH1 0x20 ADD SWAP1 DUP2 MSTORE PUSH1 0x20 ADD PUSH0 KECCAK256 SWAP1 POP DUP1 PUSH0 ADD DUP2 PUSH1 0x1 ADD DUP2 DUP1 SLOAD PUSH2 0x373 SWAP1 PUSH2 0xD1C JUMP JUMPDEST DUP1 PUSH1 0x1F ADD PUSH1 0x20 DUP1 SWAP2 DIV MUL PUSH1 0x20 ADD PUSH1 0x40 MLOAD SWAP1 DUP2 ADD PUSH1 0x40 MSTORE DUP1 SWAP3 SWAP2 SWAP1 DUP2 DUP2 MSTORE PUSH1 0x20 ADD DUP3 DUP1 SLOAD PUSH2 0x39F SWAP1 PUSH2 0xD1C JUMP JUMPDEST DUP1 ISZERO PUSH2 0x3EA JUMPI DUP1 PUSH1 0x1F LT PUSH2 0x3C1 JUMPI PUSH2 0x100 DUP1 DUP4 SLOAD DIV MUL DUP4 MSTORE SWAP2 PUSH1 0x20 ADD SWAP2 PUSH2 0x3EA JUMP JUMPDEST DUP3 ADD SWAP2 SWAP1 PUSH0 MSTORE PUSH1 0x20 PUSH0 KECCAK256 SWAP1 JUMPDEST DUP2 SLOAD DUP2 MSTORE SWAP1 PUSH1 0x1 ADD SWAP1 PUSH1 0x20 ADD DUP1 DUP4 GT PUSH2 0x3CD JUMPI DUP3 SWAP1 SUB PUSH1 0x1F AND DUP3 ADD SWAP2 JUMPDEST POP POP POP POP POP SWAP2 POP DUP1 DUP1 SLOAD DUP1 PUSH1 0x20 MUL PUSH1 0x20 ADD PUSH1 0x40 MLOAD SWAP1 DUP2 ADD PUSH1 0x40 MSTORE DUP1 SWAP3 SWAP2 SWAP1 DUP2 DUP2 MSTORE PUSH1 0x20 ADD PUSH0 SWAP1 JUMPDEST DUP3 DUP3 LT ISZERO PUSH2 0x4B9 JUMPI DUP4 DUP3 SWAP1 PUSH0 MSTORE PUSH1 0x20 PUSH0 KECCAK256 ADD DUP1 SLOAD PUSH2 0x42E SWAP1 PUSH2 0xD1C JUMP JUMPDEST DUP1 PUSH1 0x1F ADD PUSH1 0x20 DUP1 SWAP2 DIV MUL PUSH1 0x20 ADD PUSH1 0x40 MLOAD SWAP1 DUP2 ADD PUSH1 0x40 MSTORE DUP1 SWAP3 SWAP2 SWAP1 DUP2 DUP2 MSTORE PUSH1 0x20 ADD DUP3 DUP1 SLOAD PUSH2 0x45A SWAP1 PUSH2 0xD1C JUMP JUMPDEST DUP1 ISZERO PUSH2 0x4A5 JUMPI DUP1 PUSH1 0x1F LT PUSH2 0x47C JUMPI PUSH2 0x100 DUP1 DUP4 SLOAD DIV MUL DUP4 MSTORE SWAP2 PUSH1 0x20 ADD SWAP2 PUSH2 0x4A5 JUMP JUMPDEST DUP3 ADD SWAP2 SWAP1 PUSH0 MSTORE PUSH1 0x20 PUSH0 KECCAK256 SWAP1 JUMPDEST DUP2 SLOAD DUP2 MSTORE SWAP1 PUSH1 0x1 ADD SWAP1 PUSH1 0x20 ADD DUP1 DUP4 GT PUSH2 0x488 JUMPI DUP3 SWAP1 SUB PUSH1 0x1F AND DUP3 ADD SWAP2 JUMPDEST POP POP POP POP POP DUP2 MSTORE PUSH1 0x20 ADD SWAP1 PUSH1 0x1 ADD SWAP1 PUSH2 0x411 JUMP JUMPDEST POP POP POP POP SWAP1 POP SWAP3 POP SWAP3 POP POP SWAP2 POP SWAP2 JUMP JUMPDEST PUSH0 DUP1 CALLER PUSH20 0xFFFFFFFFFFFFFFFFFFFFFFFFFFFFFFFFFFFFFFFF AND PUSH20 0xFFFFFFFFFFFFFFFFFFFFFFFFFFFFFFFFFFFFFFFF AND DUP2 MSTORE PUSH1 0x20 ADD SWAP1 DUP2 MSTORE PUSH1 0x20 ADD PUSH0 KECCAK256 PUSH1 0x2 ADD PUSH0 SWAP1 SLOAD SWAP1 PUSH2 0x100 EXP SWAP1 DIV PUSH1 0xFF AND ISZERO PUSH2 0x54C JUMPI PUSH1 0x40 MLOAD PUSH32 0x9E4A65F600000000000000000000000000000000000000000000000000000000 DUP2 MSTORE PUSH1 0x4 ADD PUSH1 0x40 MLOAD DUP1 SWAP2 SUB SWAP1 REVERT JUMPDEST PUSH0 DUP3 MLOAD SUB PUSH2 0x586 JUMPI PUSH1 0x40 MLOAD PUSH32 0x50EF328800000000000000000000000000000000000000000000000000000000 DUP2 MSTORE PUSH1 0x4 ADD PUSH1 0x40 MLOAD DUP1 SWAP2 SUB SWAP1 REVERT JUMPDEST PUSH0 DUP2 MLOAD SUB PUSH2 0x5C0 JUMPI PUSH1 0x40 MLOAD PUSH32 0x99D6F6DC00000000000000000000000000000000000000000000000000000000 DUP2 MSTORE PUSH1 0x4 ADD PUSH1 0x40 MLOAD DUP1 SWAP2 SUB SWAP1 REVERT JUMPDEST PUSH1 0x40 MLOAD DUP1 PUSH1 0x60 ADD PUSH1 0x40 MSTORE DUP1 DUP4 DUP2 MSTORE PUSH1 0x20 ADD DUP3 DUP2 MSTORE PUSH1 0x20 ADD PUSH1 0x1 ISZERO ISZERO DUP2 MSTORE POP PUSH0 DUP1 CALLER PUSH20 0xFFFFFFFFFFFFFFFFFFFFFFFFFFFFFFFFFFFFFFFF AND PUSH20 0xFFFFFFFFFFFFFFFFFFFFFFFFFFFFFFFFFFFFFFFF AND DUP2 MSTORE PUSH1 0x20 ADD SWAP1 DUP2 MSTORE PUSH1 0x20 ADD PUSH0 KECCAK256 PUSH0 DUP3 ADD MLOAD DUP2 PUSH0 ADD SWAP1 DUP2 PUSH2 0x62D SWAP2 SWAP1 PUSH2 0xEF2 JUMP JUMPDEST POP PUSH1 0x20 DUP3 ADD MLOAD DUP2 PUSH1 0x1 ADD SWAP1 DUP1 MLOAD SWAP1 PUSH1 0x20 ADD SWAP1 PUSH2 0x64A SWAP3 SWAP2 SWAP1 PUSH2 0x6C1 JUMP JUMPDEST POP PUSH1 0x40 DUP3 ADD MLOAD DUP2 PUSH1 0x2 ADD PUSH0 PUSH2 0x100 EXP DUP2 SLOAD DUP2 PUSH1 0xFF MUL NOT AND SWAP1 DUP4 ISZERO ISZERO MUL OR SWAP1 SSTORE POP SWAP1 POP POP CALLER PUSH20 0xFFFFFFFFFFFFFFFFFFFFFFFFFFFFFFFFFFFFFFFF AND PUSH32 0xA829C8622530F92E2B272CEA9A11ACAF81BBD6FB95AC0E5EC4AF90790F7DB6CB DUP4 DUP4 PUSH1 0x40 MLOAD PUSH2 0x6B5 SWAP3 SWAP2 SWAP1 PUSH2 0xC24 JUMP JUMPDEST PUSH1 0x40 MLOAD DUP1 SWAP2 SUB SWAP1 LOG2 POP POP JUMP JUMPDEST DUP3 DUP1 SLOAD DUP3 DUP3 SSTORE SWAP1 PUSH0 MSTORE PUSH1 0x20 PUSH0 KECCAK256 SWAP1 DUP2 ADD SWAP3 DUP3 ISZERO PUSH2 0x707 JUMPI SWAP2 PUSH1 0x20 MUL DUP3 ADD JUMPDEST DUP3 DUP2 GT ISZERO PUSH2 0x706 JUMPI DUP3 MLOAD DUP3 SWAP1 DUP2 PUSH2 0x6F6 SWAP2 SWAP1 PUSH2 0xEF2 JUMP JUMPDEST POP SWAP2 PUSH1 0x20 ADD SWAP2 SWAP1 PUSH1 0x1 ADD SWAP1 PUSH2 0x6DF JUMP JUMPDEST JUMPDEST POP SWAP1 POP PUSH2 0x714 SWAP2 SWAP1 PUSH2 0x718 JUMP JUMPDEST POP SWAP1 JUMP JUMPDEST JUMPDEST DUP1 DUP3 GT ISZERO PUSH2 0x737 JUMPI PUSH0 DUP2 DUP2 PUSH2 0x72E SWAP2 SWAP1 PUSH2 0x73B JUMP JUMPDEST POP PUSH1 0x1 ADD PUSH2 0x719 JUMP JUMPDEST POP SWAP1 JUMP JUMPDEST POP DUP1 SLOAD PUSH2 0x747 SWAP1 PUSH2 0xD1C JUMP JUMPDEST PUSH0 DUP3 SSTORE DUP1 PUSH1 0x1F LT PUSH2 0x758 JUMPI POP PUSH2 0x775 JUMP JUMPDEST PUSH1 0x1F ADD PUSH1 0x20 SWAP1 DIV SWAP1 PUSH0 MSTORE PUSH1 0x20 PUSH0 KECCAK256 SWAP1 DUP2 ADD SWAP1 PUSH2 0x774 SWAP2 SWAP1 PUSH2 0x778 JUMP JUMPDEST JUMPDEST POP JUMP JUMPDEST JUMPDEST DUP1 DUP3 GT ISZERO PUSH2 0x78F JUMPI PUSH0 DUP2 PUSH0 SWAP1 SSTORE POP PUSH1 0x1 ADD PUSH2 0x779 JUMP JUMPDEST POP SWAP1 JUMP JUMPDEST PUSH0 PUSH1 0x40 MLOAD SWAP1 POP SWAP1 JUMP JUMPDEST PUSH0 DUP1 REVERT JUMPDEST PUSH0 DUP1 REVERT JUMPDEST PUSH0 PUSH20 0xFFFFFFFFFFFFFFFFFFFFFFFFFFFFFFFFFFFFFFFF DUP3 AND SWAP1 POP SWAP2 SWAP1 POP JUMP JUMPDEST PUSH0 PUSH2 0x7CD DUP3 PUSH2 0x7A4 JUMP JUMPDEST SWAP1 POP SWAP2 SWAP1 POP JUMP JUMPDEST PUSH2 0x7DD DUP2 PUSH2 0x7C3 JUMP JUMPDEST DUP2 EQ PUSH2 0x7E7 JUMPI PUSH0 DUP1 REVERT JUMPDEST POP JUMP JUMPDEST PUSH0 DUP2 CALLDATALOAD SWAP1 POP PUSH2 0x7F8 DUP2 PUSH2 0x7D4 JUMP JUMPDEST SWAP3 SWAP2 POP POP JUMP JUMPDEST PUSH0 PUSH1 0x20 DUP3 DUP5 SUB SLT ISZERO PUSH2 0x813 JUMPI PUSH2 0x812 PUSH2 0x79C JUMP JUMPDEST JUMPDEST PUSH0 PUSH2 0x820 DUP5 DUP3 DUP6 ADD PUSH2 0x7EA JUMP JUMPDEST SWAP2 POP POP SWAP3 SWAP2 POP POP JUMP JUMPDEST PUSH0 DUP2 ISZERO ISZERO SWAP1 POP SWAP2 SWAP1 POP JUMP JUMPDEST PUSH2 0x83D DUP2 PUSH2 0x829 JUMP JUMPDEST DUP3 MSTORE POP POP JUMP JUMPDEST PUSH0 PUSH1 0x20 DUP3 ADD SWAP1 POP PUSH2 0x856 PUSH0 DUP4 ADD DUP5 PUSH2 0x834 JUMP JUMPDEST SWAP3 SWAP2 POP POP JUMP JUMPDEST PUSH0 DUP1 REVERT JUMPDEST PUSH0 PUSH1 0x1F NOT PUSH1 0x1F DUP4 ADD AND SWAP1 POP SWAP2 SWAP1 POP JUMP JUMPDEST PUSH32 0x4E487B7100000000000000000000000000000000000000000000000000000000 PUSH0 MSTORE PUSH1 0x41 PUSH1 0x4 MSTORE PUSH1 0x24 PUSH0 REVERT JUMPDEST PUSH2 0x8A6 DUP3 PUSH2 0x860 JUMP JUMPDEST DUP2 ADD DUP2 DUP2 LT PUSH8 0xFFFFFFFFFFFFFFFF DUP3 GT OR ISZERO PUSH2 0x8C5 JUMPI PUSH2 0x8C4 PUSH2 0x870 JUMP JUMPDEST JUMPDEST DUP1 PUSH1 0x40 MSTORE POP POP POP JUMP JUMPDEST PUSH0 PUSH2 0x8D7 PUSH2 0x793 JUMP JUMPDEST SWAP1 POP PUSH2 0x8E3 DUP3 DUP3 PUSH2 0x89D JUMP JUMPDEST SWAP2 SWAP1 POP JUMP JUMPDEST PUSH0 PUSH8 0xFFFFFFFFFFFFFFFF DUP3 GT ISZERO PUSH2 0x902 JUMPI PUSH2 0x901 PUSH2 0x870 JUMP JUMPDEST JUMPDEST PUSH1 0x20 DUP3 MUL SWAP1 POP PUSH1 0x20 DUP2 ADD SWAP1 POP SWAP2 SWAP1 POP JUMP JUMPDEST PUSH0 DUP1 REVERT JUMPDEST PUSH0 DUP1 REVERT JUMPDEST PUSH0 PUSH8 0xFFFFFFFFFFFFFFFF DUP3 GT ISZERO PUSH2 0x935 JUMPI PUSH2 0x934 PUSH2 0x870 JUMP JUMPDEST JUMPDEST PUSH2 0x93E DUP3 PUSH2 0x860 JUMP JUMPDEST SWAP1 POP PUSH1 0x20 DUP2 ADD SWAP1 POP SWAP2 SWAP1 POP JUMP JUMPDEST DUP3 DUP2 DUP4 CALLDATACOPY PUSH0 DUP4 DUP4 ADD MSTORE POP POP POP JUMP JUMPDEST PUSH0 PUSH2 0x96B PUSH2 0x966 DUP5 PUSH2 0x91B JUMP JUMPDEST PUSH2 0x8CE JUMP JUMPDEST SWAP1 POP DUP3 DUP2 MSTORE PUSH1 0x20 DUP2 ADD DUP5 DUP5 DUP5 ADD GT ISZERO PUSH2 0x987 JUMPI PUSH2 0x986 PUSH2 0x917 JUMP JUMPDEST JUMPDEST PUSH2 0x992 DUP5 DUP3 DUP6 PUSH2 0x94B JUMP JUMPDEST POP SWAP4 SWAP3 POP POP POP JUMP JUMPDEST PUSH0 DUP3 PUSH1 0x1F DUP4 ADD SLT PUSH2 0x9AE JUMPI PUSH2 0x9AD PUSH2 0x85C JUMP JUMPDEST JUMPDEST DUP2 CALLDATALOAD PUSH2 0x9BE DUP5 DUP3 PUSH1 0x20 DUP7 ADD PUSH2 0x959 JUMP JUMPDEST SWAP2 POP POP SWAP3 SWAP2 POP POP JUMP JUMPDEST PUSH0 PUSH2 0x9D9 PUSH2 0x9D4 DUP5 PUSH2 0x8E8 JUMP JUMPDEST PUSH2 0x8CE JUMP JUMPDEST SWAP1 POP DUP1 DUP4 DUP3 MSTORE PUSH1 0x20 DUP3 ADD SWAP1 POP PUSH1 0x20 DUP5 MUL DUP4 ADD DUP6 DUP2 GT ISZERO PUSH2 0x9FC JUMPI PUSH2 0x9FB PUSH2 0x913 JUMP JUMPDEST JUMPDEST DUP4 JUMPDEST DUP2 DUP2 LT ISZERO PUSH2 0xA43 JUMPI DUP1 CALLDATALOAD PUSH8 0xFFFFFFFFFFFFFFFF DUP2 GT ISZERO PUSH2 0xA21 JUMPI PUSH2 0xA20 PUSH2 0x85C JUMP JUMPDEST JUMPDEST DUP1 DUP7 ADD PUSH2 0xA2E DUP10 DUP3 PUSH2 0x99A JUMP JUMPDEST DUP6 MSTORE PUSH1 0x20 DUP6 ADD SWAP5 POP POP POP PUSH1 0x20 DUP2 ADD SWAP1 POP PUSH2 0x9FE JUMP JUMPDEST POP POP POP SWAP4 SWAP3 POP POP POP JUMP JUMPDEST PUSH0 DUP3 PUSH1 0x1F DUP4 ADD SLT PUSH2 0xA61 JUMPI PUSH2 0xA60 PUSH2 0x85C JUMP JUMPDEST JUMPDEST DUP2 CALLDATALOAD PUSH2 0xA71 DUP5 DUP3 PUSH1 0x20 DUP7 ADD PUSH2 0x9C7 JUMP JUMPDEST SWAP2 POP POP SWAP3 SWAP2 POP POP JUMP JUMPDEST PUSH0 PUSH1 0x20 DUP3 DUP5 SUB SLT ISZERO PUSH2 0xA8F JUMPI PUSH2 0xA8E PUSH2 0x79C JUMP JUMPDEST JUMPDEST PUSH0 DUP3 ADD CALLDATALOAD PUSH8 0xFFFFFFFFFFFFFFFF DUP2 GT ISZERO PUSH2 0xAAC JUMPI PUSH2 0xAAB PUSH2 0x7A0 JUMP JUMPDEST JUMPDEST PUSH2 0xAB8 DUP5 DUP3 DUP6 ADD PUSH2 0xA4D JUMP JUMPDEST SWAP2 POP POP SWAP3 SWAP2 POP POP JUMP JUMPDEST PUSH0 DUP2 MLOAD SWAP1 POP SWAP2 SWAP1 POP JUMP JUMPDEST PUSH0 DUP3 DUP3 MSTORE PUSH1 0x20 DUP3 ADD SWAP1 POP SWAP3 SWAP2 POP POP JUMP JUMPDEST DUP3 DUP2 DUP4 MCOPY PUSH0 DUP4 DUP4 ADD MSTORE POP POP POP JUMP JUMPDEST PUSH0 PUSH2 0xAF3 DUP3 PUSH2 0xAC1 JUMP JUMPDEST PUSH2 0xAFD DUP2 DUP6 PUSH2 0xACB JUMP JUMPDEST SWAP4 POP PUSH2 0xB0D DUP2 DUP6 PUSH1 0x20 DUP7 ADD PUSH2 0xADB JUMP JUMPDEST PUSH2 0xB16 DUP2 PUSH2 0x860 JUMP JUMPDEST DUP5 ADD SWAP2 POP POP SWAP3 SWAP2 POP POP JUMP JUMPDEST PUSH0 DUP2 MLOAD SWAP1 POP SWAP2 SWAP1 POP JUMP JUMPDEST PUSH0 DUP3 DUP3 MSTORE PUSH1 0x20 DUP3 ADD SWAP1 POP SWAP3 SWAP2 POP POP JUMP JUMPDEST PUSH0 DUP2 SWAP1 POP PUSH1 0x20 DUP3 ADD SWAP1 POP SWAP2 SWAP1 POP JUMP JUMPDEST PUSH0 DUP3 DUP3 MSTORE PUSH1 0x20 DUP3 ADD SWAP1 POP SWAP3 SWAP2 POP POP JUMP JUMPDEST PUSH0 PUSH2 0xB64 DUP3 PUSH2 0xAC1 JUMP JUMPDEST PUSH2 0xB6E DUP2 DUP6 PUSH2 0xB4A JUMP JUMPDEST SWAP4 POP PUSH2 0xB7E DUP2 DUP6 PUSH1 0x20 DUP7 ADD PUSH2 0xADB JUMP JUMPDEST PUSH2 0xB87 DUP2 PUSH2 0x860 JUMP JUMPDEST DUP5 ADD SWAP2 POP POP SWAP3 SWAP2 POP POP JUMP JUMPDEST PUSH0 PUSH2 0xB9D DUP4 DUP4 PUSH2 0xB5A JUMP JUMPDEST SWAP1 POP SWAP3 SWAP2 POP POP JUMP JUMPDEST PUSH0 PUSH1 0x20 DUP3 ADD SWAP1 POP SWAP2 SWAP1 POP JUMP JUMPDEST PUSH0 PUSH2 0xBBB DUP3 PUSH2 0xB21 JUMP JUMPDEST PUSH2 0xBC5 DUP2 DUP6 PUSH2 0xB2B JUMP JUMPDEST SWAP4 POP DUP4 PUSH1 0x20 DUP3 MUL DUP6 ADD PUSH2 0xBD7 DUP6 PUSH2 0xB3B JUMP JUMPDEST DUP1 PUSH0 JUMPDEST DUP6 DUP2 LT ISZERO PUSH2 0xC12 JUMPI DUP5 DUP5 SUB DUP10 MSTORE DUP2 MLOAD PUSH2 0xBF3 DUP6 DUP3 PUSH2 0xB92 JUMP JUMPDEST SWAP5 POP PUSH2 0xBFE DUP4 PUSH2 0xBA5 JUMP JUMPDEST SWAP3 POP PUSH1 0x20 DUP11 ADD SWAP10 POP POP PUSH1 0x1 DUP2 ADD SWAP1 POP PUSH2 0xBDA JUMP JUMPDEST POP DUP3 SWAP8 POP DUP8 SWAP6 POP POP POP POP POP POP SWAP3 SWAP2 POP POP JUMP JUMPDEST PUSH0 PUSH1 0x40 DUP3 ADD SWAP1 POP DUP2 DUP2 SUB PUSH0 DUP4 ADD MSTORE PUSH2 0xC3C DUP2 DUP6 PUSH2 0xAE9 JUMP JUMPDEST SWAP1 POP DUP2 DUP2 SUB PUSH1 0x20 DUP4 ADD MSTORE PUSH2 0xC50 DUP2 DUP5 PUSH2 0xBB1 JUMP JUMPDEST SWAP1 POP SWAP4 SWAP3 POP POP POP JUMP JUMPDEST PUSH0 DUP1 PUSH1 0x40 DUP4 DUP6 SUB SLT ISZERO PUSH2 0xC6F JUMPI PUSH2 0xC6E PUSH2 0x79C JUMP JUMPDEST JUMPDEST PUSH0 DUP4 ADD CALLDATALOAD PUSH8 0xFFFFFFFFFFFFFFFF DUP2 GT ISZERO PUSH2 0xC8C JUMPI PUSH2 0xC8B PUSH2 0x7A0 JUMP JUMPDEST JUMPDEST PUSH2 0xC98 DUP6 DUP3 DUP7 ADD PUSH2 0x99A JUMP JUMPDEST SWAP3 POP POP PUSH1 0x20 DUP4 ADD CALLDATALOAD PUSH8 0xFFFFFFFFFFFFFFFF DUP2 GT ISZERO PUSH2 0xCB9 JUMPI PUSH2 0xCB8 PUSH2 0x7A0 JUMP JUMPDEST JUMPDEST PUSH2 0xCC5 DUP6 DUP3 DUP7 ADD PUSH2 0xA4D JUMP JUMPDEST SWAP2 POP POP SWAP3 POP SWAP3 SWAP1 POP JUMP JUMPDEST PUSH0 PUSH1 0x20 DUP3 ADD SWAP1 POP DUP2 DUP2 SUB PUSH0 DUP4 ADD MSTORE PUSH2 0xCE7 DUP2 DUP5 PUSH2 0xBB1 JUMP JUMPDEST SWAP1 POP SWAP3 SWAP2 POP POP JUMP JUMPDEST PUSH32 0x4E487B7100000000000000000000000000000000000000000000000000000000 PUSH0 MSTORE PUSH1 0x22 PUSH1 0x4 MSTORE PUSH1 0x24 PUSH0 REVERT JUMPDEST PUSH0 PUSH1 0x2 DUP3 DIV SWAP1 POP PUSH1 0x1 DUP3 AND DUP1 PUSH2 0xD33 JUMPI PUSH1 0x7F DUP3 AND SWAP2 POP JUMPDEST PUSH1 0x20 DUP3 LT DUP2 SUB PUSH2 0xD46 JUMPI PUSH2 0xD45 PUSH2 0xCEF JUMP JUMPDEST JUMPDEST POP SWAP2 SWAP1 POP JUMP JUMPDEST PUSH0 DUP2 SWAP1 POP DUP2 PUSH0 MSTORE PUSH1 0x20 PUSH0 KECCAK256 SWAP1 POP SWAP2 SWAP1 POP JUMP JUMPDEST PUSH0 PUSH1 0x20 PUSH1 0x1F DUP4 ADD DIV SWAP1 POP SWAP2 SWAP1 POP JUMP JUMPDEST PUSH0 DUP3 DUP3 SHL SWAP1 POP SWAP3 SWAP2 POP POP JUMP JUMPDEST PUSH0 PUSH1 0x8 DUP4 MUL PUSH2 0xDA8 PUSH32 0xFFFFFFFFFFFFFFFFFFFFFFFFFFFFFFFFFFFFFFFFFFFFFFFFFFFFFFFFFFFFFFFF DUP3 PUSH2 0xD6D JUMP JUMPDEST PUSH2 0xDB2 DUP7 DUP4 PUSH2 0xD6D JUMP JUMPDEST SWAP6 POP DUP1 NOT DUP5 AND SWAP4 POP DUP1 DUP7 AND DUP5 OR SWAP3 POP POP POP SWAP4 SWAP3 POP POP POP JUMP JUMPDEST PUSH0 DUP2 SWAP1 POP SWAP2 SWAP1 POP JUMP JUMPDEST PUSH0 DUP2 SWAP1 POP SWAP2 SWAP1 POP JUMP JUMPDEST PUSH0 PUSH2 0xDF6 PUSH2 0xDF1 PUSH2 0xDEC DUP5 PUSH2 0xDCA JUMP JUMPDEST PUSH2 0xDD3 JUMP JUMPDEST PUSH2 0xDCA JUMP JUMPDEST SWAP1 POP SWAP2 SWAP1 POP JUMP JUMPDEST PUSH0 DUP2 SWAP1 POP SWAP2 SWAP1 POP JUMP JUMPDEST PUSH2 0xE0F DUP4 PUSH2 0xDDC JUMP JUMPDEST PUSH2 0xE23 PUSH2 0xE1B DUP3 PUSH2 0xDFD JUMP JUMPDEST DUP5 DUP5 SLOAD PUSH2 0xD79 JUMP JUMPDEST DUP3 SSTORE POP POP POP POP JUMP JUMPDEST PUSH0 SWAP1 JUMP JUMPDEST PUSH2 0xE37 PUSH2 0xE2B JUMP JUMPDEST PUSH2 0xE42 DUP2 DUP5 DUP5 PUSH2 0xE06 JUMP JUMPDEST POP POP POP JUMP JUMPDEST JUMPDEST DUP2 DUP2 LT ISZERO PUSH2 0xE65 JUMPI PUSH2 0xE5A PUSH0 DUP3 PUSH2 0xE2F JUMP JUMPDEST PUSH1 0x1 DUP2 ADD SWAP1 POP PUSH2 0xE48 JUMP JUMPDEST POP POP JUMP JUMPDEST PUSH1 0x1F DUP3 GT ISZERO PUSH2 0xEAA JUMPI PUSH2 0xE7B DUP2 PUSH2 0xD4C JUMP JUMPDEST PUSH2 0xE84 DUP5 PUSH2 0xD5E JUMP JUMPDEST DUP2 ADD PUSH1 0x20 DUP6 LT ISZERO PUSH2 0xE93 JUMPI DUP2 SWAP1 POP JUMPDEST PUSH2 0xEA7 PUSH2 0xE9F DUP6 PUSH2 0xD5E JUMP JUMPDEST DUP4 ADD DUP3 PUSH2 0xE47 JUMP JUMPDEST POP POP JUMPDEST POP POP POP JUMP JUMPDEST PUSH0 DUP3 DUP3 SHR SWAP1 POP SWAP3 SWAP2 POP POP JUMP JUMPDEST PUSH0 PUSH2 0xECA PUSH0 NOT DUP5 PUSH1 0x8 MUL PUSH2 0xEAF JUMP JUMPDEST NOT DUP1 DUP4 AND SWAP2 POP POP SWAP3 SWAP2 POP POP JUMP JUMPDEST PUSH0 PUSH2 0xEE2 DUP4 DUP4 PUSH2 0xEBB JUMP JUMPDEST SWAP2 POP DUP3 PUSH1 0x2 MUL DUP3 OR SWAP1 POP SWAP3 SWAP2 POP POP JUMP JUMPDEST PUSH2 0xEFB DUP3 PUSH2 0xAC1 JUMP JUMPDEST PUSH8 0xFFFFFFFFFFFFFFFF DUP2 GT ISZERO PUSH2 0xF14 JUMPI PUSH2 0xF13 PUSH2 0x870 JUMP JUMPDEST JUMPDEST PUSH2 0xF1E DUP3 SLOAD PUSH2 0xD1C JUMP JUMPDEST PUSH2 0xF29 DUP3 DUP3 DUP6 PUSH2 0xE69 JUMP JUMPDEST PUSH0 PUSH1 0x20 SWAP1 POP PUSH1 0x1F DUP4 GT PUSH1 0x1 DUP2 EQ PUSH2 0xF5A JUMPI PUSH0 DUP5 ISZERO PUSH2 0xF48 JUMPI DUP3 DUP8 ADD MLOAD SWAP1 POP JUMPDEST PUSH2 0xF52 DUP6 DUP3 PUSH2 0xED7 JUMP JUMPDEST DUP7 SSTORE POP PUSH2 0xFB9 JUMP JUMPDEST PUSH1 0x1F NOT DUP5 AND PUSH2 0xF68 DUP7 PUSH2 0xD4C JUMP JUMPDEST PUSH0 JUMPDEST DUP3 DUP2 LT ISZERO PUSH2 0xF8F JUMPI DUP5 DUP10 ADD MLOAD DUP3 SSTORE PUSH1 0x1 DUP3 ADD SWAP2 POP PUSH1 0x20 DUP6 ADD SWAP5 POP PUSH1 0x20 DUP2 ADD SWAP1 POP PUSH2 0xF6A JUMP JUMPDEST DUP7 DUP4 LT ISZERO PUSH2 0xFAC JUMPI DUP5 DUP10 ADD MLOAD PUSH2 0xFA8 PUSH1 0x1F DUP10 AND DUP3 PUSH2 0xEBB JUMP JUMPDEST DUP4 SSTORE POP JUMPDEST PUSH1 0x1 PUSH1 0x2 DUP9 MUL ADD DUP9 SSTORE POP POP POP JUMPDEST POP POP POP POP POP POP JUMP INVALID LOG2 PUSH5 0x6970667358 0x22 SLT KECCAK256 DUP15 0xBD SWAP8 0x4B SWAP4 0xBC 0xBD 0xD3 0x2D PC TLOAD 0xCD MUL LOG0 DIV SELFDESTRUCT 0xE1 DUP11 0xB9 ADDMOD RETURNDATACOPY 0xBC PC SWAP6 0xC6 CREATE SWAP3 0x29 0x1F 0xC3 JUMP 0xB0 PUSH5 0x736F6C6343 STOP ADDMOD BYTE STOP CALLER "
				},
				"gasEstimates": {
					"creation": {
						"codeDepositCost": "817400",
						"executionCost": "849",
						"totalCost": "818249"
					},
					"external": {
						"getUserDetails(address)": "infinite",
						"isUserRegistered(address)": "2854",
						"registerUser(string,string[])": "infinite",
						"updateInterests(string[])": "infinite"
					}
				},
				"methodIdentifiers": {
					"getUserDetails(address)": "cc3d967b",
					"isUserRegistered(address)": "163f7522",
					"registerUser(string,string[])": "eee6efd5",
					"updateInterests(string[])": "a60c94cf"
				}
			},
			"storageLayout": {
				"storage": [
					{
						"astId": 17,
						"contract": "FINAL_YEAR_PROJECT_WORK/UserRegistration.sol:UserManager",
						"label": "users",
						"offset": 0,
						"slot": "0",
						"type": "t_mapping(t_address,t_struct(User)11_storage)"
					}
				],
				"types": {
					"t_address": {
						"encoding": "inplace",
						"label": "address",
						"numberOfBytes": "20"
					},
					"t_array(t_string_storage)dyn_storage": {
						"base": "t_string_storage",
						"encoding": "dynamic_array",
						"label": "string[]",
						"numberOfBytes": "32"
					},
					"t_bool": {
						"encoding": "inplace",
						"label": "bool",
						"numberOfBytes": "1"
					},
					"t_mapping(t_address,t_struct(User)11_storage)": {
						"encoding": "mapping",
						"key": "t_address",
						"label": "mapping(address => struct UserManager.User)",
						"numberOfBytes": "32",
						"value": "t_struct(User)11_storage"
					},
					"t_string_storage": {
						"encoding": "bytes",
						"label": "string",
						"numberOfBytes": "32"
					},
					"t_struct(User)11_storage": {
						"encoding": "inplace",
						"label": "struct UserManager.User",
						"members": [
							{
								"astId": 5,
								"contract": "FINAL_YEAR_PROJECT_WORK/UserRegistration.sol:UserManager",
								"label": "username",
								"offset": 0,
								"slot": "0",
								"type": "t_string_storage"
							},
							{
								"astId": 8,
								"contract": "FINAL_YEAR_PROJECT_WORK/UserRegistration.sol:UserManager",
								"label": "interests",
								"offset": 0,
								"slot": "1",
								"type": "t_array(t_string_storage)dyn_storage"
							},
							{
								"astId": 10,
								"contract": "FINAL_YEAR_PROJECT_WORK/UserRegistration.sol:UserManager",
								"label": "isRegistered",
								"offset": 0,
								"slot": "2",
								"type": "t_bool"
							}
						],
						"numberOfBytes": "96"
					}
				}
			},
			"userdoc": {
				"events": {
					"InterestsUpdated(address,string[])": {
						"notice": "Event emitted when a user updates their interests"
					},
					"UserRegistered(address,string,string[])": {
						"notice": "Event emitted when a user successfully registers"
					}
				},
				"kind": "user",
				"methods": {
					"getUserDetails(address)": {
						"notice": "Fetches user details (public view function)"
					},
					"isUserRegistered(address)": {
						"notice": "Checks if a user is registered"
					},
					"registerUser(string,string[])": {
						"notice": "Allows a new user to register with a username and interests"
					},
					"updateInterests(string[])": {
						"notice": "Allows an already registered user to update their interests"
					}
				},
				"notice": "This contract allows users to register and store their interests for AI-based content recommendations.",
				"version": 1
			}
		}
	}
}